{
  "contractName": "Funds",
  "abi": [
    {
      "constant": true,
      "inputs": [
        {
          "name": "",
          "type": "address"
        }
      ],
      "name": "secretHashIndex",
      "outputs": [
        {
          "name": "",
          "type": "uint256"
        }
      ],
      "payable": false,
      "stateMutability": "view",
      "type": "function"
    },
    {
      "constant": true,
      "inputs": [],
      "name": "maxUtilizationDelta",
      "outputs": [
        {
          "name": "",
          "type": "uint256"
        }
      ],
      "payable": false,
      "stateMutability": "view",
      "type": "function"
    },
    {
      "constant": true,
      "inputs": [],
      "name": "defaultArbiterFee",
      "outputs": [
        {
          "name": "",
          "type": "uint256"
        }
      ],
      "payable": false,
      "stateMutability": "view",
      "type": "function"
    },
    {
      "constant": true,
      "inputs": [],
      "name": "cTokenMarketLiquidity",
      "outputs": [
        {
          "name": "",
          "type": "uint256"
        }
      ],
      "payable": false,
      "stateMutability": "view",
      "type": "function"
    },
    {
      "constant": true,
      "inputs": [],
      "name": "DEFAULT_LIQUIDATION_RATIO",
      "outputs": [
        {
          "name": "",
          "type": "uint256"
        }
      ],
      "payable": false,
      "stateMutability": "view",
      "type": "function"
    },
    {
      "constant": true,
      "inputs": [],
      "name": "globalInterestRateNumerator",
      "outputs": [
        {
          "name": "",
          "type": "uint256"
        }
      ],
      "payable": false,
      "stateMutability": "view",
      "type": "function"
    },
    {
      "constant": true,
      "inputs": [
        {
          "name": "",
          "type": "address"
        }
      ],
      "name": "fundOwner",
      "outputs": [
        {
          "name": "",
          "type": "bytes32"
        }
      ],
      "payable": false,
      "stateMutability": "view",
      "type": "function"
    },
    {
      "constant": true,
      "inputs": [],
      "name": "lastGlobalInterestUpdated",
      "outputs": [
        {
          "name": "",
          "type": "uint256"
        }
      ],
      "payable": false,
      "stateMutability": "view",
      "type": "function"
    },
    {
      "constant": true,
      "inputs": [],
      "name": "decimals",
      "outputs": [
        {
          "name": "",
          "type": "uint256"
        }
      ],
      "payable": false,
      "stateMutability": "view",
      "type": "function"
    },
    {
      "constant": true,
      "inputs": [],
      "name": "DEFAULT_MIN_LOAN_AMT",
      "outputs": [
        {
          "name": "",
          "type": "uint256"
        }
      ],
      "payable": false,
      "stateMutability": "view",
      "type": "function"
    },
    {
      "constant": true,
      "inputs": [],
      "name": "getComptrollerAddress",
      "outputs": [
        {
          "name": "",
          "type": "address"
        }
      ],
      "payable": false,
      "stateMutability": "view",
      "type": "function"
    },
    {
      "constant": true,
      "inputs": [],
      "name": "utilizationInterestDivisor",
      "outputs": [
        {
          "name": "",
          "type": "uint256"
        }
      ],
      "payable": false,
      "stateMutability": "view",
      "type": "function"
    },
    {
      "constant": true,
      "inputs": [
        {
          "name": "",
          "type": "address"
        },
        {
          "name": "",
          "type": "uint256"
        }
      ],
      "name": "secretHashes",
      "outputs": [
        {
          "name": "",
          "type": "bytes32"
        }
      ],
      "payable": false,
      "stateMutability": "view",
      "type": "function"
    },
    {
      "constant": true,
      "inputs": [],
      "name": "globalInterestRate",
      "outputs": [
        {
          "name": "",
          "type": "uint256"
        }
      ],
      "payable": false,
      "stateMutability": "view",
      "type": "function"
    },
    {
      "constant": true,
      "inputs": [],
      "name": "comptroller",
      "outputs": [
        {
          "name": "",
          "type": "address"
        }
      ],
      "payable": false,
      "stateMutability": "view",
      "type": "function"
    },
    {
      "constant": true,
      "inputs": [],
      "name": "marketLiquidity",
      "outputs": [
        {
          "name": "",
          "type": "uint256"
        }
      ],
      "payable": false,
      "stateMutability": "view",
      "type": "function"
    },
    {
      "constant": true,
      "inputs": [],
      "name": "minInterestRateNumerator",
      "outputs": [
        {
          "name": "",
          "type": "uint256"
        }
      ],
      "payable": false,
      "stateMutability": "view",
      "type": "function"
    },
    {
      "constant": true,
      "inputs": [],
      "name": "cToken",
      "outputs": [
        {
          "name": "",
          "type": "address"
        }
      ],
      "payable": false,
      "stateMutability": "view",
      "type": "function"
    },
    {
      "constant": true,
      "inputs": [
        {
          "name": "",
          "type": "bytes32"
        }
      ],
      "name": "funds",
      "outputs": [
        {
          "name": "lender",
          "type": "address"
        },
        {
          "name": "minLoanAmt",
          "type": "uint256"
        },
        {
          "name": "maxLoanAmt",
          "type": "uint256"
        },
        {
          "name": "minLoanDur",
          "type": "uint256"
        },
        {
          "name": "maxLoanDur",
          "type": "uint256"
        },
        {
          "name": "fundExpiry",
          "type": "uint256"
        },
        {
          "name": "interest",
          "type": "uint256"
        },
        {
          "name": "penalty",
          "type": "uint256"
        },
        {
          "name": "fee",
          "type": "uint256"
        },
        {
          "name": "liquidationRatio",
          "type": "uint256"
        },
        {
          "name": "arbiter",
          "type": "address"
        },
        {
          "name": "balance",
          "type": "uint256"
        },
        {
          "name": "cBalance",
          "type": "uint256"
        }
      ],
      "payable": false,
      "stateMutability": "view",
      "type": "function"
    },
    {
      "constant": true,
      "inputs": [
        {
          "name": "",
          "type": "bytes32"
        }
      ],
      "name": "bools",
      "outputs": [
        {
          "name": "custom",
          "type": "bool"
        },
        {
          "name": "compoundEnabled",
          "type": "bool"
        }
      ],
      "payable": false,
      "stateMutability": "view",
      "type": "function"
    },
    {
      "constant": true,
      "inputs": [],
      "name": "totalBorrow",
      "outputs": [
        {
          "name": "",
          "type": "uint256"
        }
      ],
      "payable": false,
      "stateMutability": "view",
      "type": "function"
    },
    {
      "constant": true,
      "inputs": [],
      "name": "fundIndex",
      "outputs": [
        {
          "name": "",
          "type": "uint256"
        }
      ],
      "payable": false,
      "stateMutability": "view",
      "type": "function"
    },
    {
      "constant": true,
      "inputs": [],
      "name": "DEFAULT_MIN_LOAN_DUR",
      "outputs": [
        {
          "name": "",
          "type": "uint256"
        }
      ],
      "payable": false,
      "stateMutability": "view",
      "type": "function"
    },
    {
      "constant": true,
      "inputs": [],
      "name": "DEFAULT_LIQUIDATION_PENALTY",
      "outputs": [
        {
          "name": "",
          "type": "uint256"
        }
      ],
      "payable": false,
      "stateMutability": "view",
      "type": "function"
    },
    {
      "constant": true,
      "inputs": [],
      "name": "DEFAULT_MAX_LOAN_AMT",
      "outputs": [
        {
          "name": "",
          "type": "uint256"
        }
      ],
      "payable": false,
      "stateMutability": "view",
      "type": "function"
    },
    {
      "constant": true,
      "inputs": [
        {
          "name": "",
          "type": "address"
        }
      ],
      "name": "pubKeys",
      "outputs": [
        {
          "name": "",
          "type": "bytes"
        }
      ],
      "payable": false,
      "stateMutability": "view",
      "type": "function"
    },
    {
      "constant": true,
      "inputs": [],
      "name": "NUM_SECONDS_IN_YEAR",
      "outputs": [
        {
          "name": "",
          "type": "uint256"
        }
      ],
      "payable": false,
      "stateMutability": "view",
      "type": "function"
    },
    {
      "constant": true,
      "inputs": [],
      "name": "interestUpdateDelay",
      "outputs": [
        {
          "name": "",
          "type": "uint256"
        }
      ],
      "payable": false,
      "stateMutability": "view",
      "type": "function"
    },
    {
      "constant": true,
      "inputs": [],
      "name": "maxInterestRateNumerator",
      "outputs": [
        {
          "name": "",
          "type": "uint256"
        }
      ],
      "payable": false,
      "stateMutability": "view",
      "type": "function"
    },
    {
      "constant": true,
      "inputs": [],
      "name": "lastUtilizationRatio",
      "outputs": [
        {
          "name": "",
          "type": "uint256"
        }
      ],
      "payable": false,
      "stateMutability": "view",
      "type": "function"
    },
    {
      "constant": true,
      "inputs": [
        {
          "name": "x",
          "type": "uint256"
        },
        {
          "name": "y",
          "type": "uint256"
        }
      ],
      "name": "cmul",
      "outputs": [
        {
          "name": "z",
          "type": "uint256"
        }
      ],
      "payable": false,
      "stateMutability": "pure",
      "type": "function"
    },
    {
      "constant": true,
      "inputs": [],
      "name": "token",
      "outputs": [
        {
          "name": "",
          "type": "address"
        }
      ],
      "payable": false,
      "stateMutability": "view",
      "type": "function"
    },
    {
      "constant": true,
      "inputs": [],
      "name": "tokenMarketLiquidity",
      "outputs": [
        {
          "name": "",
          "type": "uint256"
        }
      ],
      "payable": false,
      "stateMutability": "view",
      "type": "function"
    },
    {
      "inputs": [
        {
          "name": "token_",
          "type": "address"
        },
        {
          "name": "decimals_",
          "type": "uint256"
        }
      ],
      "payable": false,
      "stateMutability": "nonpayable",
      "type": "constructor"
    },
    {
      "anonymous": false,
      "inputs": [
        {
          "indexed": false,
          "name": "fund",
          "type": "bytes32"
        }
      ],
      "name": "Create",
      "type": "event"
    },
    {
      "constant": false,
      "inputs": [
        {
          "name": "loans_",
          "type": "address"
        }
      ],
      "name": "setLoans",
      "outputs": [],
      "payable": false,
      "stateMutability": "nonpayable",
      "type": "function"
    },
    {
      "constant": false,
      "inputs": [
        {
          "name": "cToken_",
          "type": "address"
        },
        {
          "name": "comptroller_",
          "type": "address"
        }
      ],
      "name": "setCompound",
      "outputs": [],
      "payable": false,
      "stateMutability": "nonpayable",
      "type": "function"
    },
    {
      "constant": false,
      "inputs": [
        {
          "name": "utilizationInterestDivisor_",
          "type": "uint256"
        }
      ],
      "name": "setUtilizationInterestDivisor",
      "outputs": [],
      "payable": false,
      "stateMutability": "nonpayable",
      "type": "function"
    },
    {
      "constant": false,
      "inputs": [
        {
          "name": "maxUtilizationDelta_",
          "type": "uint256"
        }
      ],
      "name": "setMaxUtilizationDelta",
      "outputs": [],
      "payable": false,
      "stateMutability": "nonpayable",
      "type": "function"
    },
    {
      "constant": false,
      "inputs": [
        {
          "name": "globalInterestRateNumerator_",
          "type": "uint256"
        }
      ],
      "name": "setGlobalInterestRateNumerator",
      "outputs": [],
      "payable": false,
      "stateMutability": "nonpayable",
      "type": "function"
    },
    {
      "constant": false,
      "inputs": [
        {
          "name": "globalInterestRate_",
          "type": "uint256"
        }
      ],
      "name": "setGlobalInterestRate",
      "outputs": [],
      "payable": false,
      "stateMutability": "nonpayable",
      "type": "function"
    },
    {
      "constant": false,
      "inputs": [
        {
          "name": "maxInterestRateNumerator_",
          "type": "uint256"
        }
      ],
      "name": "setMaxInterestRateNumerator",
      "outputs": [],
      "payable": false,
      "stateMutability": "nonpayable",
      "type": "function"
    },
    {
      "constant": false,
      "inputs": [
        {
          "name": "minInterestRateNumerator_",
          "type": "uint256"
        }
      ],
      "name": "setMinInterestRateNumerator",
      "outputs": [],
      "payable": false,
      "stateMutability": "nonpayable",
      "type": "function"
    },
    {
      "constant": false,
      "inputs": [
        {
          "name": "interestUpdateDelay_",
          "type": "uint256"
        }
      ],
      "name": "setInterestUpdateDelay",
      "outputs": [],
      "payable": false,
      "stateMutability": "nonpayable",
      "type": "function"
    },
    {
      "constant": false,
      "inputs": [
        {
          "name": "defaultArbiterFee_",
          "type": "uint256"
        }
      ],
      "name": "setDefaultArbiterFee",
      "outputs": [],
      "payable": false,
      "stateMutability": "nonpayable",
      "type": "function"
    },
    {
      "constant": true,
      "inputs": [
        {
          "name": "fund",
          "type": "bytes32"
        }
      ],
      "name": "lender",
      "outputs": [
        {
          "name": "",
          "type": "address"
        }
      ],
      "payable": false,
      "stateMutability": "view",
      "type": "function"
    },
    {
      "constant": true,
      "inputs": [
        {
          "name": "fund",
          "type": "bytes32"
        }
      ],
      "name": "minLoanAmt",
      "outputs": [
        {
          "name": "",
          "type": "uint256"
        }
      ],
      "payable": false,
      "stateMutability": "view",
      "type": "function"
    },
    {
      "constant": true,
      "inputs": [
        {
          "name": "fund",
          "type": "bytes32"
        }
      ],
      "name": "maxLoanAmt",
      "outputs": [
        {
          "name": "",
          "type": "uint256"
        }
      ],
      "payable": false,
      "stateMutability": "view",
      "type": "function"
    },
    {
      "constant": true,
      "inputs": [
        {
          "name": "fund",
          "type": "bytes32"
        }
      ],
      "name": "minLoanDur",
      "outputs": [
        {
          "name": "",
          "type": "uint256"
        }
      ],
      "payable": false,
      "stateMutability": "view",
      "type": "function"
    },
    {
      "constant": true,
      "inputs": [
        {
          "name": "fund",
          "type": "bytes32"
        }
      ],
      "name": "maxLoanDur",
      "outputs": [
        {
          "name": "",
          "type": "uint256"
        }
      ],
      "payable": false,
      "stateMutability": "view",
      "type": "function"
    },
    {
      "constant": true,
      "inputs": [
        {
          "name": "fund",
          "type": "bytes32"
        }
      ],
      "name": "fundExpiry",
      "outputs": [
        {
          "name": "",
          "type": "uint256"
        }
      ],
      "payable": false,
      "stateMutability": "view",
      "type": "function"
    },
    {
      "constant": true,
      "inputs": [
        {
          "name": "fund",
          "type": "bytes32"
        }
      ],
      "name": "interest",
      "outputs": [
        {
          "name": "",
          "type": "uint256"
        }
      ],
      "payable": false,
      "stateMutability": "view",
      "type": "function"
    },
    {
      "constant": true,
      "inputs": [
        {
          "name": "fund",
          "type": "bytes32"
        }
      ],
      "name": "penalty",
      "outputs": [
        {
          "name": "",
          "type": "uint256"
        }
      ],
      "payable": false,
      "stateMutability": "view",
      "type": "function"
    },
    {
      "constant": true,
      "inputs": [
        {
          "name": "fund",
          "type": "bytes32"
        }
      ],
      "name": "fee",
      "outputs": [
        {
          "name": "",
          "type": "uint256"
        }
      ],
      "payable": false,
      "stateMutability": "view",
      "type": "function"
    },
    {
      "constant": true,
      "inputs": [
        {
          "name": "fund",
          "type": "bytes32"
        }
      ],
      "name": "liquidationRatio",
      "outputs": [
        {
          "name": "",
          "type": "uint256"
        }
      ],
      "payable": false,
      "stateMutability": "view",
      "type": "function"
    },
    {
      "constant": true,
      "inputs": [
        {
          "name": "fund",
          "type": "bytes32"
        }
      ],
      "name": "arbiter",
      "outputs": [
        {
          "name": "",
          "type": "address"
        }
      ],
      "payable": false,
      "stateMutability": "view",
      "type": "function"
    },
    {
      "constant": false,
      "inputs": [
        {
          "name": "fund",
          "type": "bytes32"
        }
      ],
      "name": "balance",
      "outputs": [
        {
          "name": "",
          "type": "uint256"
        }
      ],
      "payable": false,
      "stateMutability": "nonpayable",
      "type": "function"
    },
    {
      "constant": false,
      "inputs": [],
      "name": "cTokenExchangeRate",
      "outputs": [
        {
          "name": "",
          "type": "uint256"
        }
      ],
      "payable": false,
      "stateMutability": "nonpayable",
      "type": "function"
    },
    {
      "constant": true,
      "inputs": [
        {
          "name": "fund",
          "type": "bytes32"
        }
      ],
      "name": "custom",
      "outputs": [
        {
          "name": "",
          "type": "bool"
        }
      ],
      "payable": false,
      "stateMutability": "view",
      "type": "function"
    },
    {
      "constant": true,
      "inputs": [
        {
          "name": "addr_",
          "type": "address"
        }
      ],
      "name": "secretHashesCount",
      "outputs": [
        {
          "name": "",
          "type": "uint256"
        }
      ],
      "payable": false,
      "stateMutability": "view",
      "type": "function"
    },
    {
      "constant": false,
      "inputs": [
        {
          "name": "maxLoanDur_",
          "type": "uint256"
        },
        {
          "name": "fundExpiry_",
          "type": "uint256"
        },
        {
          "name": "arbiter_",
          "type": "address"
        },
        {
          "name": "compoundEnabled_",
          "type": "bool"
        },
        {
          "name": "amount_",
          "type": "uint256"
        }
      ],
      "name": "create",
      "outputs": [
        {
          "name": "fund",
          "type": "bytes32"
        }
      ],
      "payable": false,
      "stateMutability": "nonpayable",
      "type": "function"
    },
    {
      "constant": false,
      "inputs": [
        {
          "name": "minLoanAmt_",
          "type": "uint256"
        },
        {
          "name": "maxLoanAmt_",
          "type": "uint256"
        },
        {
          "name": "minLoanDur_",
          "type": "uint256"
        },
        {
          "name": "maxLoanDur_",
          "type": "uint256"
        },
        {
          "name": "fundExpiry_",
          "type": "uint256"
        },
        {
          "name": "liquidationRatio_",
          "type": "uint256"
        },
        {
          "name": "interest_",
          "type": "uint256"
        },
        {
          "name": "penalty_",
          "type": "uint256"
        },
        {
          "name": "fee_",
          "type": "uint256"
        },
        {
          "name": "arbiter_",
          "type": "address"
        },
        {
          "name": "compoundEnabled_",
          "type": "bool"
        },
        {
          "name": "amount_",
          "type": "uint256"
        }
      ],
      "name": "createCustom",
      "outputs": [
        {
          "name": "fund",
          "type": "bytes32"
        }
      ],
      "payable": false,
      "stateMutability": "nonpayable",
      "type": "function"
    },
    {
      "constant": false,
      "inputs": [
        {
          "name": "fund",
          "type": "bytes32"
        },
        {
          "name": "amount",
          "type": "uint256"
        }
      ],
      "name": "deposit",
      "outputs": [],
      "payable": false,
      "stateMutability": "nonpayable",
      "type": "function"
    },
    {
      "constant": false,
      "inputs": [
        {
          "name": "fund",
          "type": "bytes32"
        },
        {
          "name": "maxLoanDur_",
          "type": "uint256"
        },
        {
          "name": "fundExpiry_",
          "type": "uint256"
        },
        {
          "name": "arbiter_",
          "type": "address"
        }
      ],
      "name": "update",
      "outputs": [],
      "payable": false,
      "stateMutability": "nonpayable",
      "type": "function"
    },
    {
      "constant": false,
      "inputs": [
        {
          "name": "fund",
          "type": "bytes32"
        },
        {
          "name": "minLoanAmt_",
          "type": "uint256"
        },
        {
          "name": "maxLoanAmt_",
          "type": "uint256"
        },
        {
          "name": "minLoanDur_",
          "type": "uint256"
        },
        {
          "name": "maxLoanDur_",
          "type": "uint256"
        },
        {
          "name": "fundExpiry_",
          "type": "uint256"
        },
        {
          "name": "interest_",
          "type": "uint256"
        },
        {
          "name": "penalty_",
          "type": "uint256"
        },
        {
          "name": "fee_",
          "type": "uint256"
        },
        {
          "name": "liquidationRatio_",
          "type": "uint256"
        },
        {
          "name": "arbiter_",
          "type": "address"
        }
      ],
      "name": "updateCustom",
      "outputs": [],
      "payable": false,
      "stateMutability": "nonpayable",
      "type": "function"
    },
    {
      "constant": false,
      "inputs": [
        {
          "name": "fund",
          "type": "bytes32"
        },
        {
          "name": "borrower_",
          "type": "address"
        },
        {
          "name": "amount_",
          "type": "uint256"
        },
        {
          "name": "collateral_",
          "type": "uint256"
        },
        {
          "name": "loanDur_",
          "type": "uint256"
        },
        {
          "name": "requestTimestamp_",
          "type": "uint256"
        },
        {
          "name": "secretHashes_",
          "type": "bytes32[8]"
        },
        {
          "name": "pubKeyA_",
          "type": "bytes"
        },
        {
          "name": "pubKeyB_",
          "type": "bytes"
        }
      ],
      "name": "request",
      "outputs": [
        {
          "name": "loanIndex",
          "type": "bytes32"
        }
      ],
      "payable": false,
      "stateMutability": "nonpayable",
      "type": "function"
    },
    {
      "constant": false,
      "inputs": [
        {
          "name": "fund",
          "type": "bytes32"
        },
        {
          "name": "amount",
          "type": "uint256"
        }
      ],
      "name": "withdraw",
      "outputs": [],
      "payable": false,
      "stateMutability": "nonpayable",
      "type": "function"
    },
    {
      "constant": false,
      "inputs": [
        {
          "name": "fund",
          "type": "bytes32"
        },
        {
          "name": "amount",
          "type": "uint256"
        },
        {
          "name": "recipient",
          "type": "address"
        }
      ],
      "name": "withdrawTo",
      "outputs": [],
      "payable": false,
      "stateMutability": "nonpayable",
      "type": "function"
    },
    {
      "constant": false,
      "inputs": [
        {
          "name": "secretHashes_",
          "type": "bytes32[]"
        }
      ],
      "name": "generate",
      "outputs": [],
      "payable": false,
      "stateMutability": "nonpayable",
      "type": "function"
    },
    {
      "constant": false,
      "inputs": [
        {
          "name": "pubKey",
          "type": "bytes"
        }
      ],
      "name": "setPubKey",
      "outputs": [],
      "payable": false,
      "stateMutability": "nonpayable",
      "type": "function"
    },
    {
      "constant": false,
      "inputs": [
        {
          "name": "fund",
          "type": "bytes32"
        }
      ],
      "name": "enableCompound",
      "outputs": [],
      "payable": false,
      "stateMutability": "nonpayable",
      "type": "function"
    },
    {
      "constant": false,
      "inputs": [
        {
          "name": "fund",
          "type": "bytes32"
        }
      ],
      "name": "disableCompound",
      "outputs": [],
      "payable": false,
      "stateMutability": "nonpayable",
      "type": "function"
    },
    {
      "constant": false,
      "inputs": [
        {
          "name": "amount",
          "type": "uint256"
        }
      ],
      "name": "decreaseTotalBorrow",
      "outputs": [],
      "payable": false,
      "stateMutability": "nonpayable",
      "type": "function"
    },
    {
      "constant": false,
      "inputs": [],
      "name": "calcGlobalInterest",
      "outputs": [],
      "payable": false,
      "stateMutability": "nonpayable",
      "type": "function"
    },
    {
      "constant": true,
      "inputs": [
        {
          "name": "amount",
          "type": "uint256"
        },
        {
          "name": "rate",
          "type": "uint256"
        },
        {
          "name": "loanDur",
          "type": "uint256"
        }
      ],
      "name": "calcInterest",
      "outputs": [
        {
          "name": "",
          "type": "uint256"
        }
      ],
      "payable": false,
      "stateMutability": "pure",
      "type": "function"
    },
    {
      "constant": true,
      "inputs": [
        {
          "name": "value",
          "type": "uint256"
        }
      ],
      "name": "ensureNotZero",
      "outputs": [
        {
          "name": "",
          "type": "uint256"
        }
      ],
      "payable": false,
      "stateMutability": "pure",
      "type": "function"
    }
  ],
  "bytecode": "0x60806040523480156200001157600080fd5b5060405162003b3d38038062003b3d833981810160405260408110156200003757600080fd5b508051602090910151601a8054336001600160a01b031991821617909155601780549091166001600160a01b03841617905560188190556b22079eda249d327c677048096012556a4ed6b7353f71d0a0f402496011819055600e8190556a96d0176d4a7d47fc102c6f6013556a146cdd36157a9553e20f0a601455620151806015556b033b2e3ca31a444ebbf023c4601655620000fb906b033b2e3c9fd0803ce800000090620000ec906301e1338062000107565b6001600160e01b036200012816565b601055506200013f9050565b60008082116200011657600080fd5b8183816200012057fe5b049392505050565b808201828110156200013957600080fd5b92915050565b6139ee806200014f6000396000f3fe608060405234801561001057600080fd5b506004361061043e5760003560e01c80637e25a22111610236578063d39a2c0c1161013b578063e91d14a4116100c3578063f61d02d311610087578063f61d02d314610dbc578063f7837eb714610e2b578063fa3bfb1714610e4e578063fc0c546a14610e6b578063fdd5aab114610e735761043e565b8063e91d14a414610c93578063eae1c2cf14610cb0578063f05541be14610cb8578063f0a422d014610cc0578063f59bf27314610cc85761043e565b8063da2c5c5b1161010a578063da2c5c5b14610bc6578063db9b376c14610bce578063e179e77114610bd6578063e32d291314610c08578063e493325614610c765761043e565b8063d39a2c0c14610ae7578063d4785d2914610b0d578063d73b906214610b2a578063d9d0a2d114610b985761043e565b8063a5a70965116101be578063ba617eef1161018d578063ba617eef14610a02578063bf12f43d14610a1f578063ccb99d5514610a3c578063ce26d44b14610a44578063d1b8b4bf14610a4c5761043e565b8063a5a70965146109b8578063a5fa6706146109c0578063a634baf2146109dd578063b2d61071146109fa5761043e565b8063994871fa11610205578063994871fa146108fe5780639d06bcea146109275780639fc3f02f1461094d578063a18e4a801461096a578063a2c70b6b1461099b5761043e565b80637e25a2211461089f5780638285ef40146108bc57806389eba421146108c45780638c5d5268146108e15761043e565b806342febf0c116103475780635b873ffa116102cf5780636a29a620116102935780636a29a620146107545780636a7bb32c146107ed5780636e1719a61461082d578063712d8e6a1461086557806376a0b166146108825761043e565b80635b873ffa1461072c5780635fe3b56714610734578063612ef80b1461073c578063689c76ef1461074457806369e527da1461074c5761043e565b80634ee9159a116103165780634ee9159a1461066d5780634f9bc9d514610675578063513916741461067d578063516dbe24146106e357806354e39f90146107005761043e565b806342febf0c146105d757806344b6ba95146105f457806347ca77161461062d5780634c9fb84a146106355761043e565b80631bb73697116103ca57806326fc75901161039957806326fc75901461058557806327cdab06146105a25780632eb1ad73146105bf578063313ce567146105c757806333549b1b146105cf5761043e565b80631bb73697146105175780631beec2941461051f5780631de26e161461053c57806321fd933b1461055f5761043e565b806304e9ef031161041157806304e9ef03146104c55780630e9511be146104cd57806316df840a146104ea5780631723cfa5146104f25780631873fe50146104fa5761043e565b806301937d0414610443578063031558e51461047b57806303b69d1814610483578063040cf020146104a0575b600080fd5b6104696004803603602081101561045957600080fd5b50356001600160a01b0316610e7b565b60408051918252519081900360200190f35b610469610e8d565b6104696004803603602081101561049957600080fd5b5035610e93565b6104c3600480360360408110156104b657600080fd5b5080359060200135610eec565b005b610469610efb565b610469600480360360208110156104e357600080fd5b5035610f01565b610469610f18565b610469610f1e565b6104c36004803603602081101561051057600080fd5b5035610f2e565b610469610f63565b6104c36004803603602081101561053557600080fd5b5035610f69565b6104c36004803603604081101561055257600080fd5b5080359060200135610f85565b6104696004803603602081101561057557600080fd5b50356001600160a01b0316611199565b6104696004803603602081101561059b57600080fd5b50356111ab565b610469600480360360208110156105b857600080fd5b50356111ed565b610469611225565b61046961122b565b6104c3611231565b610469600480360360208110156105ed57600080fd5b503561133a565b6106116004803603602081101561060a57600080fd5b5035611372565b604080516001600160a01b039092168252519081900360200190f35b610469611390565b6104c36004803603608081101561064b57600080fd5b50803590602081013590604081013590606001356001600160a01b031661139d565b61061161142e565b61046961143e565b6104c3600480360361016081101561069457600080fd5b5080359060208101359060408101359060608101359060808101359060a08101359060c08101359060e081013590610100810135906101208101359061014001356001600160a01b0316611444565b6104c3600480360360208110156106f957600080fd5b50356114aa565b6104696004803603604081101561071657600080fd5b506001600160a01b0381351690602001356114c6565b6104696114f4565b6106116114fa565b610469611509565b61046961150f565b610611611515565b6107716004803603602081101561076a57600080fd5b5035611524565b604080516001600160a01b039e8f168152602081019d909d528c81019b909b5260608c019990995260808b019790975260a08a019590955260c089019390935260e08801919091526101008701526101208601529094166101408401526101608301939093526101808201929092529051908190036101a00190f35b610469600480360360a081101561080357600080fd5b508035906020810135906001600160a01b0360408201351690606081013515159060800135611598565b61084a6004803603602081101561084357600080fd5b5035611729565b60408051921515835290151560208301528051918290030190f35b6104696004803603602081101561087b57600080fd5b5035611747565b6104696004803603602081101561089857600080fd5b503561175c565b6104c3600480360360208110156108b557600080fd5b503561179e565b610469611977565b610469600480360360208110156108da57600080fd5b503561197d565b6104c3600480360360208110156108f757600080fd5b5035611a3e565b6104696004803603606081101561091457600080fd5b5080359060208101359060400135611a5a565b6104c36004803603602081101561093d57600080fd5b50356001600160a01b0316611a80565b6106116004803603602081101561096357600080fd5b5035611b51565b6109876004803603602081101561098057600080fd5b5035611b6c565b604080519115158252519081900360200190f35b6104c3600480360360208110156109b157600080fd5b5035611b81565b610469611b9d565b6104c3600480360360208110156109d657600080fd5b5035611ba3565b610469600480360360208110156109f357600080fd5b5035611d9f565b610469611dd7565b61046960048036036020811015610a1857600080fd5b5035611ddd565b6104c360048036036020811015610a3557600080fd5b5035611df3565b610469611e0f565b610469611e1f565b610a7260048036036020811015610a6257600080fd5b50356001600160a01b0316611e25565b6040805160208082528351818301528351919283929083019185019080838360005b83811015610aac578181015183820152602001610a94565b50505050905090810190601f168015610ad95780820380516001836020036101000a031916815260200191505b509250505060405180910390f35b61046960048036036020811015610afd57600080fd5b50356001600160a01b0316611ec0565b6104c360048036036020811015610b2357600080fd5b5035611edb565b6104c360048036036020811015610b4057600080fd5b810190602081018135600160201b811115610b5a57600080fd5b820183602082011115610b6c57600080fd5b803590602001918460208302840111600160201b83111715610b8d57600080fd5b509092509050611ef7565b6104c360048036036040811015610bae57600080fd5b506001600160a01b0381358116916020013516611f4c565b610469611fb8565b610469611fc0565b6104c360048036036060811015610bec57600080fd5b50803590602081013590604001356001600160a01b0316611fc6565b6104c360048036036020811015610c1e57600080fd5b810190602081018135600160201b811115610c3857600080fd5b820183602082011115610c4a57600080fd5b803590602001918460018302840111600160201b83111715610c6b57600080fd5b5090925090506122fe565b6104c360048036036020811015610c8c57600080fd5b5035612318565b61046960048036036020811015610ca957600080fd5b5035612341565b610469612379565b61046961237f565b610469612385565b6104696004803603610200811015610cdf57600080fd5b8135916001600160a01b036020820135169160408201359160608101359160808201359160a08101359160c0820191908101906101e081016101c0820135600160201b811115610d2e57600080fd5b820183602082011115610d4057600080fd5b803590602001918460018302840111600160201b83111715610d6157600080fd5b919390929091602081019035600160201b811115610d7e57600080fd5b820183602082011115610d9057600080fd5b803590602001918460018302840111600160201b83111715610db157600080fd5b509092509050612425565b6104696004803603610180811015610dd357600080fd5b5080359060208101359060408101359060608101359060808101359060a08101359060c08101359060e081013590610100810135906001600160a01b03610120820135169061014081013515159061016001356125fd565b61046960048036036040811015610e4157600080fd5b50803590602001356127ca565b6104c360048036036020811015610e6457600080fd5b50356127fb565b610611612817565b610469612826565b60036020526000908152604090205481565b60115481565b60008181526007602052604081205460ff1615610ec25750600081815260056020526040902060010154610ee7565b610ee46801158e460913d00000610edc601260185461282c565b600a0a612842565b90505b919050565b610ef7828233611fc6565b5050565b60165481565b600081610f115750600019610ee7565b5080610ee7565b600b5481565b6b04860d8812f0b3887800000081565b601a546001600160a01b03163314610f4557600080fd5b6b033b2e3ca43176a9d2dfd0a5811115610f5e57600080fd5b601655565b600e5481565b601a546001600160a01b03163314610f8057600080fd5b600e55565b601754604080516323b872dd60e01b81523360048201523060248201526044810184905290516001600160a01b03909216916323b872dd916064808201926020929091908290030181600087803b158015610fdf57600080fd5b505af1158015610ff3573d6000803e3d6000fd5b505050506040513d602081101561100957600080fd5b505161101457600080fd5b600082815260076020526040902054610100900460ff16156111395760175460195461104d916001600160a01b03908116911683612859565b60006110e561106483670de0b6b3a7640000612973565b601960009054906101000a90046001600160a01b03166001600160a01b031663bd6d894d6040518163ffffffff1660e01b8152600401602060405180830381600087803b1580156110b457600080fd5b505af11580156110c8573d6000803e3d6000fd5b505050506040513d60208110156110de57600080fd5b5051612842565b6000848152600560205260409020600c01549091506111049082612997565b6000848152600560205260409020600c015561111f83611b6c565b6111335761112f600b5482612997565b600b555b50611184565b6000828152600560205260409020600b01546111559082612997565b6000838152600560205260409020600b015561117082611b6c565b61118457611180600a5482612997565b600a555b61118d82611b6c565b610ef757610ef7611231565b60066020526000908152604090205481565b60008181526007602052604081205460ff16156111da5750600081815260056020526040902060070154610ee7565b506b033b2e3cacd278c7503e82c1610ee7565b60008181526007602052604081205460ff161561121c5750600081815260056020526040902060080154610ee7565b50601654610ee7565b60095481565b60185481565b61124f600a5461124a600b54611245612385565b6129a7565b612997565b600c5560155460095401421115611338576000600d5460001461128857611285600d54611280600c54600d54612997565b6129cf565b90505b600f548111156112d35760006112a082600f5461282c565b90506112ca6013546112c5600e5461124a6112bd601154876129f3565b6012546129cf565b6129f3565b600e555061130d565b60006112e1600f548361282c565b9050611308601454611303600e546112fe6112bd601154876129f3565b61282c565b612a0c565b600e55505b61132d6b033b2e3c9fd0803ce800000061124a600e546301e13380612842565b60105542600955600f555b565b60008181526007602052604081205460ff16156113695750600081815260056020526040902060020154610ee7565b50600019610ee7565b6000908152600560205260409020600a01546001600160a01b031690565b6801158e460913d0000081565b6113a684611b51565b6001600160a01b0316336001600160a01b0316146113c357600080fd5b6113cc83610f01565b6000191415806113e657506113e082610f01565b60001914155b6113ef57600080fd5b6000938452600560208190526040909420600481019390935592820155600a0180546001600160a01b0319166001600160a01b03909216919091179055565b6000546001600160a01b03165b90565b60125481565b60008b81526007602052604090205460ff1661145f57600080fd5b61146b8b88888461139d565b506000998a5260056020526040909920600181019890985560028801969096556003870194909455600686015550506007830155600882015560090155565b601a546001600160a01b031633146114c157600080fd5b601555565b600260205281600052604060002081815481106114df57fe5b90600052602060002001600091509150505481565b60105481565b6000546001600160a01b031681565b600c5481565b60145481565b6019546001600160a01b031681565b600560208190526000918252604090912080546001820154600283015460038401546004850154958501546006860154600787015460088801546009890154600a8a0154600b8b0154600c909b01546001600160a01b039a8b169c999b989a9799989697959694959394929390911691908d565b336000818152600660209081526040808320548352600590915281205490916001600160a01b039091161415806115d95750601a546001600160a01b031633145b6115e257600080fd5b6115eb86610f01565b60001914158061160557506115ff85610f01565b60001914155b61160e57600080fd5b601954600160a01b900460ff1661162a57821561162a57600080fd5b6116376008546001612997565b6008819055600081815260056020526040902080546001600160a01b03191633179055905061166586610f01565b60008281526005602052604090206004015561168085610f01565b600082815260056020818152604080842092830194909455600a90910180546001600160a01b0319166001600160a01b03891617905560078152828220805461ffff19166101008815150217905560085433835260069091529190205581156116ed576116ed8183610f85565b6040805182815290517fa7857d7da6974b0157f3bf7dd25a745bd7d81d845bb525ee0b316a87541a5c319181900360200190a195945050505050565b60076020526000908152604090205460ff8082169161010090041682565b60009081526005602052604090206004015490565b60008181526007602052604081205460ff161561178b5750600081815260056020526040902060090154610ee7565b506b04860d8812f0b38878000000610ee7565b600081815260076020526040902054610100900460ff166117be57600080fd5b6117c781611b51565b6001600160a01b0316336001600160a01b0316146117e457600080fd5b601754604080516370a0823160e01b815230600482015290516000926001600160a01b0316916370a08231916024808301926020929190829003018186803b15801561182f57600080fd5b505afa158015611843573d6000803e3d6000fd5b505050506040513d602081101561185957600080fd5b50516019546000848152600560205260409020600c0154919250611888916001600160a01b0390911690612a1c565b601754604080516370a0823160e01b815230600482015290516000926001600160a01b0316916370a08231916024808301926020929190829003018186803b1580156118d357600080fd5b505afa1580156118e7573d6000803e3d6000fd5b505050506040513d60208110156118fd57600080fd5b50519050600061190d828461282c565b905061191b600a5482612997565b600a55600b546000858152600560205260409020600c015461193d919061282c565b600b9081556000948552600760209081526040808720805461ff001916905560059091528520600c81019590955593909301929092555050565b600d5481565b600081815260076020526040812054610100900460ff1615611a26576000828152600560209081526040808320600c0154601954825163bd6d894d60e01b81529251610ee49592946001600160a01b039092169363bd6d894d9360048083019493928390030190829087803b1580156119f557600080fd5b505af1158015611a09573d6000803e3d6000fd5b505050506040513d6020811015611a1f57600080fd5b50516129a7565b506000818152600560205260409020600b0154610ee7565b601a546001600160a01b03163314611a5557600080fd5b601055565b6000611a78611a7285611a6d8686612b6c565b612bc6565b8561282c565b949350505050565b601a546001600160a01b03163314611a9757600080fd5b6001546001600160a01b031615611aad57600080fd5b600180546001600160a01b0319166001600160a01b038381169182179092556017546040805163095ea7b360e01b8152600481019390935260001960248401525192169163095ea7b3916044808201926020929091908290030181600087803b158015611b1957600080fd5b505af1158015611b2d573d6000803e3d6000fd5b505050506040513d6020811015611b4357600080fd5b5051611b4e57600080fd5b50565b6000908152600560205260409020546001600160a01b031690565b60009081526007602052604090205460ff1690565b601a546001600160a01b03163314611b9857600080fd5b601155565b60085481565b601954600160a01b900460ff16611bb957600080fd5b600081815260076020526040902054610100900460ff1615611bda57600080fd5b611be381611b51565b6001600160a01b0316336001600160a01b031614611c0057600080fd5b601954604080516370a0823160e01b815230600482015290516000926001600160a01b0316916370a08231916024808301926020929190829003018186803b158015611c4b57600080fd5b505afa158015611c5f573d6000803e3d6000fd5b505050506040513d6020811015611c7557600080fd5b50516017546019546000858152600560205260409020600b0154929350611cab926001600160a01b039283169290911690612859565b601954604080516370a0823160e01b815230600482015290516000926001600160a01b0316916370a08231916024808301926020929190829003018186803b158015611cf657600080fd5b505afa158015611d0a573d6000803e3d6000fd5b505050506040513d6020811015611d2057600080fd5b505190506000611d30828461282c565b600a546000868152600560205260409020600b0154919250611d519161282c565b600a55600b54611d619082612997565b600b9081556000948552600760209081526040808720805461ff0019166101001790556005909152852090810194909455600c909301929092555050565b60008181526007602052604081205460ff1615611dce5750600081815260056020526040902060030154610ee7565b50615460610ee7565b61546081565b6000908152600560208190526040909120015490565b601a546001600160a01b03163314611e0a57600080fd5b601255565b6b033b2e3cacd278c7503e82c181565b60001981565b60046020908152600091825260409182902080548351601f600260001961010060018616150201909316929092049182018490048402810184019094528084529091830182828015611eb85780601f10611e8d57610100808354040283529160200191611eb8565b820191906000526020600020905b815481529060010190602001808311611e9b57829003601f168201915b505050505081565b6001600160a01b031660009081526002602052604090205490565b601a546001600160a01b03163314611ef257600080fd5b601455565b60005b81811015611f4757336000908152600260205260409020838383818110611f1d57fe5b83546001808201865560009586526020958690209290950293909301359201919091555001611efa565b505050565b601a546001600160a01b03163314611f6357600080fd5b601954600160a01b900460ff1615611f7a57600080fd5b60198054600080546001600160a01b039485166001600160a01b03199182161790915560ff60a01b199390941693169290921716600160a01b179055565b6301e1338081565b60155481565b611fcf83611b51565b6001600160a01b0316336001600160a01b031614611fec57600080fd5b81611ff68461197d565b101561200157600080fd5b600083815260076020526040902054610100900460ff161561221357601954604080516370a0823160e01b815230600482015290516000926001600160a01b0316916370a08231916024808301926020929190829003018186803b15801561206857600080fd5b505afa15801561207c573d6000803e3d6000fd5b505050506040513d602081101561209257600080fd5b50516019549091506120ad906001600160a01b031684612bf6565b601954604080516370a0823160e01b815230600482015290516000926001600160a01b0316916370a08231916024808301926020929190829003018186803b1580156120f857600080fd5b505afa15801561210c573d6000803e3d6000fd5b505050506040513d602081101561212257600080fd5b505190506000612132838361282c565b6000878152600560205260409020600c0154909150612151908261282c565b6000878152600560209081526040808320600c0193909355601754835163a9059cbb60e01b81526001600160a01b038981166004830152602482018b90529451949091169363a9059cbb93604480840194938390030190829087803b1580156121b957600080fd5b505af11580156121cd573d6000803e3d6000fd5b505050506040513d60208110156121e357600080fd5b50516121ee57600080fd5b6121f786611b6c565b61220b57612207600b548261282c565b600b555b5050506122e9565b6000838152600560205260409020600b015461222f908361282c565b6000848152600560209081526040808320600b0193909355601754835163a9059cbb60e01b81526001600160a01b038681166004830152602482018890529451949091169363a9059cbb93604480840194938390030190829087803b15801561229757600080fd5b505af11580156122ab573d6000803e3d6000fd5b505050506040513d60208110156122c157600080fd5b50516122cc57600080fd5b6122d583611b6c565b6122e9576122e5600a548361282c565b600a555b6122f283611b6c565b611f4757611f47611231565b336000908152600460205260409020611f47908383613903565b6001546001600160a01b0316331461232f57600080fd5b61233b600d548261282c565b600d5550565b60008181526007602052604081205460ff16156123705750600081815260056020526040902060060154610ee7565b50601054610ee7565b60135481565b600f5481565b601954600090600160a01b900460ff161561241d57601960009054906101000a90046001600160a01b03166001600160a01b031663bd6d894d6040518163ffffffff1660e01b8152600401602060405180830381600087803b1580156123ea57600080fd5b505af11580156123fe573d6000803e3d6000fd5b505050506040513d602081101561241457600080fd5b5051905061143b565b50600061143b565b60006124308c611b51565b6001600160a01b0316336001600160a01b03161461244d57600080fd5b6124568c61197d565b8a111561246257600080fd5b61246b8c610e93565b8a101561247757600080fd5b6124808c61133a565b8a111561248c57600080fd5b6124958c611d9f565b8810156124a157600080fd5b6124b36124ad8d611ddd565b4261282c565b88111580156124ca57506124c68c611747565b8811155b6124d357600080fd5b6124e18c8c8c8c8c8c612da9565b905061257f8c8288600880602002604051908101604052809291908260086020028082843760009201919091525050604080516020601f8c018190048102820181019092528a815291508a908a908190840183828082843760009201919091525050604080516020601f8c018190048102820181019092528a815292508a9150899081908401838280828437600092019190915250612f3e92505050565b6125898c8b613231565b6001546040805163bf14c11960e01b81526004810184905290516001600160a01b039092169163bf14c1199160248082019260009290919082900301818387803b1580156125d657600080fd5b505af11580156125ea573d6000803e3d6000fd5b505050509b9a5050505050505050505050565b336000818152600660209081526040808320548352600590915281205490916001600160a01b0390911614158061263e5750601a546001600160a01b031633145b61264757600080fd5b6126508a610f01565b60001914158061266a575061266489610f01565b60001914155b61267357600080fd5b601954600160a01b900460ff1661268f57821561268f57600080fd5b61269c6008546001612997565b6008819055600081815260056020526040902080546001600160a01b03191633178155600181018f9055600281018e90556003018c905590506126de8a610f01565b6000828152600560205260409020600401556126f989610f01565b60008281526005602081815260408084209283019490945560068083018c905560078084018c905560088085018c9055600985018f9055600a90940180546001600160a01b0319166001600160a01b038c161790558252848420805460ff191660011761ff0019166101008a1515021790559154338452919052919020558115612787576127878183610f85565b6040805182815290517fa7857d7da6974b0157f3bf7dd25a745bd7d81d845bb525ee0b316a87541a5c319181900360200190a19c9b505050505050505050505050565b60006305f5e1006127ec6127de8585612973565b60026305f5e1005b04612997565b816127f357fe5b049392505050565b601a546001600160a01b0316331461281257600080fd5b601355565b6017546001600160a01b031681565b600a5481565b8082038281111561283c57600080fd5b92915050565b600080821161285057600080fd5b8183816127f357fe5b61286282613427565b604080516370a0823160e01b8152306004820152905184916000916001600160a01b038416916370a08231916024808301926020929190829003018186803b1580156128ad57600080fd5b505afa1580156128c1573d6000803e3d6000fd5b505050506040513d60208110156128d757600080fd5b50519050828111156128e65750815b836128f28683836136aa565b806001600160a01b031663a0712d68836040518263ffffffff1660e01b815260040180828152602001915050602060405180830381600087803b15801561293857600080fd5b505af115801561294c573d6000803e3d6000fd5b505050506040513d602081101561296257600080fd5b50511561296b57fe5b505050505050565b600081158061298e5750508082028282828161298b57fe5b04145b61283c57600080fd5b8082018281101561283c57600080fd5b6000670de0b6b3a76400006127ec6129bf8585612973565b6002670de0b6b3a76400006127e6565b6000816127ec6129eb856b033b2e3c9fd0803ce8000000612973565b6002856127e6565b600081831115612a035781612a05565b825b9392505050565b600081831015612a035781612a05565b604080516370a0823160e01b8152306004820152905183916000916001600160a01b038416916370a08231916024808301926020929190829003018186803b158015612a6757600080fd5b505afa158015612a7b573d6000803e3d6000fd5b505050506040513d6020811015612a9157600080fd5b5051905082811115612aa05750815b612aab8482866136aa565b816001600160a01b031663db006a75826040518263ffffffff1660e01b815260040180828152602001915050602060405180830381600087803b158015612af157600080fd5b505af1158015612b05573d6000803e3d6000fd5b505050506040513d6020811015612b1b57600080fd5b505115612b66576040805162461bcd60e51b8152602060048201526014602482015273736f6d657468696e672077656e742077726f6e6760601b604482015290519081900360640190fd5b50505050565b600060028206612b88576b033b2e3c9fd0803ce8000000612b8a565b825b90506002820491505b811561283c57612ba38384612bc6565b92506002820615612bbb57612bb88184612bc6565b90505b600282049150612b93565b60006b033b2e3c9fd0803ce80000006127ec612be28585612973565b60026b033b2e3c9fd0803ce80000006127e6565b81612c178174446c3b15f9926687d2c40534fdb564000000000000816136aa565b604080516370a0823160e01b815230600482015290516000916001600160a01b038416916370a0823191602480820192602092909190829003018186803b158015612c6157600080fd5b505afa158015612c75573d6000803e3d6000fd5b505050506040513d6020811015612c8b57600080fd5b50516040805163bd6d894d60e01b81529051919250600091612cda9184916001600160a01b0387169163bd6d894d91600480830192602092919082900301818987803b1580156119f557600080fd5b905083811115612ce75750825b826001600160a01b031663852a12e3826040518263ffffffff1660e01b815260040180828152602001915050602060405180830381600087803b158015612d2d57600080fd5b505af1158015612d41573d6000803e3d6000fd5b505050506040513d6020811015612d5757600080fd5b505115612da2576040805162461bcd60e51b8152602060048201526014602482015273736f6d657468696e672077656e742077726f6e6760601b604482015290519081900360640190fd5b5050505050565b60015460408051606081019091526001600160a01b03878116825260009216906310375921904286019060208101612de08c611b51565b6001600160a01b03908116825260008d815260056020908152604091829020600a015490921692820192909252815160e081019092528a82528101612e2e8b612e288f612341565b8b611a5a565b8152602001612e408b612e288f6111ab565b8152602001612e528b612e288f6111ed565b8152602001898152602001612e668d61175c565b81526020018790526040516001600160e01b031960e086901b168152600481018481528d9160240184606080838360005b83811015612eaf578181015183820152602001612e97565b5050505090500183600760200280838360005b83811015612eda578181015183820152602001612ec2565b50505050905001828152602001945050505050602060405180830381600087803b158015612f0757600080fd5b505af1158015612f1b573d6000803e3d6000fd5b505050506040513d6020811015612f3157600080fd5b5051979650505050505050565b600154604080516080808201835286518252602080880151818401528784015183850152606080890151908401528351808301855291880151825260a0880151908201526001600160a01b039093169263ee79b12b928892919081018860066020020151815260200188600760088110612fb457fe5b60200201519052612fcc612fc78b611372565b6137a9565b878760046000612fdb8f611372565b6001600160a01b03166001600160a01b031681526020019081526020016000206040518863ffffffff1660e01b81526004018088815260200187600460200280838360005b83811015613038578181015183820152602001613020565b5050505090500186600460200280838360005b8381101561306357818101518382015260200161304b565b5050505090500185600460200280838360005b8381101561308e578181015183820152602001613076565b50505050905001806020018060200180602001848103845287818151815260200191508051906020019080838360005b838110156130d65781810151838201526020016130be565b50505050905090810190601f1680156131035780820380516001836020036101000a031916815260200191505b50848103835286518152865160209182019188019080838360005b8381101561313657818101518382015260200161311e565b50505050905090810190601f1680156131635780820380516001836020036101000a031916815260200191505b508481038252855460026000196101006001841615020190911604808252602090910190869080156131d65780601f106131ab576101008083540402835291602001916131d6565b820191906000526020600020905b8154815290600101906020018083116131b957829003601f168201915b50509a5050505050505050505050602060405180830381600087803b1580156131fe57600080fd5b505af1158015613212573d6000803e3d6000fd5b505050506040513d602081101561322857600080fd5b50505050505050565b600082815260076020526040902054610100900460ff16156133b857601954604080516370a0823160e01b815230600482015290516000926001600160a01b0316916370a08231916024808301926020929190829003018186803b15801561329857600080fd5b505afa1580156132ac573d6000803e3d6000fd5b505050506040513d60208110156132c257600080fd5b50516019549091506132dd906001600160a01b031683612bf6565b601954604080516370a0823160e01b815230600482015290516000926001600160a01b0316916370a08231916024808301926020929190829003018186803b15801561332857600080fd5b505afa15801561333c573d6000803e3d6000fd5b505050506040513d602081101561335257600080fd5b505190506000613362838361282c565b6000868152600560205260409020600c0154909150613381908261282c565b6000868152600560205260409020600c015561339c85611b6c565b6133b0576133ac600b548261282c565b600b555b505050613403565b6000828152600560205260409020600b01546133d4908261282c565b6000838152600560205260409020600b01556133ef82611b6c565b613403576133ff600a548261282c565b600a555b61340c82611b6c565b610ef75761341c600d5482612997565b600d55610ef7611231565b600061343161142e565b60408051632aff3bff60e21b815230600482015290519192506060916001600160a01b0384169163abfceffc916024808301926000929190829003018186803b15801561347d57600080fd5b505afa158015613491573d6000803e3d6000fd5b505050506040513d6000823e601f3d908101601f1916820160405260208110156134ba57600080fd5b810190808051600160201b8111156134d157600080fd5b820160208101848111156134e457600080fd5b81518560208202830111600160201b8211171561350057600080fd5b509094506000935083925050505b825181101561355157846001600160a01b031683828151811061352d57fe5b60200260200101516001600160a01b0316141561354957600191505b60010161350e565b5080612b665760408051600180825281830190925260609160208083019080388339019050509050848160008151811061358757fe5b6001600160a01b03928316602091820292909201810191909152604051631853304760e31b8152600481018281528451602483015284519388169363c29982389386938392604490910191858101910280838360005b838110156135f55781810151838201526020016135dd565b5050505090500192505050600060405180830381600087803b15801561361a57600080fd5b505af115801561362e573d6000803e3d6000fd5b505050506040513d6000823e601f3d908101601f19168201604052602081101561365757600080fd5b810190808051600160201b81111561366e57600080fd5b8201602081018481111561368157600080fd5b81518560208202830111600160201b8211171561369d57600080fd5b5050505050505050505050565b60408051636eb1769f60e11b81523060048201526001600160a01b038381166024830152915185926000929084169163dd62ed3e91604480820192602092909190829003018186803b1580156136ff57600080fd5b505afa158015613713573d6000803e3d6000fd5b505050506040513d602081101561372957600080fd5b5051905080841115612da2576040805163095ea7b360e01b81526001600160a01b038581166004830152600160ff1b602483015291519184169163095ea7b39160448082019260009290919082900301818387803b15801561378a57600080fd5b505af115801561379e573d6000803e3d6000fd5b505050505050505050565b6137b1613981565b6001600160a01b0382166000908152600360205260409020546137d5906004612997565b6001600160a01b03831660009081526003602081815260408084208590558051608081018252600283529320919052909182919061381490600461282c565b8154811061381e57fe5b600091825260208083209091015483526001600160a01b038616825260028152604080832060038084529190932054939091019261385b9161282c565b8154811061386557fe5b600091825260208083209091015483526001600160a01b0386168252600280825260408084206003845293205493909101926138a09161282c565b815481106138aa57fe5b600091825260208083209091015483526001600160a01b0386168252600281526040808320600383529220549201916138e490600161282c565b815481106138ee57fe5b90600052602060002001548152509050919050565b828054600181600116156101000203166002900490600052602060002090601f016020900481019282601f106139445782800160ff19823516178555613971565b82800160010185558215613971579182015b82811115613971578235825591602001919060010190613956565b5061397d92915061399f565b5090565b60405180608001604052806004906020820280388339509192915050565b61143b91905b8082111561397d57600081556001016139a556fea265627a7a7230582025da80a224764c4c32da05364d30490b442316d4b66f6742fd829bcc4341e3a864736f6c634300050a0032",
  "source": "import 'openzeppelin-solidity/contracts/token/ERC20/ERC20.sol';\nimport 'openzeppelin-solidity/contracts/math/SafeMath.sol';\n\nimport './Loans.sol';\nimport './ALCompound.sol';\n\npragma solidity ^0.5.10;\n\ncontract Funds is DSMath, ALCompound {\n    Loans loans;\n\n    uint256 public constant DEFAULT_LIQUIDATION_RATIO = 1400000000000000000000000000;   // 140% (1.4x in RAY) minimum collateralization ratio\n    uint256 public constant DEFAULT_LIQUIDATION_PENALTY = 1000000000937303470807876289; // 3% (3 in RAY) liquidation penalty\n    uint256 public constant DEFAULT_MIN_LOAN_AMT = 20 ether; // Min 20 WAD\n    uint256 public constant DEFAULT_MAX_LOAN_AMT = 2**256-1; // Max 2**256\n    uint256 public constant DEFAULT_MIN_LOAN_DUR = 6 hours;  // 6 hours\n    uint256 public constant NUM_SECONDS_IN_YEAR = 365 days;\n\n    mapping (address => bytes32[]) public secretHashes;    // User secret hashes\n    mapping (address => uint256)   public secretHashIndex; // User secret hash index\n\n    mapping (address => bytes)     public pubKeys;  // User A Coin PubKeys\n    \n    mapping (bytes32 => Fund)      public funds;\n    mapping (address => bytes32)   public fundOwner;\n    mapping (bytes32 => Bools)     public bools;\n    uint256                        public fundIndex;\n\n    uint256 public lastGlobalInterestUpdated;\n    uint256 public tokenMarketLiquidity;\n    uint256 public cTokenMarketLiquidity;\n    uint256 public marketLiquidity;\n    uint256 public totalBorrow;\n    uint256 public globalInterestRateNumerator;\n    uint256 public lastUtilizationRatio;\n    uint256 public globalInterestRate;\n    uint256 public maxUtilizationDelta;\n    uint256 public utilizationInterestDivisor;\n    uint256 public maxInterestRateNumerator;\n    uint256 public minInterestRateNumerator;\n    uint256 public interestUpdateDelay;\n    uint256 public defaultArbiterFee;\n\n    ERC20 public token;\n    uint256 public decimals;\n    CTokenInterface public cToken;\n    bool compoundSet;\n\n    address deployer;\n\n    /**\n     * @notice Container for Loan Fund information\n     * @member lender Loan Fund Owner\n     * @member minLoanAmt Minimum Loan Amount that can be requested by a 'borrower'\n     * @member maxLoanAmt Maximum Loan Amount that can be requested by a 'borrower'\n     * @member minLoanDur Minimum Loan Duration that can be requested by a 'borrower'\n     * @member maxLoanDur Maximum Loan Duration that can be requested by a 'borrower'\n     * @member interest Interest Rate of Loan Fund in RAY per second\n     * @member penalty Liquidation Penalty Rate of Loan Fund in RAY per second\n     * @member fee Optional Automation Fee Rate of Loan Fund in RAY per second\n     * @member liquidationRatio Liquidation Ratio of Loan Fund in RAY\n     * @member arbiter Optional address of Automator Arbiter\n     * @member balance Amount of non-borrowed tokens in Loan Fund\n     * @member cBalance Amount of non-borrowed cTokens in Loan Fund\n     * @member custom Indicator that this Loan Fund is custom and does not use global settings\n     * @member compoundEnabled Indicator that this Loan Fund lends non-borrowed tokens on Compound\n     */\n    struct Fund {\n        address  lender;\n        uint256  minLoanAmt;\n        uint256  maxLoanAmt;\n        uint256  minLoanDur;\n        uint256  maxLoanDur;\n        uint256  fundExpiry;\n        uint256  interest;\n        uint256  penalty;\n        uint256  fee;\n        uint256  liquidationRatio;\n        address  arbiter;\n        uint256  balance;\n        uint256  cBalance;\n    }\n\n    struct Bools {\n        bool     custom;\n        bool     compoundEnabled;\n    }\n\n    event Create(bytes32 fund);\n\n    constructor(\n        ERC20   token_,\n        uint256 decimals_\n    ) public {\n        deployer = msg.sender;\n        token = token_;\n        decimals = decimals_;\n        utilizationInterestDivisor = 10531702972595856680093239305; // 10.53 in RAY (~10:1 ratio for % change in utilization ratio to % change in interest rate)\n        maxUtilizationDelta = 95310179948351216961192521; // Global Interest Rate Numerator can change up to 9.53% in RAY (~10% change in utilization ratio = ~1% change in interest rate)\n        globalInterestRateNumerator =  95310179948351216961192521; // ~10%  ( (e^(ln(1.100)/(60*60*24*365)) - 1) * (60*60*24*365) )\n        maxInterestRateNumerator    = 182321557320989604265864303; // ~20%  ( (e^(ln(1.200)/(60*60*24*365)) - 1) * (60*60*24*365) )\n        minInterestRateNumerator    =  24692612600038629323181834; // ~2.5% ( (e^(ln(1.025)/(60*60*24*365)) - 1) * (60*60*24*365) )\n        interestUpdateDelay = 86400; // 1 DAY\n        defaultArbiterFee = 1000000000236936036262880196; // 0.75% (0.75 in RAY) optional arbiter fee\n        globalInterestRate = add(RAY, div(globalInterestRateNumerator, NUM_SECONDS_IN_YEAR)); // Interest rate per second\n\n        // utilizationInterestDivisor calculation (this is aiming for utilizationInterestDivisor to allow max change from 10% APR to be 11% APR despite using compound interest)\n        // 1 + (globalInterestRateNumerator + (maxUtilizationDelta * RAY) / utilizationInterestDivisor) / NUM_SECONDS_IN_YEAR = 11% interest per second\n        // utilizationInterestDivisor = (maxUtilizationDelta * RAY) / ( (11% interest per second - 1)(NUM_SECONDS_IN_YEAR) - globalInterestRateNumerator )\n        // utilizationInterestDivisor = ((e^(ln(1.100)/(60*60*24*365)) - 1) * (60*60*24*365) * (10^27)) / ( (( e^(ln(1.110)/(60*60*24*365)) -1 ) * ( 60*60*24*365 )) - ((e^(ln(1.100)/(60*60*24*365)) - 1) * (60*60*24*365)))\n    }\n\n    /**\n     * @dev Sets Loans contract\n     * @param loans_ Address of Loans contract\n     */\n    function setLoans(Loans loans_) public {\n        require(msg.sender == deployer);\n        require(address(loans) == address(0));\n        loans = loans_;\n        require(token.approve(address(loans_), 2**256-1));\n    }\n\n    /**\n     * @dev Enables assets in loan fund that haven't been borrowed to be lent on Compound\n     * @param cToken_ The address of the Compound Token\n     * @param comptroller_ The address of the Compound Comptroller\n     */\n    function setCompound(CTokenInterface cToken_, address comptroller_) public {\n        require(msg.sender == deployer);\n        require(!compoundSet);\n        cToken = cToken_;\n        comptroller = comptroller_;\n        compoundSet = true;\n    }\n\n    // NOTE: THE FOLLOWING FUNCTIONS ALLOW VARIABLES TO BE MODIFIED BY THE \n    //       DEPLOYER, SINCE THE ALGORITHM FOR CALCULATING GLOBAL INTEREST \n    //       RATE IS UNTESTED WITH A DECENTRALIZED PROTOCOL, AND MAY NEED TO\n    //       BE UPDATED IN THE CASE THAT RATES DO NOT UPDATE AS INTENDED. A \n    //       FUTURE ITERATION OF THE PROTOCOL WILL REMOVE THESE FUNCTIONS. IF \n    //       YOU WISH TO OPT OUT OF GLOBAL APR YOU CAN CREATE A CUSTOM LOAN FUND\n    // ======================================================================\n\n    /**\n     * @dev Sets the Utilization Interest Divisor\n     */\n    function setUtilizationInterestDivisor(uint256 utilizationInterestDivisor_) external {\n        require(msg.sender == deployer);\n        utilizationInterestDivisor = utilizationInterestDivisor_;\n    }\n\n    /**\n     * @dev Sets the Max Utilization Delta\n     */\n    function setMaxUtilizationDelta(uint256 maxUtilizationDelta_) external {\n        require(msg.sender == deployer);\n        maxUtilizationDelta = maxUtilizationDelta_;\n    }\n\n    /**\n     * @dev Sets the Global Interest Rate Numerator\n     */\n    function setGlobalInterestRateNumerator(uint256 globalInterestRateNumerator_) external {\n        require(msg.sender == deployer);\n        globalInterestRateNumerator = globalInterestRateNumerator_;\n    }\n\n    /**\n     * @dev Sets the Global Interest Rate\n     */\n    function setGlobalInterestRate(uint256 globalInterestRate_) external {\n        require(msg.sender == deployer);\n        globalInterestRate = globalInterestRate_;\n    }\n\n    /**\n     * @dev Sets the Maximum Interest Rate Numerator\n     */\n    function setMaxInterestRateNumerator(uint256 maxInterestRateNumerator_) external {\n        require(msg.sender == deployer);\n        maxInterestRateNumerator = maxInterestRateNumerator_;\n    }\n\n    /**\n     * @dev Sets the Minimum Interest Rate Numerator\n     */\n    function setMinInterestRateNumerator(uint256 minInterestRateNumerator_) external {\n        require(msg.sender == deployer);\n        minInterestRateNumerator = minInterestRateNumerator_;\n    }\n\n    /**\n     * @dev Sets the Interest Update Delay\n     */\n    function setInterestUpdateDelay(uint256 interestUpdateDelay_) external {\n        require(msg.sender == deployer);\n        interestUpdateDelay = interestUpdateDelay_;\n    }\n\n    /**\n     * @dev Sets the Default Arbiter Fee\n     */\n    function setDefaultArbiterFee(uint256 defaultArbiterFee_) external {\n        require(msg.sender == deployer);\n        require(defaultArbiterFee_ <= 1000000000315522921573372069); // ~1%\n        defaultArbiterFee = defaultArbiterFee_;\n    }\n    // ======================================================================\n\n    /**\n     * @notice Get the lender of a Loan Fund\n     * @param fund The Id of a Loan Fund\n     * @return Owner address of Loan Fund\n     */\n    function lender(bytes32 fund) public view returns (address) {\n        return funds[fund].lender;\n    }\n\n    /**\n     * @notice Get minimum loan amount able to be requested by a 'borrower'\n     * @param fund The Id of a Loan Fund\n     * @return The minimum amount of tokens that can be requested from a Loan Fund\n     */\n    function minLoanAmt(bytes32 fund) public view returns (uint256) {\n        if (bools[fund].custom) { return funds[fund].minLoanAmt; }\n        else                    { return div(DEFAULT_MIN_LOAN_AMT, (10 ** sub(18, decimals))); }\n    }\n\n    /**\n     * @notice Get maximum loan amount able to be requested by a 'borrower'\n     * @param fund The Id of a Loan Fund\n     * @return The maximum amount of tokens that can be requested from a Loan Fund\n     */\n    function maxLoanAmt(bytes32 fund) public view returns (uint256) {\n        if (bools[fund].custom) { return funds[fund].maxLoanAmt; }\n        else                    { return DEFAULT_MAX_LOAN_AMT; }\n    }\n\n    /**\n     * @notice Get minimum loan duration able to be requested by a 'borrower'\n     * @param fund The Id of a Loan Fund\n     * @return The minimum duration loan that can be requested from a Loan Fund\n     */\n    function minLoanDur(bytes32 fund) public view returns (uint256) {\n        if (bools[fund].custom) { return funds[fund].minLoanDur; }\n        else                    { return DEFAULT_MIN_LOAN_DUR; }\n    }\n\n    /**\n     * @notice Get maximum loan duration able to be requested by a 'borrower'\n     * @param fund The Id of a Loan Fund\n     * @return The maximum duration loan that can be requested from a Loan Fund\n     */\n    function maxLoanDur(bytes32 fund) public view returns (uint256) {\n        return funds[fund].maxLoanDur;\n    }\n\n    /**\n     * @notice Get maximum loan duration able to be requested by a 'borrower'\n     * @param fund The Id of a Loan Fund\n     * @return The maximum duration loan that can be requested from a Loan Fund\n     */\n    function fundExpiry(bytes32 fund) public view returns (uint256) {\n        return funds[fund].fundExpiry;\n    }\n\n    /**\n     * @notice Get the interest rate for a Loan Fund\n     * @param fund The Id of a Loan Fund\n     * @return The interest rate per second for a Loan Fund in RAY per second\n     */\n    function interest(bytes32 fund) public view returns (uint256) {\n        if (bools[fund].custom) { return funds[fund].interest; }\n        else                    { return globalInterestRate; }\n    }\n\n    /**\n     * @notice Get the liquidation penalty rate for a Loan Fund\n     * @param fund The Id of a Loan Fund\n     * @return The liquidation penalty rate per second for a Loan Fund in RAY per second\n     */\n    function penalty(bytes32 fund) public view returns (uint256) {\n        if (bools[fund].custom) { return funds[fund].penalty; }\n        else                    { return DEFAULT_LIQUIDATION_PENALTY; }\n    }\n\n    /**\n     * @notice Get the optional automation fee for a Loan Fund\n     * @param fund The Id of a Loan Fund\n     * @return The optional automation fee rate of Loan Fund in RAY per second\n     */\n    function fee(bytes32 fund) public view returns (uint256) {\n        if (bools[fund].custom) { return funds[fund].fee; }\n        else                    { return defaultArbiterFee; }\n    }\n\n    /**\n     * @notice Get the liquidation ratio of a Loan Fund\n     * @param fund The Id of a Loan Fund\n     * @return The liquidation ratio of Loan Fund in RAY\n     */\n    function liquidationRatio(bytes32 fund) public view returns (uint256) {\n        if (bools[fund].custom) { return funds[fund].liquidationRatio; }\n        else                    { return DEFAULT_LIQUIDATION_RATIO; }\n    }\n\n    /**\n     * @notice Get the arbiter for a Loan Fund\n     * @param fund The Id of a Loan Fund\n     * @return The address of the arbiter for a Loan fund\n     */\n    function arbiter(bytes32 fund) public view returns (address) {\n        return funds[fund].arbiter;\n    }\n\n    /**\n     * @notice Get the current balance of a Loan Fund in tokens\n     * @param fund The Id of a Loan Fund\n     * @return The amount of tokens remaining in Loan Fund\n     */\n    function balance(bytes32 fund) public returns (uint256) {\n        if (bools[fund].compoundEnabled) {\n            return wmul(funds[fund].cBalance, cToken.exchangeRateCurrent());\n        } else {\n            return funds[fund].balance;\n        }\n    }\n\n    function cTokenExchangeRate() public returns (uint256) {\n        if (compoundSet) {\n            return cToken.exchangeRateCurrent();\n        } else {\n            return 0;\n        }\n    }\n\n    /**\n     * @notice Get the custom indicator for a Loan Fund\n     * @param fund The Id of a Loan Fund\n     * @return The indicator of whether a Loan Fund is custom or not\n     */\n    function custom(bytes32 fund) public view returns (bool) {\n        return bools[fund].custom;\n    }\n\n    /**\n     * @notice Get the number of secretHashes provided per address\n     * @param addr_ The address of the user\n     * @return The length of the secretHashes array for user address\n     */\n    function secretHashesCount(address addr_) external view returns (uint256) {\n        return secretHashes[addr_].length;\n    }\n\n    /**\n     * @notice Lenders create Loan Fund using Global Protocol parameters and deposit assets\n     * @param maxLoanDur_ Max Loan Duration of Loan Fund in seconds\n     * @param arbiter_  Optional address of arbiter\n     * @param compoundEnabled_ Indicator whether excess funds should be lent on Compound\n     * @param amount_ Amount of tokens to be deposited on creation\n     * @return The Id of a Loan Fund\n     *\n     *         Note: Only one loan fund is allowed per ethereum address.\n     *               Exception is made for the deployer for testing.\n     */\n    function create(\n        uint256  maxLoanDur_,\n        uint256  fundExpiry_,\n        address  arbiter_,\n        bool     compoundEnabled_,\n        uint256  amount_\n    ) external returns (bytes32 fund) { \n        require(funds[fundOwner[msg.sender]].lender != msg.sender || msg.sender == deployer); // Only allow one loan fund per address\n        require(ensureNotZero(maxLoanDur_) != 2**256-1 || ensureNotZero(fundExpiry_) != 2**256-1); // Make sure someone can't request a loan for eternity\n        if (!compoundSet) { require(compoundEnabled_ == false); }\n        fundIndex = add(fundIndex, 1);\n        fund = bytes32(fundIndex);\n        funds[fund].lender           = msg.sender;\n        funds[fund].maxLoanDur       = ensureNotZero(maxLoanDur_);\n        funds[fund].fundExpiry       = ensureNotZero(fundExpiry_);\n        funds[fund].arbiter          = arbiter_;\n        bools[fund].custom           = false;\n        bools[fund].compoundEnabled  = compoundEnabled_;\n        fundOwner[msg.sender]        = bytes32(fundIndex);\n        if (amount_ > 0) { deposit(fund, amount_); }\n\n        emit Create(fund);\n    }\n\n    /**\n     * @notice Lenders create Loan Fund using Custom parameters and deposit assets\n     * @param minLoanAmt_ Minimum amount of tokens that can be borrowed from Loan Fund\n     * @param maxLoanAmt_ Maximum amount of tokens that can be borrowed from Loan Fund\n     * @param minLoanDur_ Minimum length of loan that can be requested from Loan Fund in seconds\n     * @param maxLoanDur_ Maximum length of loan that can be requested from Loan Fund in seconds\n     * @param arbiter_  Optional address of arbiter\n     * @param compoundEnabled_ Indicator whether excess funds should be lent on Compound\n     * @param amount_ Amount of tokens to be deposited on creation\n     * @return The Id of a Loan Fund\n     *\n     *         Note: Only one loan fund is allowed per ethereum address.\n     *               Exception is made for the deployer for testing.\n     */\n    function createCustom(\n        uint256  minLoanAmt_,\n        uint256  maxLoanAmt_,\n        uint256  minLoanDur_,\n        uint256  maxLoanDur_,\n        uint256  fundExpiry_,\n        uint256  liquidationRatio_,\n        uint256  interest_,\n        uint256  penalty_,\n        uint256  fee_,\n        address  arbiter_,\n        bool     compoundEnabled_,\n        uint256  amount_\n    ) external returns (bytes32 fund) {\n        require(funds[fundOwner[msg.sender]].lender != msg.sender || msg.sender == deployer); // Only allow one loan fund per address\n        require(ensureNotZero(maxLoanDur_) != 2**256-1 || ensureNotZero(fundExpiry_) != 2**256-1); // Make sure someone can't request a loan for eternity\n        if (!compoundSet) { require(compoundEnabled_ == false); }\n        fundIndex = add(fundIndex, 1);\n        fund = bytes32(fundIndex);\n        funds[fund].lender           = msg.sender;\n        funds[fund].minLoanAmt       = minLoanAmt_;\n        funds[fund].maxLoanAmt       = maxLoanAmt_;\n        funds[fund].minLoanDur       = minLoanDur_;\n        funds[fund].maxLoanDur       = ensureNotZero(maxLoanDur_);\n        funds[fund].fundExpiry       = ensureNotZero(fundExpiry_);\n        funds[fund].interest         = interest_;\n        funds[fund].penalty          = penalty_;\n        funds[fund].fee              = fee_;\n        funds[fund].liquidationRatio = liquidationRatio_;\n        funds[fund].arbiter          = arbiter_;\n        bools[fund].custom           = true;\n        bools[fund].compoundEnabled  = compoundEnabled_;\n        fundOwner[msg.sender]        = bytes32(fundIndex);\n        if (amount_ > 0) { deposit(fund, amount_); }\n\n        emit Create(fund);\n    }\n\n    /**\n     * @notice Lenders deposit tokens in Loan Fund\n     * @param fund The Id of a Loan Fund\n     * @param amount Amount of tokens to deposit\n     *\n     *        Note: Anyone can deposit tokens into a Loan Fund\n     */\n    function deposit(bytes32 fund, uint256 amount) public {\n        require(token.transferFrom(msg.sender, address(this), amount));\n        if (bools[fund].compoundEnabled) {\n            mintCToken(address(token), address(cToken), amount);\n            uint256 cTokenToAdd = div(mul(amount, WAD), cToken.exchangeRateCurrent());\n            funds[fund].cBalance = add(funds[fund].cBalance, cTokenToAdd);\n            if (!custom(fund)) { cTokenMarketLiquidity = add(cTokenMarketLiquidity, cTokenToAdd); }\n        } else {\n            funds[fund].balance = add(funds[fund].balance, amount);\n            if (!custom(fund)) { tokenMarketLiquidity = add(tokenMarketLiquidity, amount); }\n        }\n        if (!custom(fund)) { calcGlobalInterest(); }\n    }\n\n    /**\n     * @notice Users update Loan Fund settings\n     * @param fund The Id of a Loan Fund\n     * @param maxLoanDur_ Maximum length of loan that can be requested from Loan Fund in seconds\n     * @param fundExpiry_ Timestamp when all funds should be removable from Loan Fund\n     * @param arbiter_ The address of the arbiter for a Loan fund\n     *\n     *        Note: msg.sender must be the lender of the Loan Fund\n     */\n    function update(\n        bytes32  fund,\n        uint256  maxLoanDur_,\n        uint256  fundExpiry_,\n        address  arbiter_\n    ) public {\n        require(msg.sender == lender(fund));\n        require(ensureNotZero(maxLoanDur_) != 2**256-1 || ensureNotZero(fundExpiry_) != 2**256-1); // Make sure someone can't request a loan for eternity\n        funds[fund].maxLoanDur       = maxLoanDur_;\n        funds[fund].fundExpiry       = fundExpiry_;\n        funds[fund].arbiter          = arbiter_;\n    }\n\n    /**\n     * @notice Users update custom Loan Fund settings\n     * @param fund The Id of a Loan Fund\n     * @param minLoanAmt_ Minimum amount of tokens that can be borrowed from Loan Fund\n     * @param maxLoanAmt_ Maximum amount of tokens that can be borrowed from Loan Fund\n     * @param minLoanDur_ Minimum length of loan that can be requested from Loan Fund in seconds\n     * @param maxLoanDur_ Maximum length of loan that can be requested from Loan Fund in seconds\n     * @param fundExpiry_ Timestamp when all funds should be removable from Loan Fund\n     * @param interest_ The interest rate per second for a Loan Fund in RAY per second\n     * @param penalty_ The liquidation penalty rate per second for a Loan Fund in RAY per second\n     * @param fee_ The optional automation fee rate of Loan Fund in RAY per second\n     * @param liquidationRatio_ The liquidation ratio of Loan Fund in RAY\n     * @param arbiter_ The address of the arbiter for a Loan fund\n     *\n     *        Note: msg.sender must be the lender of the Loan Fund\n     */\n    function updateCustom(\n        bytes32  fund,\n        uint256  minLoanAmt_,\n        uint256  maxLoanAmt_,\n        uint256  minLoanDur_,\n        uint256  maxLoanDur_,\n        uint256  fundExpiry_,\n        uint256  interest_,\n        uint256  penalty_,\n        uint256  fee_,\n        uint256  liquidationRatio_,\n        address  arbiter_\n    ) external {\n        require(bools[fund].custom);\n        update(fund, maxLoanDur_, fundExpiry_, arbiter_);\n        funds[fund].minLoanAmt       = minLoanAmt_;\n        funds[fund].maxLoanAmt       = maxLoanAmt_;\n        funds[fund].minLoanDur       = minLoanDur_;\n        funds[fund].interest         = interest_;\n        funds[fund].penalty          = penalty_;\n        funds[fund].fee              = fee_;\n        funds[fund].liquidationRatio = liquidationRatio_;\n    }\n\n    /**\n     * @notice Lenders request loan from Loan Fund on behalf of Borrower\n     * @param fund The Id of a Loan Fund\n     * @param amount_ Amount of tokens to request\n     * @param collateral_ Amount of collateral to deposit in satoshis\n     * @param loanDur_ Length of loan request in seconds\n     * @param secretHashes_ 4 Borrower Secret Hashes and 4 Lender Secret Hashes\n     * @param pubKeyA_ Borrower Bitcoin public key to use for refunding collateral\n     * @param pubKeyB_ Lender Bitcoin public key to use for refunding collateral\n     *\n     *        Note: Borrower client should verify params after Ethereum tx\n     *              confirmation before locking Bitcoin.\n     *\n     */\n    function request(\n        bytes32             fund,\n        address             borrower_,\n        uint256             amount_,\n        uint256             collateral_,\n        uint256             loanDur_,\n        uint256             requestTimestamp_,\n        bytes32[8] calldata secretHashes_,\n        bytes      calldata pubKeyA_,\n        bytes      calldata pubKeyB_\n    ) external returns (bytes32 loanIndex) {\n        require(msg.sender == lender(fund));\n        require(amount_    <= balance(fund));\n        require(amount_    >= minLoanAmt(fund));\n        require(amount_    <= maxLoanAmt(fund));\n        require(loanDur_   >= minLoanDur(fund));\n        require(loanDur_   <= sub(fundExpiry(fund), now) && loanDur_ <= maxLoanDur(fund));\n\n        loanIndex = createLoan(fund, borrower_, amount_, collateral_, loanDur_, requestTimestamp_);\n        loanSetSecretHashes(fund, loanIndex, secretHashes_, pubKeyA_, pubKeyB_);\n        loanUpdateMarketLiquidity(fund, amount_);\n        loans.fund(loanIndex);\n    }\n\n    /**\n     * @notice Lenders withdraw tokens in Loan Fund\n     * @param fund The Id of a Loan Fund\n     * @param amount Amount of tokens to withdraw\n     */\n    function withdraw(bytes32 fund, uint256 amount) external {\n        withdrawTo(fund, amount, msg.sender);\n    }\n\n    /**\n     * @notice Lenders withdraw tokens in Loan Fund\n     * @param fund The Id of a Loan Fund\n     * @param amount Amount of tokens to withdraw\n     * @param recipient Address that should receive the funds\n     */\n    function withdrawTo(bytes32 fund, uint256 amount, address recipient) public {\n        require(msg.sender     == lender(fund));\n        require(balance(fund)  >= amount);\n        if (bools[fund].compoundEnabled) {\n            uint256 cBalanceBefore = cToken.balanceOf(address(this));\n            redeemUnderlying(address(cToken), amount);\n            uint256 cBalanceAfter = cToken.balanceOf(address(this));\n            uint256 cTokenToRemove = sub(cBalanceBefore, cBalanceAfter);\n            funds[fund].cBalance = sub(funds[fund].cBalance, cTokenToRemove);\n            require(token.transfer(recipient, amount));\n            if (!custom(fund)) { cTokenMarketLiquidity = sub(cTokenMarketLiquidity, cTokenToRemove); }\n        } else {\n            funds[fund].balance = sub(funds[fund].balance, amount);\n            require(token.transfer(recipient, amount));\n            if (!custom(fund)) { tokenMarketLiquidity = sub(tokenMarketLiquidity, amount); }\n        }\n        if (!custom(fund)) { calcGlobalInterest(); }\n    }\n\n    /**\n     * @notice Submit secretHashes to be used with future loans\n     * @param secretHashes_ List of secretHashes\n     */\n    function generate(bytes32[] calldata secretHashes_) external {\n        for (uint i = 0; i < secretHashes_.length; i++) {\n            secretHashes[msg.sender].push(secretHashes_[i]);\n        }\n    }\n\n    /**\n     * @notice Set Lender or Arbiter Bitcoin Public Key\n     * @param pubKey Bitcoin Public Key\n     */\n    function setPubKey(bytes calldata pubKey) external { // Set PubKey for Fund\n        pubKeys[msg.sender] = pubKey;\n    }\n\n    /**\n     * @notice Enable Compound for Loan Fund\n     * @param fund The Id of a Loan Fund\n     */\n    function enableCompound(bytes32 fund) external {\n        require(compoundSet);\n        require(bools[fund].compoundEnabled == false);\n        require(msg.sender == lender(fund));\n        uint256 cBalanceBefore = cToken.balanceOf(address(this));\n        mintCToken(address(token), address(cToken), funds[fund].balance);\n        uint256 cBalanceAfter = cToken.balanceOf(address(this));\n        uint256 cTokenToReturn = sub(cBalanceAfter, cBalanceBefore);\n        tokenMarketLiquidity = sub(tokenMarketLiquidity, funds[fund].balance);\n        cTokenMarketLiquidity = add(cTokenMarketLiquidity, cTokenToReturn);\n        bools[fund].compoundEnabled = true;\n        funds[fund].balance = 0;\n        funds[fund].cBalance = cTokenToReturn;\n    }\n\n    /**\n     * @notice Disable Compound for Loan Fund\n     * @param fund The Id of a Loan Fund\n     */\n    function disableCompound(bytes32 fund) external {\n        require(bools[fund].compoundEnabled);\n        require(msg.sender == lender(fund));\n        uint256 balanceBefore = token.balanceOf(address(this));\n        redeemCToken(address(cToken), funds[fund].cBalance);\n        uint256 balanceAfter = token.balanceOf(address(this));\n        uint256 tokenToReturn = sub(balanceAfter, balanceBefore);\n        tokenMarketLiquidity = add(tokenMarketLiquidity, tokenToReturn);\n        cTokenMarketLiquidity = sub(cTokenMarketLiquidity, funds[fund].cBalance);\n        bools[fund].compoundEnabled = false;\n        funds[fund].cBalance = 0;\n        funds[fund].balance = tokenToReturn;\n    }\n\n    /**\n     * @notice Decrease Total Borrow by Loans contract\n     * @param amount The amount of tokens to decrease totalBorrow by\n     */\n    function decreaseTotalBorrow(uint256 amount) external {\n        require(msg.sender == address(loans));\n        totalBorrow = sub(totalBorrow, amount);\n    }\n\n    /**\n     * @notice Calculate and update Global Interest Rate\n     * @dev Implementation returns Global Interest Rate per second in RAY\n     *      \n     *      Note: Only updates interest rate if interestUpdateDelay has passed since last update\n     *            if utilizationRatio increases newAPR = oldAPR + (min(10%, utilizationRatio) / 10)\n     *            if utilizationRatio decreases newAPR = oldAPR - (max(10%, utilizationRatio) / 10)\n     *            APR should be less than or equal to 1%\n     *            For every 10% change in utilization ratio, the interest rate will change a maximum of 1%\n     *            i.e. newAPR = 11.5% + (10% / 10) = 12.5%\n     *\n     */\n    function calcGlobalInterest() public {\n        marketLiquidity = add(tokenMarketLiquidity, wmul(cTokenMarketLiquidity, cTokenExchangeRate()));\n\n        if (now > (lastGlobalInterestUpdated + interestUpdateDelay)) {\n            uint256 utilizationRatio;\n            if (totalBorrow != 0) { utilizationRatio = rdiv(totalBorrow, add(marketLiquidity, totalBorrow)); }\n\n            if (utilizationRatio > lastUtilizationRatio) {\n                uint256 changeUtilizationRatio = sub(utilizationRatio, lastUtilizationRatio);\n                globalInterestRateNumerator = min(maxInterestRateNumerator, add(globalInterestRateNumerator, rdiv(min(maxUtilizationDelta, changeUtilizationRatio), utilizationInterestDivisor)));\n            } else {\n                uint256 changeUtilizationRatio = sub(lastUtilizationRatio, utilizationRatio);\n                globalInterestRateNumerator = max(minInterestRateNumerator, sub(globalInterestRateNumerator, rdiv(min(maxUtilizationDelta, changeUtilizationRatio), utilizationInterestDivisor)));\n            }\n\n            globalInterestRate = add(RAY, div(globalInterestRateNumerator, NUM_SECONDS_IN_YEAR));\n\n            lastGlobalInterestUpdated = now;\n            lastUtilizationRatio = utilizationRatio;\n        }\n    }\n\n    /*\n     * @notice Calculate compound interest for a length of time\n     * @param amount The amount of tokens\n     * @param rate The interest rate in seconds\n     * @param loanDur The loan duration in seconds\n     */\n    function calcInterest(uint256 amount, uint256 rate, uint256 loanDur) public pure returns (uint256) {\n        return sub(rmul(amount, rpow(rate, loanDur)), amount);\n    }\n\n    /*\n     * @dev Ensure null values for fundExpiry and maxLoanDur are set to 2**256-1\n     * @param value The value to be sanity checked\n     */\n    function ensureNotZero(uint256 value) public pure returns (uint256) {\n        if (value == 0) { return 2**256-1; }\n        else            { return value; }\n    }\n\n    /*\n     * @dev Takes loan request parameters, creates loan, and returns loanIndex\n     * @param fund The Id of a Loan Fund\n     * @param amount_ Amount of tokens to request\n     * @param collateral_ Amount of collateral to deposit in satoshis\n     * @param loanDur_ Length of loan request in seconds     \n     */\n    function createLoan(\n        bytes32  fund,\n        address  borrower_,\n        uint256  amount_,\n        uint256  collateral_,\n        uint256  loanDur_,\n        uint256  requestTimestamp_\n    ) private returns (bytes32 loanIndex) {\n        loanIndex = loans.create(\n            now + loanDur_,\n            [ borrower_, lender(fund), funds[fund].arbiter],\n            [ amount_, calcInterest(amount_, interest(fund), loanDur_), calcInterest(amount_, penalty(fund), loanDur_), calcInterest(amount_, fee(fund), loanDur_), collateral_, liquidationRatio(fund), requestTimestamp_],\n            fund\n        );\n    }\n\n    /*\n     * @dev Takes loan request Bitcoin parameters, sets loan Public Keys and Secret Hashes\n     * @param fund The Id of the Loan Fund\n     * @param loan The Id of the Loan\n     * @param secretHashes_ 4 Borrower Secret Hashes and 4 Lender Secret Hashes\n     * @param pubKeyA_ Borrower Bitcoin public key to use for refunding collateral\n     * @param pubKeyB_ Lender Bitcoin public key to use for refunding collateral\n     */\n    function loanSetSecretHashes(\n        bytes32           fund,\n        bytes32           loan,\n        bytes32[8] memory secretHashes_,\n        bytes      memory pubKeyA_,\n        bytes      memory pubKeyB_\n    ) private {\n        loans.setSecretHashes(\n            loan,\n            [ secretHashes_[0], secretHashes_[1], secretHashes_[2], secretHashes_[3] ],\n            [ secretHashes_[4], secretHashes_[5], secretHashes_[6], secretHashes_[7] ],\n            getSecretHashesForLoan(arbiter(fund)),\n            pubKeyA_,\n            pubKeyB_,\n            pubKeys[arbiter(fund)]\n        );\n    }\n\n    /*\n     * @dev Updates market liquidity based on amount of tokens being requested to borrow\n     * @param fund Loan Id of the Loan Fund\n     * @param amount The amount of tokens that are being requested\n     */\n    function loanUpdateMarketLiquidity(bytes32 fund, uint256 amount) private {\n        if (bools[fund].compoundEnabled) {\n            uint256 cBalanceBefore = cToken.balanceOf(address(this));\n            redeemUnderlying(address(cToken), amount);\n            uint256 cBalanceAfter = cToken.balanceOf(address(this));\n            uint256 cTokenToRemove = sub(cBalanceBefore, cBalanceAfter);\n            funds[fund].cBalance = sub(funds[fund].cBalance, cTokenToRemove);\n            if (!custom(fund)) { cTokenMarketLiquidity = sub(cTokenMarketLiquidity, cTokenToRemove); }\n        } else {\n            funds[fund].balance = sub(funds[fund].balance, amount);\n            if (!custom(fund)) { tokenMarketLiquidity = sub(tokenMarketLiquidity, amount); }\n        }\n        if (!custom(fund)) {\n            totalBorrow = add(totalBorrow, amount);\n            calcGlobalInterest();\n        }\n    }\n\n    /*\n     * @dev Get the next 4 secret hashes required for loan\n     * @param addr Address of Lender or Arbiter\n     */\n    function getSecretHashesForLoan(address addr) private returns (bytes32[4] memory) {\n        secretHashIndex[addr] = add(secretHashIndex[addr], 4);\n        return [\n            secretHashes[addr][sub(secretHashIndex[addr], 4)],\n            secretHashes[addr][sub(secretHashIndex[addr], 3)],\n            secretHashes[addr][sub(secretHashIndex[addr], 2)],\n            secretHashes[addr][sub(secretHashIndex[addr], 1)]\n        ];\n    }\n}\n",
  "sourcePath": "/Users/matthewblack/atomicloans/atomicloans-eth-contracts/contracts/Funds.sol",
  "compiler": {
    "name": "solc",
    "version": "0.5.10+commit.5a6ea5b1.Emscripten.clang"
  },
  "schemaVersion": "3.0.11",
  "updatedAt": "2020-01-11T22:56:36.717Z",
  "devdoc": {
    "methods": {
      "arbiter(bytes32)": {
        "params": {
          "fund": "The Id of a Loan Fund"
        },
        "return": "The address of the arbiter for a Loan fund"
      },
      "balance(bytes32)": {
        "params": {
          "fund": "The Id of a Loan Fund"
        },
        "return": "The amount of tokens remaining in Loan Fund"
      },
      "calcGlobalInterest()": {
        "details": "Implementation returns Global Interest Rate per second in RAY          Note: Only updates interest rate if interestUpdateDelay has passed since last update           if utilizationRatio increases newAPR = oldAPR + (min(10%, utilizationRatio) / 10)           if utilizationRatio decreases newAPR = oldAPR - (max(10%, utilizationRatio) / 10)           APR should be less than or equal to 1%           For every 10% change in utilization ratio, the interest rate will change a maximum of 1%           i.e. newAPR = 11.5% + (10% / 10) = 12.5%     "
      },
      "create(uint256,uint256,address,bool,uint256)": {
        "params": {
          "amount_": "Amount of tokens to be deposited on creation",
          "arbiter_": "Optional address of arbiter",
          "compoundEnabled_": "Indicator whether excess funds should be lent on Compound",
          "maxLoanDur_": "Max Loan Duration of Loan Fund in seconds"
        },
        "return": "The Id of a Loan Fund     *         Note: Only one loan fund is allowed per ethereum address.              Exception is made for the deployer for testing."
      },
      "createCustom(uint256,uint256,uint256,uint256,uint256,uint256,uint256,uint256,uint256,address,bool,uint256)": {
        "params": {
          "amount_": "Amount of tokens to be deposited on creation",
          "arbiter_": "Optional address of arbiter",
          "compoundEnabled_": "Indicator whether excess funds should be lent on Compound",
          "maxLoanAmt_": "Maximum amount of tokens that can be borrowed from Loan Fund",
          "maxLoanDur_": "Maximum length of loan that can be requested from Loan Fund in seconds",
          "minLoanAmt_": "Minimum amount of tokens that can be borrowed from Loan Fund",
          "minLoanDur_": "Minimum length of loan that can be requested from Loan Fund in seconds"
        },
        "return": "The Id of a Loan Fund     *         Note: Only one loan fund is allowed per ethereum address.              Exception is made for the deployer for testing."
      },
      "custom(bytes32)": {
        "params": {
          "fund": "The Id of a Loan Fund"
        },
        "return": "The indicator of whether a Loan Fund is custom or not"
      },
      "decreaseTotalBorrow(uint256)": {
        "params": {
          "amount": "The amount of tokens to decrease totalBorrow by"
        }
      },
      "deposit(bytes32,uint256)": {
        "params": {
          "amount": "Amount of tokens to deposit     *        Note: Anyone can deposit tokens into a Loan Fund",
          "fund": "The Id of a Loan Fund"
        }
      },
      "disableCompound(bytes32)": {
        "params": {
          "fund": "The Id of a Loan Fund"
        }
      },
      "enableCompound(bytes32)": {
        "params": {
          "fund": "The Id of a Loan Fund"
        }
      },
      "fee(bytes32)": {
        "params": {
          "fund": "The Id of a Loan Fund"
        },
        "return": "The optional automation fee rate of Loan Fund in RAY per second"
      },
      "fundExpiry(bytes32)": {
        "params": {
          "fund": "The Id of a Loan Fund"
        },
        "return": "The maximum duration loan that can be requested from a Loan Fund"
      },
      "generate(bytes32[])": {
        "params": {
          "secretHashes_": "List of secretHashes"
        }
      },
      "getComptrollerAddress()": {
        "details": "get Compound Comptroller Address"
      },
      "interest(bytes32)": {
        "params": {
          "fund": "The Id of a Loan Fund"
        },
        "return": "The interest rate per second for a Loan Fund in RAY per second"
      },
      "lender(bytes32)": {
        "params": {
          "fund": "The Id of a Loan Fund"
        },
        "return": "Owner address of Loan Fund"
      },
      "liquidationRatio(bytes32)": {
        "params": {
          "fund": "The Id of a Loan Fund"
        },
        "return": "The liquidation ratio of Loan Fund in RAY"
      },
      "maxLoanAmt(bytes32)": {
        "params": {
          "fund": "The Id of a Loan Fund"
        },
        "return": "The maximum amount of tokens that can be requested from a Loan Fund"
      },
      "maxLoanDur(bytes32)": {
        "params": {
          "fund": "The Id of a Loan Fund"
        },
        "return": "The maximum duration loan that can be requested from a Loan Fund"
      },
      "minLoanAmt(bytes32)": {
        "params": {
          "fund": "The Id of a Loan Fund"
        },
        "return": "The minimum amount of tokens that can be requested from a Loan Fund"
      },
      "minLoanDur(bytes32)": {
        "params": {
          "fund": "The Id of a Loan Fund"
        },
        "return": "The minimum duration loan that can be requested from a Loan Fund"
      },
      "penalty(bytes32)": {
        "params": {
          "fund": "The Id of a Loan Fund"
        },
        "return": "The liquidation penalty rate per second for a Loan Fund in RAY per second"
      },
      "request(bytes32,address,uint256,uint256,uint256,uint256,bytes32[8],bytes,bytes)": {
        "params": {
          "amount_": "Amount of tokens to request",
          "collateral_": "Amount of collateral to deposit in satoshis",
          "fund": "The Id of a Loan Fund",
          "loanDur_": "Length of loan request in seconds",
          "pubKeyA_": "Borrower Bitcoin public key to use for refunding collateral",
          "pubKeyB_": "Lender Bitcoin public key to use for refunding collateral     *        Note: Borrower client should verify params after Ethereum tx             confirmation before locking Bitcoin.     ",
          "secretHashes_": "4 Borrower Secret Hashes and 4 Lender Secret Hashes"
        }
      },
      "secretHashesCount(address)": {
        "params": {
          "addr_": "The address of the user"
        },
        "return": "The length of the secretHashes array for user address"
      },
      "setCompound(address,address)": {
        "details": "Enables assets in loan fund that haven't been borrowed to be lent on Compound",
        "params": {
          "cToken_": "The address of the Compound Token",
          "comptroller_": "The address of the Compound Comptroller"
        }
      },
      "setDefaultArbiterFee(uint256)": {
        "details": "Sets the Default Arbiter Fee"
      },
      "setGlobalInterestRate(uint256)": {
        "details": "Sets the Global Interest Rate"
      },
      "setGlobalInterestRateNumerator(uint256)": {
        "details": "Sets the Global Interest Rate Numerator"
      },
      "setInterestUpdateDelay(uint256)": {
        "details": "Sets the Interest Update Delay"
      },
      "setLoans(address)": {
        "details": "Sets Loans contract",
        "params": {
          "loans_": "Address of Loans contract"
        }
      },
      "setMaxInterestRateNumerator(uint256)": {
        "details": "Sets the Maximum Interest Rate Numerator"
      },
      "setMaxUtilizationDelta(uint256)": {
        "details": "Sets the Max Utilization Delta"
      },
      "setMinInterestRateNumerator(uint256)": {
        "details": "Sets the Minimum Interest Rate Numerator"
      },
      "setPubKey(bytes)": {
        "params": {
          "pubKey": "Bitcoin Public Key"
        }
      },
      "setUtilizationInterestDivisor(uint256)": {
        "details": "Sets the Utilization Interest Divisor"
      },
      "update(bytes32,uint256,uint256,address)": {
        "params": {
          "arbiter_": "The address of the arbiter for a Loan fund     *        Note: msg.sender must be the lender of the Loan Fund",
          "fund": "The Id of a Loan Fund",
          "fundExpiry_": "Timestamp when all funds should be removable from Loan Fund",
          "maxLoanDur_": "Maximum length of loan that can be requested from Loan Fund in seconds"
        }
      },
      "updateCustom(bytes32,uint256,uint256,uint256,uint256,uint256,uint256,uint256,uint256,uint256,address)": {
        "params": {
          "arbiter_": "The address of the arbiter for a Loan fund     *        Note: msg.sender must be the lender of the Loan Fund",
          "fee_": "The optional automation fee rate of Loan Fund in RAY per second",
          "fund": "The Id of a Loan Fund",
          "fundExpiry_": "Timestamp when all funds should be removable from Loan Fund",
          "interest_": "The interest rate per second for a Loan Fund in RAY per second",
          "liquidationRatio_": "The liquidation ratio of Loan Fund in RAY",
          "maxLoanAmt_": "Maximum amount of tokens that can be borrowed from Loan Fund",
          "maxLoanDur_": "Maximum length of loan that can be requested from Loan Fund in seconds",
          "minLoanAmt_": "Minimum amount of tokens that can be borrowed from Loan Fund",
          "minLoanDur_": "Minimum length of loan that can be requested from Loan Fund in seconds",
          "penalty_": "The liquidation penalty rate per second for a Loan Fund in RAY per second"
        }
      },
      "withdraw(bytes32,uint256)": {
        "params": {
          "amount": "Amount of tokens to withdraw",
          "fund": "The Id of a Loan Fund"
        }
      },
      "withdrawTo(bytes32,uint256,address)": {
        "params": {
          "amount": "Amount of tokens to withdraw",
          "fund": "The Id of a Loan Fund",
          "recipient": "Address that should receive the funds"
        }
      }
    }
  },
  "userdoc": {
    "methods": {
      "arbiter(bytes32)": {
        "notice": "Get the arbiter for a Loan Fund"
      },
      "balance(bytes32)": {
        "notice": "Get the current balance of a Loan Fund in tokens"
      },
      "calcGlobalInterest()": {
        "notice": "Calculate and update Global Interest Rate"
      },
      "create(uint256,uint256,address,bool,uint256)": {
        "notice": "Lenders create Loan Fund using Global Protocol parameters and deposit assets"
      },
      "createCustom(uint256,uint256,uint256,uint256,uint256,uint256,uint256,uint256,uint256,address,bool,uint256)": {
        "notice": "Lenders create Loan Fund using Custom parameters and deposit assets"
      },
      "custom(bytes32)": {
        "notice": "Get the custom indicator for a Loan Fund"
      },
      "decreaseTotalBorrow(uint256)": {
        "notice": "Decrease Total Borrow by Loans contract"
      },
      "deposit(bytes32,uint256)": {
        "notice": "Lenders deposit tokens in Loan Fund"
      },
      "disableCompound(bytes32)": {
        "notice": "Disable Compound for Loan Fund"
      },
      "enableCompound(bytes32)": {
        "notice": "Enable Compound for Loan Fund"
      },
      "fee(bytes32)": {
        "notice": "Get the optional automation fee for a Loan Fund"
      },
      "fundExpiry(bytes32)": {
        "notice": "Get maximum loan duration able to be requested by a 'borrower'"
      },
      "generate(bytes32[])": {
        "notice": "Submit secretHashes to be used with future loans"
      },
      "interest(bytes32)": {
        "notice": "Get the interest rate for a Loan Fund"
      },
      "lender(bytes32)": {
        "notice": "Get the lender of a Loan Fund"
      },
      "liquidationRatio(bytes32)": {
        "notice": "Get the liquidation ratio of a Loan Fund"
      },
      "maxLoanAmt(bytes32)": {
        "notice": "Get maximum loan amount able to be requested by a 'borrower'"
      },
      "maxLoanDur(bytes32)": {
        "notice": "Get maximum loan duration able to be requested by a 'borrower'"
      },
      "minLoanAmt(bytes32)": {
        "notice": "Get minimum loan amount able to be requested by a 'borrower'"
      },
      "minLoanDur(bytes32)": {
        "notice": "Get minimum loan duration able to be requested by a 'borrower'"
      },
      "penalty(bytes32)": {
        "notice": "Get the liquidation penalty rate for a Loan Fund"
      },
      "request(bytes32,address,uint256,uint256,uint256,uint256,bytes32[8],bytes,bytes)": {
        "notice": "Lenders request loan from Loan Fund on behalf of Borrower"
      },
      "secretHashesCount(address)": {
        "notice": "Get the number of secretHashes provided per address"
      },
      "setPubKey(bytes)": {
        "notice": "Set Lender or Arbiter Bitcoin Public Key"
      },
      "update(bytes32,uint256,uint256,address)": {
        "notice": "Users update Loan Fund settings"
      },
      "updateCustom(bytes32,uint256,uint256,uint256,uint256,uint256,uint256,uint256,uint256,uint256,address)": {
        "notice": "Users update custom Loan Fund settings"
      },
      "withdraw(bytes32,uint256)": {
        "notice": "Lenders withdraw tokens in Loan Fund"
      },
      "withdrawTo(bytes32,uint256,address)": {
        "notice": "Lenders withdraw tokens in Loan Fund"
      }
    }
  }
}