{
  "contractName": "Loans",
  "abi": [
    {
      "constant": true,
      "inputs": [
        {
          "name": "",
          "type": "bytes32"
        }
      ],
      "name": "collateralDepositIndex",
      "outputs": [
        {
          "name": "",
          "type": "uint256"
        }
      ],
      "payable": false,
      "stateMutability": "view",
      "type": "function"
    },
    {
      "constant": true,
      "inputs": [],
      "name": "ADD_COLLATERAL_EXPIRY",
      "outputs": [
        {
          "name": "",
          "type": "uint256"
        }
      ],
      "payable": false,
      "stateMutability": "view",
      "type": "function"
    },
    {
      "constant": true,
      "inputs": [
        {
          "name": "",
          "type": "bytes32"
        }
      ],
      "name": "temporaryCollaterals",
      "outputs": [
        {
          "name": "refundableCollateral",
          "type": "uint256"
        },
        {
          "name": "seizableCollateral",
          "type": "uint256"
        },
        {
          "name": "unaccountedRefundableCollateral",
          "type": "uint256"
        }
      ],
      "payable": false,
      "stateMutability": "view",
      "type": "function"
    },
    {
      "constant": true,
      "inputs": [
        {
          "name": "",
          "type": "bytes32"
        }
      ],
      "name": "tokes",
      "outputs": [
        {
          "name": "",
          "type": "address"
        }
      ],
      "payable": false,
      "stateMutability": "view",
      "type": "function"
    },
    {
      "constant": true,
      "inputs": [],
      "name": "decimals",
      "outputs": [
        {
          "name": "",
          "type": "uint256"
        }
      ],
      "payable": false,
      "stateMutability": "view",
      "type": "function"
    },
    {
      "constant": true,
      "inputs": [],
      "name": "LIQUIDATION_EXP_THRESHOLD",
      "outputs": [
        {
          "name": "",
          "type": "uint256"
        }
      ],
      "payable": false,
      "stateMutability": "view",
      "type": "function"
    },
    {
      "constant": true,
      "inputs": [
        {
          "name": "",
          "type": "address"
        },
        {
          "name": "",
          "type": "uint256"
        }
      ],
      "name": "lenderLoans",
      "outputs": [
        {
          "name": "",
          "type": "bytes32"
        }
      ],
      "payable": false,
      "stateMutability": "view",
      "type": "function"
    },
    {
      "constant": true,
      "inputs": [
        {
          "name": "",
          "type": "uint256"
        }
      ],
      "name": "requestsDetails",
      "outputs": [
        {
          "name": "loan",
          "type": "bytes32"
        },
        {
          "name": "finalized",
          "type": "bool"
        },
        {
          "name": "seizable",
          "type": "bool"
        },
        {
          "name": "p2wshAddress",
          "type": "bytes32"
        }
      ],
      "payable": false,
      "stateMutability": "view",
      "type": "function"
    },
    {
      "constant": true,
      "inputs": [
        {
          "name": "",
          "type": "bytes32"
        }
      ],
      "name": "bools",
      "outputs": [
        {
          "name": "funded",
          "type": "bool"
        },
        {
          "name": "approved",
          "type": "bool"
        },
        {
          "name": "withdrawn",
          "type": "bool"
        },
        {
          "name": "sale",
          "type": "bool"
        },
        {
          "name": "paid",
          "type": "bool"
        },
        {
          "name": "off",
          "type": "bool"
        }
      ],
      "payable": false,
      "stateMutability": "view",
      "type": "function"
    },
    {
      "constant": true,
      "inputs": [
        {
          "name": "",
          "type": "bytes32"
        }
      ],
      "name": "pubKeys",
      "outputs": [
        {
          "name": "borrowerPubKey",
          "type": "bytes"
        },
        {
          "name": "lenderPubKey",
          "type": "bytes"
        },
        {
          "name": "arbiterPubKey",
          "type": "bytes"
        }
      ],
      "payable": false,
      "stateMutability": "view",
      "type": "function"
    },
    {
      "constant": true,
      "inputs": [],
      "name": "loanIndex",
      "outputs": [
        {
          "name": "",
          "type": "uint256"
        }
      ],
      "payable": false,
      "stateMutability": "view",
      "type": "function"
    },
    {
      "constant": true,
      "inputs": [
        {
          "name": "",
          "type": "bytes32"
        }
      ],
      "name": "collaterals",
      "outputs": [
        {
          "name": "refundableCollateral",
          "type": "uint256"
        },
        {
          "name": "seizableCollateral",
          "type": "uint256"
        },
        {
          "name": "unaccountedRefundableCollateral",
          "type": "uint256"
        }
      ],
      "payable": false,
      "stateMutability": "view",
      "type": "function"
    },
    {
      "constant": true,
      "inputs": [],
      "name": "LIQUIDATION_DISCOUNT",
      "outputs": [
        {
          "name": "",
          "type": "uint256"
        }
      ],
      "payable": false,
      "stateMutability": "view",
      "type": "function"
    },
    {
      "constant": true,
      "inputs": [
        {
          "name": "",
          "type": "uint256"
        }
      ],
      "name": "requestsValid",
      "outputs": [
        {
          "name": "",
          "type": "bool"
        }
      ],
      "payable": false,
      "stateMutability": "view",
      "type": "function"
    },
    {
      "constant": true,
      "inputs": [
        {
          "name": "",
          "type": "bytes32"
        }
      ],
      "name": "loanRequests",
      "outputs": [
        {
          "name": "refundRequestIDOneConf",
          "type": "uint256"
        },
        {
          "name": "refundRequestIDSixConf",
          "type": "uint256"
        },
        {
          "name": "seizeRequestIDOneConf",
          "type": "uint256"
        },
        {
          "name": "seizeRequestIDSixConf",
          "type": "uint256"
        }
      ],
      "payable": false,
      "stateMutability": "view",
      "type": "function"
    },
    {
      "constant": true,
      "inputs": [],
      "name": "ACCEPT_EXP_THRESHOLD",
      "outputs": [
        {
          "name": "",
          "type": "uint256"
        }
      ],
      "payable": false,
      "stateMutability": "view",
      "type": "function"
    },
    {
      "constant": true,
      "inputs": [
        {
          "name": "",
          "type": "bytes32"
        }
      ],
      "name": "collateralDepositFinalizedIndex",
      "outputs": [
        {
          "name": "",
          "type": "uint256"
        }
      ],
      "payable": false,
      "stateMutability": "view",
      "type": "function"
    },
    {
      "constant": true,
      "inputs": [
        {
          "name": "",
          "type": "bytes32"
        }
      ],
      "name": "fundIndex",
      "outputs": [
        {
          "name": "",
          "type": "bytes32"
        }
      ],
      "payable": false,
      "stateMutability": "view",
      "type": "function"
    },
    {
      "constant": true,
      "inputs": [],
      "name": "APPROVE_EXP_THRESHOLD",
      "outputs": [
        {
          "name": "",
          "type": "uint256"
        }
      ],
      "payable": false,
      "stateMutability": "view",
      "type": "function"
    },
    {
      "constant": true,
      "inputs": [
        {
          "name": "",
          "type": "bytes32"
        }
      ],
      "name": "loans",
      "outputs": [
        {
          "name": "borrower",
          "type": "address"
        },
        {
          "name": "lender",
          "type": "address"
        },
        {
          "name": "arbiter",
          "type": "address"
        },
        {
          "name": "createdAt",
          "type": "uint256"
        },
        {
          "name": "loanExpiration",
          "type": "uint256"
        },
        {
          "name": "requestTimestamp",
          "type": "uint256"
        },
        {
          "name": "closedTimestamp",
          "type": "uint256"
        },
        {
          "name": "principal",
          "type": "uint256"
        },
        {
          "name": "interest",
          "type": "uint256"
        },
        {
          "name": "penalty",
          "type": "uint256"
        },
        {
          "name": "fee",
          "type": "uint256"
        },
        {
          "name": "liquidationRatio",
          "type": "uint256"
        }
      ],
      "payable": false,
      "stateMutability": "view",
      "type": "function"
    },
    {
      "constant": true,
      "inputs": [],
      "name": "SEIZURE_EXP_THRESHOLD",
      "outputs": [
        {
          "name": "",
          "type": "uint256"
        }
      ],
      "payable": false,
      "stateMutability": "view",
      "type": "function"
    },
    {
      "constant": true,
      "inputs": [
        {
          "name": "",
          "type": "bytes32"
        }
      ],
      "name": "secretHashes",
      "outputs": [
        {
          "name": "secretHashA1",
          "type": "bytes32"
        },
        {
          "name": "secretHashB1",
          "type": "bytes32"
        },
        {
          "name": "secretHashC1",
          "type": "bytes32"
        },
        {
          "name": "withdrawSecret",
          "type": "bytes32"
        },
        {
          "name": "acceptSecret",
          "type": "bytes32"
        },
        {
          "name": "set",
          "type": "bool"
        }
      ],
      "payable": false,
      "stateMutability": "view",
      "type": "function"
    },
    {
      "constant": true,
      "inputs": [
        {
          "name": "",
          "type": "address"
        },
        {
          "name": "",
          "type": "uint256"
        }
      ],
      "name": "borrowerLoans",
      "outputs": [
        {
          "name": "",
          "type": "bytes32"
        }
      ],
      "payable": false,
      "stateMutability": "view",
      "type": "function"
    },
    {
      "constant": true,
      "inputs": [
        {
          "name": "",
          "type": "bytes32"
        }
      ],
      "name": "repayments",
      "outputs": [
        {
          "name": "",
          "type": "uint256"
        }
      ],
      "payable": false,
      "stateMutability": "view",
      "type": "function"
    },
    {
      "constant": true,
      "inputs": [
        {
          "name": "x",
          "type": "uint256"
        },
        {
          "name": "y",
          "type": "uint256"
        }
      ],
      "name": "cmul",
      "outputs": [
        {
          "name": "z",
          "type": "uint256"
        }
      ],
      "payable": false,
      "stateMutability": "pure",
      "type": "function"
    },
    {
      "constant": true,
      "inputs": [
        {
          "name": "",
          "type": "bytes32"
        },
        {
          "name": "",
          "type": "uint256"
        }
      ],
      "name": "collateralDeposits",
      "outputs": [
        {
          "name": "amount",
          "type": "uint256"
        },
        {
          "name": "finalized",
          "type": "bool"
        },
        {
          "name": "seizable",
          "type": "bool"
        },
        {
          "name": "expiry",
          "type": "uint256"
        }
      ],
      "payable": false,
      "stateMutability": "view",
      "type": "function"
    },
    {
      "constant": true,
      "inputs": [
        {
          "name": "",
          "type": "uint256"
        }
      ],
      "name": "finalRequestToInitialRequest",
      "outputs": [
        {
          "name": "",
          "type": "uint256"
        }
      ],
      "payable": false,
      "stateMutability": "view",
      "type": "function"
    },
    {
      "constant": true,
      "inputs": [],
      "name": "token",
      "outputs": [
        {
          "name": "",
          "type": "address"
        }
      ],
      "payable": false,
      "stateMutability": "view",
      "type": "function"
    },
    {
      "inputs": [
        {
          "name": "funds_",
          "type": "address"
        },
        {
          "name": "med_",
          "type": "address"
        },
        {
          "name": "token_",
          "type": "address"
        },
        {
          "name": "decimals_",
          "type": "uint256"
        }
      ],
      "payable": false,
      "stateMutability": "nonpayable",
      "type": "constructor"
    },
    {
      "anonymous": false,
      "inputs": [
        {
          "indexed": false,
          "name": "loan",
          "type": "bytes32"
        }
      ],
      "name": "Create",
      "type": "event"
    },
    {
      "constant": true,
      "inputs": [
        {
          "name": "loan",
          "type": "bytes32"
        }
      ],
      "name": "borrower",
      "outputs": [
        {
          "name": "",
          "type": "address"
        }
      ],
      "payable": false,
      "stateMutability": "view",
      "type": "function"
    },
    {
      "constant": true,
      "inputs": [
        {
          "name": "loan",
          "type": "bytes32"
        }
      ],
      "name": "lender",
      "outputs": [
        {
          "name": "",
          "type": "address"
        }
      ],
      "payable": false,
      "stateMutability": "view",
      "type": "function"
    },
    {
      "constant": true,
      "inputs": [
        {
          "name": "loan",
          "type": "bytes32"
        }
      ],
      "name": "arbiter",
      "outputs": [
        {
          "name": "",
          "type": "address"
        }
      ],
      "payable": false,
      "stateMutability": "view",
      "type": "function"
    },
    {
      "constant": true,
      "inputs": [
        {
          "name": "loan",
          "type": "bytes32"
        }
      ],
      "name": "approveExpiration",
      "outputs": [
        {
          "name": "",
          "type": "uint256"
        }
      ],
      "payable": false,
      "stateMutability": "view",
      "type": "function"
    },
    {
      "constant": true,
      "inputs": [
        {
          "name": "loan",
          "type": "bytes32"
        }
      ],
      "name": "acceptExpiration",
      "outputs": [
        {
          "name": "",
          "type": "uint256"
        }
      ],
      "payable": false,
      "stateMutability": "view",
      "type": "function"
    },
    {
      "constant": true,
      "inputs": [
        {
          "name": "loan",
          "type": "bytes32"
        }
      ],
      "name": "liquidationExpiration",
      "outputs": [
        {
          "name": "",
          "type": "uint256"
        }
      ],
      "payable": false,
      "stateMutability": "view",
      "type": "function"
    },
    {
      "constant": true,
      "inputs": [
        {
          "name": "loan",
          "type": "bytes32"
        }
      ],
      "name": "seizureExpiration",
      "outputs": [
        {
          "name": "",
          "type": "uint256"
        }
      ],
      "payable": false,
      "stateMutability": "view",
      "type": "function"
    },
    {
      "constant": true,
      "inputs": [
        {
          "name": "loan",
          "type": "bytes32"
        }
      ],
      "name": "principal",
      "outputs": [
        {
          "name": "",
          "type": "uint256"
        }
      ],
      "payable": false,
      "stateMutability": "view",
      "type": "function"
    },
    {
      "constant": true,
      "inputs": [
        {
          "name": "loan",
          "type": "bytes32"
        }
      ],
      "name": "interest",
      "outputs": [
        {
          "name": "",
          "type": "uint256"
        }
      ],
      "payable": false,
      "stateMutability": "view",
      "type": "function"
    },
    {
      "constant": true,
      "inputs": [
        {
          "name": "loan",
          "type": "bytes32"
        }
      ],
      "name": "fee",
      "outputs": [
        {
          "name": "",
          "type": "uint256"
        }
      ],
      "payable": false,
      "stateMutability": "view",
      "type": "function"
    },
    {
      "constant": true,
      "inputs": [
        {
          "name": "loan",
          "type": "bytes32"
        }
      ],
      "name": "penalty",
      "outputs": [
        {
          "name": "",
          "type": "uint256"
        }
      ],
      "payable": false,
      "stateMutability": "view",
      "type": "function"
    },
    {
      "constant": true,
      "inputs": [
        {
          "name": "loan",
          "type": "bytes32"
        }
      ],
      "name": "collateral",
      "outputs": [
        {
          "name": "",
          "type": "uint256"
        }
      ],
      "payable": false,
      "stateMutability": "view",
      "type": "function"
    },
    {
      "constant": true,
      "inputs": [
        {
          "name": "loan",
          "type": "bytes32"
        }
      ],
      "name": "refundableCollateral",
      "outputs": [
        {
          "name": "",
          "type": "uint256"
        }
      ],
      "payable": false,
      "stateMutability": "view",
      "type": "function"
    },
    {
      "constant": true,
      "inputs": [
        {
          "name": "loan",
          "type": "bytes32"
        }
      ],
      "name": "seizableCollateral",
      "outputs": [
        {
          "name": "",
          "type": "uint256"
        }
      ],
      "payable": false,
      "stateMutability": "view",
      "type": "function"
    },
    {
      "constant": true,
      "inputs": [
        {
          "name": "loan",
          "type": "bytes32"
        }
      ],
      "name": "temporaryRefundableCollateral",
      "outputs": [
        {
          "name": "",
          "type": "uint256"
        }
      ],
      "payable": false,
      "stateMutability": "view",
      "type": "function"
    },
    {
      "constant": true,
      "inputs": [
        {
          "name": "loan",
          "type": "bytes32"
        }
      ],
      "name": "temporarySeizableCollateral",
      "outputs": [
        {
          "name": "",
          "type": "uint256"
        }
      ],
      "payable": false,
      "stateMutability": "view",
      "type": "function"
    },
    {
      "constant": true,
      "inputs": [
        {
          "name": "loan",
          "type": "bytes32"
        }
      ],
      "name": "repaid",
      "outputs": [
        {
          "name": "",
          "type": "uint256"
        }
      ],
      "payable": false,
      "stateMutability": "view",
      "type": "function"
    },
    {
      "constant": true,
      "inputs": [
        {
          "name": "loan",
          "type": "bytes32"
        }
      ],
      "name": "liquidationRatio",
      "outputs": [
        {
          "name": "",
          "type": "uint256"
        }
      ],
      "payable": false,
      "stateMutability": "view",
      "type": "function"
    },
    {
      "constant": true,
      "inputs": [
        {
          "name": "loan",
          "type": "bytes32"
        }
      ],
      "name": "owedToLender",
      "outputs": [
        {
          "name": "",
          "type": "uint256"
        }
      ],
      "payable": false,
      "stateMutability": "view",
      "type": "function"
    },
    {
      "constant": true,
      "inputs": [
        {
          "name": "loan",
          "type": "bytes32"
        }
      ],
      "name": "owedForLoan",
      "outputs": [
        {
          "name": "",
          "type": "uint256"
        }
      ],
      "payable": false,
      "stateMutability": "view",
      "type": "function"
    },
    {
      "constant": true,
      "inputs": [
        {
          "name": "loan",
          "type": "bytes32"
        }
      ],
      "name": "owedForLiquidation",
      "outputs": [
        {
          "name": "",
          "type": "uint256"
        }
      ],
      "payable": false,
      "stateMutability": "view",
      "type": "function"
    },
    {
      "constant": true,
      "inputs": [
        {
          "name": "loan",
          "type": "bytes32"
        }
      ],
      "name": "owing",
      "outputs": [
        {
          "name": "",
          "type": "uint256"
        }
      ],
      "payable": false,
      "stateMutability": "view",
      "type": "function"
    },
    {
      "constant": true,
      "inputs": [
        {
          "name": "loan",
          "type": "bytes32"
        }
      ],
      "name": "funded",
      "outputs": [
        {
          "name": "",
          "type": "bool"
        }
      ],
      "payable": false,
      "stateMutability": "view",
      "type": "function"
    },
    {
      "constant": true,
      "inputs": [
        {
          "name": "loan",
          "type": "bytes32"
        }
      ],
      "name": "approved",
      "outputs": [
        {
          "name": "",
          "type": "bool"
        }
      ],
      "payable": false,
      "stateMutability": "view",
      "type": "function"
    },
    {
      "constant": true,
      "inputs": [
        {
          "name": "loan",
          "type": "bytes32"
        }
      ],
      "name": "withdrawn",
      "outputs": [
        {
          "name": "",
          "type": "bool"
        }
      ],
      "payable": false,
      "stateMutability": "view",
      "type": "function"
    },
    {
      "constant": true,
      "inputs": [
        {
          "name": "loan",
          "type": "bytes32"
        }
      ],
      "name": "sale",
      "outputs": [
        {
          "name": "",
          "type": "bool"
        }
      ],
      "payable": false,
      "stateMutability": "view",
      "type": "function"
    },
    {
      "constant": true,
      "inputs": [
        {
          "name": "loan",
          "type": "bytes32"
        }
      ],
      "name": "paid",
      "outputs": [
        {
          "name": "",
          "type": "bool"
        }
      ],
      "payable": false,
      "stateMutability": "view",
      "type": "function"
    },
    {
      "constant": true,
      "inputs": [
        {
          "name": "loan",
          "type": "bytes32"
        }
      ],
      "name": "off",
      "outputs": [
        {
          "name": "",
          "type": "bool"
        }
      ],
      "payable": false,
      "stateMutability": "view",
      "type": "function"
    },
    {
      "constant": true,
      "inputs": [
        {
          "name": "x",
          "type": "uint256"
        }
      ],
      "name": "dmul",
      "outputs": [
        {
          "name": "",
          "type": "uint256"
        }
      ],
      "payable": false,
      "stateMutability": "view",
      "type": "function"
    },
    {
      "constant": true,
      "inputs": [
        {
          "name": "x",
          "type": "uint256"
        }
      ],
      "name": "ddiv",
      "outputs": [
        {
          "name": "",
          "type": "uint256"
        }
      ],
      "payable": false,
      "stateMutability": "view",
      "type": "function"
    },
    {
      "constant": true,
      "inputs": [
        {
          "name": "borrower_",
          "type": "address"
        }
      ],
      "name": "borrowerLoanCount",
      "outputs": [
        {
          "name": "",
          "type": "uint256"
        }
      ],
      "payable": false,
      "stateMutability": "view",
      "type": "function"
    },
    {
      "constant": true,
      "inputs": [
        {
          "name": "lender_",
          "type": "address"
        }
      ],
      "name": "lenderLoanCount",
      "outputs": [
        {
          "name": "",
          "type": "uint256"
        }
      ],
      "payable": false,
      "stateMutability": "view",
      "type": "function"
    },
    {
      "constant": true,
      "inputs": [
        {
          "name": "loan",
          "type": "bytes32"
        }
      ],
      "name": "minSeizableCollateralValue",
      "outputs": [
        {
          "name": "",
          "type": "uint256"
        }
      ],
      "payable": false,
      "stateMutability": "view",
      "type": "function"
    },
    {
      "constant": true,
      "inputs": [
        {
          "name": "loan",
          "type": "bytes32"
        }
      ],
      "name": "collateralValue",
      "outputs": [
        {
          "name": "",
          "type": "uint256"
        }
      ],
      "payable": false,
      "stateMutability": "view",
      "type": "function"
    },
    {
      "constant": true,
      "inputs": [
        {
          "name": "loan",
          "type": "bytes32"
        }
      ],
      "name": "minCollateralValue",
      "outputs": [
        {
          "name": "",
          "type": "uint256"
        }
      ],
      "payable": false,
      "stateMutability": "view",
      "type": "function"
    },
    {
      "constant": true,
      "inputs": [
        {
          "name": "loan",
          "type": "bytes32"
        }
      ],
      "name": "discountCollateralValue",
      "outputs": [
        {
          "name": "",
          "type": "uint256"
        }
      ],
      "payable": false,
      "stateMutability": "view",
      "type": "function"
    },
    {
      "constant": true,
      "inputs": [
        {
          "name": "loan",
          "type": "bytes32"
        }
      ],
      "name": "safe",
      "outputs": [
        {
          "name": "",
          "type": "bool"
        }
      ],
      "payable": false,
      "stateMutability": "view",
      "type": "function"
    },
    {
      "constant": false,
      "inputs": [
        {
          "name": "sales_",
          "type": "address"
        }
      ],
      "name": "setSales",
      "outputs": [],
      "payable": false,
      "stateMutability": "nonpayable",
      "type": "function"
    },
    {
      "constant": false,
      "inputs": [
        {
          "name": "p2wsh_",
          "type": "address"
        }
      ],
      "name": "setP2WSH",
      "outputs": [],
      "payable": false,
      "stateMutability": "nonpayable",
      "type": "function"
    },
    {
      "constant": false,
      "inputs": [
        {
          "name": "onDemandSpv_",
          "type": "address"
        }
      ],
      "name": "setOnDemandSpv",
      "outputs": [],
      "payable": false,
      "stateMutability": "nonpayable",
      "type": "function"
    },
    {
      "constant": false,
      "inputs": [
        {
          "name": "loanExpiration_",
          "type": "uint256"
        },
        {
          "name": "usrs_",
          "type": "address[3]"
        },
        {
          "name": "vals_",
          "type": "uint256[7]"
        },
        {
          "name": "fundIndex_",
          "type": "bytes32"
        }
      ],
      "name": "create",
      "outputs": [
        {
          "name": "loan",
          "type": "bytes32"
        }
      ],
      "payable": false,
      "stateMutability": "nonpayable",
      "type": "function"
    },
    {
      "constant": false,
      "inputs": [
        {
          "name": "loan",
          "type": "bytes32"
        },
        {
          "name": "borrowerSecretHashes",
          "type": "bytes32[4]"
        },
        {
          "name": "lenderSecretHashes",
          "type": "bytes32[4]"
        },
        {
          "name": "arbiterSecretHashes",
          "type": "bytes32[4]"
        },
        {
          "name": "borrowerPubKey_",
          "type": "bytes"
        },
        {
          "name": "lenderPubKey_",
          "type": "bytes"
        },
        {
          "name": "arbiterPubKey_",
          "type": "bytes"
        }
      ],
      "name": "setSecretHashes",
      "outputs": [
        {
          "name": "",
          "type": "bool"
        }
      ],
      "payable": false,
      "stateMutability": "nonpayable",
      "type": "function"
    },
    {
      "constant": false,
      "inputs": [
        {
          "name": "",
          "type": "bytes32"
        },
        {
          "name": "",
          "type": "bytes"
        },
        {
          "name": "_vout",
          "type": "bytes"
        },
        {
          "name": "_requestID",
          "type": "uint256"
        },
        {
          "name": "",
          "type": "uint8"
        },
        {
          "name": "_outputIndex",
          "type": "uint8"
        }
      ],
      "name": "spv",
      "outputs": [],
      "payable": false,
      "stateMutability": "nonpayable",
      "type": "function"
    },
    {
      "constant": false,
      "inputs": [
        {
          "name": "loan",
          "type": "bytes32"
        }
      ],
      "name": "fund",
      "outputs": [],
      "payable": false,
      "stateMutability": "nonpayable",
      "type": "function"
    },
    {
      "constant": false,
      "inputs": [
        {
          "name": "loan",
          "type": "bytes32"
        }
      ],
      "name": "approve",
      "outputs": [],
      "payable": false,
      "stateMutability": "nonpayable",
      "type": "function"
    },
    {
      "constant": false,
      "inputs": [
        {
          "name": "loan",
          "type": "bytes32"
        },
        {
          "name": "secretA1",
          "type": "bytes32"
        }
      ],
      "name": "withdraw",
      "outputs": [],
      "payable": false,
      "stateMutability": "nonpayable",
      "type": "function"
    },
    {
      "constant": false,
      "inputs": [
        {
          "name": "loan",
          "type": "bytes32"
        },
        {
          "name": "amount",
          "type": "uint256"
        }
      ],
      "name": "repay",
      "outputs": [],
      "payable": false,
      "stateMutability": "nonpayable",
      "type": "function"
    },
    {
      "constant": false,
      "inputs": [
        {
          "name": "loan",
          "type": "bytes32"
        }
      ],
      "name": "refund",
      "outputs": [],
      "payable": false,
      "stateMutability": "nonpayable",
      "type": "function"
    },
    {
      "constant": false,
      "inputs": [
        {
          "name": "loan",
          "type": "bytes32"
        },
        {
          "name": "secret",
          "type": "bytes32"
        }
      ],
      "name": "cancel",
      "outputs": [],
      "payable": false,
      "stateMutability": "nonpayable",
      "type": "function"
    },
    {
      "constant": false,
      "inputs": [
        {
          "name": "loan",
          "type": "bytes32"
        }
      ],
      "name": "cancel",
      "outputs": [],
      "payable": false,
      "stateMutability": "nonpayable",
      "type": "function"
    },
    {
      "constant": false,
      "inputs": [
        {
          "name": "loan",
          "type": "bytes32"
        },
        {
          "name": "secret",
          "type": "bytes32"
        }
      ],
      "name": "accept",
      "outputs": [],
      "payable": false,
      "stateMutability": "nonpayable",
      "type": "function"
    },
    {
      "constant": false,
      "inputs": [
        {
          "name": "loan",
          "type": "bytes32"
        },
        {
          "name": "secretHash",
          "type": "bytes32"
        },
        {
          "name": "pubKeyHash",
          "type": "bytes20"
        }
      ],
      "name": "liquidate",
      "outputs": [
        {
          "name": "sale_",
          "type": "bytes32"
        }
      ],
      "payable": false,
      "stateMutability": "nonpayable",
      "type": "function"
    }
  ],
  "bytecode": "0x60806040523480156200001157600080fd5b50604051620052a9380380620052a9833981810160405260808110156200003757600080fd5b508051602080830151604080850151606090950151601a8054336001600160a01b0319918216179091556000805482166001600160a01b038089169190911780835560018054851683891617905560188054909416828b161793849055601985905585517f095ea7b3000000000000000000000000000000000000000000000000000000008152908216600482015260001960248201529451979895979596939592169363095ea7b393604480830194919391928390030190829087803b1580156200010257600080fd5b505af115801562000117573d6000803e3d6000fd5b505050506040513d60208110156200012e57600080fd5b50516200013a57600080fd5b5050505061515b806200014e6000396000f3fe608060405234801561001057600080fd5b506004361061047f5760003560e01c80637a8cfcb411610257578063c4d252f511610146578063e95823ad116100c3578063f7837eb711610087578063f7837eb714611174578063faecb39f14611197578063fb7b250c146111ba578063fc0c546a146111d7578063fcfd8605146111df5761047f565b8063e95823ad14610fd3578063ebd1f26a14610ff0578063ec7a4f431461100d578063ee79b12b14611030578063f69736e0146111575761047f565b8063d973739e1161010a578063d973739e14610f2a578063df90997b14610f50578063e3ed190214610f6d578063e3eff40814610f99578063e91d14a414610fb65761047f565b8063c4d252f514610e78578063c52c0c9814610e95578063c71230bf14610eb2578063c82e428d14610cbb578063d357691d14610ed85761047f565b80639e7c565e116101d4578063a632730711610198578063a632730714610d8e578063add89bb214610dab578063ba38c83e14610dc8578063bf14c11914610dd0578063c4a9081514610ded5761047f565b80639e7c565e14610cfd5780639f9b3d3b14610d1a5780639fc3f02f14610d37578063a53a1adf14610d54578063a5d9dc7b14610d715761047f565b806395687ad11161021b57806395687ad114610c5b57806395db595714610c7857806397bd506d14610cbb5780639b33997c14610cc35780639c226c5414610ce05761047f565b80637a8cfcb414610bf45780637ff6fecc14610bfc57806383c5cc0614610c1957806383f4ca7b14610c365780638fa6f57814610c3e5761047f565b80633aaffb78116103735780635c1b3eb5116102f057806376a0b166116102b457806376a0b16614610a165780637865c3ad14610a33578063787a969c14610a505780637888938b14610bb15780637a2e18fd14610bce5761047f565b80635c1b3eb514610917578063636151491461095a578063673ab3091461097d5780636e1719a6146109a35780637249fbb6146109f95761047f565b806344b6ba951161033757806344b6ba95146108805780634672d7bf1461089d578063531f4c40146108ba57806359949df4146108dd5780635be765b8146108fa5761047f565b80633aaffb78146107ec5780633cdb72f1146107f45780633e4b2a29146108205780633f6aff311461083d57806342902f2e146108635761047f565b806327cdab06116104015780632e3b81eb116103c55780632e3b81eb14610741578063305f9cb214610779578063313ce5671461079657806332025b691461079e5780633823d66c146107bb5761047f565b806327cdab061461069257806328dcc7c0146106af5780632a428754146106ea5780632cdc3c12146107075780632e2cf9ca146107245761047f565b8063103759211161044857806310375921146106045780631594bbbe146106335780631abc4a781461065057806326fc75901461066d5780632700f6851461068a5761047f565b8062f989ad1461048457806301023b9d146104a95780630140356d146104d85780630be1880f146105ae5780630e112476146105e7575b600080fd5b6104a76004803603604081101561049a57600080fd5b50803590602001356111fc565b005b6104c6600480360360208110156104bf57600080fd5b5035611389565b60408051918252519081900360200190f35b6104a7600480360360c08110156104ee57600080fd5b81359190810190604081016020820135600160201b81111561050f57600080fd5b82018360208201111561052157600080fd5b803590602001918460018302840111600160201b8311171561054257600080fd5b919390929091602081019035600160201b81111561055f57600080fd5b82018360208201111561057157600080fd5b803590602001918460018302840111600160201b8311171561059257600080fd5b919350915080359060ff6020820135811691604001351661139b565b6105cb600480360360208110156105c457600080fd5b5035611809565b604080516001600160a01b039092168252519081900360200190f35b6104c6600480360360208110156105fd57600080fd5b5035611827565b6104c6600480360361018081101561061b57600080fd5b508035906020810190608081019061016001356118d7565b6104c66004803603602081101561064957600080fd5b5035611b0d565b6104c66004803603602081101561066657600080fd5b5035611b32565b6104c66004803603602081101561068357600080fd5b5035611b50565b6104c6611b65565b6104c6600480360360208110156106a857600080fd5b5035611b6b565b6106cc600480360360208110156106c557600080fd5b5035611b80565b60408051938452602084019290925282820152519081900360600190f35b6105cb6004803603602081101561070057600080fd5b5035611ba1565b6104c66004803603602081101561071d57600080fd5b5035611bbc565b6104c66004803603602081101561073a57600080fd5b5035611bdb565b6104c66004803603606081101561075757600080fd5b50803590602081013590604001356bffffffffffffffffffffffff1916611bed565b6104c66004803603602081101561078f57600080fd5b5035612616565b6104c661262b565b6104c6600480360360208110156107b457600080fd5b5035612631565b6107d8600480360360208110156107d157600080fd5b5035612648565b604080519115158252519081900360200190f35b6104c6612663565b6104c66004803603604081101561080a57600080fd5b506001600160a01b03813516906020013561266a565b6104c66004803603602081101561083657600080fd5b5035612698565b6104c66004803603602081101561085357600080fd5b50356001600160a01b03166126aa565b6104c66004803603602081101561087957600080fd5b50356126c5565b6105cb6004803603602081101561089657600080fd5b5035612784565b6107d8600480360360208110156108b357600080fd5b50356127a2565b6104a7600480360360408110156108d057600080fd5b50803590602001356127be565b6107d8600480360360208110156108f357600080fd5b5035612a45565b6104c66004803603602081101561091057600080fd5b5035612a61565b6109346004803603602081101561092d57600080fd5b5035612a73565b604080519485529215156020850152901515838301526060830152519081900360800190f35b6104a76004803603604081101561097057600080fd5b5080359060200135612aa1565b6104a76004803603602081101561099357600080fd5b50356001600160a01b0316612ccc565b6109c0600480360360208110156109b957600080fd5b5035612d05565b604080519615158752941515602087015292151585850152901515606085015215156080840152151560a0830152519081900360c00190f35b6104a760048036036020811015610a0f57600080fd5b5035612d4a565b6104c660048036036020811015610a2c57600080fd5b5035612ffb565b6107d860048036036020811015610a4957600080fd5b5035613010565b610a6d60048036036020811015610a6657600080fd5b503561302a565b60405180806020018060200180602001848103845287818151815260200191508051906020019080838360005b83811015610ab2578181015183820152602001610a9a565b50505050905090810190601f168015610adf5780820380516001836020036101000a031916815260200191505b50848103835286518152865160209182019188019080838360005b83811015610b12578181015183820152602001610afa565b50505050905090810190601f168015610b3f5780820380516001836020036101000a031916815260200191505b50848103825285518152855160209182019187019080838360005b83811015610b72578181015183820152602001610b5a565b50505050905090810190601f168015610b9f5780820380516001836020036101000a031916815260200191505b50965050505050505060405180910390f35b6104c660048036036020811015610bc757600080fd5b50356131fb565b6104a760048036036020811015610be457600080fd5b50356001600160a01b0316613217565b6104c6613266565b6104c660048036036020811015610c1257600080fd5b503561326c565b6106cc60048036036020811015610c2f57600080fd5b5035613287565b6104c66132a8565b6104c660048036036020811015610c5457600080fd5b50356132b4565b6107d860048036036020811015610c7157600080fd5b50356132c9565b610c9560048036036020811015610c8e57600080fd5b50356132de565b604080519485526020850193909352838301919091526060830152519081900360800190f35b6104c6613305565b6104c660048036036020811015610cd957600080fd5b503561330c565b6104c660048036036020811015610cf657600080fd5b5035613323565b6104c660048036036020811015610d1357600080fd5b5035613335565b6107d860048036036020811015610d3057600080fd5b5035613417565b6105cb60048036036020811015610d4d57600080fd5b503561342c565b6104a760048036036020811015610d6a57600080fd5b503561344a565b6104c660048036036020811015610d8757600080fd5b50356134c2565b6104c660048036036020811015610da457600080fd5b50356134d4565b6107d860048036036020811015610dc157600080fd5b50356134f0565b6104c661350c565b6104a760048036036020811015610de657600080fd5b5035613512565b610e0a60048036036020811015610e0357600080fd5b5035613620565b604080516001600160a01b039d8e1681529b8d1660208d015299909b168a8a015260608a0197909752608089019590955260a088019390935260c087019190915260e08601526101008501526101208401526101408301526101608201929092529051908190036101800190f35b6104a760048036036020811015610e8e57600080fd5b503561368f565b6104c660048036036020811015610eab57600080fd5b5035613705565b6104c660048036036020811015610ec857600080fd5b50356001600160a01b031661371c565b610ef560048036036020811015610eee57600080fd5b5035613737565b6040805196875260208701959095528585019390935260608501919091526080840152151560a0830152519081900360c00190f35b6104a760048036036020811015610f4057600080fd5b50356001600160a01b0316613771565b6104c660048036036020811015610f6657600080fd5b50356137c0565b6104c660048036036040811015610f8357600080fd5b506001600160a01b0381351690602001356137eb565b6104c660048036036020811015610faf57600080fd5b5035613804565b6104c660048036036020811015610fcc57600080fd5b5035613819565b6107d860048036036020811015610fe957600080fd5b503561382e565b6104c66004803603602081101561100657600080fd5b503561384a565b6104a76004803603604081101561102357600080fd5b508035906020013561385c565b6107d8600480360361020081101561104757600080fd5b813591602081019160a08201916101208101918101906101c081016101a0820135600160201b81111561107957600080fd5b82018360208201111561108b57600080fd5b803590602001918460018302840111600160201b831117156110ac57600080fd5b919390929091602081019035600160201b8111156110c957600080fd5b8201836020820111156110db57600080fd5b803590602001918460018302840111600160201b831117156110fc57600080fd5b919390929091602081019035600160201b81111561111957600080fd5b82018360208201111561112b57600080fd5b803590602001918460018302840111600160201b8311171561114c57600080fd5b509092509050613866565b6104c66004803603602081101561116d57600080fd5b5035613a61565b6104c66004803603604081101561118a57600080fd5b5080359060200135613a78565b610934600480360360408110156111ad57600080fd5b5080359060200135613aa9565b6104c6600480360360208110156111d057600080fd5b5035613ae2565b6105cb613af4565b6104c6600480360360208110156111f557600080fd5b5035613b03565b61120582612a45565b1561120f57600080fd5b611218826127a2565b1561122257600080fd5b60008281526009602052604090205462010000900460ff16151560011461124857600080fd5b60008281526005602052604090206004015442111561126657600080fd5b61126f82612631565b6112818261127c85612698565b613b1e565b111561128c57600080fd5b601854604080516323b872dd60e01b81523360048201523060248201526044810184905290516001600160a01b03909216916323b872dd916064808201926020929091908290030181600087803b1580156112e657600080fd5b505af11580156112fa573d6000803e3d6000fd5b505050506040513d602081101561131057600080fd5b505161131b57600080fd5b6000828152600d6020526040902054611335908290613b1e565b6000838152600d602052604090205561134d82612631565b61135683612698565b1415611385576000828152600960205260409020805464ff000000001916600160201b17905561138582613b2e565b5050565b60166020526000908152604090205481565b6004546001600160a01b031633146113b257600080fd5b60606113f586868080601f016020809104026020016040519081016040528093929190818152602001838380828437600092019190915250869250613d67915050565b9050600061140a61140583613df0565b614012565b9050600061141783614030565b60008781526011602052604090208054600182015460029092015467ffffffffffffffff9390931693509160ff8083169261010090041690851461145a57600080fd5b8115611663576000898152601360209081526040808320548352601290915290205460ff161561165e5780156114ea576000838152600660205260409020600101546114a69085613b1e565b60008481526006602090815260408083206001908101949094556014909152902001546114d3908561405d565b60008481526014602052604090206001015561158f565b6114f3836126c5565b60008481526006602052604090206001015410611537576000838152600660205260409020546115239085613b1e565b600084815260066020526040902055611566565b6000838152600660205260409020600201546115539085613b1e565b6000848152600660205260409020600201555b60008381526014602052604090205461157f908561405d565b6000848152601460205260409020555b60008381526015602090815260408083206016835281842054845282528083206001908101805460ff1916909117905585835260179091529020545b6000848152601660209081526040808320546017909252909120546115f0919061405d565b81101561165c576000848152601560209081526040808320848452909152902060019081015460ff161515141561164f5760008481526017602052604090205461163b906001613b1e565b600085815260176020526040902055611654565b61165c565b6001016115cb565b505b6117f9565b61167661166f84613335565b606461406d565b84106117f95760008981526012602090815260408083208054600160ff199091168117909155868452601583528184206016808552838620805487529185528386208a9055815486528386208301805461ff0019166101008915150217905581548652928520613840420160029091015593879052915290546116f891613b1e565b6000848152601660205260409020558015611740576000838152601460205260409020600101546117299085613b1e565b600084815260146020526040902060010155611769565b6000838152601460205260409020546117599085613b1e565b6000848152601460205260409020555b611772836126c5565b6000848152600660209081526040808320600190810154601490935292209091015461179e9190613b1e565b101580156117bc575060008381526006602052604090206002015415155b156117f957600083815260066020526040902080546002909101546117e19190613b1e565b60008481526006602052604081209182556002909101555b5050505050505050505050505050565b6000818152600560205260409020546001600160a01b03165b919050565b6000806000600160009054906101000a90046001600160a01b03166001600160a01b03166359e02dd76040518163ffffffff1660e01b8152600401604080518083038186803b15801561187957600080fd5b505afa15801561188d573d6000803e3d6000fd5b505050506040513d60408110156118a357600080fd5b5080516020909101519092509050806118bb57600080fd5b816118ce816118c987613335565b613a78565b95945050505050565b6000811561196d5760005460408051639fc3f02f60e01b81526004810185905290516020878101356001600160a01b03908116941692639fc3f02f9260248083019392829003018186803b15801561192e57600080fd5b505afa158015611942573d6000803e3d6000fd5b505050506040513d602081101561195857600080fd5b50516001600160a01b03161461196d57600080fd5b61197a600e546001613b1e565b600e8190556000818152600560209081526040918290204260038201556004810189905580546001600160a01b03199081166001600160a01b038a35811691909117835560018301805483168b86013583161790556002830180549092168a860135909116179055863560078201559086013560088201559085013560098201556060850135600a909101559050611a11816126c5565b6000828152600660205260409020600101819055611a349060808501359061405d565b600082815260066020908152604080832093909355600580825283832060a0880135600b8083019190915560c08901359190920155815282822085905560088152828220600e908101805460ff191690556001600160a01b03883581168452600f835284842082548154600181810184559287528587200155898401359091168452601083528484209154825491820183559184529282902090920191909155815183815291517fa7857d7da6974b0157f3bf7dd25a745bd7d81d845bb525ee0b316a87541a5c319281900390910190a1949350505050565b600081815260056020526040812060040154611b2c906202a300613b1e565b92915050565b600081815260056020526040812060030154611b2c90611c20613b1e565b60009081526005602052604090206009015490565b61384081565b6000908152600560205260409020600a015490565b60146020526000908152604090208054600182015460029092015490919083565b600c602052600090815260409020546001600160a01b031681565b600081815260056020526040812060040154611b2c9062093a80613b1e565b60009081526014602052604090205490565b6000611bf884612a45565b15611c0257600080fd5b60008481526009602052604090205462010000900460ff161515600114611c2857600080fd5b6000848152600560205260409020546001600160a01b03163314801590611c6957506000848152600560205260409020600101546001600160a01b03163314155b611c7257600080fd5b600254604080516302d3af5b60e01b81526004810187905290516001600160a01b03909216916302d3af5b91602480820192602092909190829003018186803b158015611cbe57600080fd5b505afa158015611cd2573d6000803e3d6000fd5b505050506040513d6020811015611ce857600080fd5b5051611e9b57600084815260056020526040902060040154421115611d2f57600084815260096020526040902054600160201b900460ff1615611d2a57600080fd5b611d42565b611d388461382e565b15611d4257600080fd5b60008054858252600b60209081526040928390205483516301431c9560e71b8152600481019190915292516001600160a01b039092169263a18e4a809260248083019392829003018186803b158015611d9a57600080fd5b505afa158015611dae573d6000803e3d6000fd5b505050506040513d6020811015611dc457600080fd5b5051611e96576000805485825260056020526040808320600701548151637249992b60e11b8152600481019190915290516001600160a01b039092169263e49332569260248084019382900301818387803b158015611e2257600080fd5b505af1158015611e36573d6000803e3d6000fd5b505060008054604080516333549b1b60e01b815290516001600160a01b0390921694506333549b1b9350600480820193929182900301818387803b158015611e7d57600080fd5b505af1158015611e91573d6000803e3d6000fd5b505050505b612204565b600254604080516302d3af5b60e01b81526004810187905290516003926001600160a01b0316916302d3af5b916024808301926020929190829003018186803b158015611ee757600080fd5b505afa158015611efb573d6000803e3d6000fd5b505050506040513d6020811015611f1157600080fd5b505110611f1d57600080fd5b600254604080516302d3af5b60e01b81526004810187905290516001600160a01b039092169163a6b7d54e918391631a81dcab91899160019185916302d3af5b91602480820192602092909190829003018186803b158015611f7e57600080fd5b505afa158015611f92573d6000803e3d6000fd5b505050506040513d6020811015611fa857600080fd5b5051604080516001600160e01b031960e087901b168152600481019490945291900360248301525160448083019260209291908290030181600087803b158015611ff157600080fd5b505af1158015612005573d6000803e3d6000fd5b505050506040513d602081101561201b57600080fd5b5051604080516001600160e01b031960e085901b1681526004810192909252516024808301926020929190829003018186803b15801561205a57600080fd5b505afa15801561206e573d6000803e3d6000fd5b505050506040513d602081101561208457600080fd5b5051421161209157600080fd5b600254604080516302d3af5b60e01b81526004810187905290516001600160a01b0390921691638642afd1918391631a81dcab91899160019185916302d3af5b91602480820192602092909190829003018186803b1580156120f257600080fd5b505afa158015612106573d6000803e3d6000fd5b505050506040513d602081101561211c57600080fd5b5051604080516001600160e01b031960e087901b168152600481019490945291900360248301525160448083019260209291908290030181600087803b15801561216557600080fd5b505af1158015612179573d6000803e3d6000fd5b505050506040513d602081101561218f57600080fd5b5051604080516001600160e01b031960e085901b1681526004810192909252516024808301926020929190829003018186803b1580156121ce57600080fd5b505afa1580156121e2573d6000803e3d6000fd5b505050506040513d60208110156121f857600080fd5b50511561220457600080fd5b612215612210856131fb565b61326c565b601854604080516370a0823160e01b815233600482015290516001600160a01b03909216916370a0823191602480820192602092909190829003018186803b15801561226057600080fd5b505afa158015612274573d6000803e3d6000fd5b505050506040513d602081101561228a57600080fd5b5051101561229757600080fd5b6018546002546001600160a01b03918216916323b872dd913391166122be612210896131fb565b6040518463ffffffff1660e01b815260040180846001600160a01b03166001600160a01b03168152602001836001600160a01b03166001600160a01b031681526020018281526020019350505050602060405180830381600087803b15801561232657600080fd5b505af115801561233a573d6000803e3d6000fd5b505050506040513d602081101561235057600080fd5b505161235b57600080fd5b600084815260086020908152604080832060025482516302d3af5b60e01b8152600481018a905292519194936001600160a01b03909116926302d3af5b9260248083019392829003018186803b1580156123b457600080fd5b505afa1580156123c8573d6000803e3d6000fd5b505050506040513d60208110156123de57600080fd5b5051600280546000898152600560205260409020805460018083015492909401549495506001600160a01b0392831694630c4afecf948c94928316938316929091169033908901886003811061243057fe5b015489600501896003811061244157fe5b01548a6009018a6003811061245257fe5b0154604080516001600160e01b031960e08c901b16815260048101999099526001600160a01b0397881660248a01529587166044890152938616606488015291909416608486015260a485019390935260c484019290925260e483019190915261010482018990526bffffffffffffffffffffffff198816610124830152516101448083019260209291908290030181600087803b1580156124f357600080fd5b505af1158015612507573d6000803e3d6000fd5b505050506040513d602081101561251d57600080fd5b50516000878152600960205260409020549093506301000000900460ff166125e5576018546002546001600160a01b039182169163a9059cbb911661256189612698565b6040518363ffffffff1660e01b815260040180836001600160a01b03166001600160a01b0316815260200182815260200192505050602060405180830381600087803b1580156125b057600080fd5b505af11580156125c4573d6000803e3d6000fd5b505050506040513d60208110156125da57600080fd5b50516125e557600080fd5b6000868152600960205260409020805463ff0000001916630100000017905561260d86613b2e565b50509392505050565b60009081526006602052604090206001015490565b60195481565b6000611b2c61263f83613a61565b61127c84611b6b565b60009081526009602052604090205462010000900460ff1690565b62093a8081565b6010602052816000526040600020818154811061268357fe5b90600052602060002001600091509150505481565b6000908152600d602052604090205490565b6001600160a01b031660009081526010602052604090205490565b6000806000600160009054906101000a90046001600160a01b03166001600160a01b03166359e02dd76040518163ffffffff1660e01b8152600401604080518083038186803b15801561271757600080fd5b505afa15801561272b573d6000803e3d6000fd5b505050506040513d604081101561274157600080fd5b5080516020909101519092509050816118ce61277961277361276e61276589613804565b61127c8a613819565b613b03565b83614084565b64e8d4a5100061406d565b6000908152600560205260409020600201546001600160a01b031690565b6000908152600960205260409020546301000000900460ff1690565b6127c782612a45565b156127d157600080fd5b60008281526009602052604090205462010000900460ff16158061280f5750600082815260096020526040902054600160201b900460ff1615156001145b61281857600080fd5b6000828152600560205260409020600101546001600160a01b031633148061285957506000828152600560205260409020600201546001600160a01b031633145b61286257600080fd5b6008600083815260200190815260200160002060040154600282604051602001808281526020019150506040516020818303038152906040526040518082805190602001908083835b602083106128ca5780518252601f1990920191602091820191016128ab565b51815160209384036101000a60001901801990921691161790526040519190930194509192505080830381855afa158015612909573d6000803e3d6000fd5b5050506040513d602081101561291e57600080fd5b505114806129e757506008600083815260200190815260200160002060080154600282604051602001808281526020019150506040516020818303038152906040526040518082805190602001908083835b6020831061298f5780518252601f199092019160209182019101612970565b51815160209384036101000a60001901801990921691161790526040519190930194509192505080830381855afa1580156129ce573d6000803e3d6000fd5b5050506040513d60208110156129e357600080fd5b5051145b6129f057600080fd5b6129f982611b0d565b421115612a0557600080fd5b6000828152600960205260409020546301000000900460ff1615612a2857600080fd5b6000828152600860205260409020600d01819055611385826140a4565b600090815260096020526040902054600160281b900460ff1690565b60009081526006602052604090205490565b601160205260009081526040902080546001820154600290920154909160ff80821692610100909204169084565b612aaa82612a45565b15612ab457600080fd5b60008281526009602052604090205460ff161515600114612ad457600080fd5b60008281526009602052604090205460ff610100909104161515600114612afa57600080fd5b60008281526009602052604090205462010000900460ff1615612b1c57600080fd5b6008600083815260200190815260200160002060000154600282604051602001808281526020019150506040516020818303038152906040526040518082805190602001908083835b60208310612b845780518252601f199092019160209182019101612b65565b51815160209384036101000a60001901801990921691161790526040519190930194509192505080830381855afa158015612bc3573d6000803e3d6000fd5b5050506040513d6020811015612bd857600080fd5b505114612be457600080fd5b6018546000838152600560205260409020546001600160a01b039182169163a9059cbb9116612c1285613804565b6040518363ffffffff1660e01b815260040180836001600160a01b03166001600160a01b0316815260200182815260200192505050602060405180830381600087803b158015612c6157600080fd5b505af1158015612c75573d6000803e3d6000fd5b505050506040513d6020811015612c8b57600080fd5b5051612c9657600080fd5b6000828152600960209081526040808320805462ff000019166201000017905560089091529020600c0181905561138582614605565b601a546001600160a01b03163314612ce357600080fd5b600480546001600160a01b0319166001600160a01b0392909216919091179055565b60096020526000908152604090205460ff80821691610100810482169162010000820481169163010000008104821691600160201b8204811691600160281b90041686565b612d5381612a45565b15612d5d57600080fd5b612d66816127a2565b15612d7057600080fd5b612d7981611b0d565b4211612d8457600080fd5b600081815260096020526040902054600160201b900460ff161515600114612dab57600080fd5b6000818152600560205260409020546001600160a01b03163314612dce57600080fd5b6000818152600960209081526040808320805465ff00000000001916600160281b1790556005909152902042600682015560185490546001600160a01b039182169163a9059cbb9116612e2084612631565b6040518363ffffffff1660e01b815260040180836001600160a01b03166001600160a01b0316815260200182815260200192505050602060405180830381600087803b158015612e6f57600080fd5b505af1158015612e83573d6000803e3d6000fd5b505050506040513d6020811015612e9957600080fd5b5051612ea457600080fd5b60008054828252600b60209081526040928390205483516301431c9560e71b8152600481019190915292516001600160a01b039092169263a18e4a809260248083019392829003018186803b158015612efc57600080fd5b505afa158015612f10573d6000803e3d6000fd5b505050506040513d6020811015612f2657600080fd5b5051612ff8576000805482825260056020526040808320600701548151637249992b60e11b8152600481019190915290516001600160a01b039092169263e49332569260248084019382900301818387803b158015612f8457600080fd5b505af1158015612f98573d6000803e3d6000fd5b505060008054604080516333549b1b60e01b815290516001600160a01b0390921694506333549b1b9350600480820193929182900301818387803b158015612fdf57600080fd5b505af1158015612ff3573d6000803e3d6000fd5b505050505b50565b6000908152600560205260409020600b015490565b600090815260096020526040902054610100900460ff1690565b60076020908152600091825260409182902080548351601f600260001961010060018616150201909316929092049182018490048402810184019094528084529092918391908301828280156130c15780601f10613096576101008083540402835291602001916130c1565b820191906000526020600020905b8154815290600101906020018083116130a457829003601f168201915b505050505090806001018054600181600116156101000203166002900480601f01602080910402602001604051908101604052809291908181526020018280546001816001161561010002031660029004801561315f5780601f106131345761010080835404028352916020019161315f565b820191906000526020600020905b81548152906001019060200180831161314257829003601f168201915b50505060028085018054604080516020601f60001961010060018716150201909416959095049283018590048502810185019091528181529596959450909250908301828280156131f15780601f106131c6576101008083540402835291602001916131f1565b820191906000526020600020905b8154815290600101906020018083116131d457829003601f168201915b5050505050905083565b6000611b2c61320983611827565b670ce80612991d0000614da2565b601a546001600160a01b0316331461322e57600080fd5b6002546001600160a01b03161561324457600080fd5b600280546001600160a01b0319166001600160a01b0392909216919091179055565b600e5481565b6000611b2c8261327f601260195461405d565b600a0a61406d565b60066020526000908152604090208054600182015460029092015490919083565b670ce80612991d000081565b60009081526014602052604090206001015490565b60126020526000908152604090205460ff1681565b600a6020526000908152604090208054600182015460028301546003909301549192909184565b6202a30081565b6000611b2c61331a83612631565b61127c84611b50565b60176020526000908152604090205481565b6000818152601760209081526040808320546016909252822054148015906133905750613361826126c5565b6000838152600660209081526040808320600190810154601490935292209091015461338d9190613b1e565b10155b80156133be575060008281526015602090815260408083206017835281842054845290915290206002015442105b15613402576133fb6133db6133d284612a61565b61127c85612616565b6000848152601460205260409020805460019091015461127c9190613b1e565b9050611822565b6133fb61340e83612a61565b61127c84612616565b60009081526009602052604090205460ff1690565b6000908152600560205260409020600101546001600160a01b031690565b60008181526009602052604090205460ff16151560011461346a57600080fd5b6000818152600560205260409020600101546001600160a01b0316331461349057600080fd5b61349981611b32565b4211156134a557600080fd5b6000908152600960205260409020805461ff001916610100179055565b600b6020526000908152604090205481565b6000611b2c6134e283612631565b6134eb84612698565b61405d565b600090815260096020526040902054600160201b900460ff1690565b611c2081565b6000818152600860205260409020600e015460ff1661353057600080fd5b60008181526009602052604090205460ff161561354c57600080fd5b6018546001600160a01b03166323b872dd333061356885613804565b6040518463ffffffff1660e01b815260040180846001600160a01b03166001600160a01b03168152602001836001600160a01b03166001600160a01b031681526020018281526020019350505050602060405180830381600087803b1580156135d057600080fd5b505af11580156135e4573d6000803e3d6000fd5b505050506040513d60208110156135fa57600080fd5b505161360557600080fd5b6000908152600960205260409020805460ff19166001179055565b600560208190526000918252604090912080546001820154600283015460038401546004850154958501546006860154600787015460088801546009890154600a8a0154600b909a01546001600160a01b03998a169b988a169a9790991698959796949593949293919290918c565b61369881612a45565b156136a257600080fd5b60008181526009602052604090205462010000900460ff16156136c457600080fd5b6136cd81613705565b4210156136d957600080fd5b6000818152600960205260409020546301000000900460ff16156136fc57600080fd5b612ff8816140a4565b6000611b2c61371383611bbc565b6202a300613b1e565b6001600160a01b03166000908152600f602052604090205490565b60086020819052600091825260409091208054600482015492820154600c830154600d840154600e90940154929493919290919060ff1686565b601a546001600160a01b0316331461378857600080fd5b6003546001600160a01b03161561379e57600080fd5b600380546001600160a01b0319166001600160a01b0392909216919091179055565b6000611b2c6137dd61276e6137d485613804565b6134eb86612698565b6137e684612ffb565b614dca565b600f602052816000526040600020818154811061268357fe5b60009081526005602052604090206007015490565b60009081526005602052604090206008015490565b6000613839826137c0565b61384283611827565b101592915050565b600d6020526000908152604090205481565b61138582826127be565b60008a8152600860205260408120600e015460ff161561388557600080fd5b60008b8152600560205260409020546001600160a01b03163314806138c3575060008b8152600560205260409020600101546001600160a01b031633145b806138d857506000546001600160a01b031633145b6138e157600080fd5b60008b8152600860209081526040918290208c35905581516060810183528c82013581528c830135918101919091529081018b60036020020135815250600860008d815260200190815260200160002060010190600361394292919061505d565b5060008b81526008602081815260408084208d3560048201558151606080820184528f85013582528f840135828601528f013592810192909252938f90529190526139929160050190600361505d565b5060008b81526008602081815260408084208c35818501558151606080820184528e85013582528e840135828601528e013592810192909252938f90529190526139e19160090190600361505d565b5060008b81526007602052604090206139fb90888861509b565b5060008b8152600760205260409020613a1890600101868661509b565b5060008b8152600760205260409020613a3590600201848461509b565b5060009a8b5260086020526040909a20600e01805460ff19166001179055509798975050505050505050565b6000611b2c613a6f83613804565b61127c84613819565b60006305f5e100613a9a613a8c8585614dfa565b60026305f5e1005b04613b1e565b81613aa157fe5b049392505050565b6015602090815260009283526040808420909152908252902080546001820154600290920154909160ff80821692610100909204169084565b60136020526000908152604090205481565b6018546001600160a01b031681565b6000611b2c82613b16601260195461405d565b600a0a614dfa565b80820182811015611b2c57600080fd5b600480546000838152600a60209081526040808320548151630c054e5360e21b815295860152516001600160a01b0390931693633015394c9360248083019491928390030190829087803b158015613b8557600080fd5b505af1158015613b99573d6000803e3d6000fd5b505050506040513d6020811015613baf57600080fd5b5051613bba57600080fd5b600480546000838152600a60209081526040808320600101548151630c054e5360e21b815295860152516001600160a01b0390931693633015394c9360248083019491928390030190829087803b158015613c1457600080fd5b505af1158015613c28573d6000803e3d6000fd5b505050506040513d6020811015613c3e57600080fd5b5051613c4957600080fd5b600480546000838152600a60209081526040808320600201548151630c054e5360e21b815295860152516001600160a01b0390931693633015394c9360248083019491928390030190829087803b158015613ca357600080fd5b505af1158015613cb7573d6000803e3d6000fd5b505050506040513d6020811015613ccd57600080fd5b5051613cd857600080fd5b600480546000838152600a60209081526040808320600301548151630c054e5360e21b815295860152516001600160a01b0390931693633015394c9360248083019491928390030190829087803b158015613d3257600080fd5b505af1158015613d46573d6000803e3d6000fd5b505050506040513d6020811015613d5c57600080fd5b5051612ff857600080fd5b60606000816001825b8560ff168160ff161015613daf57613d96828389510389614e1e9092919063ffffffff16565b9250613da183614edc565b935090830190600101613d70565b50613dc8818288510388614e1e9092919063ffffffff16565b9150613dd382614edc565b9250613de686828563ffffffff614e1e16565b9695505050505050565b6060613e05826009600163ffffffff614e1e16565b600081518110613e1157fe5b016020015160f81c613ea15760006002613e2a84614f69565b600081518110613e3657fe5b016020015160f81c0360ff16905080613e5884600a600163ffffffff614e1e16565b600081518110613e6457fe5b016020015160f81c14613e87575050604080516020810190915260008152611822565b613e9983600b8363ffffffff614e1e16565b915050611822565b6000613eb6836008600363ffffffff614e1e16565b805160209091012060408051621976a960e81b81529051908190036003019020909150811415613f7f57613ef383600b600163ffffffff614e1e16565b600081518110613eff57fe5b60209101015160f81c6014141580613f515750604051808061222b60f21b81525060020190506040518091039020613f476002855103600286614e1e9092919063ffffffff16565b8051906020012014155b15613f6c575050604080516020810190915260008152611822565b613e9983600c601463ffffffff614e1e16565b604080516205ea4560ea1b81529051908190036003019020811415613ffc578251613fb790849060001901600163ffffffff614e1e16565b600081518110613fc357fe5b60209101015160f81c608714613fe9575050604080516020810190915260008152611822565b613e9983600b601463ffffffff614e1e16565b5050604080516020810190915260008152919050565b80516000908290614027575060009050611822565b50506020015190565b6000606061403d83614f7e565b9050606061404a82614f93565b905061405581615020565b949350505050565b80820382811115611b2c57600080fd5b600080821161407b57600080fd5b818381613aa157fe5b600081613a9a61409c85670de0b6b3a7640000614dfa565b600285613a94565b6000818152600960208181526040808420805465ff00000000001916600160281b17815560058352932042600690910155525462010000900460ff1661431a576000818152600b602052604090205461419c5760185460008281526005602090815260408083206001810154600790910154825163a9059cbb60e01b81526001600160a01b0392831660048201526024810191909152915194169363a9059cbb93604480840194938390030190829087803b15801561416257600080fd5b505af1158015614176573d6000803e3d6000fd5b505050506040513d602081101561418c57600080fd5b505161419757600080fd5b614315565b60008054828252600b60209081526040928390205483516301431c9560e71b8152600481019190915292516001600160a01b039092169263a18e4a809260248083019392829003018186803b1580156141f457600080fd5b505afa158015614208573d6000803e3d6000fd5b505050506040513d602081101561421e57600080fd5b5051614295576000805482825260056020526040808320600701548151637249992b60e11b8152600481019190915290516001600160a01b039092169263e49332569260248084019382900301818387803b15801561427c57600080fd5b505af1158015614290573d6000803e3d6000fd5b505050505b60008054828252600b60209081526040808420546005909252808420600701548151630ef1370b60e11b815260048101939093526024830152516001600160a01b0390921692631de26e169260448084019382900301818387803b1580156142fc57600080fd5b505af1158015614310573d6000803e3d6000fd5b505050505b612ff8565b60008181526009602052604090205462010000900460ff16151560011415612ff8576000818152600b6020526040902054614409576018546000828152600560205260409020600101546001600160a01b039182169163a9059cbb911661438084613a61565b6040518363ffffffff1660e01b815260040180836001600160a01b03166001600160a01b0316815260200182815260200192505050602060405180830381600087803b1580156143cf57600080fd5b505af11580156143e3573d6000803e3d6000fd5b505050506040513d60208110156143f957600080fd5b505161440457600080fd5b614585565b60008054828252600b60209081526040928390205483516301431c9560e71b8152600481019190915292516001600160a01b039092169263a18e4a809260248083019392829003018186803b15801561446157600080fd5b505afa158015614475573d6000803e3d6000fd5b505050506040513d602081101561448b57600080fd5b5051614502576000805482825260056020526040808320600701548151637249992b60e11b8152600481019190915290516001600160a01b039092169263e49332569260248084019382900301818387803b1580156144e957600080fd5b505af11580156144fd573d6000803e3d6000fd5b505050505b60008054828252600b6020526040909120546001600160a01b0390911690631de26e169061452f84613a61565b6040518363ffffffff1660e01b81526004018083815260200182815260200192505050600060405180830381600087803b15801561456c57600080fd5b505af1158015614580573d6000803e3d6000fd5b505050505b6018546000828152600560205260409020600201546001600160a01b039182169163a9059cbb91166145b684611b6b565b6040518363ffffffff1660e01b815260040180836001600160a01b03166001600160a01b0316815260200182815260200192505050602060405180830381600087803b158015613d3257600080fd5b60035460408051630e734f6360e01b815260048101849052600060248201819052915191926001600160a01b031691630e734f63916044808201928692909190829003018186803b15801561465957600080fd5b505afa15801561466d573d6000803e3d6000fd5b505050506040513d6000823e601f3d908101601f19168201604090815281101561469657600080fd5b810190808051600160201b8111156146ad57600080fd5b820160208101848111156146c057600080fd5b8151600160201b8111828201871017156146d957600080fd5b5050506020015160035460408051630e734f6360e01b815260048101889052600160248201529051929550600094506001600160a01b039091169250630e734f639160448083019286929190829003018186803b15801561473957600080fd5b505afa15801561474d573d6000803e3d6000fd5b505050506040513d6000823e601f3d908101601f19168201604090815281101561477657600080fd5b810190808051600160201b81111561478d57600080fd5b820160208101848111156147a057600080fd5b8151600160201b8111828201871017156147b957600080fd5b505050602001519250600091506147d4905061166f85613335565b600454604080516201100160ed1b602080830191909152602380830189905283518084039091018152604383019384905262cf5d8560e41b90935267ffffffffffffffff851660878301523060a78301819052600160c7840181905260a060478501908152600060e7860181905260e06067870190815287516101278801528751999a5090986001600160a01b0390981697630cf5d85097968b9684939261014790920191908901908083838f5b8381101561489a578181015183820152602001614882565b50505050905090810190601f1680156148c75780820380516001836020036101000a031916815260200191505b509650505050505050602060405180830381600087803b1580156148ea57600080fd5b505af11580156148fe573d6000803e3d6000fd5b505050506040513d602081101561491457600080fd5b5051600454604080516201100160ed1b60208281019190915260238083018a905283518084039091018152604383019384905262cf5d8560e41b90935267ffffffffffffffff871660878301523060a78301819052600660c7840181905260a060478501908152600060e7860181905260e06067870190815287516101278801528751999a5090986001600160a01b0390981697630cf5d85097968c9684939261014790920191908901908083838f5b838110156149dc5781810151838201526020016149c4565b50505050905090810190601f168015614a095780820380516001836020036101000a031916815260200191505b509650505050505050602060405180830381600087803b158015614a2c57600080fd5b505af1158015614a40573d6000803e3d6000fd5b505050506040513d6020811015614a5657600080fd5b5051600454604080516201100160ed1b60208281019190915260238083018a905283518084039091018152604383019384905262cf5d8560e41b90935267ffffffffffffffff881660878301523060a78301819052600160c7840181905260a060478501908152600060e7860181905260e06067870190815287516101278801528751999a5090986001600160a01b0390981697630cf5d85097968d9684939261014790920191908901908083838f5b83811015614b1e578181015183820152602001614b06565b50505050905090810190601f168015614b4b5780820380516001836020036101000a031916815260200191505b509650505050505050602060405180830381600087803b158015614b6e57600080fd5b505af1158015614b82573d6000803e3d6000fd5b505050506040513d6020811015614b9857600080fd5b5051600454604080516201100160ed1b60208281019190915260238083018b905283518084039091018152604383019384905262cf5d8560e41b90935267ffffffffffffffff891660878301523060a78301819052600660c7840181905260a060478501908152600060e7860181905260e06067870190815287516101278801528751999a5090986001600160a01b0390981697630cf5d85097968e9684939261014790920191908901908083838f5b83811015614c60578181015183820152602001614c48565b50505050905090810190601f168015614c8d5780820380516001836020036101000a031916815260200191505b509650505050505050602060405180830381600087803b158015614cb057600080fd5b505af1158015614cc4573d6000803e3d6000fd5b505050506040513d6020811015614cda57600080fd5b50516000898152600a6020908152604080832088815560018082018990556002808301899055600390920186905589855260118085528386208f815583018e90559885528285208e8155808201805460ff1990811684179091559083019d909d5560138085528386209a909a558785529783528184208d8155808901805461010061ff001991821681179092559183018d90559585528285209d8e558d89018054909116909517909b1690961790925598909701959095559190945292909320919091555050565b6000670de0b6b3a7640000613a9a614dba8585614dfa565b6002670de0b6b3a7640000613a94565b60006b033b2e3c9fd0803ce8000000613a9a614de68585614dfa565b60026b033b2e3c9fd0803ce8000000613a94565b6000811580614e1557505080820282828281614e1257fe5b04145b611b2c57600080fd5b606081830184511015614e6e576040805162461bcd60e51b8152602060048201526013602482015272536c696365206f7574206f6620626f756e647360681b604482015290519081900360640190fd5b606082158015614e8957604051915060208201604052614ed3565b6040519150601f8416801560200281840101858101878315602002848b0101015b81831015614ec2578051835260209283019201614eaa565b5050858452601f01601f1916604052505b50949350505050565b600080614ef2836008600163ffffffff614e1e16565b600081518110614efe57fe5b016020015160f81c905060fd8110614f5d576040805162461bcd60e51b815260206004820181905260248201527f4d756c74692d6279746520566172496e7473206e6f7420737570706f72746564604482015290519081900360640190fd5b60090160ff1692915050565b6060611b2c826008600163ffffffff614e1e16565b6060611b2c826000600863ffffffff614e1e16565b60608082516040519080825280601f01601f191660200182016040528015614fc2576020820181803883390190505b50905060005b835181101561501957838181518110614fdd57fe5b602001015160f81c60f81b826001838751030381518110614ffa57fe5b60200101906001600160f81b031916908160001a905350600101614fc8565b5092915050565b600080805b8351811015615019578060010184510360080260020a84828151811061504757fe5b016020015160f81c029190910190600101615025565b826003810192821561508b579160200282015b8281111561508b578251825591602001919060010190615070565b50615097929150615109565b5090565b828054600181600116156101000203166002900490600052602060002090601f016020900481019282601f106150dc5782800160ff1982351617855561508b565b8280016001018555821561508b579182015b8281111561508b5782358255916020019190600101906150ee565b61512391905b80821115615097576000815560010161510f565b9056fea265627a7a723058206d27c98d39a8aeaf565bf3d14bb57a01cf3515283f4e5c8c7a0fa7e2bd61079464736f6c634300050a0032",
  "source": "import 'openzeppelin-solidity/contracts/token/ERC20/ERC20.sol';\nimport 'openzeppelin-solidity/contracts/math/SafeMath.sol';\n\nimport {BytesLib} from \"@summa-tx/bitcoin-spv-sol/contracts/BytesLib.sol\";\nimport {BTCUtils} from \"@summa-tx/bitcoin-spv-sol/contracts/BTCUtils.sol\";\n\nimport './FundsInterface.sol';\nimport './SalesInterface.sol';\nimport './P2WSHInterface.sol';\nimport './ISPVRequestManager.sol';\nimport './DSMath.sol';\nimport './Medianizer.sol';\n\npragma solidity ^0.5.10;\n\ncontract Loans is DSMath {\n    FundsInterface funds;\n    Medianizer med;\n    SalesInterface sales;\n    P2WSHInterface p2wsh;\n    ISPVRequestManager onDemandSpv;\n\n    uint256 public constant APPROVE_EXP_THRESHOLD = 2 hours;    // approval expiration threshold\n    uint256 public constant ACCEPT_EXP_THRESHOLD = 2 days;      // acceptance expiration threshold\n    uint256 public constant LIQUIDATION_EXP_THRESHOLD = 7 days; // liquidation expiration threshold\n    uint256 public constant SEIZURE_EXP_THRESHOLD = 2 days;     // seizable expiration threshold\n    uint256 public constant LIQUIDATION_DISCOUNT = 930000000000000000; // 93% (7% discount)\n    uint256 public constant ADD_COLLATERAL_EXPIRY = 4 hours;\n\n    mapping (bytes32 => Loan)                public loans;\n    mapping (bytes32 => Collateral)          public collaterals;\n    mapping (bytes32 => PubKeys)             public pubKeys;             // Bitcoin Public Keys\n    mapping (bytes32 => SecretHashes)        public secretHashes;        // Secret Hashes\n    mapping (bytes32 => Bools)               public bools;               // Boolean state of Loan\n    mapping (bytes32 => LoanRequests)        public loanRequests;        // TODO rename to loan spv requests?\n    mapping (bytes32 => bytes32)             public fundIndex;           // Mapping of Loan Index to Fund Index\n    mapping (bytes32 => ERC20)               public tokes;               // Mapping of Loan index to Token contract\n    mapping (bytes32 => uint256)             public repayments;          // Amount paid back in a Loan\n    uint256                                  public loanIndex;           // Current Loan Index\n\n    mapping (address => bytes32[])           public borrowerLoans;\n    mapping (address => bytes32[])           public lenderLoans;\n\n    mapping (uint256 => RequestDetails)      public requestsDetails;\n    mapping (uint256 => bool)                public requestsValid;\n\n    mapping (uint256 => uint256)             public finalRequestToInitialRequest;\n\n    mapping (bytes32 => Collateral)                            public temporaryCollaterals;\n    mapping (bytes32 => mapping(uint256 => CollateralDeposit)) public collateralDeposits;\n    mapping (bytes32 => uint256)                               public collateralDepositIndex;\n    mapping (bytes32 => uint256)                               public collateralDepositFinalizedIndex;\n\n\n    ERC20 public token; // ERC20 Debt Stablecoin\n    uint256 public decimals;\n\n    address deployer;\n\n    /**\n     * @notice Container for loan information\n     * @member borrower The address of the borrower\n     * @member lender The address of the lender\n     * @member arbiter The address of the arbiter\n     * @member createAt The creation timestamp of the loan\n     * @member loanExpiration The timestamp for the end of the loan\n     * @member principal The amount of principal in tokens to be paid back at the end of the loan\n     * @member interest The amount of interest in tokens to be paid back by the end of the loan\n     * @member penalty The amount of tokens to be paid as a penalty for defaulting or allowing the loan to be liquidated\n     * @member fee The amount of tokens paid to the arbiter\n     * @member collateral The amount of collateral in satoshis\n     * @member liquidationRatio The ratio of collateral to debt where the loan can be liquidated\n     */\n    struct Loan {\n        address borrower;\n        address lender;\n        address arbiter;\n        uint256 createdAt;\n        uint256 loanExpiration;\n        uint256 requestTimestamp;\n        uint256 closedTimestamp;\n        uint256 principal;\n        uint256 interest;\n        uint256 penalty;\n        uint256 fee;\n        uint256 liquidationRatio;\n    }\n\n    struct Collateral {\n        uint256 refundableCollateral;\n        uint256 seizableCollateral;\n        uint256 unaccountedRefundableCollateral; // Refundable Collateral that has been added but not accounted for because the minimum seizable collateral has not been achieved\n    }\n\n    /**\n     * @notice Container for Bitcoin public key information\n     * @member borrowerPubKey Borrower Bitcoin Public Key\n     * @member lenderPubKey Lender Bitcoin Public Key\n     * @member arbiterPubKey Arbiter Bitcoin Public Key\n     *\n     *         Note: This struct is unnecessary for the Ethereum\n     *               contract itself, but is used as a point of \n     *               reference for generating the correct P2WSH for\n     *               locking Bitcoin collateral\n     */\n    struct PubKeys {\n        bytes   borrowerPubKey;\n        bytes   lenderPubKey;\n        bytes   arbiterPubKey;\n    }\n\n    /**\n     * @notice Container for borrower, lender, and arbiter Secret Hashes\n     * @member secretHashA1 Borrower Secret Hash for the loan\n     * @member secretHashAs Borrower Secret Hashes for up to three liquidations\n     * @member secretHashB1 Lender Secret Hash for the loan\n     * @member secretHashBs Lender Secret Hashes for up to three liquidations\n     * @member secretHashC1 Arbiter Secret Hash for the loan\n     * @member secretHashCs Arbiter Secret Hashes for up to three liquidations\n     * @member withdrawSecret Secret A1 when revealed by borrower\n     * @member acceptSecret Secret B1 or Secret C1 when revelaed by the lender or arbiter\n     * @member set Secret Hashes set for particular loan\n     */\n    struct SecretHashes {\n        bytes32    secretHashA1;\n        bytes32[3] secretHashAs;\n        bytes32    secretHashB1;\n        bytes32[3] secretHashBs;\n        bytes32    secretHashC1;\n        bytes32[3] secretHashCs;\n        bytes32    withdrawSecret;\n        bytes32    acceptSecret;\n        bool       set;\n    }\n\n    /**\n     * @notice Container for states of loan agreement\n     * @member funded Indicates that the loan has been funded with tokens\n     * @member approved Indicates that the lender has approved locking of the Bitcoin collateral\n     * @member withdrawn Indicates that the borrower has withdrawn the tokens from the contract\n     * @member sale Indicates that the collateral liquidation process has started\n     * @member paid Indicates that the loan has been repaid\n     * @member off Indicates that the loan has been cancelled or the loan repayment has been accepted\n     */\n    struct Bools {\n        bool funded;\n        bool approved;\n        bool withdrawn;\n        bool sale;\n        bool paid;\n        bool off;\n    }\n\n    struct CollateralDeposit {\n        uint256 amount;\n        bool    finalized; // 6 confirmations\n        bool    seizable;\n        uint256 expiry;\n    }\n\n    struct RequestDetails {\n        bytes32 loan;\n        bool    finalized; // 6 confirmations?\n        bool    seizable;\n        bytes32 p2wshAddress;\n    }\n\n    struct LoanRequests {\n        uint256 refundRequestIDOneConf;\n        uint256 refundRequestIDSixConf;\n        uint256 seizeRequestIDOneConf;\n        uint256 seizeRequestIDSixConf;\n    }\n\n    event Create(bytes32 loan);\n\n    function borrower(bytes32 loan) public view returns (address) {\n        return loans[loan].borrower;\n    }\n\n    function lender(bytes32 loan) public view returns (address) {\n        return loans[loan].lender;\n    }\n\n    function arbiter(bytes32 loan)  public view returns (address) {\n        return loans[loan].arbiter;\n    }\n\n    function approveExpiration(bytes32 loan) public view returns (uint256) { // Approval Expiration\n        return add(loans[loan].createdAt, APPROVE_EXP_THRESHOLD);\n    }\n\n    function acceptExpiration(bytes32 loan) public view returns (uint256) { // Acceptance Expiration\n        return add(loans[loan].loanExpiration, ACCEPT_EXP_THRESHOLD);\n    }\n\n    function liquidationExpiration(bytes32 loan) public view returns (uint256) { // Liquidation Expiration\n        return add(loans[loan].loanExpiration, LIQUIDATION_EXP_THRESHOLD);\n    }\n\n    function seizureExpiration(bytes32 loan) public view returns (uint256) {\n        return add(liquidationExpiration(loan), SEIZURE_EXP_THRESHOLD);\n    }\n\n    function principal(bytes32 loan) public view returns (uint256) {\n        return loans[loan].principal;\n    }\n\n    function interest(bytes32 loan) public view returns (uint256) {\n        return loans[loan].interest;\n    }\n\n    function fee(bytes32 loan) public view returns (uint256) {\n        return loans[loan].fee;\n    }\n\n    function penalty(bytes32 loan) public view returns (uint256) {\n        return loans[loan].penalty;\n    }\n\n    function collateral(bytes32 loan) public view returns (uint256) {\n        // check if collateralDepositIndex == collateralDepositFinalizedIndex\n        if (collateralDepositIndex[loan] != collateralDepositFinalizedIndex[loan] &&\n            add(collaterals[loan].seizableCollateral, temporaryCollaterals[loan].seizableCollateral) >= minSeizableCollateralValue(loan) &&\n            now < collateralDeposits[loan][collateralDepositFinalizedIndex[loan]].expiry) {\n            return add(add(refundableCollateral(loan), seizableCollateral(loan)), add(temporaryCollaterals[loan].refundableCollateral, temporaryCollaterals[loan].seizableCollateral));\n        } else {\n            return add(refundableCollateral(loan), seizableCollateral(loan));\n        }\n    }\n\n    function refundableCollateral(bytes32 loan) public view returns (uint256) {\n        return collaterals[loan].refundableCollateral;\n    }\n\n    function seizableCollateral(bytes32 loan) public view returns (uint256) {\n        return collaterals[loan].seizableCollateral;\n    }\n\n    function temporaryRefundableCollateral(bytes32 loan) public view returns (uint256) {\n        return temporaryCollaterals[loan].refundableCollateral;\n    }\n\n    function temporarySeizableCollateral(bytes32 loan) public view returns (uint256) {\n        return temporaryCollaterals[loan].seizableCollateral;\n    }\n\n    function repaid(bytes32 loan) public view returns (uint256) { // Amount paid back for loan\n        return repayments[loan];\n    }\n\n    function liquidationRatio(bytes32 loan) public view returns (uint256) {\n        return loans[loan].liquidationRatio;\n    }\n\n    function owedToLender(bytes32 loan) public view returns (uint256) { // Amount lent by Lender\n        return add(principal(loan), interest(loan));\n    }\n\n    function owedForLoan(bytes32 loan) public view returns (uint256) { // Amount owed\n        return add(owedToLender(loan), fee(loan));\n    }\n\n    function owedForLiquidation(bytes32 loan) public view returns (uint256) { // Deductible amount from collateral\n        return add(owedForLoan(loan), penalty(loan));\n    }\n\n    function owing(bytes32 loan) public view returns (uint256) {\n        return sub(owedForLoan(loan), repaid(loan));\n    }\n\n    function funded(bytes32 loan) public view returns (bool) {\n        return bools[loan].funded;\n    }\n\n    function approved(bytes32 loan) public view returns (bool) {\n        return bools[loan].approved;\n    }\n\n    function withdrawn(bytes32 loan) public view returns (bool) {\n        return bools[loan].withdrawn;\n    }\n\n    function sale(bytes32 loan) public view returns (bool) {\n        return bools[loan].sale;\n    }\n\n    function paid(bytes32 loan) public view returns (bool) {\n        return bools[loan].paid;\n    }\n\n    function off(bytes32 loan) public view returns (bool) {\n        return bools[loan].off;\n    }\n\n    function dmul(uint x) public view returns (uint256) {\n        return mul(x, (10 ** sub(18, decimals)));\n    }\n\n    function ddiv(uint x) public view returns (uint256) {\n        return div(x, (10 ** sub(18, decimals)));\n    }\n\n    function borrowerLoanCount(address borrower_) public view returns (uint256) {\n        return borrowerLoans[borrower_].length;\n    }\n\n    function lenderLoanCount(address lender_) public view returns (uint256) {\n        return lenderLoans[lender_].length;\n    }\n\n    function minSeizableCollateralValue(bytes32 loan) public view returns (uint256) {\n        (bytes32 val, bool set) = med.peek();\n        uint256 price = uint(val);\n        return div(wdiv(dmul(add(principal(loan), interest(loan))), price), (10 ** 12));\n    }\n\n    function collateralValue(bytes32 loan) public view returns (uint256) { // Current Collateral Value\n        (bytes32 val, bool set) = med.peek();\n        require(set);\n        uint256 price = uint(val);\n        return cmul(price, collateral(loan)); // Multiply value dependent on number of decimals with currency\n    }\n\n    function minCollateralValue(bytes32 loan) public view returns (uint256) {  // Minimum Collateral Value\n        return rmul(dmul(sub(principal(loan), repaid(loan))), liquidationRatio(loan));\n    }\n\n    function discountCollateralValue(bytes32 loan) public view returns (uint256) {\n        return wmul(collateralValue(loan), LIQUIDATION_DISCOUNT);\n    }\n\n    function safe(bytes32 loan) public view returns (bool) { // Loan is safe from Liquidation\n        return collateralValue(loan) >= minCollateralValue(loan);\n    }\n\n    constructor (FundsInterface funds_, Medianizer med_, ERC20 token_, uint256 decimals_) public {\n        deployer = msg.sender;\n        funds    = funds_;\n        med      = med_;\n        token    = token_;\n        decimals = decimals_;\n        require(token.approve(address(funds), 2**256-1));\n    }\n\n    /**\n     * @dev Sets Sales contract\n     * @param sales_ Address of Sales contract\n     */\n    function setSales(SalesInterface sales_) external {\n        require(msg.sender == deployer);\n        require(address(sales) == address(0));\n        sales = sales_;\n    }\n\n    /**\n     * @dev Sets P2WSH contract\n     * @param p2wsh_ Address of P2WSH contract\n     */\n    function setP2WSH(P2WSHInterface p2wsh_) external {\n        require(msg.sender == deployer);\n        require(address(p2wsh) == address(0));\n        p2wsh = p2wsh_;\n    }\n\n    /**\n     * @dev Sets OnDemandSpv contract address\n     * @param onDemandSpv_ Address of OnDemandSpv contract\n     */\n    function setOnDemandSpv(ISPVRequestManager onDemandSpv_) external {\n        require(msg.sender == deployer);\n        // require(address(onDemandSpv) == address(0)); // TODO verify if this should be unchangeable\n        onDemandSpv = onDemandSpv_;\n    }\n    \n    /**\n     * @notice Creates a new loan agreement\n     * @param loanExpiration_ The timestamp for the end of the loan\n     * @param usrs_ Array of three addresses containing the borrower, lender, and optional arbiter address\n     * @param vals_ Array of six uints containing loan principal, interest, liquidation penalty, optional arbiter fee, collateral amount, liquidation ratio\n     * @param fundIndex_ The optional Fund Index\n     */\n    function create(\n        uint256             loanExpiration_,\n        address[3] calldata usrs_,\n        uint256[7] calldata vals_,\n        bytes32             fundIndex_\n    ) external returns (bytes32 loan) {\n        if (fundIndex_ != bytes32(0)) { require(funds.lender(fundIndex_) == usrs_[1]); }\n        loanIndex = add(loanIndex, 1);\n        loan = bytes32(loanIndex);\n        loans[loan].createdAt        = now;\n        loans[loan].loanExpiration   = loanExpiration_;\n        loans[loan].borrower         = usrs_[0];\n        loans[loan].lender           = usrs_[1];\n        loans[loan].arbiter          = usrs_[2];\n        loans[loan].principal        = vals_[0];\n        loans[loan].interest         = vals_[1];\n        loans[loan].penalty          = vals_[2];\n        loans[loan].fee              = vals_[3];\n        collaterals[loan].seizableCollateral = minSeizableCollateralValue(loan);\n        collaterals[loan].refundableCollateral = sub(vals_[4], collaterals[loan].seizableCollateral);\n        loans[loan].liquidationRatio = vals_[5];\n        loans[loan].requestTimestamp = vals_[6];\n        fundIndex[loan]              = fundIndex_;\n        secretHashes[loan].set       = false;\n        borrowerLoans[usrs_[0]].push(bytes32(loanIndex));\n        lenderLoans[usrs_[1]].push(bytes32(loanIndex));\n\n        emit Create(loan);\n    }\n\n    /**\n     * @notice Set Secret Hashes for loan agreement\n     * @param loan The Id of the Loan\n     * @param borrowerSecretHashes Borrower secret hashes\n     * @param lenderSecretHashes Lender secret hashes\n     * @param arbiterSecretHashes Arbiter secret hashes\n     * @param borrowerPubKey_ Borrower Bitcoin Public Key\n     * @param lenderPubKey_ Lender Bitcoin Public Key\n     * @param arbiterPubKey_ Arbiter Bitcoin Public Key\n     */\n    function setSecretHashes(\n        bytes32             loan,\n        bytes32[4] calldata borrowerSecretHashes,\n        bytes32[4] calldata lenderSecretHashes,\n        bytes32[4] calldata arbiterSecretHashes,\n        bytes      calldata borrowerPubKey_,\n        bytes      calldata lenderPubKey_,\n        bytes      calldata arbiterPubKey_\n    ) external returns (bool) {\n        require(!secretHashes[loan].set);\n        require(msg.sender == loans[loan].borrower || msg.sender == loans[loan].lender || msg.sender == address(funds));\n        secretHashes[loan].secretHashA1 = borrowerSecretHashes[0];\n        secretHashes[loan].secretHashAs = [ borrowerSecretHashes[1], borrowerSecretHashes[2], borrowerSecretHashes[3] ];\n        secretHashes[loan].secretHashB1 = lenderSecretHashes[0];\n        secretHashes[loan].secretHashBs = [ lenderSecretHashes[1], lenderSecretHashes[2], lenderSecretHashes[3] ];\n        secretHashes[loan].secretHashC1 = arbiterSecretHashes[0];\n        secretHashes[loan].secretHashCs = [ arbiterSecretHashes[1], arbiterSecretHashes[2], arbiterSecretHashes[3] ];\n        pubKeys[loan].borrowerPubKey    = borrowerPubKey_;\n        pubKeys[loan].lenderPubKey      = lenderPubKey_;\n        pubKeys[loan].arbiterPubKey     = arbiterPubKey_;\n        secretHashes[loan].set          = true;\n    }\n\n    /**\n     * @notice Consumer for Bitcoin transaction information\n     * @dev Handles Bitcoin events that have been validated by the Relay contract (onDemandSpv by Summa)\n     * @param _vout        The length-prefixed output vector of the bitcoin tx\n     *                     that triggered the notification.\n     * @param _requestID   The ID of the event request that this notification\n     *                     satisfies. The ID is returned by\n     *                     OnDemandSPV.request and should be locally stored by\n     *                     any contract that makes more than one request.\n     * @param _outputIndex The index of the output in the _vout that triggered\n     *                     the notification. Useful for subscribing to transactions\n     *                     that spend the newly-created UTXO.\n     */\n    function spv(bytes32, bytes calldata, bytes calldata _vout, uint256 _requestID, uint8, uint8 _outputIndex) external {\n        require(msg.sender == address(onDemandSpv));\n\n        bytes memory outputAtIndex = BTCUtils.extractOutputAtIndex(_vout, _outputIndex);\n        bytes32 p2wshAddress = BytesLib.toBytes32(BTCUtils.extractHash(outputAtIndex));\n        uint256 amount = uint(BTCUtils.extractValue(outputAtIndex));\n\n        bytes32 loan = requestsDetails[_requestID].loan;\n        bool finalized = requestsDetails[_requestID].finalized;\n        bool seizable = requestsDetails[_requestID].seizable;\n\n        require(p2wshAddress == requestsDetails[_requestID].p2wshAddress); // ensure p2wsh is generated properly\n\n        if (finalized) { // 6 confirmations\n            if (requestsValid[finalRequestToInitialRequest[_requestID]]) { // Check that request is valid\n                if (seizable) {\n                    collaterals[loan].seizableCollateral = add(collaterals[loan].seizableCollateral, amount);\n\n                    temporaryCollaterals[loan].seizableCollateral = sub(temporaryCollaterals[loan].seizableCollateral, amount);\n                } else {\n\n                    if (collaterals[loan].seizableCollateral >= minSeizableCollateralValue(loan)) {\n                        collaterals[loan].refundableCollateral = add(collaterals[loan].refundableCollateral, amount);\n                    } else {\n                        collaterals[loan].unaccountedRefundableCollateral = add(collaterals[loan].unaccountedRefundableCollateral, amount);\n                    }\n\n                    temporaryCollaterals[loan].refundableCollateral = sub(temporaryCollaterals[loan].refundableCollateral, amount);\n                }\n\n                collateralDeposits[loan][collateralDepositIndex[loan]].finalized = true;\n\n                for (uint i = collateralDepositFinalizedIndex[loan]; i < sub(collateralDepositIndex[loan], collateralDepositFinalizedIndex[loan]); i++) { // check if collateralDepositFinalizedIndex should be increased\n                    if (collateralDeposits[loan][i].finalized == true) {\n                        collateralDepositFinalizedIndex[loan] = add(collateralDepositFinalizedIndex[loan], 1);\n                    } else {\n                        break;\n                    }\n                }\n            }\n        } else { // 1 confirmation\n            if (amount >= div(collateral(loan), 100)) { // Ensure amount is greater than 1% of collateral value\n                requestsValid[_requestID] = true;\n\n                collateralDeposits[loan][collateralDepositIndex[loan]].amount = amount;\n                collateralDeposits[loan][collateralDepositIndex[loan]].seizable = seizable;\n                collateralDeposits[loan][collateralDepositIndex[loan]].expiry = now + ADD_COLLATERAL_EXPIRY;\n\n                collateralDepositIndex[loan] = add(collateralDepositIndex[loan], 1);\n\n                if (seizable) {\n                    temporaryCollaterals[loan].seizableCollateral = add(temporaryCollaterals[loan].seizableCollateral, amount);\n                } else {\n                    temporaryCollaterals[loan].refundableCollateral = add(temporaryCollaterals[loan].refundableCollateral, amount);\n                }\n\n                // check existing refundable collaterals\n                if (add(collaterals[loan].seizableCollateral, temporaryCollaterals[loan].seizableCollateral) >= minSeizableCollateralValue(loan) && collaterals[loan].unaccountedRefundableCollateral != 0) {\n                    collaterals[loan].refundableCollateral = add(collaterals[loan].refundableCollateral, collaterals[loan].unaccountedRefundableCollateral);\n                    collaterals[loan].unaccountedRefundableCollateral = 0;\n                }\n            }\n        }\n    }\n\n    /**\n     * @notice Lender sends tokens to the loan agreement\n     * @param loan The Id of the Loan\n     */\n    function fund(bytes32 loan) external {\n        require(secretHashes[loan].set);\n        require(bools[loan].funded == false);\n        require(token.transferFrom(msg.sender, address(this), principal(loan)));\n        bools[loan].funded = true;\n    }\n\n    /**\n     * @notice Lender approves locking of Bitcoin collateral\n     * @param loan The Id of the Loan\n     */\n    function approve(bytes32 loan) external { // Approve locking of collateral\n    \trequire(bools[loan].funded == true);\n    \trequire(loans[loan].lender == msg.sender);\n    \trequire(now                <= approveExpiration(loan));\n    \tbools[loan].approved = true;\n    }\n\n    /**\n     * @notice Borrower withdraws loan\n     * @param loan The Id of the Loan\n     * @param secretA1 Secret A1 provided by the borrower\n     */\n    function withdraw(bytes32 loan, bytes32 secretA1) external {\n        require(!off(loan));\n        require(bools[loan].funded == true);\n        require(bools[loan].approved == true);\n        require(bools[loan].withdrawn == false);\n        require(sha256(abi.encodePacked(secretA1)) == secretHashes[loan].secretHashA1);\n        require(token.transfer(loans[loan].borrower, principal(loan)));\n\n        bools[loan].withdrawn = true;\n        secretHashes[loan].withdrawSecret = secretA1;\n        requestSpv(loan);\n    }\n\n    /**\n     * @notice Lender sends tokens to the loan agreement\n     * @param loan The Id of the Loan\n     * @param amount The amount of tokens to repay\n     *\n     *        Note: Anyone can repay the loan\n     */\n    function repay(bytes32 loan, uint256 amount) external {\n        require(!off(loan));\n        require(!sale(loan));\n        require(bools[loan].withdrawn     == true);\n        require(now                       <= loans[loan].loanExpiration);\n        require(add(amount, repaid(loan)) <= owedForLoan(loan));\n        require(token.transferFrom(msg.sender, address(this), amount));\n        repayments[loan] = add(amount, repayments[loan]);\n        if (repaid(loan) == owedForLoan(loan)) {\n            bools[loan].paid = true;\n            cancelSpv(loan);\n        }\n    }\n\n    /**\n     * @notice Borrower refunds tokens in the case that Lender doesn't accept loan repayment\n     * @dev Send tokens back to the Borrower, and close Loan\n     * @param loan The Id of the Loan\n     *\n     *        Note: If Lender does not accept repayment, liquidation cannot occur\n     */\n    function refund(bytes32 loan) external {\n        require(!off(loan));\n        require(!sale(loan));\n        require(now              >  acceptExpiration(loan));\n        require(bools[loan].paid == true);\n        require(msg.sender       == loans[loan].borrower);\n        bools[loan].off = true;\n        loans[loan].closedTimestamp = now;\n        require(token.transfer(loans[loan].borrower, owedForLoan(loan)));\n        if (funds.custom(fundIndex[loan]) == false) {\n            funds.decreaseTotalBorrow(loans[loan].principal);\n            funds.calcGlobalInterest();\n        }\n    }\n\n    /**\n     * @notice Lender cancels loan after Borrower locks collateral\n     * @dev Lender cancels loan and principal is sent back to the Lender / Loan Fund\n     * @param loan The Id of the Loan\n     * @param secret Secret B1 revealed by the Lender\n     */\n    function cancel(bytes32 loan, bytes32 secret) external {\n        accept(loan, secret);\n    }\n\n    function cancel(bytes32 loan) external {\n        require(!off(loan));\n        require(bools[loan].withdrawn == false);\n        require(now                              >= seizureExpiration(loan));\n        require(bools[loan].sale                 == false);\n        close(loan);\n    }\n\n    /**\n     * @notice Lender accepts loan repayment\n     * @dev Lender accepts loan repayment and principal + interest are sent back to the Lender / Loan Fund\n     * @param loan The Id of the Loan\n     * @param secret Secret B1 revealed by the Lender\n     */\n    function accept(bytes32 loan, bytes32 secret) public {\n        require(!off(loan));\n        require(bools[loan].withdrawn == false   || bools[loan].paid == true);\n        require(msg.sender == loans[loan].lender || msg.sender == loans[loan].arbiter);\n        require(sha256(abi.encodePacked(secret)) == secretHashes[loan].secretHashB1 || sha256(abi.encodePacked(secret)) == secretHashes[loan].secretHashC1);\n        require(now                              <= acceptExpiration(loan));\n        require(bools[loan].sale                 == false);\n        secretHashes[loan].acceptSecret = secret;\n        close(loan);\n    }\n\n    function close(bytes32 loan) private {\n        bools[loan].off = true;\n        loans[loan].closedTimestamp = now;\n        if (bools[loan].withdrawn == false) {\n            if (fundIndex[loan] == bytes32(0)) {\n                require(token.transfer(loans[loan].lender, loans[loan].principal));\n            } else {\n                if (funds.custom(fundIndex[loan]) == false) {\n                    funds.decreaseTotalBorrow(loans[loan].principal);\n                }\n                funds.deposit(fundIndex[loan], loans[loan].principal);\n            }\n        } else if (bools[loan].withdrawn == true) {\n            if (fundIndex[loan] == bytes32(0)) {\n                require(token.transfer(loans[loan].lender, owedToLender(loan)));\n            } else {\n                if (funds.custom(fundIndex[loan]) == false) {\n                    funds.decreaseTotalBorrow(loans[loan].principal);\n                }\n                funds.deposit(fundIndex[loan], owedToLender(loan));\n            }\n            require(token.transfer(loans[loan].arbiter, fee(loan)));\n        }\n    }\n\n    /**\n     * @notice Any third party starts liquidation of the Bitcoin collateral by providing tokens with the intention to buy at a discount\n     * @param loan The Id of the Loan\n     * @param secretHash The Secret Hash D1 provided by the liquidator\n     * @param pubKeyHash The Bitcoin Public Key Hash of the liquidator\n     * @return sale_ The Id of the Sale (Liquidation)\n     */\n    function liquidate(bytes32 loan, bytes32 secretHash, bytes20 pubKeyHash) external returns (bytes32 sale_) {\n        require(!off(loan));\n        require(bools[loan].withdrawn == true);\n        require(msg.sender != loans[loan].borrower && msg.sender != loans[loan].lender);\n        if (sales.next(loan) == 0) {\n            if (now > loans[loan].loanExpiration) {\n                require(bools[loan].paid == false);\n            } else {\n                require(!safe(loan));\n            }\n            if (funds.custom(fundIndex[loan]) == false) {\n                funds.decreaseTotalBorrow(loans[loan].principal);\n                funds.calcGlobalInterest();\n            }\n        } else {\n            require(sales.next(loan) < 3);\n            require(now > sales.settlementExpiration(sales.saleIndexByLoan(loan, sales.next(loan) - 1))); // Can only start liquidation after settlement expiration of previous liquidation\n            require(!sales.accepted(sales.saleIndexByLoan(loan, sales.next(loan) - 1))); // Can only start liquidation again if previous liquidation discountBuy wasn't taken\n        }\n        require(token.balanceOf(msg.sender) >= ddiv(discountCollateralValue(loan)));\n        require(token.transferFrom(msg.sender, address(sales), ddiv(discountCollateralValue(loan))));\n        SecretHashes storage h = secretHashes[loan];\n        uint256 i = sales.next(loan);\n        sale_ = sales.create(loan, loans[loan].borrower, loans[loan].lender, loans[loan].arbiter, msg.sender, h.secretHashAs[i], h.secretHashBs[i], h.secretHashCs[i], secretHash, pubKeyHash);\n        if (bools[loan].sale == false) { require(token.transfer(address(sales), repaid(loan))); }\n        bools[loan].sale = true;\n        cancelSpv(loan);\n    }\n\n    function requestSpv(bytes32 loan) internal {\n        (, bytes32 refundableP2WSH) = p2wsh.getP2WSH(loan, false); // refundable collateral\n        (, bytes32 seizableP2WSH) = p2wsh.getP2WSH(loan, true); // seizable collateral\n\n        uint256 onePercentOfCollateral = div(collateral(loan), 100);\n\n        uint256 refundRequestIDOneConf = onDemandSpv.request(hex\"\", abi.encodePacked(hex\"220020\", refundableP2WSH), uint64(onePercentOfCollateral), address(this), 1);\n        uint256 refundRequestIDSixConf = onDemandSpv.request(hex\"\", abi.encodePacked(hex\"220020\", refundableP2WSH), uint64(onePercentOfCollateral), address(this), 6);\n\n        uint256 seizeRequestIDOneConf = onDemandSpv.request(hex\"\", abi.encodePacked(hex\"220020\", seizableP2WSH), uint64(onePercentOfCollateral), address(this), 1);\n        uint256 seizeRequestIDSixConf = onDemandSpv.request(hex\"\", abi.encodePacked(hex\"220020\", seizableP2WSH), uint64(onePercentOfCollateral), address(this), 6);\n\n        loanRequests[loan].refundRequestIDOneConf = refundRequestIDOneConf;\n        loanRequests[loan].refundRequestIDSixConf = refundRequestIDSixConf;\n        loanRequests[loan].seizeRequestIDOneConf = seizeRequestIDOneConf;\n        loanRequests[loan].seizeRequestIDSixConf = seizeRequestIDSixConf;\n\n        requestsDetails[refundRequestIDOneConf].loan = loan;\n        requestsDetails[refundRequestIDOneConf].p2wshAddress = refundableP2WSH;\n\n        requestsDetails[refundRequestIDSixConf].loan = loan;\n        requestsDetails[refundRequestIDSixConf].finalized = true;\n        requestsDetails[refundRequestIDSixConf].p2wshAddress = refundableP2WSH;\n\n        finalRequestToInitialRequest[refundRequestIDSixConf] = refundRequestIDOneConf;\n\n        requestsDetails[seizeRequestIDOneConf].loan = loan;\n        requestsDetails[seizeRequestIDOneConf].seizable = true;\n        requestsDetails[seizeRequestIDOneConf].p2wshAddress = seizableP2WSH;\n\n        requestsDetails[seizeRequestIDSixConf].loan = loan;\n        requestsDetails[seizeRequestIDSixConf].seizable = true;\n        requestsDetails[seizeRequestIDSixConf].finalized = true;\n        requestsDetails[seizeRequestIDSixConf].p2wshAddress = seizableP2WSH;\n\n        finalRequestToInitialRequest[seizeRequestIDSixConf] = seizeRequestIDOneConf;\n    }\n\n    function cancelSpv(bytes32 loan) internal {\n        require(onDemandSpv.cancelRequest(loanRequests[loan].refundRequestIDOneConf));\n        require(onDemandSpv.cancelRequest(loanRequests[loan].refundRequestIDSixConf));\n        require(onDemandSpv.cancelRequest(loanRequests[loan].seizeRequestIDOneConf));\n        require(onDemandSpv.cancelRequest(loanRequests[loan].seizeRequestIDSixConf));\n    }\n}\n",
  "sourcePath": "/Users/matthewblack/atomicloans/atomicloans-eth-contracts/contracts/Loans.sol",
  "compiler": {
    "name": "solc",
    "version": "0.5.10+commit.5a6ea5b1.Emscripten.clang"
  },
  "schemaVersion": "3.0.11",
  "updatedAt": "2020-01-11T22:56:36.776Z",
  "devdoc": {
    "methods": {
      "accept(bytes32,bytes32)": {
        "details": "Lender accepts loan repayment and principal + interest are sent back to the Lender / Loan Fund",
        "params": {
          "loan": "The Id of the Loan",
          "secret": "Secret B1 revealed by the Lender"
        }
      },
      "approve(bytes32)": {
        "params": {
          "loan": "The Id of the Loan"
        }
      },
      "cancel(bytes32,bytes32)": {
        "details": "Lender cancels loan and principal is sent back to the Lender / Loan Fund",
        "params": {
          "loan": "The Id of the Loan",
          "secret": "Secret B1 revealed by the Lender"
        }
      },
      "create(uint256,address[3],uint256[7],bytes32)": {
        "params": {
          "fundIndex_": "The optional Fund Index",
          "loanExpiration_": "The timestamp for the end of the loan",
          "usrs_": "Array of three addresses containing the borrower, lender, and optional arbiter address",
          "vals_": "Array of six uints containing loan principal, interest, liquidation penalty, optional arbiter fee, collateral amount, liquidation ratio"
        }
      },
      "fund(bytes32)": {
        "params": {
          "loan": "The Id of the Loan"
        }
      },
      "liquidate(bytes32,bytes32,bytes20)": {
        "params": {
          "loan": "The Id of the Loan",
          "pubKeyHash": "The Bitcoin Public Key Hash of the liquidator",
          "secretHash": "The Secret Hash D1 provided by the liquidator"
        },
        "return": "sale_ The Id of the Sale (Liquidation)"
      },
      "refund(bytes32)": {
        "details": "Send tokens back to the Borrower, and close Loan",
        "params": {
          "loan": "The Id of the Loan     *        Note: If Lender does not accept repayment, liquidation cannot occur"
        }
      },
      "repay(bytes32,uint256)": {
        "params": {
          "amount": "The amount of tokens to repay     *        Note: Anyone can repay the loan",
          "loan": "The Id of the Loan"
        }
      },
      "setOnDemandSpv(address)": {
        "details": "Sets OnDemandSpv contract address",
        "params": {
          "onDemandSpv_": "Address of OnDemandSpv contract"
        }
      },
      "setP2WSH(address)": {
        "details": "Sets P2WSH contract",
        "params": {
          "p2wsh_": "Address of P2WSH contract"
        }
      },
      "setSales(address)": {
        "details": "Sets Sales contract",
        "params": {
          "sales_": "Address of Sales contract"
        }
      },
      "setSecretHashes(bytes32,bytes32[4],bytes32[4],bytes32[4],bytes,bytes,bytes)": {
        "params": {
          "arbiterPubKey_": "Arbiter Bitcoin Public Key",
          "arbiterSecretHashes": "Arbiter secret hashes",
          "borrowerPubKey_": "Borrower Bitcoin Public Key",
          "borrowerSecretHashes": "Borrower secret hashes",
          "lenderPubKey_": "Lender Bitcoin Public Key",
          "lenderSecretHashes": "Lender secret hashes",
          "loan": "The Id of the Loan"
        }
      },
      "spv(bytes32,bytes,bytes,uint256,uint8,uint8)": {
        "details": "Handles Bitcoin events that have been validated by the Relay contract (onDemandSpv by Summa)",
        "params": {
          "_outputIndex": "The index of the output in the _vout that triggered                    the notification. Useful for subscribing to transactions                    that spend the newly-created UTXO.",
          "_requestID": "The ID of the event request that this notification                    satisfies. The ID is returned by                    OnDemandSPV.request and should be locally stored by                    any contract that makes more than one request.",
          "_vout": "The length-prefixed output vector of the bitcoin tx                    that triggered the notification."
        }
      },
      "withdraw(bytes32,bytes32)": {
        "params": {
          "loan": "The Id of the Loan",
          "secretA1": "Secret A1 provided by the borrower"
        }
      }
    }
  },
  "userdoc": {
    "methods": {
      "accept(bytes32,bytes32)": {
        "notice": "Lender accepts loan repayment"
      },
      "approve(bytes32)": {
        "notice": "Lender approves locking of Bitcoin collateral"
      },
      "cancel(bytes32,bytes32)": {
        "notice": "Lender cancels loan after Borrower locks collateral"
      },
      "create(uint256,address[3],uint256[7],bytes32)": {
        "notice": "Creates a new loan agreement"
      },
      "fund(bytes32)": {
        "notice": "Lender sends tokens to the loan agreement"
      },
      "liquidate(bytes32,bytes32,bytes20)": {
        "notice": "Any third party starts liquidation of the Bitcoin collateral by providing tokens with the intention to buy at a discount"
      },
      "refund(bytes32)": {
        "notice": "Borrower refunds tokens in the case that Lender doesn't accept loan repayment"
      },
      "repay(bytes32,uint256)": {
        "notice": "Lender sends tokens to the loan agreement"
      },
      "setSecretHashes(bytes32,bytes32[4],bytes32[4],bytes32[4],bytes,bytes,bytes)": {
        "notice": "Set Secret Hashes for loan agreement"
      },
      "spv(bytes32,bytes,bytes,uint256,uint8,uint8)": {
        "notice": "Consumer for Bitcoin transaction information"
      },
      "withdraw(bytes32,bytes32)": {
        "notice": "Borrower withdraws loan"
      }
    }
  }
}