{
  "contractName": "Sales",
  "abi": [
    {
      "constant": true,
      "inputs": [
        {
          "name": "",
          "type": "bytes32"
        }
      ],
      "name": "sales",
      "outputs": [
        {
          "name": "loanIndex",
          "type": "bytes32"
        },
        {
          "name": "discountBuy",
          "type": "uint256"
        },
        {
          "name": "liquidator",
          "type": "address"
        },
        {
          "name": "borrower",
          "type": "address"
        },
        {
          "name": "lender",
          "type": "address"
        },
        {
          "name": "arbiter",
          "type": "address"
        },
        {
          "name": "createdAt",
          "type": "uint256"
        },
        {
          "name": "pubKeyHash",
          "type": "bytes20"
        },
        {
          "name": "set",
          "type": "bool"
        },
        {
          "name": "accepted",
          "type": "bool"
        },
        {
          "name": "off",
          "type": "bool"
        }
      ],
      "payable": false,
      "stateMutability": "view",
      "type": "function"
    },
    {
      "constant": true,
      "inputs": [
        {
          "name": "",
          "type": "bytes32"
        },
        {
          "name": "",
          "type": "uint256"
        }
      ],
      "name": "saleIndexByLoan",
      "outputs": [
        {
          "name": "",
          "type": "bytes32"
        }
      ],
      "payable": false,
      "stateMutability": "view",
      "type": "function"
    },
    {
      "constant": true,
      "inputs": [],
      "name": "SETTLEMENT_EXP",
      "outputs": [
        {
          "name": "",
          "type": "uint256"
        }
      ],
      "payable": false,
      "stateMutability": "view",
      "type": "function"
    },
    {
      "constant": true,
      "inputs": [],
      "name": "saleIndex",
      "outputs": [
        {
          "name": "",
          "type": "uint256"
        }
      ],
      "payable": false,
      "stateMutability": "view",
      "type": "function"
    },
    {
      "constant": true,
      "inputs": [
        {
          "name": "",
          "type": "bytes32"
        }
      ],
      "name": "arbiterSigs",
      "outputs": [
        {
          "name": "refundableSig",
          "type": "bytes"
        },
        {
          "name": "seizableSig",
          "type": "bytes"
        }
      ],
      "payable": false,
      "stateMutability": "view",
      "type": "function"
    },
    {
      "constant": true,
      "inputs": [
        {
          "name": "",
          "type": "bytes32"
        }
      ],
      "name": "lenderSigs",
      "outputs": [
        {
          "name": "refundableSig",
          "type": "bytes"
        },
        {
          "name": "seizableSig",
          "type": "bytes"
        }
      ],
      "payable": false,
      "stateMutability": "view",
      "type": "function"
    },
    {
      "constant": true,
      "inputs": [
        {
          "name": "",
          "type": "bytes32"
        }
      ],
      "name": "secretHashes",
      "outputs": [
        {
          "name": "secretHashA",
          "type": "bytes32"
        },
        {
          "name": "secretA",
          "type": "bytes32"
        },
        {
          "name": "secretHashB",
          "type": "bytes32"
        },
        {
          "name": "secretB",
          "type": "bytes32"
        },
        {
          "name": "secretHashC",
          "type": "bytes32"
        },
        {
          "name": "secretC",
          "type": "bytes32"
        },
        {
          "name": "secretHashD",
          "type": "bytes32"
        },
        {
          "name": "secretD",
          "type": "bytes32"
        }
      ],
      "payable": false,
      "stateMutability": "view",
      "type": "function"
    },
    {
      "constant": true,
      "inputs": [
        {
          "name": "",
          "type": "bytes32"
        }
      ],
      "name": "borrowerSigs",
      "outputs": [
        {
          "name": "refundableSig",
          "type": "bytes"
        },
        {
          "name": "seizableSig",
          "type": "bytes"
        }
      ],
      "payable": false,
      "stateMutability": "view",
      "type": "function"
    },
    {
      "constant": true,
      "inputs": [],
      "name": "deployer",
      "outputs": [
        {
          "name": "",
          "type": "address"
        }
      ],
      "payable": false,
      "stateMutability": "view",
      "type": "function"
    },
    {
      "constant": true,
      "inputs": [],
      "name": "SWAP_EXP",
      "outputs": [
        {
          "name": "",
          "type": "uint256"
        }
      ],
      "payable": false,
      "stateMutability": "view",
      "type": "function"
    },
    {
      "constant": true,
      "inputs": [
        {
          "name": "x",
          "type": "uint256"
        },
        {
          "name": "y",
          "type": "uint256"
        }
      ],
      "name": "cmul",
      "outputs": [
        {
          "name": "z",
          "type": "uint256"
        }
      ],
      "payable": false,
      "stateMutability": "pure",
      "type": "function"
    },
    {
      "constant": true,
      "inputs": [],
      "name": "token",
      "outputs": [
        {
          "name": "",
          "type": "address"
        }
      ],
      "payable": false,
      "stateMutability": "view",
      "type": "function"
    },
    {
      "inputs": [
        {
          "name": "loans_",
          "type": "address"
        },
        {
          "name": "funds_",
          "type": "address"
        },
        {
          "name": "med_",
          "type": "address"
        },
        {
          "name": "token_",
          "type": "address"
        }
      ],
      "payable": false,
      "stateMutability": "nonpayable",
      "type": "constructor"
    },
    {
      "constant": true,
      "inputs": [
        {
          "name": "sale",
          "type": "bytes32"
        }
      ],
      "name": "discountBuy",
      "outputs": [
        {
          "name": "",
          "type": "uint256"
        }
      ],
      "payable": false,
      "stateMutability": "view",
      "type": "function"
    },
    {
      "constant": true,
      "inputs": [
        {
          "name": "sale",
          "type": "bytes32"
        }
      ],
      "name": "swapExpiration",
      "outputs": [
        {
          "name": "",
          "type": "uint256"
        }
      ],
      "payable": false,
      "stateMutability": "view",
      "type": "function"
    },
    {
      "constant": true,
      "inputs": [
        {
          "name": "sale",
          "type": "bytes32"
        }
      ],
      "name": "settlementExpiration",
      "outputs": [
        {
          "name": "",
          "type": "uint256"
        }
      ],
      "payable": false,
      "stateMutability": "view",
      "type": "function"
    },
    {
      "constant": true,
      "inputs": [
        {
          "name": "sale",
          "type": "bytes32"
        }
      ],
      "name": "accepted",
      "outputs": [
        {
          "name": "",
          "type": "bool"
        }
      ],
      "payable": false,
      "stateMutability": "view",
      "type": "function"
    },
    {
      "constant": true,
      "inputs": [
        {
          "name": "sale",
          "type": "bytes32"
        }
      ],
      "name": "off",
      "outputs": [
        {
          "name": "",
          "type": "bool"
        }
      ],
      "payable": false,
      "stateMutability": "view",
      "type": "function"
    },
    {
      "constant": true,
      "inputs": [
        {
          "name": "loan",
          "type": "bytes32"
        }
      ],
      "name": "next",
      "outputs": [
        {
          "name": "",
          "type": "uint256"
        }
      ],
      "payable": false,
      "stateMutability": "view",
      "type": "function"
    },
    {
      "constant": false,
      "inputs": [
        {
          "name": "loanIndex",
          "type": "bytes32"
        },
        {
          "name": "borrower",
          "type": "address"
        },
        {
          "name": "lender",
          "type": "address"
        },
        {
          "name": "arbiter",
          "type": "address"
        },
        {
          "name": "liquidator",
          "type": "address"
        },
        {
          "name": "secretHashA",
          "type": "bytes32"
        },
        {
          "name": "secretHashB",
          "type": "bytes32"
        },
        {
          "name": "secretHashC",
          "type": "bytes32"
        },
        {
          "name": "secretHashD",
          "type": "bytes32"
        },
        {
          "name": "pubKeyHash",
          "type": "bytes20"
        }
      ],
      "name": "create",
      "outputs": [
        {
          "name": "sale",
          "type": "bytes32"
        }
      ],
      "payable": false,
      "stateMutability": "nonpayable",
      "type": "function"
    },
    {
      "constant": false,
      "inputs": [
        {
          "name": "sale",
          "type": "bytes32"
        },
        {
          "name": "refundableSig",
          "type": "bytes"
        },
        {
          "name": "seizableSig",
          "type": "bytes"
        }
      ],
      "name": "provideSig",
      "outputs": [],
      "payable": false,
      "stateMutability": "nonpayable",
      "type": "function"
    },
    {
      "constant": false,
      "inputs": [
        {
          "name": "sale",
          "type": "bytes32"
        },
        {
          "name": "secret_",
          "type": "bytes32"
        }
      ],
      "name": "provideSecret",
      "outputs": [],
      "payable": false,
      "stateMutability": "nonpayable",
      "type": "function"
    },
    {
      "constant": true,
      "inputs": [
        {
          "name": "sale",
          "type": "bytes32"
        }
      ],
      "name": "hasSecrets",
      "outputs": [
        {
          "name": "",
          "type": "bool"
        }
      ],
      "payable": false,
      "stateMutability": "view",
      "type": "function"
    },
    {
      "constant": false,
      "inputs": [
        {
          "name": "sale",
          "type": "bytes32"
        }
      ],
      "name": "accept",
      "outputs": [],
      "payable": false,
      "stateMutability": "nonpayable",
      "type": "function"
    },
    {
      "constant": false,
      "inputs": [
        {
          "name": "sale",
          "type": "bytes32"
        },
        {
          "name": "secrets_",
          "type": "bytes32[3]"
        }
      ],
      "name": "provideSecretsAndAccept",
      "outputs": [],
      "payable": false,
      "stateMutability": "nonpayable",
      "type": "function"
    },
    {
      "constant": false,
      "inputs": [
        {
          "name": "sale",
          "type": "bytes32"
        }
      ],
      "name": "refund",
      "outputs": [],
      "payable": false,
      "stateMutability": "nonpayable",
      "type": "function"
    }
  ],
  "bytecode": "0x608060405234801561001057600080fd5b506040516121183803806121188339818101604052608081101561003357600080fd5b508051602080830151604080850151606090950151600380546001600160a01b03199081166001600160a01b03808916918217909355600180548316909117905560008054821683871617808255600280548416858c16179055600c8054909316848616179283905585517f095ea7b30000000000000000000000000000000000000000000000000000000081529084166004820152600019602482015294519798959795969395919092169363095ea7b3936044808301949193928390030190829087803b15801561010557600080fd5b505af1158015610119573d6000803e3d6000fd5b505050506040513d602081101561012f57600080fd5b505161013a57600080fd5b50505050611fcb8061014d6000396000f3fe608060405234801561001057600080fd5b50600436106101735760003560e01c80637249fbb6116100de578063d357691d11610097578063e34abe4c11610071578063e34abe4c1461068c578063e4725ba114610694578063f7837eb7146106b1578063fc0c546a146106d457610173565b8063d357691d146105ed578063d4b7a0721461064b578063d5f394881461066857610173565b80637249fbb6146103b557806383cd9fbf146103d25780638642afd1146104cd578063a6b7d54e146104ea578063b9b8b1fe14610507578063d34ca8ff146105d057610173565b80632dab9da3116101305780632dab9da31461030f57806359949df414610334578063602a73f2146103515780636c636ca5146103735780636ec012e7146103905780636f6d99ab1461039857610173565b806302d3af5b146101785780630c2afd72146101a75780630c4afecf1461023c5780631a81dcab146102b35780631b9e0f8f146102d65780632d33c55314610307575b600080fd5b6101956004803603602081101561018e57600080fd5b50356106dc565b60408051918252519081900360200190f35b6101c4600480360360208110156101bd57600080fd5b50356106ee565b604080519b8c5260208c019a909a526001600160a01b039889168b8b015296881660608b015294871660808a01529290951660a088015260c08701526bffffffffffffffffffffffff1990931660e0860152911515610100850152901515610120840152151561014083015251908190036101600190f35b610195600480360361014081101561025357600080fd5b5080359060208101356001600160a01b03908116916040810135821691606082013581169160808101359091169060a08101359060c08101359060e0810135906101008101359061012001356bffffffffffffffffffffffff1916610769565b610195600480360360408110156102c957600080fd5b5080359060200135610a7b565b6102f3600480360360208110156102ec57600080fd5b5035610aa9565b604080519115158252519081900360200190f35b610195610b38565b6103326004803603604081101561032557600080fd5b5080359060200135610b3e565b005b6102f36004803603602081101561034a57600080fd5b5035610ce1565b6103326004803603608081101561036757600080fd5b50803590602001610d00565b6101956004803603602081101561038957600080fd5b5035610d37565b610195610d4c565b610195600480360360208110156103ae57600080fd5b5035610d52565b610332600480360360208110156103cb57600080fd5b5035610d6b565b6103ef600480360360208110156103e857600080fd5b5035610fb4565b604051808060200180602001838103835285818151815260200191508051906020019080838360005b83811015610430578181015183820152602001610418565b50505050905090810190601f16801561045d5780820380516001836020036101000a031916815260200191505b50838103825284518152845160209182019186019080838360005b83811015610490578181015183820152602001610478565b50505050905090810190601f1680156104bd5780820380516001836020036101000a031916815260200191505b5094505050505060405180910390f35b6102f3600480360360208110156104e357600080fd5b50356110f3565b6101956004803603602081101561050057600080fd5b5035611112565b6103326004803603606081101561051d57600080fd5b8135919081019060408101602082013564010000000081111561053f57600080fd5b82018360208201111561055157600080fd5b8035906020019184600183028401116401000000008311171561057357600080fd5b91939092909160208101903564010000000081111561059157600080fd5b8201836020820111156105a357600080fd5b803590602001918460018302840111640100000000831117156105c557600080fd5b50909250905061112b565b6103ef600480360360208110156105e657600080fd5b503561127a565b61060a6004803603602081101561060357600080fd5b50356112e6565b604080519889526020890197909752878701959095526060870193909352608086019190915260a085015260c084015260e083015251908190036101000190f35b6103ef6004803603602081101561066157600080fd5b5035611329565b610670611395565b604080516001600160a01b039092168252519081900360200190f35b6101956113a4565b610332600480360360208110156106aa57600080fd5b50356113aa565b610195600480360360408110156106c757600080fd5b5080359060200135611e5c565b610670611e89565b6000908152600a602052604090205490565b600460208190526000918252604090912080546001820154600283015460038401549484015460058501546006860154600790960154949693956001600160a01b039384169594841694928416939190911691606081901b9060ff600160a01b8204811691600160a81b8104821691600160b01b909104168b565b6001546000906001600160a01b0316331461078357600080fd5b6107906009546001611e98565b60098190555060095460001b90508a6004600083815260200190815260200160002060000181905550896004600083815260200190815260200160002060030160006101000a8154816001600160a01b0302191690836001600160a01b03160217905550886004600083815260200190815260200160002060040160006101000a8154816001600160a01b0302191690836001600160a01b03160217905550876004600083815260200190815260200160002060050160006101000a8154816001600160a01b0302191690836001600160a01b03160217905550866004600083815260200190815260200160002060020160006101000a8154816001600160a01b0302191690836001600160a01b03160217905550426004600083815260200190815260200160002060060181905550816004600083815260200190815260200160002060070160006101000a8154816001600160a01b03021916908360601c0217905550600160009054906101000a90046001600160a01b03166001600160a01b0316637ff6fecc600160009054906101000a90046001600160a01b03166001600160a01b0316637888938b8e6040518263ffffffff1660e01b81526004018082815260200191505060206040518083038186803b15801561097257600080fd5b505afa158015610986573d6000803e3d6000fd5b505050506040513d602081101561099c57600080fd5b5051604080516001600160e01b031960e085901b1681526004810192909252516024808301926020929190829003018186803b1580156109db57600080fd5b505afa1580156109ef573d6000803e3d6000fd5b505050506040513d6020811015610a0557600080fd5b50516000828152600460208181526040808420600180820196909655600701805460ff60a01b1916600160a01b179055600882528084209a8b5560028b01999099559089019690965560069097019390935599855250600a82529183208054928301815583529091200185905550929392505050565b600a6020528160005260406000208181548110610a9457fe5b90600052602060002001600091509150505481565b6000818152600860209081526040808320548352600b909152812054819060ff1615610ad3576001015b6000838152600860209081526040808320600201548352600b90915290205460ff1615610afe576001015b6000838152600860209081526040808320600401548352600b90915290205460ff1615610b29576001015b600260ff909116101592915050565b61384081565b600082815260046020526040902060070154600160a01b900460ff16610b6357600080fd5b6000600282604051602001808281526020019150506040516020818303038152906040526040518082805190602001908083835b60208310610bb65780518252601f199092019160209182019101610b97565b51815160209384036101000a60001901801990921691161790526040519190930194509192505080830381855afa158015610bf5573d6000803e3d6000fd5b5050506040513d6020811015610c0a57600080fd5b50516000818152600b60209081526040808320805460ff191660011790558683526008909152902054909150811415610c525760008381526008602052604090206001018290555b600083815260086020526040902060020154811415610c805760008381526008602052604090206003018290555b600083815260086020526040902060040154811415610cae5760008381526008602052604090206005018290555b600083815260086020526040902060060154811415610cdc5760008381526008602052604090206007018290555b505050565b600090815260046020526040902060070154600160b01b900460ff1690565b610d12828260005b6020020135610b3e565b610d1e82826001610d08565b610d2a82826002610d08565b610d33826113aa565b5050565b60009081526004602052604090206001015490565b60095481565b600090815260046020526040902060060154611c200190565b610d74816110f3565b15610d7e57600080fd5b610d8781610ce1565b15610d9157600080fd5b610d9a81611112565b4211610da557600080fd5b600081815260046020526040902060010154610dc057600080fd5b600081815260046020818152604080842060078101805460ff60b01b1916600160b01b179055600c54600282015460019290920154835163a9059cbb60e01b81526001600160a01b03938416968101969096526024860152915191169363a9059cbb936044808201949392918390030190829087803b158015610e4257600080fd5b505af1158015610e56573d6000803e3d6000fd5b505050506040513d6020811015610e6c57600080fd5b5051610e7757600080fd5b600081815260046020526040902054610e8f906106dc565b60031415610fb157600c54600082815260046020818152604092839020600381015460015491548551633e4b2a2960e01b81529485015293516001600160a01b039586169563a9059cbb95811694921692633e4b2a299260248082019391829003018186803b158015610f0157600080fd5b505afa158015610f15573d6000803e3d6000fd5b505050506040513d6020811015610f2b57600080fd5b5051604080516001600160e01b031960e086901b1681526001600160a01b03909316600484015260248301919091525160448083019260209291908290030181600087803b158015610f7c57600080fd5b505af1158015610f90573d6000803e3d6000fd5b505050506040513d6020811015610fa657600080fd5b5051610fb157600080fd5b50565b60076020908152600091825260409182902080548351601f6002600019610100600186161502019093169290920491820184900484028101840190945280845290929183919083018282801561104b5780601f106110205761010080835404028352916020019161104b565b820191906000526020600020905b81548152906001019060200180831161102e57829003601f168201915b505050505090806001018054600181600116156101000203166002900480601f0160208091040260200160405190810160405280929190818152602001828054600181600116156101000203166002900480156110e95780601f106110be576101008083540402835291602001916110e9565b820191906000526020600020905b8154815290600101906020018083116110cc57829003601f168201915b5050505050905082565b600090815260046020526040902060070154600160a81b900460ff1690565b6000908152600460205260409020600601546138400190565b600085815260046020526040902060070154600160a01b900460ff1661115057600080fd5b61115985611112565b421061116457600080fd5b6000858152600460205260409020600301546001600160a01b03163314156111c257600085815260056020526040902061119f908585611efb565b5060008581526005602052604090206111bc906001018383611efb565b50611273565b600085815260046020819052604090912001546001600160a01b031633141561121b5760008581526006602052604090206111fe908585611efb565b5060008581526006602052604090206111bc906001018383611efb565b6000858152600460205260409020600501546001600160a01b0316331415610173576000858152600760205260409020611256908585611efb565b5060008581526007602052604090206111bc906001018383611efb565b5050505050565b60066020908152600091825260409182902080548351601f6002600019610100600186161502019093169290920491820184900484028101840190945280845290929183919083018282801561104b5780601f106110205761010080835404028352916020019161104b565b6008602052600090815260409020805460018201546002830154600384015460048501546005860154600687015460079097015495969495939492939192909188565b60056020908152600091825260409182902080548351601f6002600019610100600186161502019093169290920491820184900484028101840190945280845290929183919083018282801561104b5780601f106110205761010080835404028352916020019161104b565b6003546001600160a01b031681565b611c2081565b6113b3816110f3565b156113bd57600080fd5b6113c681610ce1565b156113d057600080fd5b6113d981610aa9565b6113e257600080fd5b6000818152600860209081526040808320600601548352600b90915290205460ff1661140d57600080fd5b600081815260046020818152604080842060078101805460ff60a81b1916600160a81b179055600181810154905491548351633e4b2a2960e01b81529586015291516114b49492936001600160a01b0390921692633e4b2a29926024808301939192829003018186803b15801561148357600080fd5b505afa158015611497573d6000803e3d6000fd5b505050506040513d60208110156114ad57600080fd5b5051611e98565b6000838152600460205260409020600501549091506001600160a01b03161580159061156257506001546000838152600460208181526040928390205483516313e6d58360e11b81529283015291516001600160a01b03909316926327cdab0692602480840193919291829003018186803b15801561153257600080fd5b505afa158015611546573d6000803e3d6000fd5b505050506040513d602081101561155c57600080fd5b50518110155b1561171057600c546000838152600460208181526040928390206005810154600154915485516313e6d58360e11b81529485015293516001600160a01b039586169563a9059cbb958116949216926327cdab069260248082019391829003018186803b1580156115d157600080fd5b505afa1580156115e5573d6000803e3d6000fd5b505050506040513d60208110156115fb57600080fd5b5051604080516001600160e01b031960e086901b1681526001600160a01b03909316600484015260248301919091525160448083019260209291908290030181600087803b15801561164c57600080fd5b505af1158015611660573d6000803e3d6000fd5b505050506040513d602081101561167657600080fd5b505161168157600080fd5b6001546000838152600460208181526040928390205483516313e6d58360e11b815292830152915161170d9385936001600160a01b03909116926327cdab069260248083019392829003018186803b1580156116dc57600080fd5b505afa1580156116f0573d6000803e3d6000fd5b505050506040513d602081101561170657600080fd5b5051611eae565b90505b60015460008381526004602081815260408084205481516307b4b9b760e51b81529384015251929361179c9386936001600160a01b039092169263f69736e09260248082019391829003018186803b15801561176b57600080fd5b505afa15801561177f573d6000803e3d6000fd5b505050506040513d602081101561179557600080fd5b5051611ebe565b600154600085815260046020818152604080842054815163a5d9dc7b60e01b8152938401525194955091936001600160a01b039093169263a5d9dc7b92602480840193919291829003018186803b1580156117f657600080fd5b505afa15801561180a573d6000803e3d6000fd5b505050506040513d602081101561182057600080fd5b505114156118c557600c546000848152600460208181526040808420830154815163a9059cbb60e01b81526001600160a01b039182169481019490945260248401879052905194169363a9059cbb936044808501948390030190829087803b15801561188b57600080fd5b505af115801561189f573d6000803e3d6000fd5b505050506040513d60208110156118b557600080fd5b50516118c057600080fd5b6119b0565b600080546001548583526004602081815260409485902054855163a5d9dc7b60e01b81529283015293516001600160a01b0393841694631de26e16949093169263a5d9dc7b9260248082019391829003018186803b15801561192657600080fd5b505afa15801561193a573d6000803e3d6000fd5b505050506040513d602081101561195057600080fd5b5051604080516001600160e01b031960e085901b16815260048101929092526024820185905251604480830192600092919082900301818387803b15801561199757600080fd5b505af11580156119ab573d6000803e3d6000fd5b505050505b6119ba8282611eae565b60015460008581526004602081815260409283902054835163026fc75960e41b81529283015291519395506001600160a01b03909216926326fc7590926024808201939291829003018186803b158015611a1357600080fd5b505afa158015611a27573d6000803e3d6000fd5b505050506040513d6020811015611a3d57600080fd5b50518210611cb457600c5460025460015460008681526004602081815260409283902054835163026fc75960e41b81529283015291516001600160a01b039586169563095ea7b39581169416926326fc75909260248082019391829003018186803b158015611aab57600080fd5b505afa158015611abf573d6000803e3d6000fd5b505050506040513d6020811015611ad557600080fd5b5051604080516001600160e01b031960e086901b1681526001600160a01b03909316600484015260248301919091525160448083019260209291908290030181600087803b158015611b2657600080fd5b505af1158015611b3a573d6000803e3d6000fd5b505050506040513d6020811015611b5057600080fd5b5051611b5b57600080fd5b60025460015460008581526004602081815260409283902054835163026fc75960e41b81529283015291516001600160a01b039485169463eee923959416926326fc75909260248082019391829003018186803b158015611bbb57600080fd5b505afa158015611bcf573d6000803e3d6000fd5b505050506040513d6020811015611be557600080fd5b5051600c54604080516001600160e01b031960e086901b16815260048101939093526001600160a01b03909116602483015251604480830192600092919082900301818387803b158015611c3857600080fd5b505af1158015611c4c573d6000803e3d6000fd5b505060015460008681526004602081815260409283902054835163026fc75960e41b8152928301529151611cad95508794506001600160a01b03909316926326fc759092602480840193919291829003018186803b1580156116dc57600080fd5b9150611dbd565b8115611dbd57600c546002546040805163095ea7b360e01b81526001600160a01b039283166004820152602481018690529051919092169163095ea7b39160448083019260209291908290030181600087803b158015611d1357600080fd5b505af1158015611d27573d6000803e3d6000fd5b505050506040513d6020811015611d3d57600080fd5b5051611d4857600080fd5b600254600c546040805163eee9239560e01b8152600481018690526001600160a01b0392831660248201529051919092169163eee9239591604480830192600092919082900301818387803b158015611da057600080fd5b505af1158015611db4573d6000803e3d6000fd5b50505050600091505b8115610cdc57600c54600084815260046020818152604080842060030154815163a9059cbb60e01b81526001600160a01b039182169481019490945260248401889052905194169363a9059cbb936044808501948390030190829087803b158015611e2757600080fd5b505af1158015611e3b573d6000803e3d6000fd5b505050506040513d6020811015611e5157600080fd5b5051610cdc57600080fd5b60006305f5e100611e7a611e708585611ed7565b6302faf080611e98565b81611e8157fe5b049392505050565b600c546001600160a01b031681565b80820182811015611ea857600080fd5b92915050565b80820382811115611ea857600080fd5b600081831115611ece5781611ed0565b825b9392505050565b6000811580611ef257505080820282828281611eef57fe5b04145b611ea857600080fd5b828054600181600116156101000203166002900490600052602060002090601f016020900481019282601f10611f3c5782800160ff19823516178555611f69565b82800160010185558215611f69579182015b82811115611f69578235825591602001919060010190611f4e565b50611f75929150611f79565b5090565b611f9391905b80821115611f755760008155600101611f7f565b9056fea265627a7a72305820cfd172b06260437adb5b22018bae49d3abd6e02bc5f8a306aa59e9f3628211b964736f6c634300050a0032",
  "source": "import 'openzeppelin-solidity/contracts/token/ERC20/ERC20.sol';\nimport 'openzeppelin-solidity/contracts/math/SafeMath.sol';\n\nimport './Loans.sol';\nimport './Medianizer.sol';\nimport './DSMath.sol';\n\npragma solidity ^0.5.10;\n\ncontract Sales is DSMath {\n    FundsInterface funds;\n    Loans loans;\n    Medianizer med;\n\n    uint256 public constant SWAP_EXP = 2 hours;       // Swap Expiration\n    uint256 public constant SETTLEMENT_EXP = 4 hours; // Settlement Expiration\n\n\taddress public deployer; // Only the Loans contract can edit data\n\n\tmapping (bytes32 => Sale)       public sales;        // Auctions\n\tmapping (bytes32 => Sig)        public borrowerSigs; // Borrower Signatures\n\tmapping (bytes32 => Sig)        public lenderSigs;   // Lender Signatures\n\tmapping (bytes32 => Sig)        public arbiterSigs;  // Lender Signatures\n\tmapping (bytes32 => SecretHash) public secretHashes; // Auction Secret Hashes\n    uint256                         public saleIndex;    // Auction Index\n\n    mapping (bytes32 => bytes32[])  public saleIndexByLoan; // Loan Auctions (find by loanIndex)\n\n    mapping(bytes32 => bool) revealed;\n\n    ERC20 public token;\n\n    /**\n     * @notice Container for the sale information\n     * @member loanIndex The Id of the loan\n     * @member discountBuy The amount in tokens that the Bitcoin collateral was bought for at discount\n     * @member liquidator The address of the liquidator (party that buys the Bitcoin collateral at a discount)\n     * @member borrower The address of the borrower\n     * @member lender The address of the lender\n     * @member arbiter The address of the arbiter\n     * @member createAt The creation timestamp of the sale\n     * @member pubKeyHash The Bitcoin Public Key Hash of the liquidator\n     * @member set Indicates that the sale at this specific index has been opened\n     * @member accepted Indicates that the discountBuy has been accepted\n     * @member off Indicates that the is failed\n     */\n    struct Sale {\n        bytes32    loanIndex;\n        uint256    discountBuy;\n        address    liquidator;\n        address    borrower;\n        address    lender;\n        address    arbiter;\n        uint256    createdAt;\n        bytes20    pubKeyHash;\n        bool       set;\n        bool       accepted;\n        bool       off;\n    }\n\n    /**\n     * @notice Container for the Bitcoin refundable and seizable signature information\n     * @member refundableSig The Bitcoin refundable signature to move collateral to swap P2WSH\n     * @member seizableSig The Bitcoin seizable signature to move collateral to swap P2WSH\n     */\n    struct Sig {\n        bytes refundableSig;\n        bytes seizableSig;\n    }\n\n    /**\n     * @notice Container for the Bitcoin Secret and Secret Hashes information\n     */\n    struct SecretHash {\n        bytes32 secretHashA; // Secret Hash A\n        bytes32 secretA;     // Secret A\n        bytes32 secretHashB; // Secret Hash B\n        bytes32 secretB;     // Secret B\n        bytes32 secretHashC; // Secret Hash C\n        bytes32 secretC;     // Secret C\n        bytes32 secretHashD; // Secret Hash D\n        bytes32 secretD;     // Secret D\n    }\n\n    function discountBuy(bytes32 sale) public view returns (uint256) {\n        return sales[sale].discountBuy;\n    }\n\n    function swapExpiration(bytes32 sale) public view returns (uint256) {\n        return sales[sale].createdAt + SWAP_EXP;\n    }\n\n    function settlementExpiration(bytes32 sale) public view returns (uint256) {\n        return sales[sale].createdAt + SETTLEMENT_EXP;\n    }\n\n    function accepted(bytes32 sale) public view returns (bool) {\n        return sales[sale].accepted;\n    }\n\n    function off(bytes32 sale) public view returns (bool) {\n        return sales[sale].off;\n    }\n\n    constructor (Loans loans_, FundsInterface funds_, Medianizer med_, ERC20 token_) public {\n    \tdeployer = address(loans_);\n    \tloans    = loans_;\n        funds    = funds_;\n        med      = med_;\n        token    = token_;\n        require(token.approve(address(funds), 2**256-1));\n    }\n\n    function next(bytes32 loan) public view returns (uint256) {\n    \treturn saleIndexByLoan[loan].length;\n    }\n\n    /**\n     * @dev Creates a new sale (called by the Loans contract)\n     * @param loanIndex The Id of the Loan\n     * @param borrower The address of the borrower\n     * @param lender The address of the lender\n     * @param arbiter The address of the arbiter\n     * @param liquidator The address of the liquidator\n     * @param secretHashA The Secret Hash of the Borrower for the current sale number\n     * @param secretHashB The Secret Hash of the Lender for the current sale number\n     * @param secretHashC The Secret Hash of the Arbiter for the current sale number\n     * @param secretHashD the Secret Hash of the Liquidator\n     * @param pubKeyHash The Bitcoin Public Key Hash of the Liquidator\n     * @return sale The Id of the sale\n     */\n    function create(\n        bytes32 loanIndex,\n        address borrower,\n        address lender,\n        address arbiter,\n        address liquidator,\n        bytes32 secretHashA,\n        bytes32 secretHashB,\n        bytes32 secretHashC,\n        bytes32 secretHashD,\n        bytes20 pubKeyHash\n        ) external returns(bytes32 sale) {\n        require(msg.sender == address(loans));\n        saleIndex = add(saleIndex, 1);\n        sale = bytes32(saleIndex);\n        sales[sale].loanIndex   = loanIndex;\n        sales[sale].borrower    = borrower;\n        sales[sale].lender      = lender;\n        sales[sale].arbiter       = arbiter;\n        sales[sale].liquidator  = liquidator;\n        sales[sale].createdAt   = now;\n        sales[sale].pubKeyHash  = pubKeyHash;\n        sales[sale].discountBuy = loans.ddiv(loans.discountCollateralValue(loanIndex));\n        sales[sale].set         = true;\n        secretHashes[sale].secretHashA = secretHashA;\n        secretHashes[sale].secretHashB = secretHashB;\n        secretHashes[sale].secretHashC = secretHashC;\n        secretHashes[sale].secretHashD = secretHashD;\n        saleIndexByLoan[loanIndex].push(sale);\n   }\n\n    /**\n     * @notice Provide Bitcoin signatures for moving collateral to collateral swap script\n     * @param sale The Id of the sale\n     * @param refundableSig The Bitcoin refundable collateral signature\n     * @param seizableSig The Bitcoin seizable collateral signature\n     *\n     *         Note: More info on the collateral swap script can be seen here:\n                     https://github.com/AtomicLoans/chainabstractionlayer-loans\n                     */\n    function provideSig(\n        bytes32        sale,\n        bytes calldata refundableSig,\n        bytes calldata seizableSig\n    ) external {\n        require(sales[sale].set);\n        require(now < settlementExpiration(sale));\n        if (msg.sender == sales[sale].borrower) {\n            borrowerSigs[sale].refundableSig = refundableSig;\n            borrowerSigs[sale].seizableSig   = seizableSig;\n        } else if (msg.sender == sales[sale].lender) {\n            lenderSigs[sale].refundableSig = refundableSig;\n            lenderSigs[sale].seizableSig   = seizableSig;\n        } else if (msg.sender == sales[sale].arbiter) {\n            arbiterSigs[sale].refundableSig = refundableSig;\n            arbiterSigs[sale].seizableSig   = seizableSig;\n        } else {\n            revert();\n        }\n    }\n\n    /**\n     * @notice Provide secret to enable liquidator to claim collateral\n     * @param secret_ The secret provided by the borrower, lender, arbiter, or liquidator\n     */\n    function provideSecret(bytes32 sale, bytes32 secret_) public {\n        require(sales[sale].set);\n        bytes32 secretHash = sha256(abi.encodePacked(secret_));\n        revealed[secretHash] = true;\n        if (secretHash == secretHashes[sale].secretHashA) { secretHashes[sale].secretA = secret_; }\n        if (secretHash == secretHashes[sale].secretHashB) { secretHashes[sale].secretB = secret_; }\n        if (secretHash == secretHashes[sale].secretHashC) { secretHashes[sale].secretC = secret_; }\n        if (secretHash == secretHashes[sale].secretHashD) { secretHashes[sale].secretD = secret_; }\n    }\n\n    /**\n     * @dev Indicates that two of Secret A, Secret B, Secret C have been submitted\n     * @param sale The Id of the sale\n     */\n    function hasSecrets(bytes32 sale) public view returns (bool) {\n        uint8 numCorrectSecrets = 0;\n        if (revealed[secretHashes[sale].secretHashA]) { numCorrectSecrets += 1; }\n        if (revealed[secretHashes[sale].secretHashB]) { numCorrectSecrets += 1; }\n        if (revealed[secretHashes[sale].secretHashC]) { numCorrectSecrets += 1; }\n        return (numCorrectSecrets >= 2);\n    }\n\n    /**\n     * @notice Accept discount buy by liquidator and disperse funds to rightful parties\n     * @param sale The Id of the sale\n     */\n    function accept(bytes32 sale) public {\n        require(!accepted(sale));\n        require(!off(sale));\n        require(hasSecrets(sale));\n        require(revealed[secretHashes[sale].secretHashD]);\n        sales[sale].accepted = true;\n\n        uint256 available = add(sales[sale].discountBuy, loans.repaid(sales[sale].loanIndex));\n\n        if (sales[sale].arbiter != address(0) && available >= loans.fee(sales[sale].loanIndex)) {\n            require(token.transfer(sales[sale].arbiter, loans.fee(sales[sale].loanIndex)));\n            available = sub(available, loans.fee(sales[sale].loanIndex));\n        }\n\n        uint256 amount = min(available, loans.owedToLender(sales[sale].loanIndex));\n\n        if (loans.fundIndex(sales[sale].loanIndex) == bytes32(0)) {\n            require(token.transfer(sales[sale].lender, amount));\n        } else {\n            funds.deposit(loans.fundIndex(sales[sale].loanIndex), amount);\n        }\n\n        available = sub(available, amount);\n\n        if (available >= loans.penalty(sales[sale].loanIndex)) {\n            require(token.approve(address(med), loans.penalty(sales[sale].loanIndex)));\n            med.fund(loans.penalty(sales[sale].loanIndex), token);\n            available = sub(available, loans.penalty(sales[sale].loanIndex));\n        } else if (available > 0) {\n            require(token.approve(address(med), available));\n            med.fund(available, token);\n            available = 0;\n        }\n\n        if (available > 0) { require(token.transfer(sales[sale].borrower, available)); }\n    }\n\n    function provideSecretsAndAccept(bytes32 sale, bytes32[3] calldata secrets_) external {\n        provideSecret(sale, secrets_[0]);\n        provideSecret(sale, secrets_[1]);\n        provideSecret(sale, secrets_[2]);\n        accept(sale);\n    }\n\n    /**\n     * @notice Refund discount buy to liquidator\n     * @param sale The Id of the sale\n     */\n    function refund(bytes32 sale) external {\n        require(!accepted(sale));\n        require(!off(sale));\n        require(now > settlementExpiration(sale));\n        require(sales[sale].discountBuy > 0);\n        sales[sale].off = true;\n        require(token.transfer(sales[sale].liquidator, sales[sale].discountBuy));\n        if (next(sales[sale].loanIndex) == 3) {\n            require(token.transfer(sales[sale].borrower, loans.repaid(sales[sale].loanIndex)));\n        }\n    }\n}",
  "sourcePath": "/Users/matthewblack/atomicloans/atomicloans-eth-contracts/contracts/Sales.sol",
  "compiler": {
    "name": "solc",
    "version": "0.5.10+commit.5a6ea5b1.Emscripten.clang"
  },
  "schemaVersion": "3.0.11",
  "updatedAt": "2020-01-11T22:56:36.807Z",
  "devdoc": {
    "methods": {
      "accept(bytes32)": {
        "params": {
          "sale": "The Id of the sale"
        }
      },
      "create(bytes32,address,address,address,address,bytes32,bytes32,bytes32,bytes32,bytes20)": {
        "details": "Creates a new sale (called by the Loans contract)",
        "params": {
          "arbiter": "The address of the arbiter",
          "borrower": "The address of the borrower",
          "lender": "The address of the lender",
          "liquidator": "The address of the liquidator",
          "loanIndex": "The Id of the Loan",
          "pubKeyHash": "The Bitcoin Public Key Hash of the Liquidator",
          "secretHashA": "The Secret Hash of the Borrower for the current sale number",
          "secretHashB": "The Secret Hash of the Lender for the current sale number",
          "secretHashC": "The Secret Hash of the Arbiter for the current sale number",
          "secretHashD": "the Secret Hash of the Liquidator"
        },
        "return": "sale The Id of the sale"
      },
      "hasSecrets(bytes32)": {
        "details": "Indicates that two of Secret A, Secret B, Secret C have been submitted",
        "params": {
          "sale": "The Id of the sale"
        }
      },
      "provideSecret(bytes32,bytes32)": {
        "params": {
          "secret_": "The secret provided by the borrower, lender, arbiter, or liquidator"
        }
      },
      "provideSig(bytes32,bytes,bytes)": {
        "params": {
          "refundableSig": "The Bitcoin refundable collateral signature",
          "sale": "The Id of the sale",
          "seizableSig": "The Bitcoin seizable collateral signature     *         Note: More info on the collateral swap script can be seen here: https://github.com/AtomicLoans/chainabstractionlayer-loans"
        }
      },
      "refund(bytes32)": {
        "params": {
          "sale": "The Id of the sale"
        }
      }
    }
  },
  "userdoc": {
    "methods": {
      "accept(bytes32)": {
        "notice": "Accept discount buy by liquidator and disperse funds to rightful parties"
      },
      "provideSecret(bytes32,bytes32)": {
        "notice": "Provide secret to enable liquidator to claim collateral"
      },
      "provideSig(bytes32,bytes,bytes)": {
        "notice": "Provide Bitcoin signatures for moving collateral to collateral swap script"
      },
      "refund(bytes32)": {
        "notice": "Refund discount buy to liquidator"
      }
    }
  }
}