{
    "contractName": "ExampleDaiCoin",
    "abi": [
        {
            "constant": true,
            "inputs": [],
            "name": "name",
            "outputs": [
                {
                    "name": "",
                    "type": "string"
                }
            ],
            "payable": false,
            "stateMutability": "view",
            "type": "function"
        },
        {
            "constant": false,
            "inputs": [
                {
                    "name": "spender",
                    "type": "address"
                },
                {
                    "name": "amount",
                    "type": "uint256"
                }
            ],
            "name": "approve",
            "outputs": [
                {
                    "name": "",
                    "type": "bool"
                }
            ],
            "payable": false,
            "stateMutability": "nonpayable",
            "type": "function"
        },
        {
            "constant": true,
            "inputs": [],
            "name": "totalSupply",
            "outputs": [
                {
                    "name": "",
                    "type": "uint256"
                }
            ],
            "payable": false,
            "stateMutability": "view",
            "type": "function"
        },
        {
            "constant": false,
            "inputs": [
                {
                    "name": "sender",
                    "type": "address"
                },
                {
                    "name": "recipient",
                    "type": "address"
                },
                {
                    "name": "amount",
                    "type": "uint256"
                }
            ],
            "name": "transferFrom",
            "outputs": [
                {
                    "name": "",
                    "type": "bool"
                }
            ],
            "payable": false,
            "stateMutability": "nonpayable",
            "type": "function"
        },
        {
            "constant": true,
            "inputs": [],
            "name": "decimals",
            "outputs": [
                {
                    "name": "",
                    "type": "uint256"
                }
            ],
            "payable": false,
            "stateMutability": "view",
            "type": "function"
        },
        {
            "constant": false,
            "inputs": [
                {
                    "name": "spender",
                    "type": "address"
                },
                {
                    "name": "addedValue",
                    "type": "uint256"
                }
            ],
            "name": "increaseAllowance",
            "outputs": [
                {
                    "name": "",
                    "type": "bool"
                }
            ],
            "payable": false,
            "stateMutability": "nonpayable",
            "type": "function"
        },
        {
            "constant": true,
            "inputs": [
                {
                    "name": "account",
                    "type": "address"
                }
            ],
            "name": "balanceOf",
            "outputs": [
                {
                    "name": "",
                    "type": "uint256"
                }
            ],
            "payable": false,
            "stateMutability": "view",
            "type": "function"
        },
        {
            "constant": true,
            "inputs": [],
            "name": "symbol",
            "outputs": [
                {
                    "name": "",
                    "type": "string"
                }
            ],
            "payable": false,
            "stateMutability": "view",
            "type": "function"
        },
        {
            "constant": false,
            "inputs": [
                {
                    "name": "spender",
                    "type": "address"
                },
                {
                    "name": "subtractedValue",
                    "type": "uint256"
                }
            ],
            "name": "decreaseAllowance",
            "outputs": [
                {
                    "name": "",
                    "type": "bool"
                }
            ],
            "payable": false,
            "stateMutability": "nonpayable",
            "type": "function"
        },
        {
            "constant": false,
            "inputs": [
                {
                    "name": "recipient",
                    "type": "address"
                },
                {
                    "name": "amount",
                    "type": "uint256"
                }
            ],
            "name": "transfer",
            "outputs": [
                {
                    "name": "",
                    "type": "bool"
                }
            ],
            "payable": false,
            "stateMutability": "nonpayable",
            "type": "function"
        },
        {
            "constant": true,
            "inputs": [
                {
                    "name": "owner",
                    "type": "address"
                },
                {
                    "name": "spender",
                    "type": "address"
                }
            ],
            "name": "allowance",
            "outputs": [
                {
                    "name": "",
                    "type": "uint256"
                }
            ],
            "payable": false,
            "stateMutability": "view",
            "type": "function"
        },
        {
            "inputs": [],
            "payable": false,
            "stateMutability": "nonpayable",
            "type": "constructor"
        },
        {
            "anonymous": false,
            "inputs": [
                {
                    "indexed": true,
                    "name": "from",
                    "type": "address"
                },
                {
                    "indexed": true,
                    "name": "to",
                    "type": "address"
                },
                {
                    "indexed": false,
                    "name": "value",
                    "type": "uint256"
                }
            ],
            "name": "Transfer",
            "type": "event"
        },
        {
            "anonymous": false,
            "inputs": [
                {
                    "indexed": true,
                    "name": "owner",
                    "type": "address"
                },
                {
                    "indexed": true,
                    "name": "spender",
                    "type": "address"
                },
                {
                    "indexed": false,
                    "name": "value",
                    "type": "uint256"
                }
            ],
            "name": "Approval",
            "type": "event"
        },
        {
            "constant": false,
            "inputs": [],
            "name": "mintTokens",
            "outputs": [],
            "payable": false,
            "stateMutability": "nonpayable",
            "type": "function"
        }
    ],
    "bytecode": "0x60c0604052600e60808190527f4578616d706c65444149436f696e00000000000000000000000000000000000060a090815262000040916003919062000257565b506040805180820190915260038082527f44414900000000000000000000000000000000000000000000000000000000006020909201918252620000879160049162000257565b5060126005553480156200009a57600080fd5b50620000ba3369115e5027ef6a631000006001600160e01b03620000c016565b620002fc565b6001600160a01b0382166200013657604080517f08c379a000000000000000000000000000000000000000000000000000000000815260206004820152601f60248201527f45524332303a206d696e7420746f20746865207a65726f206164647265737300604482015290519081900360640190fd5b6200015281600254620001db60201b6200086a1790919060201c565b6002556001600160a01b03821660009081526020818152604090912054620001859183906200086a620001db821b17901c565b6001600160a01b0383166000818152602081815260408083209490945583518581529351929391927fddf252ad1be2c89b69c2b068fc378daa952ba7f163c4a11628f55a4df523b3ef9281900390910190a35050565b6000828201838110156200025057604080517f08c379a000000000000000000000000000000000000000000000000000000000815260206004820152601b60248201527f536166654d6174683a206164646974696f6e206f766572666c6f770000000000604482015290519081900360640190fd5b9392505050565b828054600181600116156101000203166002900490600052602060002090601f016020900481019282601f106200029a57805160ff1916838001178555620002ca565b82800160010185558215620002ca579182015b82811115620002ca578251825591602001919060010190620002ad565b50620002d8929150620002dc565b5090565b620002f991905b80821115620002d85760008155600101620002e3565b90565b610af1806200030c6000396000f3fe608060405234801561001057600080fd5b50600436106100b45760003560e01c806370a082311161007157806370a08231146101fa57806395d89b4114610220578063a457c2d714610228578063a9059cbb14610254578063dd62ed3e14610280578063eeb9635c146102ae576100b4565b806306fdde03146100b9578063095ea7b31461013657806318160ddd1461017657806323b872dd14610190578063313ce567146101c657806339509351146101ce575b600080fd5b6100c16102b8565b6040805160208082528351818301528351919283929083019185019080838360005b838110156100fb5781810151838201526020016100e3565b50505050905090810190601f1680156101285780820380516001836020036101000a031916815260200191505b509250505060405180910390f35b6101626004803603604081101561014c57600080fd5b506001600160a01b038135169060200135610346565b604080519115158252519081900360200190f35b61017e610363565b60408051918252519081900360200190f35b610162600480360360608110156101a657600080fd5b506001600160a01b03813581169160208101359091169060400135610369565b61017e6103f6565b610162600480360360408110156101e457600080fd5b506001600160a01b0381351690602001356103fc565b61017e6004803603602081101561021057600080fd5b50356001600160a01b0316610450565b6100c161046b565b6101626004803603604081101561023e57600080fd5b506001600160a01b0381351690602001356104c6565b6101626004803603604081101561026a57600080fd5b506001600160a01b038135169060200135610534565b61017e6004803603604081101561029657600080fd5b506001600160a01b0381358116916020013516610548565b6102b6610573565b005b6003805460408051602060026001851615610100026000190190941693909304601f8101849004840282018401909252818152929183018282801561033e5780601f106103135761010080835404028352916020019161033e565b820191906000526020600020905b81548152906001019060200180831161032157829003601f168201915b505050505081565b600061035a610353610587565b848461058b565b50600192915050565b60025490565b6000610376848484610677565b6103ec84610382610587565b6103e785604051806060016040528060288152602001610a27602891396001600160a01b038a166000908152600160205260408120906103c0610587565b6001600160a01b03168152602081019190915260400160002054919063ffffffff6107d316565b61058b565b5060019392505050565b60055481565b600061035a610409610587565b846103e7856001600061041a610587565b6001600160a01b03908116825260208083019390935260409182016000908120918c16815292529020549063ffffffff61086a16565b6001600160a01b031660009081526020819052604090205490565b6004805460408051602060026001851615610100026000190190941693909304601f8101849004840282018401909252818152929183018282801561033e5780601f106103135761010080835404028352916020019161033e565b600061035a6104d3610587565b846103e785604051806060016040528060258152602001610a9860259139600160006104fd610587565b6001600160a01b03908116825260208083019390935260409182016000908120918d1681529252902054919063ffffffff6107d316565b600061035a610541610587565b8484610677565b6001600160a01b03918216600090815260016020908152604080832093909416825291909152205490565b61058533678ac7230489e800006108cb565b565b3390565b6001600160a01b0383166105d05760405162461bcd60e51b8152600401808060200182810382526024815260200180610a746024913960400191505060405180910390fd5b6001600160a01b0382166106155760405162461bcd60e51b81526004018080602001828103825260228152602001806109df6022913960400191505060405180910390fd5b6001600160a01b03808416600081815260016020908152604080832094871680845294825291829020859055815185815291517f8c5be1e5ebec7d5bd14f71427d1e84f3dd0314c0f7b2291e5b200ac8c7c3b9259281900390910190a3505050565b6001600160a01b0383166106bc5760405162461bcd60e51b8152600401808060200182810382526025815260200180610a4f6025913960400191505060405180910390fd5b6001600160a01b0382166107015760405162461bcd60e51b81526004018080602001828103825260238152602001806109bc6023913960400191505060405180910390fd5b61074481604051806060016040528060268152602001610a01602691396001600160a01b038616600090815260208190526040902054919063ffffffff6107d316565b6001600160a01b038085166000908152602081905260408082209390935590841681522054610779908263ffffffff61086a16565b6001600160a01b038084166000818152602081815260409182902094909455805185815290519193928716927fddf252ad1be2c89b69c2b068fc378daa952ba7f163c4a11628f55a4df523b3ef92918290030190a3505050565b600081848411156108625760405162461bcd60e51b81526004018080602001828103825283818151815260200191508051906020019080838360005b8381101561082757818101518382015260200161080f565b50505050905090810190601f1680156108545780820380516001836020036101000a031916815260200191505b509250505060405180910390fd5b505050900390565b6000828201838110156108c4576040805162461bcd60e51b815260206004820152601b60248201527f536166654d6174683a206164646974696f6e206f766572666c6f770000000000604482015290519081900360640190fd5b9392505050565b6001600160a01b038216610926576040805162461bcd60e51b815260206004820152601f60248201527f45524332303a206d696e7420746f20746865207a65726f206164647265737300604482015290519081900360640190fd5b600254610939908263ffffffff61086a16565b6002556001600160a01b038216600090815260208190526040902054610965908263ffffffff61086a16565b6001600160a01b0383166000818152602081815260408083209490945583518581529351929391927fddf252ad1be2c89b69c2b068fc378daa952ba7f163c4a11628f55a4df523b3ef9281900390910190a3505056fe45524332303a207472616e7366657220746f20746865207a65726f206164647265737345524332303a20617070726f766520746f20746865207a65726f206164647265737345524332303a207472616e7366657220616d6f756e7420657863656564732062616c616e636545524332303a207472616e7366657220616d6f756e74206578636565647320616c6c6f77616e636545524332303a207472616e736665722066726f6d20746865207a65726f206164647265737345524332303a20617070726f76652066726f6d20746865207a65726f206164647265737345524332303a2064656372656173656420616c6c6f77616e63652062656c6f77207a65726fa265627a7a723058207416a60840a2850aba3113986cf2d7a9a52cd8124ca31a27dc9b9b56b510b91f64736f6c634300050a0032",
    "source": "pragma solidity 0.5.10;\n\nimport 'openzeppelin-solidity/contracts/token/ERC20/ERC20.sol';\n\ncontract ExampleDaiCoin is ERC20 {\n  string public name = \"ExampleDAICoin\"; \n  string public symbol = \"DAI\";\n  uint public decimals = 18;\n\n  constructor () public {\n    _mint(msg.sender, 82020000000000000000000);\n  }\n\n  function mintTokens () public {\n    _mint(msg.sender, 10 ether);\n  }\n}",
    "sourcePath": "/Users/matthewblack/atomicloans/atomicloans-eth-contracts/contracts/ExampleDaiCoin.sol",
    "compiler": {
        "name": "solc",
        "version": "0.5.10+commit.5a6ea5b1.Emscripten.clang"
    },
    "schemaVersion": "3.0.11",
    "updatedAt": "2020-02-20T19:13:56.203Z",
    "devdoc": {
        "methods": {
            "allowance(address,address)": {
                "details": "See {IERC20-allowance}."
            },
            "approve(address,uint256)": {
                "details": "See {IERC20-approve}.     * Requirements:     * - `spender` cannot be the zero address."
            },
            "balanceOf(address)": {
                "details": "See {IERC20-balanceOf}."
            },
            "decreaseAllowance(address,uint256)": {
                "details": "Atomically decreases the allowance granted to `spender` by the caller.     * This is an alternative to {approve} that can be used as a mitigation for problems described in {IERC20-approve}.     * Emits an {Approval} event indicating the updated allowance.     * Requirements:     * - `spender` cannot be the zero address. - `spender` must have allowance for the caller of at least `subtractedValue`."
            },
            "increaseAllowance(address,uint256)": {
                "details": "Atomically increases the allowance granted to `spender` by the caller.     * This is an alternative to {approve} that can be used as a mitigation for problems described in {IERC20-approve}.     * Emits an {Approval} event indicating the updated allowance.     * Requirements:     * - `spender` cannot be the zero address."
            },
            "totalSupply()": {
                "details": "See {IERC20-totalSupply}."
            },
            "transfer(address,uint256)": {
                "details": "See {IERC20-transfer}.     * Requirements:     * - `recipient` cannot be the zero address. - the caller must have a balance of at least `amount`."
            },
            "transferFrom(address,address,uint256)": {
                "details": "See {IERC20-transferFrom}.     * Emits an {Approval} event indicating the updated allowance. This is not required by the EIP. See the note at the beginning of {ERC20};     * Requirements: - `sender` and `recipient` cannot be the zero address. - `sender` must have a balance of at least `amount`. - the caller must have allowance for `sender`'s tokens of at least `amount`."
            }
        }
    },
    "userdoc": {
        "methods": {}
    }
}