{
    "contractName": "FundOracles",
    "abi": [
        {
            "inputs": [
                {
                    "name": "med_",
                    "type": "address"
                },
                {
                    "name": "link_",
                    "type": "address"
                },
                {
                    "name": "weth_",
                    "type": "address"
                },
                {
                    "name": "uniswapExchange_",
                    "type": "address"
                }
            ],
            "payable": false,
            "stateMutability": "nonpayable",
            "type": "constructor"
        },
        {
            "constant": true,
            "inputs": [
                {
                    "name": "oracle_",
                    "type": "uint256"
                }
            ],
            "name": "billWithEth",
            "outputs": [
                {
                    "name": "",
                    "type": "uint256"
                }
            ],
            "payable": false,
            "stateMutability": "view",
            "type": "function"
        },
        {
            "constant": true,
            "inputs": [
                {
                    "name": "oracle_",
                    "type": "uint256"
                },
                {
                    "name": "payment_",
                    "type": "uint128"
                }
            ],
            "name": "paymentWithEth",
            "outputs": [
                {
                    "name": "",
                    "type": "uint256"
                }
            ],
            "payable": false,
            "stateMutability": "view",
            "type": "function"
        },
        {
            "constant": false,
            "inputs": [
                {
                    "name": "oracle_",
                    "type": "uint256"
                },
                {
                    "name": "payment_",
                    "type": "uint128"
                },
                {
                    "name": "token_",
                    "type": "address"
                }
            ],
            "name": "updateWithEth",
            "outputs": [],
            "payable": true,
            "stateMutability": "payable",
            "type": "function"
        }
    ],
    "bytecode": "0x608060405234801561001057600080fd5b50604051608080610853833981016040908152815160208301519183015160609093015160038054600160a060020a0319908116600160a060020a039485161790915560008054821694841694909417845560018054821695841695909517909455600280549094169116179091556107c490819061008f90396000f3006080604052600436106100565763ffffffff7c01000000000000000000000000000000000000000000000000000000006000350416630a35a0a7811461005b5780632992443c14610080578063c5c8b103146100aa575b600080fd5b61007e6004356001608060020a0360243516600160a060020a03604435166100ce565b005b34801561008c57600080fd5b506100986004356105b8565b60408051918252519081900360200190f35b3480156100b657600080fd5b506100986004356001608060020a03602435166106d9565b600354604080517f5b69a7d8000000000000000000000000000000000000000000000000000000008152600481018690529051600092839283928392600160a060020a031691635b69a7d891602480830192602092919082900301818787803b15801561013a57600080fd5b505af115801561014e573d6000803e3d6000fd5b505050506040513d602081101561016457600080fd5b5051935083925060058710156103fd5760008054600254604080517f095ea7b3000000000000000000000000000000000000000000000000000000008152600160a060020a0392831660048201526001608060020a038b1660248201529051349650919092169263095ea7b392604480820193602093909283900390910190829087803b1580156101f457600080fd5b505af1158015610208573d6000803e3d6000fd5b505050506040513d602081101561021e57600080fd5b5050600254604080517f6b1d4db70000000000000000000000000000000000000000000000000000000081526001608060020a038916600482015261012c420160248201529051600160a060020a0390921691636b1d4db7913491604480830192602092919082900301818588803b15801561029957600080fd5b505af11580156102ad573d6000803e3d6000fd5b50505050506040513d60208110156102c457600080fd5b505160008054604080517f095ea7b3000000000000000000000000000000000000000000000000000000008152600160a060020a0389811660048301526001608060020a038c166024830152915194955091169263095ea7b392604480840193602093929083900390910190829087803b15801561034157600080fd5b505af1158015610355573d6000803e3d6000fd5b505050506040513d602081101561036b57600080fd5b5050604080517fd4448a4c0000000000000000000000000000000000000000000000000000000081526001608060020a0388166004820152600160a060020a03878116602483015291519185169163d4448a4c9160448082019260009290919082900301818387803b1580156103e057600080fd5b505af11580156103f4573d6000803e3d6000fd5b505050506105af565b600160009054906101000a9004600160a060020a0316600160a060020a031663d0e30db0346040518263ffffffff167c01000000000000000000000000000000000000000000000000000000000281526004016000604051808303818588803b15801561046957600080fd5b505af115801561047d573d6000803e3d6000fd5b5050600154604080517f095ea7b3000000000000000000000000000000000000000000000000000000008152600160a060020a038a811660048301526001608060020a038d166024830152915191909216945063095ea7b39350604480830193506020928290030181600087803b1580156104f757600080fd5b505af115801561050b573d6000803e3d6000fd5b505050506040513d602081101561052157600080fd5b5050604080517fd4448a4c0000000000000000000000000000000000000000000000000000000081526001608060020a0388166004820152600160a060020a03878116602483015291519185169163d4448a4c9160448082019260009290919082900301818387803b15801561059657600080fd5b505af11580156105aa573d6000803e3d6000fd5b505050505b50505050505050565b600354604080517f5b69a7d8000000000000000000000000000000000000000000000000000000008152600481018490529051600092600160a060020a031691635b69a7d891602480830192602092919082900301818787803b15801561061e57600080fd5b505af1158015610632573d6000803e3d6000fd5b505050506040513d602081101561064857600080fd5b5051604080517f371e677a0000000000000000000000000000000000000000000000000000000081529051600160a060020a039092169163371e677a916004808201926020929091908290030181600087803b1580156106a757600080fd5b505af11580156106bb573d6000803e3d6000fd5b505050506040513d60208110156106d157600080fd5b505192915050565b6000600583101561078657600254604080517f59e948620000000000000000000000000000000000000000000000000000000081526001608060020a03851660048201529051600160a060020a03909216916359e94862916024808201926020929091908290030181600087803b15801561075357600080fd5b505af1158015610767573d6000803e3d6000fd5b505050506040513d602081101561077d57600080fd5b50519050610792565b506001608060020a0381165b929150505600a165627a7a72305820200c6b2b46fe248dbe74a2d645f8012f7b5eaa4e709da1c8b00234629a5cc7990029",
    "source": "pragma solidity ^0.4.26;\n\nimport \"./DSMath.sol\";\nimport \"./ERC20.sol\";\nimport \"./WETH.sol\";\nimport \"./UniswapExchangeInterface.sol\";\n\nimport \"./OracleInterface.sol\";\nimport \"./MedianizerInterface.sol\";\n\ncontract FundOracles is DSMath {\n  ERC20 link;\n  WETH weth;\n  UniswapExchangeInterface uniswapExchange;\n\n  MedianizerInterface med;\n\n  constructor(MedianizerInterface med_, ERC20 link_, WETH weth_, UniswapExchangeInterface uniswapExchange_) public {\n    med = med_;\n    link = link_;\n    weth = weth_;\n    uniswapExchange = uniswapExchange_;\n  }\n  \n  function billWithEth(uint256 oracle_) public view returns (uint256) {\n      return OracleInterface(med.oracles(oracle_)).bill();\n  }\n  \n  function paymentWithEth(uint256 oracle_, uint128 payment_) public view returns(uint256) {\n      if (oracle_ < 5) {\n          return uniswapExchange.getEthToTokenOutputPrice(payment_);\n      } else {\n          return uint(payment_);\n      }\n  }\n\n  function updateWithEth(uint256 oracle_, uint128 payment_, address token_) public payable {\n    address oracleAddress = med.oracles(oracle_);\n    OracleInterface oracle = OracleInterface(oracleAddress);\n    if (oracle_ < 5) {\n      // ChainLink Oracle\n      uint256 ethAmt = msg.value;\n      link.approve(address(uniswapExchange), uint(payment_));\n      uint256 ethSold = uniswapExchange.ethToTokenSwapOutput.value(msg.value)(uint(payment_), now + 300);\n      link.approve(oracleAddress, uint(payment_));\n      oracle.update(payment_, token_);\n    } else {\n      // Oraclize Oracle\n      weth.deposit.value(msg.value)();\n      weth.approve(oracleAddress, uint(payment_));\n      oracle.update(payment_, token_);\n    }\n  }\n}\n",
    "sourcePath": "/Users/matthewblack/atomicloans/atomicloans-oracle-contracts/contracts/FundOracles.sol",
    "compiler": {
        "name": "solc",
        "version": "0.4.26+commit.4563c3fc.Emscripten.clang"
    },
    "schemaVersion": "3.0.11",
    "updatedAt": "2020-02-14T18:54:29.299Z",
    "devdoc": {
        "methods": {}
    },
    "userdoc": {
        "methods": {}
    }
}