{
  "contractName": "ISPVRequestManager",
  "abi": [
    {
      "constant": true,
      "inputs": [],
      "name": "requestIndex",
      "outputs": [
        {
          "name": "",
          "type": "uint256"
        }
      ],
      "payable": false,
      "stateMutability": "view",
      "type": "function"
    },
    {
      "constant": true,
      "inputs": [
        {
          "name": "",
          "type": "uint256"
        }
      ],
      "name": "requests",
      "outputs": [
        {
          "name": "spends",
          "type": "bytes32"
        },
        {
          "name": "pays",
          "type": "bytes32"
        },
        {
          "name": "paysValue",
          "type": "uint64"
        },
        {
          "name": "state",
          "type": "uint8"
        },
        {
          "name": "consumer",
          "type": "address"
        },
        {
          "name": "requester",
          "type": "address"
        },
        {
          "name": "numConfs",
          "type": "uint8"
        }
      ],
      "payable": false,
      "stateMutability": "view",
      "type": "function"
    },
    {
      "constant": true,
      "inputs": [
        {
          "name": "x",
          "type": "uint256"
        },
        {
          "name": "y",
          "type": "uint256"
        }
      ],
      "name": "cmul",
      "outputs": [
        {
          "name": "z",
          "type": "uint256"
        }
      ],
      "payable": false,
      "stateMutability": "pure",
      "type": "function"
    },
    {
      "anonymous": false,
      "inputs": [
        {
          "indexed": true,
          "name": "_requester",
          "type": "address"
        },
        {
          "indexed": true,
          "name": "_requestID",
          "type": "uint256"
        },
        {
          "indexed": false,
          "name": "_paysValue",
          "type": "uint64"
        },
        {
          "indexed": false,
          "name": "_spends",
          "type": "bytes"
        },
        {
          "indexed": false,
          "name": "_pays",
          "type": "bytes"
        }
      ],
      "name": "NewProofRequest",
      "type": "event"
    },
    {
      "anonymous": false,
      "inputs": [
        {
          "indexed": true,
          "name": "_requestID",
          "type": "uint256"
        }
      ],
      "name": "RequestClosed",
      "type": "event"
    },
    {
      "anonymous": false,
      "inputs": [
        {
          "indexed": true,
          "name": "_txid",
          "type": "bytes32"
        },
        {
          "indexed": true,
          "name": "_requestID",
          "type": "uint256"
        }
      ],
      "name": "RequestFilled",
      "type": "event"
    },
    {
      "constant": false,
      "inputs": [
        {
          "name": "_spends",
          "type": "bytes"
        },
        {
          "name": "_pays",
          "type": "bytes"
        },
        {
          "name": "_paysValue",
          "type": "uint64"
        },
        {
          "name": "_consumer",
          "type": "address"
        },
        {
          "name": "_numConfs",
          "type": "uint8"
        }
      ],
      "name": "request",
      "outputs": [
        {
          "name": "",
          "type": "uint256"
        }
      ],
      "payable": false,
      "stateMutability": "nonpayable",
      "type": "function"
    },
    {
      "constant": false,
      "inputs": [
        {
          "name": "_requestID",
          "type": "uint256"
        }
      ],
      "name": "cancelRequest",
      "outputs": [
        {
          "name": "",
          "type": "bool"
        }
      ],
      "payable": false,
      "stateMutability": "nonpayable",
      "type": "function"
    },
    {
      "constant": false,
      "inputs": [
        {
          "name": "_txid",
          "type": "bytes32"
        },
        {
          "name": "_vin",
          "type": "bytes"
        },
        {
          "name": "_vout",
          "type": "bytes"
        },
        {
          "name": "_requestID",
          "type": "uint256"
        },
        {
          "name": "_inputIndex",
          "type": "uint8"
        },
        {
          "name": "_outputIndex",
          "type": "uint8"
        }
      ],
      "name": "fillRequest",
      "outputs": [
        {
          "name": "",
          "type": "bool"
        }
      ],
      "payable": false,
      "stateMutability": "nonpayable",
      "type": "function"
    },
    {
      "constant": true,
      "inputs": [
        {
          "name": "_requestID",
          "type": "uint256"
        }
      ],
      "name": "getRequest",
      "outputs": [
        {
          "name": "spends",
          "type": "bytes32"
        },
        {
          "name": "pays",
          "type": "bytes32"
        },
        {
          "name": "paysValue",
          "type": "uint64"
        },
        {
          "name": "state",
          "type": "uint8"
        },
        {
          "name": "consumer",
          "type": "address"
        },
        {
          "name": "requester",
          "type": "address"
        },
        {
          "name": "numConfs",
          "type": "uint8"
        }
      ],
      "payable": false,
      "stateMutability": "view",
      "type": "function"
    }
  ],
  "bytecode": "0x608060405234801561001057600080fd5b50610893806100206000396000f3fe608060405234801561001057600080fd5b506004361061007d5760003560e01c806381d12c581161005b57806381d12c58146101ad578063c58343ef1461021a578063f574964f14610237578063f7837eb71461030d5761007d565b80630cf5d850146100825780633015394c14610174578063420714bd146101a5575b600080fd5b610162600480360360a081101561009857600080fd5b810190602081018135600160201b8111156100b257600080fd5b8201836020820111156100c457600080fd5b803590602001918460018302840111600160201b831117156100e557600080fd5b919390929091602081019035600160201b81111561010257600080fd5b82018360208201111561011457600080fd5b803590602001918460018302840111600160201b8311171561013557600080fd5b9193509150803567ffffffffffffffff169060208101356001600160a01b0316906040013560ff16610330565b60408051918252519081900360200190f35b6101916004803603602081101561018a57600080fd5b503561059c565b604080519115158252519081900360200190f35b6101626105f9565b6101ca600480360360208110156101c357600080fd5b50356105ff565b60408051978852602088019690965267ffffffffffffffff9094168686015260ff92831660608701526001600160a01b0391821660808701521660a08501521660c0830152519081900360e00190f35b6101ca6004803603602081101561023057600080fd5b503561065d565b610191600480360360c081101561024d57600080fd5b81359190810190604081016020820135600160201b81111561026e57600080fd5b82018360208201111561028057600080fd5b803590602001918460018302840111600160201b831117156102a157600080fd5b919390929091602081019035600160201b8111156102be57600080fd5b8201836020820111156102d057600080fd5b803590602001918460018302840111600160201b831117156102f157600080fd5b919350915080359060ff602082013581169160400135166106bc565b6101626004803603604081101561032357600080fd5b50803590602001356107f7565b600061033f6001546001610824565b600181905560009081526020818152604091829020600201805467ffffffffffffffff191667ffffffffffffffff8816179055905189918991018083838082843760408051601f19949092018281039490940182528381528151602092830120600154600090815280845291909120558b95508a945090910191508190508383808284378083019250505092505050604051602081830303815290604052805190602001206000806001548152602001908152602001600020600101819055506001600080600154815260200190815260200160002060020160086101000a81548160ff021916908360ff16021790555082600080600154815260200190815260200160002060020160096101000a8154816001600160a01b0302191690836001600160a01b0316021790555033600080600154815260200190815260200160002060030160006101000a8154816001600160a01b0302191690836001600160a01b0316021790555081600080600154815260200190815260200160002060030160146101000a81548160ff021916908360ff160217905550600154336001600160a01b03167ff6744579059b48cd66d2c2dfe223754f166f2200b6de2bc6e0d239cd52d1a8c4868b8b8b8b604051808667ffffffffffffffff1667ffffffffffffffff16815260200180602001806020018381038352878782818152602001925080828437600083820152601f01601f191690910184810383528581526020019050858580828437600083820152604051601f909101601f1916909201829003995090975050505050505050a350600154979650505050505050565b600081815260208190526040808220600201805468ff00000000000000001916680200000000000000001790555182907f4287938c90f288c18d761d34c3a5ad998017f7e890a72628c9636bb82ea286bd908390a2506001919050565b60015481565b60006020819052908152604090208054600182015460028301546003909301549192909167ffffffffffffffff82169160ff600160401b82048116926001600160a01b03600160481b909304831692811691600160a01b9091041687565b60009081526020819052604090208054600182015460028301546003909301549193909267ffffffffffffffff81169260ff600160401b83048116936001600160a01b03600160481b909404841693831692600160a01b900490911690565b600083815260208190526040808220600201549051630140356d60e01b8152600481018b81526064820187905260ff8681166084840152851660a483015260c06024830190815260c483018b9052600160481b9093046001600160a01b0316928392630140356d928e928e928e928e928e928e928e928e92604481019060e4018a8a80828437600083820152601f01601f191690910184810383528881526020019050888880828437600081840152601f19601f8201169050808301925050509a5050505050505050505050600060405180830381600087803b1580156107a257600080fd5b505af11580156107b6573d6000803e3d6000fd5b50506040518792508c91507f97b6ce150a3b8e94c442fb09fe13c2b262f0e9b3bfc83ef2309675e09dcb453b90600090a35060019998505050505050505050565b60006305f5e10061081561080b858561083a565b6302faf080610824565b8161081c57fe5b049392505050565b8082018281101561083457600080fd5b92915050565b60008115806108555750508082028282828161085257fe5b04145b61083457600080fdfea265627a7a7230582070359fd0bf7f9f9882ea4099e2eb43d73bf569048f57f3dba5796aae6b9714d164736f6c634300050a0032",
  "source": "pragma solidity ^0.5.10;\n\nimport './DSMath.sol';\nimport {BytesLib} from \"@summa-tx/bitcoin-spv-sol/contracts/BytesLib.sol\";\nimport {BTCUtils} from \"@summa-tx/bitcoin-spv-sol/contracts/BTCUtils.sol\";\n\nimport './ISPVInterfaces.sol';\n\n// /// @title      ISPVConsumer\n// /// @author     Summa (https://summa.one)\n// /// @notice     This interface consumes validated transaction information.\n// ///             It is the primary way that user contracts accept\n// /// @dev        Implement this interface to process transactions provided by\n// ///             the Relay system.\n// interface ISPVConsumer {\n//   /// @notice     A consumer for Bitcoin transaction information.\n//   /// @dev        Users must implement this function. It handles Bitcoin\n//   ///             events that have been validated by the Relay contract.\n//   ///             It is VERY IMPORTANT that this function validates the\n//   ///             msg.sender. The callee must check the origin of the data\n//   ///             or risk accepting spurious information.\n//   /// @param _txid        The LE(!) txid of the bitcoin transaction that\n//   ///                     triggered the notification.\n//   /// @param _vin         The length-prefixed input vector of the bitcoin tx\n//   ///                     that triggered the notification.\n//   /// @param _vout        The length-prefixed output vector of the bitcoin tx\n//   ///                     that triggered the notification.\n//   /// @param _requestID   The ID of the event request that this notification\n//   ///                     satisfies. The ID is returned by\n//   ///                     OnDemandSPV.request and should be locally stored by\n//   ///                     any contract that makes more than one request.\n//   /// @param _inputIndex  The index of the input in the _vin that triggered\n//   ///                     the notification.\n//   /// @param _outputIndex The index of the output in the _vout that triggered\n//   ///                     the notification. Useful for subscribing to transactions\n//   ///                     that spend the newly-created UTXO.\n//   function spv(\n//       bytes32 _txid,\n//       bytes calldata _vin,\n//       bytes calldata _vout,\n//       uint256 _requestID,\n//       uint8 _inputIndex,\n//       uint8 _outputIndex) external;\n// }\n\n// NOTE: This contract is for testing purposes only\n\ncontract ISPVRequestManager is DSMath {\n\n  mapping (uint256 => Request) public requests;\n  uint256 public requestIndex; // Current Request Index\n\n  event NewProofRequest (\n      address indexed _requester,\n      uint256 indexed _requestID,\n      uint64 _paysValue,\n      bytes _spends,\n      bytes _pays\n  );\n\n  event RequestClosed(uint256 indexed _requestID);\n  event RequestFilled(bytes32 indexed _txid, uint256 indexed _requestID);\n\n  struct Request {\n    bytes32 spends;\n    bytes32 pays;\n    uint64  paysValue;\n    uint8   state;\n    address consumer;\n    address requester;\n    uint8   numConfs;\n  }\n\n  /// @notice             Subscribe to a feed of Bitcoin transactions matching a request\n  /// @dev                The request can be a spent utxo and/or a created utxo.\n  ///\n  ///                     The contract allows users to register a \"consumer\" contract\n  ///                     that implements ISPVConsumer to handle Bitcoin events.\n  ///\n  ///                     Bitcoin transactions are composed of a vector of inputs,\n  ///                     and a vector of outputs. The `_spends` parameter allows consumers\n  ///                     to watch a specific UTXO, and receive an event when it is spent.\n  ///\n  ///                     The `_pays` and `_paysValue` param allow the user to watch specific\n  ///                     Bitcoin output scripts. An output script is typically encoded\n  ///                     as an address, but an address is not an in-protocol construction.\n  ///                     In other words, consumers will receive an event whenever a specific\n  ///                     address receives funds, or when a specific OP_RETURN is created.\n  ///\n  ///                     Either `_spends` or `_pays` MUST be set. Both MAY be set.\n  ///                     If both are set, only notifications meeting both criteria\n  ///                     will be triggered.\n  ///\n  /// @param  _spends     An outpoint that must be spent in acceptable transactions.\n  ///                     The outpoint must be exactly 36 bytes, and composed of a\n  ///                     LE txid (32 bytes), and an 4-byte LE-encoded index integer.\n  ///                     In other words, the precise serialization format used in a\n  ///                     serialized Bitcoin TxIn.\n  ///\n  ///                     Note that while we might expect a `_spends` event to fire at most\n  ///                     one time, that expectation becomes invalid in long Bitcoin reorgs\n  ///                     if there is a double-spend or a disconfirmation followed by\n  ///                     reconfirmation.\n  ///\n  /// @param  _pays       An output script to watch for events. A filter with `_pays` set will\n  ///                     validate any number of events that create new UTXOs with a specific\n  ///                     output script.\n  ///\n  ///                     This is useful for watching an address and responding to incoming\n  ///                     payments.\n  ///\n  /// @param  _paysValue  A minimum value in satoshi that must be paid to the output script.\n  ///                     If this is set no any non-0 number, the Relay will only forward\n  ///                     `_pays` notifications to the consumer if the value of the new UTXO is\n  ///                     at least `_paysValue`.\n  ///\n  /// @param  _consumer   The address of a contract that implements the `ISPVConsumer` interface.\n  ///                     Whenever events are available, the Relay will validate inclusion\n  ///                     and confirmation, then call the `spv` function on the consumer.\n  ///\n  /// @param  _numConfs   The number of headers that must confirm the block\n  ///                     containing the transaction. Used as a security parameter.\n  ///                     More confirmations means less likely to revert due to a\n  ///                     chain reorganization. Note that 1 confirmation is required,\n  ///                     so the general \"6 confirmation\" rule would be expressed\n  ///                     as `5` when calling this function\n  ///\n  /// @return             A unique request ID.\n  function request(\n      bytes calldata _spends,\n      bytes calldata _pays,\n      uint64 _paysValue,\n      address _consumer,\n      uint8 _numConfs\n  ) external returns (uint256) {\n    requestIndex = add(requestIndex, 1);\n    requests[requestIndex].paysValue = _paysValue;\n    requests[requestIndex].spends    = keccak256(abi.encodePacked(_spends));\n    requests[requestIndex].pays      = keccak256(abi.encodePacked(_pays));\n    requests[requestIndex].state     = 1;\n    requests[requestIndex].consumer  = _consumer;\n    requests[requestIndex].requester = msg.sender;\n    requests[requestIndex].numConfs  = _numConfs;\n\n    emit NewProofRequest(msg.sender, requestIndex, _paysValue, _spends, _pays);\n    return requestIndex;\n  }\n\n  /// @notice                 Cancel an active bitcoin event request.\n  /// @dev                    Prevents the relay from forwarding tx information\n  /// @param  _requestID      The ID of the request to be cancelled\n  /// @return                 True if succesful, error otherwise\n  function cancelRequest(uint256 _requestID) external returns (bool) {\n    requests[_requestID].state = 2;\n    emit RequestClosed(_requestID);\n    return true;\n  }\n\n  /// @notice             Fill an active bitcoin event request.\n  /// @param _txid        The LE(!) txid of the bitcoin transaction that\n  ///                     triggered the notification.\n  /// @param _vin         The length-prefixed input vector of the bitcoin tx\n  ///                     that triggered the notification.\n  /// @param _vout        The length-prefixed output vector of the bitcoin tx\n  ///                     that triggered the notification.\n  /// @param _requestID   The ID of the event request that this notification\n  ///                     satisfies. The ID is returned by\n  ///                     OnDemandSPV.request and should be locally stored by\n  ///                     any contract that makes more than one request.\n  /// @param _inputIndex  The index of the input in the _vin that triggered\n  ///                     the notification.\n  /// @param _outputIndex The index of the output in the _vout that triggered\n  ///                     the notification. Useful for subscribing to transactions\n  ///                     that spend the newly-created UTXO.\n  /// @return             True if succesful, error otherwise\n  function fillRequest(\n    bytes32 _txid,\n    bytes calldata _vin,\n    bytes calldata _vout,\n    uint256 _requestID,\n    uint8 _inputIndex,\n    uint8 _outputIndex\n  ) external returns (bool) {\n    ISPVConsumer onDemandSpv = ISPVConsumer(requests[_requestID].consumer);\n    onDemandSpv.spv(_txid, _vin, _vout, _requestID, _inputIndex, _outputIndex);\n\n    emit RequestFilled(_txid, _requestID);\n    return true;\n  }\n\n  /// @notice             Retrieve info about a request\n  /// @dev                Requests ids are numerical\n  /// @param  _requestID  The numerical ID of the request\n  /// @return             A tuple representation of the request struct.\n  ///                     To save space`spends` and `pays` are stored as keccak256\n  ///                     hashes of the original information. The `state` is\n  ///                     `0` for \"does not exist\", `1` for \"active\" and `2` for\n  ///                     \"cancelled.\"\n  function getRequest(\n      uint256 _requestID\n  ) external view returns (\n      bytes32 spends,\n      bytes32 pays,\n      uint64 paysValue,\n      uint8 state,\n      address consumer,\n      address requester,\n      uint8 numConfs\n  ) {\n    return (\n      requests[_requestID].spends,\n      requests[_requestID].pays,\n      requests[_requestID].paysValue,\n      requests[_requestID].state,\n      requests[_requestID].consumer,\n      requests[_requestID].requester,\n      requests[_requestID].numConfs\n    );\n  }\n}\n",
  "sourcePath": "/Users/matthewblack/atomicloans/atomicloans-eth-contracts/contracts/ISPVRequestManager.sol",
  "compiler": {
    "name": "solc",
    "version": "0.5.10+commit.5a6ea5b1.Emscripten.clang"
  },
  "schemaVersion": "3.0.11",
  "updatedAt": "2020-01-14T03:25:57.384Z",
  "devdoc": {
    "methods": {
      "cancelRequest(uint256)": {
        "details": "Prevents the relay from forwarding tx information",
        "params": {
          "_requestID": "The ID of the request to be cancelled"
        },
        "return": "True if succesful, error otherwise"
      },
      "fillRequest(bytes32,bytes,bytes,uint256,uint8,uint8)": {
        "params": {
          "_inputIndex": "The index of the input in the _vin that triggered                     the notification.",
          "_outputIndex": "The index of the output in the _vout that triggered                     the notification. Useful for subscribing to transactions                     that spend the newly-created UTXO.",
          "_requestID": "The ID of the event request that this notification                     satisfies. The ID is returned by                     OnDemandSPV.request and should be locally stored by                     any contract that makes more than one request.",
          "_txid": "The LE(!) txid of the bitcoin transaction that                     triggered the notification.",
          "_vin": "The length-prefixed input vector of the bitcoin tx                     that triggered the notification.",
          "_vout": "The length-prefixed output vector of the bitcoin tx                     that triggered the notification."
        },
        "return": "True if succesful, error otherwise"
      },
      "getRequest(uint256)": {
        "details": "Requests ids are numerical",
        "params": {
          "_requestID": "The numerical ID of the request"
        },
        "return": "A tuple representation of the request struct.                     To save space`spends` and `pays` are stored as keccak256                     hashes of the original information. The `state` is                     `0` for \"does not exist\", `1` for \"active\" and `2` for                     \"cancelled.\""
      },
      "request(bytes,bytes,uint64,address,uint8)": {
        "details": "The request can be a spent utxo and/or a created utxo.   ///                     The contract allows users to register a \"consumer\" contract                     that implements ISPVConsumer to handle Bitcoin events.   ///                     Bitcoin transactions are composed of a vector of inputs,                     and a vector of outputs. The `_spends` parameter allows consumers                     to watch a specific UTXO, and receive an event when it is spent.   ///                     The `_pays` and `_paysValue` param allow the user to watch specific                     Bitcoin output scripts. An output script is typically encoded                     as an address, but an address is not an in-protocol construction.                     In other words, consumers will receive an event whenever a specific                     address receives funds, or when a specific OP_RETURN is created.   ///                     Either `_spends` or `_pays` MUST be set. Both MAY be set.                     If both are set, only notifications meeting both criteria                     will be triggered. ",
        "params": {
          "_consumer": "The address of a contract that implements the `ISPVConsumer` interface.                     Whenever events are available, the Relay will validate inclusion                     and confirmation, then call the `spv` function on the consumer. ",
          "_numConfs": "The number of headers that must confirm the block                     containing the transaction. Used as a security parameter.                     More confirmations means less likely to revert due to a                     chain reorganization. Note that 1 confirmation is required,                     so the general \"6 confirmation\" rule would be expressed                     as `5` when calling this function ",
          "_pays": "An output script to watch for events. A filter with `_pays` set will                     validate any number of events that create new UTXOs with a specific                     output script.   ///                     This is useful for watching an address and responding to incoming                     payments. ",
          "_paysValue": "A minimum value in satoshi that must be paid to the output script.                     If this is set no any non-0 number, the Relay will only forward                     `_pays` notifications to the consumer if the value of the new UTXO is                     at least `_paysValue`. ",
          "_spends": "An outpoint that must be spent in acceptable transactions.                     The outpoint must be exactly 36 bytes, and composed of a                     LE txid (32 bytes), and an 4-byte LE-encoded index integer.                     In other words, the precise serialization format used in a                     serialized Bitcoin TxIn.   ///                     Note that while we might expect a `_spends` event to fire at most                     one time, that expectation becomes invalid in long Bitcoin reorgs                     if there is a double-spend or a disconfirmation followed by                     reconfirmation. "
        },
        "return": "A unique request ID."
      }
    }
  },
  "userdoc": {
    "methods": {
      "cancelRequest(uint256)": {
        "notice": "Cancel an active bitcoin event request."
      },
      "fillRequest(bytes32,bytes,bytes,uint256,uint8,uint8)": {
        "notice": "Fill an active bitcoin event request."
      },
      "getRequest(uint256)": {
        "notice": "Retrieve info about a request"
      },
      "request(bytes,bytes,uint64,address,uint8)": {
        "notice": "Subscribe to a feed of Bitcoin transactions matching a request"
      }
    }
  }
}