{
  "contractName": "Loans",
  "abi": [
    {
      "constant": true,
      "inputs": [
        {
          "name": "",
          "type": "bytes32"
        }
      ],
      "name": "tokes",
      "outputs": [
        {
          "name": "",
          "type": "address"
        }
      ],
      "payable": false,
      "stateMutability": "view",
      "type": "function"
    },
    {
      "constant": true,
      "inputs": [],
      "name": "decimals",
      "outputs": [
        {
          "name": "",
          "type": "uint256"
        }
      ],
      "payable": false,
      "stateMutability": "view",
      "type": "function"
    },
    {
      "constant": true,
      "inputs": [],
      "name": "LIQUIDATION_EXP_THRESHOLD",
      "outputs": [
        {
          "name": "",
          "type": "uint256"
        }
      ],
      "payable": false,
      "stateMutability": "view",
      "type": "function"
    },
    {
      "constant": true,
      "inputs": [
        {
          "name": "",
          "type": "address"
        },
        {
          "name": "",
          "type": "uint256"
        }
      ],
      "name": "lenderLoans",
      "outputs": [
        {
          "name": "",
          "type": "bytes32"
        }
      ],
      "payable": false,
      "stateMutability": "view",
      "type": "function"
    },
    {
      "constant": true,
      "inputs": [
        {
          "name": "",
          "type": "bytes32"
        }
      ],
      "name": "bools",
      "outputs": [
        {
          "name": "funded",
          "type": "bool"
        },
        {
          "name": "approved",
          "type": "bool"
        },
        {
          "name": "withdrawn",
          "type": "bool"
        },
        {
          "name": "sale",
          "type": "bool"
        },
        {
          "name": "paid",
          "type": "bool"
        },
        {
          "name": "off",
          "type": "bool"
        }
      ],
      "payable": false,
      "stateMutability": "view",
      "type": "function"
    },
    {
      "constant": true,
      "inputs": [
        {
          "name": "",
          "type": "bytes32"
        }
      ],
      "name": "pubKeys",
      "outputs": [
        {
          "name": "borrowerPubKey",
          "type": "bytes"
        },
        {
          "name": "lenderPubKey",
          "type": "bytes"
        },
        {
          "name": "arbiterPubKey",
          "type": "bytes"
        }
      ],
      "payable": false,
      "stateMutability": "view",
      "type": "function"
    },
    {
      "constant": true,
      "inputs": [],
      "name": "loanIndex",
      "outputs": [
        {
          "name": "",
          "type": "uint256"
        }
      ],
      "payable": false,
      "stateMutability": "view",
      "type": "function"
    },
    {
      "constant": true,
      "inputs": [],
      "name": "LIQUIDATION_DISCOUNT",
      "outputs": [
        {
          "name": "",
          "type": "uint256"
        }
      ],
      "payable": false,
      "stateMutability": "view",
      "type": "function"
    },
    {
      "constant": true,
      "inputs": [],
      "name": "ACCEPT_EXP_THRESHOLD",
      "outputs": [
        {
          "name": "",
          "type": "uint256"
        }
      ],
      "payable": false,
      "stateMutability": "view",
      "type": "function"
    },
    {
      "constant": true,
      "inputs": [
        {
          "name": "",
          "type": "bytes32"
        }
      ],
      "name": "fundIndex",
      "outputs": [
        {
          "name": "",
          "type": "bytes32"
        }
      ],
      "payable": false,
      "stateMutability": "view",
      "type": "function"
    },
    {
      "constant": true,
      "inputs": [],
      "name": "APPROVE_EXP_THRESHOLD",
      "outputs": [
        {
          "name": "",
          "type": "uint256"
        }
      ],
      "payable": false,
      "stateMutability": "view",
      "type": "function"
    },
    {
      "constant": true,
      "inputs": [
        {
          "name": "",
          "type": "bytes32"
        }
      ],
      "name": "loans",
      "outputs": [
        {
          "name": "borrower",
          "type": "address"
        },
        {
          "name": "lender",
          "type": "address"
        },
        {
          "name": "arbiter",
          "type": "address"
        },
        {
          "name": "createdAt",
          "type": "uint256"
        },
        {
          "name": "loanExpiration",
          "type": "uint256"
        },
        {
          "name": "requestTimestamp",
          "type": "uint256"
        },
        {
          "name": "closedTimestamp",
          "type": "uint256"
        },
        {
          "name": "principal",
          "type": "uint256"
        },
        {
          "name": "interest",
          "type": "uint256"
        },
        {
          "name": "penalty",
          "type": "uint256"
        },
        {
          "name": "fee",
          "type": "uint256"
        },
        {
          "name": "collateral",
          "type": "uint256"
        },
        {
          "name": "liquidationRatio",
          "type": "uint256"
        }
      ],
      "payable": false,
      "stateMutability": "view",
      "type": "function"
    },
    {
      "constant": true,
      "inputs": [],
      "name": "SEIZURE_EXP_THRESHOLD",
      "outputs": [
        {
          "name": "",
          "type": "uint256"
        }
      ],
      "payable": false,
      "stateMutability": "view",
      "type": "function"
    },
    {
      "constant": true,
      "inputs": [
        {
          "name": "",
          "type": "bytes32"
        }
      ],
      "name": "secretHashes",
      "outputs": [
        {
          "name": "secretHashA1",
          "type": "bytes32"
        },
        {
          "name": "secretHashB1",
          "type": "bytes32"
        },
        {
          "name": "secretHashC1",
          "type": "bytes32"
        },
        {
          "name": "withdrawSecret",
          "type": "bytes32"
        },
        {
          "name": "acceptSecret",
          "type": "bytes32"
        },
        {
          "name": "set",
          "type": "bool"
        }
      ],
      "payable": false,
      "stateMutability": "view",
      "type": "function"
    },
    {
      "constant": true,
      "inputs": [
        {
          "name": "",
          "type": "address"
        },
        {
          "name": "",
          "type": "uint256"
        }
      ],
      "name": "borrowerLoans",
      "outputs": [
        {
          "name": "",
          "type": "bytes32"
        }
      ],
      "payable": false,
      "stateMutability": "view",
      "type": "function"
    },
    {
      "constant": true,
      "inputs": [
        {
          "name": "",
          "type": "bytes32"
        }
      ],
      "name": "repayments",
      "outputs": [
        {
          "name": "",
          "type": "uint256"
        }
      ],
      "payable": false,
      "stateMutability": "view",
      "type": "function"
    },
    {
      "constant": true,
      "inputs": [
        {
          "name": "x",
          "type": "uint256"
        },
        {
          "name": "y",
          "type": "uint256"
        }
      ],
      "name": "cmul",
      "outputs": [
        {
          "name": "z",
          "type": "uint256"
        }
      ],
      "payable": false,
      "stateMutability": "pure",
      "type": "function"
    },
    {
      "constant": true,
      "inputs": [],
      "name": "token",
      "outputs": [
        {
          "name": "",
          "type": "address"
        }
      ],
      "payable": false,
      "stateMutability": "view",
      "type": "function"
    },
    {
      "inputs": [
        {
          "name": "funds_",
          "type": "address"
        },
        {
          "name": "med_",
          "type": "address"
        },
        {
          "name": "token_",
          "type": "address"
        },
        {
          "name": "decimals_",
          "type": "uint256"
        }
      ],
      "payable": false,
      "stateMutability": "nonpayable",
      "type": "constructor"
    },
    {
      "anonymous": false,
      "inputs": [
        {
          "indexed": false,
          "name": "loan",
          "type": "bytes32"
        }
      ],
      "name": "Create",
      "type": "event"
    },
    {
      "constant": true,
      "inputs": [
        {
          "name": "loan",
          "type": "bytes32"
        }
      ],
      "name": "borrower",
      "outputs": [
        {
          "name": "",
          "type": "address"
        }
      ],
      "payable": false,
      "stateMutability": "view",
      "type": "function"
    },
    {
      "constant": true,
      "inputs": [
        {
          "name": "loan",
          "type": "bytes32"
        }
      ],
      "name": "lender",
      "outputs": [
        {
          "name": "",
          "type": "address"
        }
      ],
      "payable": false,
      "stateMutability": "view",
      "type": "function"
    },
    {
      "constant": true,
      "inputs": [
        {
          "name": "loan",
          "type": "bytes32"
        }
      ],
      "name": "arbiter",
      "outputs": [
        {
          "name": "",
          "type": "address"
        }
      ],
      "payable": false,
      "stateMutability": "view",
      "type": "function"
    },
    {
      "constant": true,
      "inputs": [
        {
          "name": "loan",
          "type": "bytes32"
        }
      ],
      "name": "approveExpiration",
      "outputs": [
        {
          "name": "",
          "type": "uint256"
        }
      ],
      "payable": false,
      "stateMutability": "view",
      "type": "function"
    },
    {
      "constant": true,
      "inputs": [
        {
          "name": "loan",
          "type": "bytes32"
        }
      ],
      "name": "acceptExpiration",
      "outputs": [
        {
          "name": "",
          "type": "uint256"
        }
      ],
      "payable": false,
      "stateMutability": "view",
      "type": "function"
    },
    {
      "constant": true,
      "inputs": [
        {
          "name": "loan",
          "type": "bytes32"
        }
      ],
      "name": "liquidationExpiration",
      "outputs": [
        {
          "name": "",
          "type": "uint256"
        }
      ],
      "payable": false,
      "stateMutability": "view",
      "type": "function"
    },
    {
      "constant": true,
      "inputs": [
        {
          "name": "loan",
          "type": "bytes32"
        }
      ],
      "name": "seizureExpiration",
      "outputs": [
        {
          "name": "",
          "type": "uint256"
        }
      ],
      "payable": false,
      "stateMutability": "view",
      "type": "function"
    },
    {
      "constant": true,
      "inputs": [
        {
          "name": "loan",
          "type": "bytes32"
        }
      ],
      "name": "principal",
      "outputs": [
        {
          "name": "",
          "type": "uint256"
        }
      ],
      "payable": false,
      "stateMutability": "view",
      "type": "function"
    },
    {
      "constant": true,
      "inputs": [
        {
          "name": "loan",
          "type": "bytes32"
        }
      ],
      "name": "interest",
      "outputs": [
        {
          "name": "",
          "type": "uint256"
        }
      ],
      "payable": false,
      "stateMutability": "view",
      "type": "function"
    },
    {
      "constant": true,
      "inputs": [
        {
          "name": "loan",
          "type": "bytes32"
        }
      ],
      "name": "fee",
      "outputs": [
        {
          "name": "",
          "type": "uint256"
        }
      ],
      "payable": false,
      "stateMutability": "view",
      "type": "function"
    },
    {
      "constant": true,
      "inputs": [
        {
          "name": "loan",
          "type": "bytes32"
        }
      ],
      "name": "penalty",
      "outputs": [
        {
          "name": "",
          "type": "uint256"
        }
      ],
      "payable": false,
      "stateMutability": "view",
      "type": "function"
    },
    {
      "constant": true,
      "inputs": [
        {
          "name": "loan",
          "type": "bytes32"
        }
      ],
      "name": "collateral",
      "outputs": [
        {
          "name": "",
          "type": "uint256"
        }
      ],
      "payable": false,
      "stateMutability": "view",
      "type": "function"
    },
    {
      "constant": true,
      "inputs": [
        {
          "name": "loan",
          "type": "bytes32"
        }
      ],
      "name": "repaid",
      "outputs": [
        {
          "name": "",
          "type": "uint256"
        }
      ],
      "payable": false,
      "stateMutability": "view",
      "type": "function"
    },
    {
      "constant": true,
      "inputs": [
        {
          "name": "loan",
          "type": "bytes32"
        }
      ],
      "name": "liquidationRatio",
      "outputs": [
        {
          "name": "",
          "type": "uint256"
        }
      ],
      "payable": false,
      "stateMutability": "view",
      "type": "function"
    },
    {
      "constant": true,
      "inputs": [
        {
          "name": "loan",
          "type": "bytes32"
        }
      ],
      "name": "owedToLender",
      "outputs": [
        {
          "name": "",
          "type": "uint256"
        }
      ],
      "payable": false,
      "stateMutability": "view",
      "type": "function"
    },
    {
      "constant": true,
      "inputs": [
        {
          "name": "loan",
          "type": "bytes32"
        }
      ],
      "name": "owedForLoan",
      "outputs": [
        {
          "name": "",
          "type": "uint256"
        }
      ],
      "payable": false,
      "stateMutability": "view",
      "type": "function"
    },
    {
      "constant": true,
      "inputs": [
        {
          "name": "loan",
          "type": "bytes32"
        }
      ],
      "name": "owedForLiquidation",
      "outputs": [
        {
          "name": "",
          "type": "uint256"
        }
      ],
      "payable": false,
      "stateMutability": "view",
      "type": "function"
    },
    {
      "constant": true,
      "inputs": [
        {
          "name": "loan",
          "type": "bytes32"
        }
      ],
      "name": "owing",
      "outputs": [
        {
          "name": "",
          "type": "uint256"
        }
      ],
      "payable": false,
      "stateMutability": "view",
      "type": "function"
    },
    {
      "constant": true,
      "inputs": [
        {
          "name": "loan",
          "type": "bytes32"
        }
      ],
      "name": "funded",
      "outputs": [
        {
          "name": "",
          "type": "bool"
        }
      ],
      "payable": false,
      "stateMutability": "view",
      "type": "function"
    },
    {
      "constant": true,
      "inputs": [
        {
          "name": "loan",
          "type": "bytes32"
        }
      ],
      "name": "approved",
      "outputs": [
        {
          "name": "",
          "type": "bool"
        }
      ],
      "payable": false,
      "stateMutability": "view",
      "type": "function"
    },
    {
      "constant": true,
      "inputs": [
        {
          "name": "loan",
          "type": "bytes32"
        }
      ],
      "name": "withdrawn",
      "outputs": [
        {
          "name": "",
          "type": "bool"
        }
      ],
      "payable": false,
      "stateMutability": "view",
      "type": "function"
    },
    {
      "constant": true,
      "inputs": [
        {
          "name": "loan",
          "type": "bytes32"
        }
      ],
      "name": "sale",
      "outputs": [
        {
          "name": "",
          "type": "bool"
        }
      ],
      "payable": false,
      "stateMutability": "view",
      "type": "function"
    },
    {
      "constant": true,
      "inputs": [
        {
          "name": "loan",
          "type": "bytes32"
        }
      ],
      "name": "paid",
      "outputs": [
        {
          "name": "",
          "type": "bool"
        }
      ],
      "payable": false,
      "stateMutability": "view",
      "type": "function"
    },
    {
      "constant": true,
      "inputs": [
        {
          "name": "loan",
          "type": "bytes32"
        }
      ],
      "name": "off",
      "outputs": [
        {
          "name": "",
          "type": "bool"
        }
      ],
      "payable": false,
      "stateMutability": "view",
      "type": "function"
    },
    {
      "constant": true,
      "inputs": [
        {
          "name": "x",
          "type": "uint256"
        }
      ],
      "name": "dmul",
      "outputs": [
        {
          "name": "",
          "type": "uint256"
        }
      ],
      "payable": false,
      "stateMutability": "view",
      "type": "function"
    },
    {
      "constant": true,
      "inputs": [
        {
          "name": "x",
          "type": "uint256"
        }
      ],
      "name": "ddiv",
      "outputs": [
        {
          "name": "",
          "type": "uint256"
        }
      ],
      "payable": false,
      "stateMutability": "view",
      "type": "function"
    },
    {
      "constant": true,
      "inputs": [
        {
          "name": "borrower_",
          "type": "address"
        }
      ],
      "name": "borrowerLoanCount",
      "outputs": [
        {
          "name": "",
          "type": "uint256"
        }
      ],
      "payable": false,
      "stateMutability": "view",
      "type": "function"
    },
    {
      "constant": true,
      "inputs": [
        {
          "name": "lender_",
          "type": "address"
        }
      ],
      "name": "lenderLoanCount",
      "outputs": [
        {
          "name": "",
          "type": "uint256"
        }
      ],
      "payable": false,
      "stateMutability": "view",
      "type": "function"
    },
    {
      "constant": true,
      "inputs": [
        {
          "name": "loan",
          "type": "bytes32"
        }
      ],
      "name": "collateralValue",
      "outputs": [
        {
          "name": "",
          "type": "uint256"
        }
      ],
      "payable": false,
      "stateMutability": "view",
      "type": "function"
    },
    {
      "constant": true,
      "inputs": [
        {
          "name": "loan",
          "type": "bytes32"
        }
      ],
      "name": "minCollateralValue",
      "outputs": [
        {
          "name": "",
          "type": "uint256"
        }
      ],
      "payable": false,
      "stateMutability": "view",
      "type": "function"
    },
    {
      "constant": true,
      "inputs": [
        {
          "name": "loan",
          "type": "bytes32"
        }
      ],
      "name": "discountCollateralValue",
      "outputs": [
        {
          "name": "",
          "type": "uint256"
        }
      ],
      "payable": false,
      "stateMutability": "view",
      "type": "function"
    },
    {
      "constant": true,
      "inputs": [
        {
          "name": "loan",
          "type": "bytes32"
        }
      ],
      "name": "safe",
      "outputs": [
        {
          "name": "",
          "type": "bool"
        }
      ],
      "payable": false,
      "stateMutability": "view",
      "type": "function"
    },
    {
      "constant": false,
      "inputs": [
        {
          "name": "sales_",
          "type": "address"
        }
      ],
      "name": "setSales",
      "outputs": [],
      "payable": false,
      "stateMutability": "nonpayable",
      "type": "function"
    },
    {
      "constant": false,
      "inputs": [
        {
          "name": "loanExpiration_",
          "type": "uint256"
        },
        {
          "name": "usrs_",
          "type": "address[3]"
        },
        {
          "name": "vals_",
          "type": "uint256[7]"
        },
        {
          "name": "fundIndex_",
          "type": "bytes32"
        }
      ],
      "name": "create",
      "outputs": [
        {
          "name": "loan",
          "type": "bytes32"
        }
      ],
      "payable": false,
      "stateMutability": "nonpayable",
      "type": "function"
    },
    {
      "constant": false,
      "inputs": [
        {
          "name": "loan",
          "type": "bytes32"
        },
        {
          "name": "borrowerSecretHashes",
          "type": "bytes32[4]"
        },
        {
          "name": "lenderSecretHashes",
          "type": "bytes32[4]"
        },
        {
          "name": "arbiterSecretHashes",
          "type": "bytes32[4]"
        },
        {
          "name": "borrowerPubKey_",
          "type": "bytes"
        },
        {
          "name": "lenderPubKey_",
          "type": "bytes"
        },
        {
          "name": "arbiterPubKey_",
          "type": "bytes"
        }
      ],
      "name": "setSecretHashes",
      "outputs": [
        {
          "name": "",
          "type": "bool"
        }
      ],
      "payable": false,
      "stateMutability": "nonpayable",
      "type": "function"
    },
    {
      "constant": false,
      "inputs": [
        {
          "name": "loan",
          "type": "bytes32"
        }
      ],
      "name": "fund",
      "outputs": [],
      "payable": false,
      "stateMutability": "nonpayable",
      "type": "function"
    },
    {
      "constant": false,
      "inputs": [
        {
          "name": "loan",
          "type": "bytes32"
        }
      ],
      "name": "approve",
      "outputs": [],
      "payable": false,
      "stateMutability": "nonpayable",
      "type": "function"
    },
    {
      "constant": false,
      "inputs": [
        {
          "name": "loan",
          "type": "bytes32"
        },
        {
          "name": "secretA1",
          "type": "bytes32"
        }
      ],
      "name": "withdraw",
      "outputs": [],
      "payable": false,
      "stateMutability": "nonpayable",
      "type": "function"
    },
    {
      "constant": false,
      "inputs": [
        {
          "name": "loan",
          "type": "bytes32"
        },
        {
          "name": "amount",
          "type": "uint256"
        }
      ],
      "name": "repay",
      "outputs": [],
      "payable": false,
      "stateMutability": "nonpayable",
      "type": "function"
    },
    {
      "constant": false,
      "inputs": [
        {
          "name": "loan",
          "type": "bytes32"
        }
      ],
      "name": "refund",
      "outputs": [],
      "payable": false,
      "stateMutability": "nonpayable",
      "type": "function"
    },
    {
      "constant": false,
      "inputs": [
        {
          "name": "loan",
          "type": "bytes32"
        },
        {
          "name": "secret",
          "type": "bytes32"
        }
      ],
      "name": "cancel",
      "outputs": [],
      "payable": false,
      "stateMutability": "nonpayable",
      "type": "function"
    },
    {
      "constant": false,
      "inputs": [
        {
          "name": "loan",
          "type": "bytes32"
        },
        {
          "name": "secret",
          "type": "bytes32"
        }
      ],
      "name": "accept",
      "outputs": [],
      "payable": false,
      "stateMutability": "nonpayable",
      "type": "function"
    },
    {
      "constant": false,
      "inputs": [
        {
          "name": "loan",
          "type": "bytes32"
        },
        {
          "name": "secretHash",
          "type": "bytes32"
        },
        {
          "name": "pubKeyHash",
          "type": "bytes20"
        }
      ],
      "name": "liquidate",
      "outputs": [
        {
          "name": "sale_",
          "type": "bytes32"
        }
      ],
      "payable": false,
      "stateMutability": "nonpayable",
      "type": "function"
    }
  ],
  "bytecode": "0x60806040523480156200001157600080fd5b50604051608080620036c0833981018060405260808110156200003357600080fd5b508051602080830151604080850151606090950151600f8054336001600160a01b0319918216179091556000805482166001600160a01b0380891691909117808355600180548516838916179055600d8054909416828b161793849055600e85905585517f095ea7b3000000000000000000000000000000000000000000000000000000008152908216600482015260001960248201529451979895979596939592169363095ea7b393604480830194919391928390030190829087803b158015620000fe57600080fd5b505af115801562000113573d6000803e3d6000fd5b505050506040513d60208110156200012a57600080fd5b50516200013657600080fd5b50505050613576806200014a6000396000f3fe608060405234801561001057600080fd5b50600436106103ae5760003560e01c80637a8cfcb4116101f4578063c52c0c981161011a578063e95823ad116100ad578063f69736e01161007c578063f69736e014610d7f578063f7837eb714610d9c578063fc0c546a14610dbf578063fcfd860514610dc7576103ae565b8063e95823ad14610bfb578063ebd1f26a14610c18578063ec7a4f4314610c35578063ee79b12b14610c58576103ae565b8063df90997b116100e9578063df90997b14610b78578063e3ed190214610b95578063e3eff40814610bc1578063e91d14a414610bde576103ae565b8063c52c0c9814610ae3578063c71230bf14610b00578063c82e428d1461093d578063d357691d14610b26576103ae565b80639fc3f02f11610192578063add89bb211610161578063add89bb214610a10578063ba38c83e14610a2d578063bf14c11914610a35578063c4a9081514610a52576103ae565b80639fc3f02f1461099c578063a53a1adf146109b9578063a5d9dc7b146109d6578063a6327307146109f3576103ae565b806397bd506d116101ce57806397bd506d1461093d5780639b33997c146109455780639e7c565e146109625780639f9b3d3b1461097f576103ae565b80637a8cfcb4146109105780637ff6fecc1461091857806383f4ca7b14610935576103ae565b80633cdb72f1116102d957806363615149116102775780637865c3ad116102465780637865c3ad1461074f578063787a969c1461076c5780637888938b146108cd5780637a2e18fd146108ea576103ae565b8063636151491461069c5780636e1719a6146106bf5780637249fbb61461071557806376a0b16614610732576103ae565b806344b6ba95116102b357806344b6ba95146106225780634672d7bf1461063f578063531f4c401461065c57806359949df41461067f576103ae565b80633cdb72f1146105b35780633e4b2a29146105df5780633f6aff31146105fc576103ae565b806327cdab0611610351578063313ce56711610320578063313ce5671461055557806332025b691461055d5780633823d66c1461057a5780633aaffb78146105ab576103ae565b806327cdab06146104c65780632a428754146104e35780632cdc3c12146105005780632e3b81eb1461051d576103ae565b8063103759211161038d57806310375921146104405780631594bbbe1461046f5780631abc4a781461048c57806326fc7590146104a9576103ae565b8062f989ad146103b35780630be1880f146103d85780630e11247614610411575b600080fd5b6103d6600480360360408110156103c957600080fd5b5080359060200135610de4565b005b6103f5600480360360208110156103ee57600080fd5b5035610f6c565b604080516001600160a01b039092168252519081900360200190f35b61042e6004803603602081101561042757600080fd5b5035610f87565b60408051918252519081900360200190f35b61042e600480360361018081101561045757600080fd5b50803590602081019060808101906101600135611037565b61042e6004803603602081101561048557600080fd5b503561124d565b61042e600480360360208110156104a257600080fd5b5035611272565b61042e600480360360208110156104bf57600080fd5b5035611290565b61042e600480360360208110156104dc57600080fd5b50356112a5565b6103f5600480360360208110156104f957600080fd5b50356112ba565b61042e6004803603602081101561051657600080fd5b50356112d5565b61042e6004803603606081101561053357600080fd5b50803590602081013590604001356bffffffffffffffffffffffff19166112f4565b61042e611d05565b61042e6004803603602081101561057357600080fd5b5035611d0b565b6105976004803603602081101561059057600080fd5b5035611d22565b604080519115158252519081900360200190f35b61042e611d3d565b61042e600480360360408110156105c957600080fd5b506001600160a01b038135169060200135611d44565b61042e600480360360208110156105f557600080fd5b5035611d72565b61042e6004803603602081101561061257600080fd5b50356001600160a01b0316611d84565b6103f56004803603602081101561063857600080fd5b5035611d9f565b6105976004803603602081101561065557600080fd5b5035611dbd565b6103d66004803603604081101561067257600080fd5b5080359060200135611dd9565b6105976004803603602081101561069557600080fd5b50356125f7565b6103d6600480360360408110156106b257600080fd5b5080359060200135612613565b6106dc600480360360208110156106d557600080fd5b5035612814565b604080519615158752941515602087015292151585850152901515606085015215156080840152151560a0830152519081900360c00190f35b6103d66004803603602081101561072b57600080fd5b5035612859565b61042e6004803603602081101561074857600080fd5b5035612b16565b6105976004803603602081101561076557600080fd5b5035612b2b565b6107896004803603602081101561078257600080fd5b5035612b45565b60405180806020018060200180602001848103845287818151815260200191508051906020019080838360005b838110156107ce5781810151838201526020016107b6565b50505050905090810190601f1680156107fb5780820380516001836020036101000a031916815260200191505b50848103835286518152865160209182019188019080838360005b8381101561082e578181015183820152602001610816565b50505050905090810190601f16801561085b5780820380516001836020036101000a031916815260200191505b50848103825285518152855160209182019187019080838360005b8381101561088e578181015183820152602001610876565b50505050905090810190601f1680156108bb5780820380516001836020036101000a031916815260200191505b50965050505050505060405180910390f35b61042e600480360360208110156108e357600080fd5b5035612d16565b6103d66004803603602081101561090057600080fd5b50356001600160a01b0316612d32565b61042e612d81565b61042e6004803603602081101561092e57600080fd5b5035612d87565b61042e612da2565b61042e612dae565b61042e6004803603602081101561095b57600080fd5b5035612db5565b61042e6004803603602081101561097857600080fd5b5035612dcc565b6105976004803603602081101561099557600080fd5b5035612de1565b6103f5600480360360208110156109b257600080fd5b5035612df6565b6103d6600480360360208110156109cf57600080fd5b5035612e14565b61042e600480360360208110156109ec57600080fd5b5035612e8c565b61042e60048036036020811015610a0957600080fd5b5035612e9e565b61059760048036036020811015610a2657600080fd5b5035612eba565b61042e612ed6565b6103d660048036036020811015610a4b57600080fd5b5035612edc565b610a6f60048036036020811015610a6857600080fd5b5035612fd3565b604080516001600160a01b039e8f1681529c8e1660208e01529a909c168b8b015260608b019890985260808a019690965260a089019490945260c088019290925260e08701526101008601526101208501526101408401526101608301526101808201929092529051908190036101a00190f35b61042e60048036036020811015610af957600080fd5b503561304a565b61042e60048036036020811015610b1657600080fd5b50356001600160a01b0316613061565b610b4360048036036020811015610b3c57600080fd5b503561307c565b6040805196875260208701959095528585019390935260608501919091526080840152151560a0830152519081900360c00190f35b61042e60048036036020811015610b8e57600080fd5b50356130b4565b61042e60048036036040811015610bab57600080fd5b506001600160a01b0381351690602001356130e4565b61042e60048036036020811015610bd757600080fd5b50356130fd565b61042e60048036036020811015610bf457600080fd5b5035613112565b61059760048036036020811015610c1157600080fd5b5035613127565b61042e60048036036020811015610c2e57600080fd5b5035613143565b6103d660048036036040811015610c4b57600080fd5b5080359060200135613155565b6105976004803603610200811015610c6f57600080fd5b813591602081019160a08201916101208101918101906101c081016101a0820135600160201b811115610ca157600080fd5b820183602082011115610cb357600080fd5b803590602001918460018302840111600160201b83111715610cd457600080fd5b919390929091602081019035600160201b811115610cf157600080fd5b820183602082011115610d0357600080fd5b803590602001918460018302840111600160201b83111715610d2457600080fd5b919390929091602081019035600160201b811115610d4157600080fd5b820183602082011115610d5357600080fd5b803590602001918460018302840111600160201b83111715610d7457600080fd5b50909250905061315f565b61042e60048036036020811015610d9557600080fd5b503561335c565b61042e60048036036040811015610db257600080fd5b5080359060200135613373565b6103f56133a4565b61042e60048036036020811015610ddd57600080fd5b50356133b3565b610ded826125f7565b15610df757600080fd5b610e0082611dbd565b15610e0a57600080fd5b60008281526006602052604090205462010000900460ff161515600114610e3057600080fd5b600082815260036020526040902060040154421115610e4e57600080fd5b610e5782611d0b565b610e6982610e6485611d72565b6133ce565b1115610e7457600080fd5b600d5460408051600160e01b6323b872dd0281523360048201523060248201526044810184905290516001600160a01b03909216916323b872dd916064808201926020929091908290030181600087803b158015610ed157600080fd5b505af1158015610ee5573d6000803e3d6000fd5b505050506040513d6020811015610efb57600080fd5b5051610f0657600080fd5b600082815260096020526040902054610f209082906133ce565b600083815260096020526040902055610f3882611d0b565b610f4183611d72565b1415610f68576000828152600660205260409020805464ff000000001916600160201b1790555b5050565b6000908152600360205260409020546001600160a01b031690565b6000806000600160009054906101000a90046001600160a01b03166001600160a01b03166359e02dd76040518163ffffffff1660e01b8152600401604080518083038186803b158015610fd957600080fd5b505afa158015610fed573d6000803e3d6000fd5b505050506040513d604081101561100357600080fd5b50805160209091015190925090508061101b57600080fd5b8161102e8161102987612dcc565b613373565b95945050505050565b600081156110d05760005460408051600160e01b639fc3f02f0281526004810185905290516020878101356001600160a01b03908116941692639fc3f02f9260248083019392829003018186803b15801561109157600080fd5b505afa1580156110a5573d6000803e3d6000fd5b505050506040513d60208110156110bb57600080fd5b50516001600160a01b0316146110d057600080fd5b6110dd600a5460016133ce565b600a8190556000818152600360208181526040928390204281840155600481018a905580546001600160a01b03199081166001600160a01b038b35811691909117835560018301805483168c86013583161790556002830180549092168b8701359091161790558735600782015590870135600882015591860135600990920191909155909150839060008381526003602090815260408083209382029490940135600a808501919091556080880135600b8086019190915560a0890135600c8087019190915560c08a013560059687015560078452868520899055948352858420600e01805460ff191690556001600160a01b038a3581168552908352858420825481546001818101845592875285872001558a84013590911684529382528483209054815494850182559083529181902090920155815183815291517fa7857d7da6974b0157f3bf7dd25a745bd7d81d845bb525ee0b316a87541a5c319281900390910190a1949350505050565b60008181526003602052604081206004015461126c906202a3006133ce565b92915050565b60008181526003602081905260408220015461126c90611c206133ce565b60009081526003602052604090206009015490565b6000908152600360205260409020600a015490565b6008602052600090815260409020546001600160a01b031681565b60008181526003602052604081206004015461126c9062093a806133ce565b60006112ff846125f7565b1561130957600080fd5b60008481526006602052604090205462010000900460ff16151560011461132f57600080fd5b6000848152600360205260409020546001600160a01b0316331480159061137057506000848152600360205260409020600101546001600160a01b03163314155b61137957600080fd5b60025460408051600160e01b6302d3af5b0281526004810187905290516001600160a01b03909216916302d3af5b91602480820192602092909190829003018186803b1580156113c857600080fd5b505afa1580156113dc573d6000803e3d6000fd5b505050506040513d60208110156113f257600080fd5b50516115ae5760008481526003602052604090206004015442111561143957600084815260066020526040902054600160201b900460ff161561143457600080fd5b61144c565b61144284613127565b1561144c57600080fd5b6000805485825260076020908152604092839020548351600160e71b6301431c95028152600481019190915292516001600160a01b039092169263a18e4a809260248083019392829003018186803b1580156114a757600080fd5b505afa1580156114bb573d6000803e3d6000fd5b505050506040513d60208110156114d157600080fd5b50516115a9576000805485825260036020526040808320600701548151600160e11b637249992b028152600481019190915290516001600160a01b039092169263e49332569260248084019382900301818387803b15801561153257600080fd5b505af1158015611546573d6000803e3d6000fd5b50506000805460408051600160e01b6333549b1b02815290516001600160a01b0390921694506333549b1b9350600480820193929182900301818387803b15801561159057600080fd5b505af11580156115a4573d6000803e3d6000fd5b505050505b61190c565b60025460408051600160e01b6302d3af5b0281526004810187905290516003926001600160a01b0316916302d3af5b916024808301926020929190829003018186803b1580156115fd57600080fd5b505afa158015611611573d6000803e3d6000fd5b505050506040513d602081101561162757600080fd5b50511061163357600080fd5b60025460408051600160e01b6302d3af5b0281526004810187905290516001600160a01b039092169163a6b7d54e918391631a81dcab91899160019185916302d3af5b91602480820192602092909190829003018186803b15801561169757600080fd5b505afa1580156116ab573d6000803e3d6000fd5b505050506040513d60208110156116c157600080fd5b50516040805163ffffffff861660e01b8152600481019490945291900360248301525160448083019260209291908290030181600087803b15801561170557600080fd5b505af1158015611719573d6000803e3d6000fd5b505050506040513d602081101561172f57600080fd5b50516040805163ffffffff841660e01b81526004810192909252516024808301926020929190829003018186803b15801561176957600080fd5b505afa15801561177d573d6000803e3d6000fd5b505050506040513d602081101561179357600080fd5b505142116117a057600080fd5b60025460408051600160e01b6302d3af5b0281526004810187905290516001600160a01b0390921691638642afd1918391631a81dcab91899160019185916302d3af5b91602480820192602092909190829003018186803b15801561180457600080fd5b505afa158015611818573d6000803e3d6000fd5b505050506040513d602081101561182e57600080fd5b50516040805163ffffffff861660e01b8152600481019490945291900360248301525160448083019260209291908290030181600087803b15801561187257600080fd5b505af1158015611886573d6000803e3d6000fd5b505050506040513d602081101561189c57600080fd5b50516040805163ffffffff841660e01b81526004810192909252516024808301926020929190829003018186803b1580156118d657600080fd5b505afa1580156118ea573d6000803e3d6000fd5b505050506040513d602081101561190057600080fd5b50511561190c57600080fd5b61191d61191885612d16565b612d87565b600d5460408051600160e01b6370a0823102815233600482015290516001600160a01b03909216916370a0823191602480820192602092909190829003018186803b15801561196b57600080fd5b505afa15801561197f573d6000803e3d6000fd5b505050506040513d602081101561199557600080fd5b505110156119a257600080fd5b600d546002546001600160a01b03918216916323b872dd913391166119c961191889612d16565b6040805163ffffffff861660e01b81526001600160a01b0394851660048201529290931660248301526044820152905160648083019260209291908290030181600087803b158015611a1a57600080fd5b505af1158015611a2e573d6000803e3d6000fd5b505050506040513d6020811015611a4457600080fd5b5051611a4f57600080fd5b60008481526005602090815260408083206002548251600160e01b6302d3af5b028152600481018a905292519194936001600160a01b03909116926302d3af5b9260248083019392829003018186803b158015611aab57600080fd5b505afa158015611abf573d6000803e3d6000fd5b505050506040513d6020811015611ad557600080fd5b5051600280546000898152600360208190526040909120805460018083015492909501549596506001600160a01b0393841695630c4afecf958d959283169493831693929091169133918a019089908110611b2c57fe5b0154896005018960038110611b3d57fe5b01548a6009018a60038110611b4e57fe5b01546040805163ffffffff8b1660e01b815260048101999099526001600160a01b0397881660248a01529587166044890152938616606488015291909416608486015260a485019390935260c484019290925260e483019190915261010482018990526bffffffffffffffffffffffff198816610124830152516101448083019260209291908290030181600087803b158015611bea57600080fd5b505af1158015611bfe573d6000803e3d6000fd5b505050506040513d6020811015611c1457600080fd5b50516000878152600660205260409020549093506301000000900460ff16611cdc57600d546002546001600160a01b039182169163a9059cbb9116611c5889611d72565b6040518363ffffffff1660e01b815260040180836001600160a01b03166001600160a01b0316815260200182815260200192505050602060405180830381600087803b158015611ca757600080fd5b505af1158015611cbb573d6000803e3d6000fd5b505050506040513d6020811015611cd157600080fd5b5051611cdc57600080fd5b5050600093845260066020526040909320805463ff000000191663010000001790555090919050565b600e5481565b600061126c611d198361335c565b610e64846112a5565b60009081526006602052604090205462010000900460ff1690565b62093a8081565b600c6020528160005260406000208181548110611d5d57fe5b90600052602060002001600091509150505481565b60009081526009602052604090205490565b6001600160a01b03166000908152600c602052604090205490565b6000908152600360205260409020600201546001600160a01b031690565b6000908152600660205260409020546301000000900460ff1690565b611de2826125f7565b15611dec57600080fd5b60008281526006602052604090205462010000900460ff161580611e2a5750600082815260066020526040902054600160201b900460ff1615156001145b611e3357600080fd5b6000828152600360205260409020600101546001600160a01b0316331480611e7457506000828152600360205260409020600201546001600160a01b031633145b611e7d57600080fd5b6005600083815260200190815260200160002060040154600282604051602001808281526020019150506040516020818303038152906040526040518082805190602001908083835b60208310611ee55780518252601f199092019160209182019101611ec6565b51815160209384036101000a60001901801990921691161790526040519190930194509192505080830381855afa158015611f24573d6000803e3d6000fd5b5050506040513d6020811015611f3957600080fd5b5051148061200257506005600083815260200190815260200160002060080154600282604051602001808281526020019150506040516020818303038152906040526040518082805190602001908083835b60208310611faa5780518252601f199092019160209182019101611f8b565b51815160209384036101000a60001901801990921691161790526040519190930194509192505080830381855afa158015611fe9573d6000803e3d6000fd5b5050506040513d6020811015611ffe57600080fd5b5051145b61200b57600080fd5b6120148261124d565b42111561202057600080fd5b6000828152600660205260409020546301000000900460ff161561204357600080fd5b6000828152600660208181526040808420805465ff00000000001916600160281b178155600383528185204290850155600583529320600d01849055525462010000900460ff166122d15760008281526007602052604090205461214957600d54600083815260036020908152604080832060018101546007909101548251600160e01b63a9059cbb0281526001600160a01b0392831660048201526024810191909152915194169363a9059cbb93604480840194938390030190829087803b15801561210f57600080fd5b505af1158015612123573d6000803e3d6000fd5b505050506040513d602081101561213957600080fd5b505161214457600080fd5b6122cc565b6000805483825260076020908152604092839020548351600160e71b6301431c95028152600481019190915292516001600160a01b039092169263a18e4a809260248083019392829003018186803b1580156121a457600080fd5b505afa1580156121b8573d6000803e3d6000fd5b505050506040513d60208110156121ce57600080fd5b5051612248576000805483825260036020526040808320600701548151600160e11b637249992b028152600481019190915290516001600160a01b039092169263e49332569260248084019382900301818387803b15801561222f57600080fd5b505af1158015612243573d6000803e3d6000fd5b505050505b60008054838252600760208181526040808520546003909252808520909201548251600160e11b630ef1370b0281526004810192909252602482015290516001600160a01b0390921692631de26e169260448084019382900301818387803b1580156122b357600080fd5b505af11580156122c7573d6000803e3d6000fd5b505050505b610f68565b60008281526006602052604090205462010000900460ff16151560011415610f68576000828152600760205260409020546123c057600d546000838152600360205260409020600101546001600160a01b039182169163a9059cbb91166123378561335c565b6040518363ffffffff1660e01b815260040180836001600160a01b03166001600160a01b0316815260200182815260200192505050602060405180830381600087803b15801561238657600080fd5b505af115801561239a573d6000803e3d6000fd5b505050506040513d60208110156123b057600080fd5b50516123bb57600080fd5b612542565b6000805483825260076020908152604092839020548351600160e71b6301431c95028152600481019190915292516001600160a01b039092169263a18e4a809260248083019392829003018186803b15801561241b57600080fd5b505afa15801561242f573d6000803e3d6000fd5b505050506040513d602081101561244557600080fd5b50516124bf576000805483825260036020526040808320600701548151600160e11b637249992b028152600481019190915290516001600160a01b039092169263e49332569260248084019382900301818387803b1580156124a657600080fd5b505af11580156124ba573d6000803e3d6000fd5b505050505b6000805483825260076020526040909120546001600160a01b0390911690631de26e16906124ec8561335c565b6040518363ffffffff1660e01b81526004018083815260200182815260200192505050600060405180830381600087803b15801561252957600080fd5b505af115801561253d573d6000803e3d6000fd5b505050505b600d546000838152600360205260409020600201546001600160a01b039182169163a9059cbb9116612573856112a5565b6040518363ffffffff1660e01b815260040180836001600160a01b03166001600160a01b0316815260200182815260200192505050602060405180830381600087803b1580156125c257600080fd5b505af11580156125d6573d6000803e3d6000fd5b505050506040513d60208110156125ec57600080fd5b5051610f6857600080fd5b600090815260066020526040902054600160281b900460ff1690565b61261c826125f7565b1561262657600080fd5b60008281526006602052604090205460ff16151560011461264657600080fd5b60008281526006602052604090205460ff61010090910416151560011461266c57600080fd5b6005600083815260200190815260200160002060000154600282604051602001808281526020019150506040516020818303038152906040526040518082805190602001908083835b602083106126d45780518252601f1990920191602091820191016126b5565b51815160209384036101000a60001901801990921691161790526040519190930194509192505080830381855afa158015612713573d6000803e3d6000fd5b5050506040513d602081101561272857600080fd5b50511461273457600080fd5b600d546000838152600360205260409020546001600160a01b039182169163a9059cbb9116612762856130fd565b6040518363ffffffff1660e01b815260040180836001600160a01b03166001600160a01b0316815260200182815260200192505050602060405180830381600087803b1580156127b157600080fd5b505af11580156127c5573d6000803e3d6000fd5b505050506040513d60208110156127db57600080fd5b50516127e657600080fd5b6000918252600660209081526040808420805462ff00001916620100001790556005909152909120600c0155565b60066020526000908152604090205460ff80821691610100810482169162010000820481169163010000008104821691600160201b8204811691600160281b90041686565b612862816125f7565b1561286c57600080fd5b61287581611dbd565b1561287f57600080fd5b6128888161124d565b421161289357600080fd5b600081815260066020526040902054600160201b900460ff1615156001146128ba57600080fd5b6000818152600360205260409020546001600160a01b031633146128dd57600080fd5b6000818152600660208181526040808420805465ff00000000001916600160281b17905560039091529091204291810191909155600d5490546001600160a01b039182169163a9059cbb911661293284611d0b565b6040518363ffffffff1660e01b815260040180836001600160a01b03166001600160a01b0316815260200182815260200192505050602060405180830381600087803b15801561298157600080fd5b505af1158015612995573d6000803e3d6000fd5b505050506040513d60208110156129ab57600080fd5b50516129b657600080fd5b6000805482825260076020908152604092839020548351600160e71b6301431c95028152600481019190915292516001600160a01b039092169263a18e4a809260248083019392829003018186803b158015612a1157600080fd5b505afa158015612a25573d6000803e3d6000fd5b505050506040513d6020811015612a3b57600080fd5b5051612b13576000805482825260036020526040808320600701548151600160e11b637249992b028152600481019190915290516001600160a01b039092169263e49332569260248084019382900301818387803b158015612a9c57600080fd5b505af1158015612ab0573d6000803e3d6000fd5b50506000805460408051600160e01b6333549b1b02815290516001600160a01b0390921694506333549b1b9350600480820193929182900301818387803b158015612afa57600080fd5b505af1158015612b0e573d6000803e3d6000fd5b505050505b50565b6000908152600360205260409020600c015490565b600090815260066020526040902054610100900460ff1690565b60046020908152600091825260409182902080548351601f60026000196101006001861615020190931692909204918201849004840281018401909452808452909291839190830182828015612bdc5780601f10612bb157610100808354040283529160200191612bdc565b820191906000526020600020905b815481529060010190602001808311612bbf57829003601f168201915b505050505090806001018054600181600116156101000203166002900480601f016020809104026020016040519081016040528092919081815260200182805460018160011615610100020316600290048015612c7a5780601f10612c4f57610100808354040283529160200191612c7a565b820191906000526020600020905b815481529060010190602001808311612c5d57829003601f168201915b50505060028085018054604080516020601f6000196101006001871615020190941695909504928301859004850281018501909152818152959695945090925090830182828015612d0c5780601f10612ce157610100808354040283529160200191612d0c565b820191906000526020600020905b815481529060010190602001808311612cef57829003601f168201915b5050505050905083565b600061126c612d2483610f87565b670ce80612991d00006133de565b600f546001600160a01b03163314612d4957600080fd5b6002546001600160a01b031615612d5f57600080fd5b600280546001600160a01b0319166001600160a01b0392909216919091179055565b600a5481565b600061126c82612d9a6012600e54613406565b600a0a613416565b670ce80612991d000081565b6202a30081565b600061126c612dc383611d0b565b610e6484611290565b6000908152600360205260409020600b015490565b60009081526006602052604090205460ff1690565b6000908152600360205260409020600101546001600160a01b031690565b60008181526006602052604090205460ff161515600114612e3457600080fd5b6000818152600360205260409020600101546001600160a01b03163314612e5a57600080fd5b612e6381611272565b421115612e6f57600080fd5b6000908152600660205260409020805461ff001916610100179055565b60076020526000908152604090205481565b600061126c612eac83611d0b565b612eb584611d72565b613406565b600090815260066020526040902054600160201b900460ff1690565b611c2081565b6000818152600560205260409020600e015460ff16612efa57600080fd5b60008181526006602052604090205460ff1615612f1657600080fd5b600d546001600160a01b03166323b872dd3330612f32856130fd565b6040805163ffffffff861660e01b81526001600160a01b0394851660048201529290931660248301526044820152905160648083019260209291908290030181600087803b158015612f8357600080fd5b505af1158015612f97573d6000803e3d6000fd5b505050506040513d6020811015612fad57600080fd5b5051612fb857600080fd5b6000908152600660205260409020805460ff19166001179055565b600360208190526000918252604090912080546001820154600283015493830154600484015460058501546006860154600787015460088801546009890154600a8a0154600b8b0154600c909b01546001600160a01b039a8b169c998b169b99909a1699979896979596949593949293919290918d565b600061126c613058836112d5565b6202a3006133ce565b6001600160a01b03166000908152600b602052604090205490565b6005602052600090815260409020805460048201546008830154600c840154600d850154600e90950154939492939192909160ff1686565b600061126c6130d66130d16130c8856130fd565b612eb586611d72565b6133b3565b6130df84612b16565b61342d565b600b6020528160005260406000208181548110611d5d57fe5b60009081526003602052604090206007015490565b60009081526003602052604090206008015490565b6000613132826130b4565b61313b83610f87565b101592915050565b60096020526000908152604090205481565b610f688282611dd9565b60008a8152600560205260408120600e015460ff161561317e57600080fd5b60008b8152600360205260409020546001600160a01b03163314806131bc575060008b8152600360205260409020600101546001600160a01b031633145b806131d157506000546001600160a01b031633145b6131da57600080fd5b60008b8152600560209081526040918290208c35905581516060810183528c82013581528c830135918101919091529081018b60036020020135815250600560008d815260200190815260200160002060010190600361323b929190613481565b5060008b81526005602081815260408084208d3560048201558151606080820184528f85013582528f840135828601528f013592810192909252938f90529082905261328c92909101906003613481565b5060008b81526005602081815260408084208c3560088201558151606080820184528e85013582528e840135828601528e013592810192909252938f90529190526132dc91600901906003613481565b5060008b81526004602052604090206132f69088886134bf565b5060008b81526004602052604090206133139060010186866134bf565b5060008b81526004602052604090206133309060020184846134bf565b5060009a8b5260056020526040909a20600e01805460ff19166001179055509798975050505050505050565b600061126c61336a836130fd565b610e6484613112565b60006305f5e100613395613387858561345d565b60026305f5e1005b046133ce565b8161339c57fe5b049392505050565b600d546001600160a01b031681565b600061126c826133c66012600e54613406565b600a0a61345d565b8082018281101561126c57600080fd5b6000670de0b6b3a76400006133956133f6858561345d565b6002670de0b6b3a764000061338f565b8082038281111561126c57600080fd5b600080821161342457600080fd5b81838161339c57fe5b60006b033b2e3c9fd0803ce8000000613395613449858561345d565b60026b033b2e3c9fd0803ce800000061338f565b60008115806134785750508082028282828161347557fe5b04145b61126c57600080fd5b82600381019282156134af579160200282015b828111156134af578251825591602001919060010190613494565b506134bb92915061352d565b5090565b828054600181600116156101000203166002900490600052602060002090601f016020900481019282601f106135005782800160ff198235161785556134af565b828001600101855582156134af579182015b828111156134af578235825591602001919060010190613512565b61354791905b808211156134bb5760008155600101613533565b9056fea165627a7a723058200dcf44e66941d20dbf5672f66be05045bd73835be39bd16c4c5f6e34aec506ac0029",
  "source": "import 'openzeppelin-solidity/contracts/token/ERC20/ERC20.sol';\nimport 'openzeppelin-solidity/contracts/math/SafeMath.sol';\n\nimport './FundsInterface.sol';\nimport './SalesInterface.sol';\nimport './DSMath.sol';\nimport './Medianizer.sol';\n\npragma solidity ^0.5.8;\n\ncontract Loans is DSMath {\n    FundsInterface funds;\n    Medianizer med;\n    SalesInterface sales;\n\n    uint256 public constant APPROVE_EXP_THRESHOLD = 2 hours;    // approval expiration threshold\n    uint256 public constant ACCEPT_EXP_THRESHOLD = 2 days;      // acceptance expiration threshold\n    uint256 public constant LIQUIDATION_EXP_THRESHOLD = 7 days; // liquidation expiration threshold\n    uint256 public constant SEIZURE_EXP_THRESHOLD = 2 days;     // seizable expiration threshold\n    uint256 public constant LIQUIDATION_DISCOUNT = 930000000000000000; // 93% (7% discount)\n\n    mapping (bytes32 => Loan)         public loans;\n    mapping (bytes32 => PubKeys)      public pubKeys;      // PubKeys\n    mapping (bytes32 => SecretHashes) public secretHashes; // Secret Hashes\n    mapping (bytes32 => Bools)        public bools;        // Boolean state of Loan\n    mapping (bytes32 => bytes32)      public fundIndex;    // Mapping of Loan Index to Fund Index\n    mapping (bytes32 => ERC20)        public tokes;        // Mapping of Loan index to Token contract\n    mapping (bytes32 => uint256)      public repayments;   // Amount paid back in a Loan\n    uint256                           public loanIndex;    // Current Loan Index\n\n    mapping (address => bytes32[])    public borrowerLoans;\n    mapping (address => bytes32[])    public lenderLoans;\n\n    ERC20 public token; // ERC20 Debt Stablecoin\n    uint256 public decimals;\n\n    address deployer;\n\n    /**\n     * @notice Container for loan information\n     * @member borrower The address of the borrower\n     * @member lender The address of the lender\n     * @member arbiter The address of the arbiter\n     * @member createAt The creation timestamp of the loan\n     * @member loanExpiration The timestamp for the end of the loan\n     * @member principal The amount of principal in tokens to be paid back at the end of the loan\n     * @member interest The amount of interest in tokens to be paid back by the end of the loan\n     * @member penalty The amount of tokens to be paid as a penalty for defaulting or allowing the loan to be liquidated\n     * @member fee The amount of tokens paid to the arbiter\n     * @member collateral The amount of collateral in satoshis\n     * @member liquidationRatio The ratio of collateral to debt where the loan can be liquidated\n     */\n    struct Loan {\n    \taddress borrower;\n        address lender;\n        address arbiter;\n        uint256 createdAt;\n        uint256 loanExpiration;\n        uint256 requestTimestamp;\n        uint256 closedTimestamp;\n        uint256 principal;\n        uint256 interest;\n        uint256 penalty;\n        uint256 fee;\n        uint256 collateral;\n        uint256 liquidationRatio;\n    }\n\n    /**\n     * @notice Container for Bitcoin public key information\n     * @member borrowerPubKey Borrower Bitcoin Public Key\n     * @member lenderPubKey Lender Bitcoin Public Key\n     * @member arbiterPubKey Arbiter Bitcoin Public Key\n     *\n     *         Note: This struct is unnecessary for the Ethereum\n     *               contract itself, but is used as a point of \n     *               reference for generating the correct P2SH for\n     *               locking Bitcoin collateral\n     */\n    struct PubKeys {\n        bytes   borrowerPubKey;\n        bytes   lenderPubKey;\n        bytes   arbiterPubKey;\n    }\n\n    /**\n     * @notice Container for borrower, lender, and arbiter Secret Hashes\n     * @member secretHashA1 Borrower Secret Hash for the loan\n     * @member secretHashAs Borrower Secret Hashes for up to three liquidations\n     * @member secretHashB1 Lender Secret Hash for the loan\n     * @member secretHashBs Lender Secret Hashes for up to three liquidations\n     * @member secretHashC1 Arbiter Secret Hash for the loan\n     * @member secretHashCs Arbiter Secret Hashes for up to three liquidations\n     * @member withdrawSecret Secret A1 when revealed by borrower\n     * @member acceptSecret Secret B1 or Secret C1 when revelaed by the lender or arbiter\n     * @member set Secret Hashes set for particular loan\n     */\n    struct SecretHashes {\n    \tbytes32    secretHashA1;\n    \tbytes32[3] secretHashAs;\n    \tbytes32    secretHashB1;\n    \tbytes32[3] secretHashBs;\n    \tbytes32    secretHashC1;\n    \tbytes32[3] secretHashCs;\n        bytes32    withdrawSecret;\n        bytes32    acceptSecret;\n    \tbool       set;\n    }\n\n    /**\n     * @notice Container for states of loan agreement\n     * @member funded Indicates that the loan has been funded with tokens\n     * @member approved Indicates that the lender has approved locking of the Bitcoin collateral\n     * @member withdrawn Indicates that the borrower has withdrawn the tokens from the contract\n     * @member sale Indicates that the collateral liquidation process has started\n     * @member paid Indicates that the loan has been repaid\n     * @member off Indicates that the loan has been cancelled or the loan repayment has been accepted\n     */\n    struct Bools {\n    \tbool funded;\n    \tbool approved;\n    \tbool withdrawn;\n    \tbool sale;\n    \tbool paid;\n    \tbool off;\n    }\n\n    event Create(bytes32 loan);\n\n    function borrower(bytes32 loan) public view returns (address) {\n        return loans[loan].borrower;\n    }\n\n    function lender(bytes32 loan) public view returns (address) {\n        return loans[loan].lender;\n    }\n\n    function arbiter(bytes32 loan)  public view returns (address) {\n        return loans[loan].arbiter;\n    }\n\n    function approveExpiration(bytes32 loan) public view returns (uint256) { // Approval Expiration\n        return add(loans[loan].createdAt, APPROVE_EXP_THRESHOLD);\n    }\n\n    // TODO: add loanExpiration\n\n    function acceptExpiration(bytes32 loan) public view returns (uint256) { // Acceptance Expiration\n        return add(loans[loan].loanExpiration, ACCEPT_EXP_THRESHOLD);\n    }\n\n    function liquidationExpiration(bytes32 loan) public view returns (uint256) { // Liquidation Expiration\n        return add(loans[loan].loanExpiration, LIQUIDATION_EXP_THRESHOLD);\n    }\n\n    function seizureExpiration(bytes32 loan) public view returns (uint256) {\n        return add(liquidationExpiration(loan), SEIZURE_EXP_THRESHOLD);\n    }\n\n    function principal(bytes32 loan) public view returns (uint256) {\n        return loans[loan].principal;\n    }\n\n    function interest(bytes32 loan) public view returns (uint256) {\n        return loans[loan].interest;\n    }\n\n    function fee(bytes32 loan) public view returns (uint256) {\n        return loans[loan].fee;\n    }\n\n    function penalty(bytes32 loan) public view returns (uint256) {\n        return loans[loan].penalty;\n    }\n\n    function collateral(bytes32 loan) public view returns (uint256) {\n        return loans[loan].collateral;\n    }\n\n    function repaid(bytes32 loan) public view returns (uint256) { // Amount paid back for loan\n        return repayments[loan];\n    }\n\n    function liquidationRatio(bytes32 loan) public view returns (uint256) {\n        return loans[loan].liquidationRatio;\n    }\n\n    function owedToLender(bytes32 loan) public view returns (uint256) { // Amount lent by Lender\n        return add(principal(loan), interest(loan));\n    }\n\n    function owedForLoan(bytes32 loan) public view returns (uint256) { // Amount owed\n        return add(owedToLender(loan), fee(loan));\n    }\n\n    function owedForLiquidation(bytes32 loan) public view returns (uint256) { // Deductible amount from collateral\n        return add(owedForLoan(loan), penalty(loan));\n    }\n\n    function owing(bytes32 loan) public view returns (uint256) {\n        return sub(owedForLoan(loan), repaid(loan));\n    }\n\n    function funded(bytes32 loan) public view returns (bool) {\n        return bools[loan].funded;\n    }\n\n    function approved(bytes32 loan) public view returns (bool) {\n        return bools[loan].approved;\n    }\n\n    function withdrawn(bytes32 loan) public view returns (bool) {\n        return bools[loan].withdrawn;\n    }\n\n    function sale(bytes32 loan) public view returns (bool) {\n        return bools[loan].sale;\n    }\n\n    function paid(bytes32 loan) public view returns (bool) {\n        return bools[loan].paid;\n    }\n\n    function off(bytes32 loan) public view returns (bool) {\n        return bools[loan].off;\n    }\n\n    function dmul(uint x) public view returns (uint256) {\n        return mul(x, (10 ** sub(18, decimals)));\n    }\n\n    function ddiv(uint x) public view returns (uint256) {\n        return div(x, (10 ** sub(18, decimals)));\n    }\n\n    function borrowerLoanCount(address borrower_) public view returns (uint256) {\n        return borrowerLoans[borrower_].length;\n    }\n\n    function lenderLoanCount(address lender_) public view returns (uint256) {\n        return lenderLoans[lender_].length;\n    }\n\n    function collateralValue(bytes32 loan) public view returns (uint256) { // Current Collateral Value\n        (bytes32 val, bool set) = med.peek();\n        require(set);\n        uint256 price = uint(val);\n        return cmul(price, collateral(loan)); // Multiply value dependent on number of decimals with currency\n    }\n\n    function minCollateralValue(bytes32 loan) public view returns (uint256) {  // Minimum Collateral Value\n        return rmul(dmul(sub(principal(loan), repaid(loan))), liquidationRatio(loan));\n    }\n\n    function discountCollateralValue(bytes32 loan) public view returns (uint256) {\n        return wmul(collateralValue(loan), LIQUIDATION_DISCOUNT);\n    }\n\n    function safe(bytes32 loan) public view returns (bool) { // Loan is safe from Liquidation\n        return collateralValue(loan) >= minCollateralValue(loan);\n    }\n\n    constructor (FundsInterface funds_, Medianizer med_, ERC20 token_, uint256 decimals_) public {\n        deployer = msg.sender;\n    \tfunds    = funds_;\n    \tmed      = med_;\n        token    = token_;\n        decimals = decimals_;\n        require(token.approve(address(funds), 2**256-1));\n    }\n\n    /**\n     * @dev Sets Sales contract\n     * @param sales_ Address of Sales contract\n     */\n    function setSales(SalesInterface sales_) external {\n        require(msg.sender == deployer);\n        require(address(sales) == address(0));\n        sales = sales_;\n    }\n    \n    /**\n     * @notice Creates a new loan agreement\n     * @param loanExpiration_ The timestamp for the end of the loan\n     * @param usrs_ Array of three addresses containing the borrower, lender, and optional arbiter address\n     * @param vals_ Array of six uints containing loan principal, interest, liquidation penalty, optional arbiter fee, collateral amount, liquidation ratio\n     * @param fundIndex_ The optional Fund Index\n     */\n    function create(\n        uint256             loanExpiration_,\n        address[3] calldata usrs_,\n        uint256[7] calldata vals_,\n        bytes32             fundIndex_\n    ) external returns (bytes32 loan) {\n        if (fundIndex_ != bytes32(0)) { require(funds.lender(fundIndex_) == usrs_[1]); }\n        loanIndex = add(loanIndex, 1);\n        loan = bytes32(loanIndex);\n        loans[loan].createdAt        = now;\n        loans[loan].loanExpiration   = loanExpiration_;\n        loans[loan].borrower         = usrs_[0];\n        loans[loan].lender           = usrs_[1];\n        loans[loan].arbiter          = usrs_[2];\n        loans[loan].principal        = vals_[0];\n        loans[loan].interest         = vals_[1];\n        loans[loan].penalty          = vals_[2];\n        loans[loan].fee              = vals_[3];\n        loans[loan].collateral       = vals_[4];\n        loans[loan].liquidationRatio = vals_[5];\n        loans[loan].requestTimestamp = vals_[6];\n        fundIndex[loan]              = fundIndex_;\n        secretHashes[loan].set       = false;\n        borrowerLoans[usrs_[0]].push(bytes32(loanIndex));\n        lenderLoans[usrs_[1]].push(bytes32(loanIndex));\n\n        emit Create(loan);\n    }\n\n    /**\n     * @notice Set Secret Hashes for loan agreement\n     * @param loan The Id of the Loan\n     * @param borrowerSecretHashes Borrower secret hashes\n     * @param lenderSecretHashes Lender secret hashes\n     * @param arbiterSecretHashes Arbiter secret hashes\n     * @param borrowerPubKey_ Borrower Bitcoin Public Key\n     * @param lenderPubKey_ Lender Bitcoin Public Key\n     * @param arbiterPubKey_ Arbiter Bitcoin Public Key\n     */\n    function setSecretHashes(\n    \tbytes32             loan,\n        bytes32[4] calldata borrowerSecretHashes,\n        bytes32[4] calldata lenderSecretHashes,\n        bytes32[4] calldata arbiterSecretHashes,\n\t\tbytes      calldata borrowerPubKey_,\n        bytes      calldata lenderPubKey_,\n        bytes      calldata arbiterPubKey_\n\t) external returns (bool) {\n\t\trequire(!secretHashes[loan].set);\n\t\trequire(msg.sender == loans[loan].borrower || msg.sender == loans[loan].lender || msg.sender == address(funds));\n\t\tsecretHashes[loan].secretHashA1 = borrowerSecretHashes[0];\n\t\tsecretHashes[loan].secretHashAs = [ borrowerSecretHashes[1], borrowerSecretHashes[2], borrowerSecretHashes[3] ];\n\t\tsecretHashes[loan].secretHashB1 = lenderSecretHashes[0];\n\t\tsecretHashes[loan].secretHashBs = [ lenderSecretHashes[1], lenderSecretHashes[2], lenderSecretHashes[3] ];\n\t\tsecretHashes[loan].secretHashC1 = arbiterSecretHashes[0];\n\t\tsecretHashes[loan].secretHashCs = [ arbiterSecretHashes[1], arbiterSecretHashes[2], arbiterSecretHashes[3] ];\n\t\tpubKeys[loan].borrowerPubKey    = borrowerPubKey_;\n\t\tpubKeys[loan].lenderPubKey      = lenderPubKey_;\n        pubKeys[loan].arbiterPubKey       = arbiterPubKey_;\n        secretHashes[loan].set          = true;\n\t}\n\n    /**\n     * @notice Lender sends tokens to the loan agreement\n     * @param loan The Id of the Loan\n     */\n\tfunction fund(bytes32 loan) external {\n\t\trequire(secretHashes[loan].set);\n    \trequire(bools[loan].funded == false);\n    \trequire(token.transferFrom(msg.sender, address(this), principal(loan)));\n    \tbools[loan].funded = true;\n    }\n\n    /**\n     * @notice Lender approves locking of Bitcoin collateral\n     * @param loan The Id of the Loan\n     */\n    function approve(bytes32 loan) external { // Approve locking of collateral\n    \trequire(bools[loan].funded == true);\n    \trequire(loans[loan].lender == msg.sender);\n    \trequire(now                <= approveExpiration(loan));\n    \tbools[loan].approved = true;\n    }\n\n    /**\n     * @notice Borrower withdraws loan\n     * @param loan The Id of the Loan\n     * @param secretA1 Secret A1 provided by the borrower\n     */\n    function withdraw(bytes32 loan, bytes32 secretA1) external {\n    \trequire(!off(loan));\n    \trequire(bools[loan].funded == true);\n    \trequire(bools[loan].approved == true);\n    \trequire(sha256(abi.encodePacked(secretA1)) == secretHashes[loan].secretHashA1);\n    \trequire(token.transfer(loans[loan].borrower, principal(loan)));\n    \tbools[loan].withdrawn = true;\n        secretHashes[loan].withdrawSecret = secretA1;\n    }\n\n    /**\n     * @notice Lender sends tokens to the loan agreement\n     * @param loan The Id of the Loan\n     * @param amount The amount of tokens to repay\n     *\n     *        Note: Anyone can repay the loan\n     */\n    function repay(bytes32 loan, uint256 amount) external {\n    \trequire(!off(loan));\n        require(!sale(loan));\n    \trequire(bools[loan].withdrawn     == true);\n    \trequire(now                       <= loans[loan].loanExpiration);\n        require(add(amount, repaid(loan)) <= owedForLoan(loan));\n    \trequire(token.transferFrom(msg.sender, address(this), amount));\n    \trepayments[loan] = add(amount, repayments[loan]);\n    \tif (repaid(loan) == owedForLoan(loan)) {\n    \t\tbools[loan].paid = true;\n    \t}\n    }\n\n    /**\n     * @notice Borrower refunds tokens in the case that Lender doesn't accept loan repayment\n     * @dev Send tokens back to the Borrower, and close Loan\n     * @param loan The Id of the Loan\n     *\n     *        Note: If Lender does not accept repayment, liquidation cannot occur\n     */\n    function refund(bytes32 loan) external {\n    \trequire(!off(loan));\n        require(!sale(loan));\n    \trequire(now              >  acceptExpiration(loan));\n    \trequire(bools[loan].paid == true);\n    \trequire(msg.sender       == loans[loan].borrower);\n        bools[loan].off = true;\n        loans[loan].closedTimestamp = now;\n    \trequire(token.transfer(loans[loan].borrower, owedForLoan(loan)));\n        if (funds.custom(fundIndex[loan]) == false) {\n            funds.decreaseTotalBorrow(loans[loan].principal);\n            funds.calcGlobalInterest();\n        }\n    }\n\n    /**\n     * @notice Lender cancels loan after Borrower locks collateral\n     * @dev Lender cancels loan and principal is sent back to the Lender / Loan Fund\n     * @param loan The Id of the Loan\n     * @param secret Secret B1 revealed by the Lender\n     */\n    function cancel(bytes32 loan, bytes32 secret) external {\n        accept(loan, secret);\n    }\n\n    /**\n     * @notice Lender accepts loan repayment\n     * @dev Lender accepts loan repayment and principal + interest are sent back to the Lender / Loan Fund\n     * @param loan The Id of the Loan\n     * @param secret Secret B1 revealed by the Lender\n     */\n    function accept(bytes32 loan, bytes32 secret) public {\n        require(!off(loan));\n        require(bools[loan].withdrawn == false   || bools[loan].paid == true);\n        require(msg.sender == loans[loan].lender || msg.sender == loans[loan].arbiter);\n        require(sha256(abi.encodePacked(secret)) == secretHashes[loan].secretHashB1 || sha256(abi.encodePacked(secret)) == secretHashes[loan].secretHashC1);\n        require(now                              <= acceptExpiration(loan));\n        require(bools[loan].sale                 == false);\n        bools[loan].off = true;\n        loans[loan].closedTimestamp = now;\n        secretHashes[loan].acceptSecret = secret;\n        if (bools[loan].withdrawn == false) {\n            if (fundIndex[loan] == bytes32(0)) {\n                require(token.transfer(loans[loan].lender, loans[loan].principal));\n            } else {\n                if (funds.custom(fundIndex[loan]) == false) {\n                    funds.decreaseTotalBorrow(loans[loan].principal);\n                }\n                funds.deposit(fundIndex[loan], loans[loan].principal);\n            }\n        } else if (bools[loan].withdrawn == true) {\n            if (fundIndex[loan] == bytes32(0)) {\n                require(token.transfer(loans[loan].lender, owedToLender(loan)));\n            } else {\n                if (funds.custom(fundIndex[loan]) == false) {\n                    funds.decreaseTotalBorrow(loans[loan].principal);\n                }\n                funds.deposit(fundIndex[loan], owedToLender(loan));\n            }\n            require(token.transfer(loans[loan].arbiter, fee(loan)));\n        }\n    }\n\n    /**\n     * @notice Any third party starts liquidation of the Bitcoin collateral by providing tokens with the intention to buy at a discount\n     * @param loan The Id of the Loan\n     * @param secretHash The Secret Hash D1 provided by the liquidator\n     * @param pubKeyHash The Bitcoin Public Key Hash of the liquidator\n     * @return sale_ The Id of the Sale (Liquidation)\n     */\n    function liquidate(bytes32 loan, bytes32 secretHash, bytes20 pubKeyHash) external returns (bytes32 sale_) {\n    \trequire(!off(loan));\n        require(bools[loan].withdrawn == true);\n        require(msg.sender != loans[loan].borrower && msg.sender != loans[loan].lender);\n    \tif (sales.next(loan) == 0) {\n    \t\tif (now > loans[loan].loanExpiration) {\n\t    \t\trequire(bools[loan].paid == false);\n\t\t\t} else {\n\t\t\t\trequire(!safe(loan));\n\t\t\t}\n            if (funds.custom(fundIndex[loan]) == false) {\n                funds.decreaseTotalBorrow(loans[loan].principal);\n                funds.calcGlobalInterest();\n            }\n\t\t} else {\n\t\t\trequire(sales.next(loan) < 3);\n            require(now > sales.settlementExpiration(sales.saleIndexByLoan(loan, sales.next(loan) - 1))); // Can only start liquidation after settlement expiration of pervious liquidation\n            require(!sales.accepted(sales.saleIndexByLoan(loan, sales.next(loan) - 1))); // Can only start liquidation again if previous liquidation discountBuy wasn't taken\n\t\t}\n        require(token.balanceOf(msg.sender) >= ddiv(discountCollateralValue(loan)));\n        require(token.transferFrom(msg.sender, address(sales), ddiv(discountCollateralValue(loan))));\n        SecretHashes storage h = secretHashes[loan];\n        uint256 i = sales.next(loan);\n\t\tsale_ = sales.create(loan, loans[loan].borrower, loans[loan].lender, loans[loan].arbiter, msg.sender, h.secretHashAs[i], h.secretHashBs[i], h.secretHashCs[i], secretHash, pubKeyHash);\n        if (bools[loan].sale == false) { require(token.transfer(address(sales), repaid(loan))); }\n\t\tbools[loan].sale = true;\n    }\n}\n",
  "sourcePath": "/Users/steven/src/github.com/AtomicLoans/atomicloans-eth-contracts/contracts/Loans.sol",
  "compiler": {
    "name": "solc",
    "version": "0.5.8+commit.23d335f2.Emscripten.clang"
  },
  "schemaVersion": "3.0.12",
  "updatedAt": "2019-09-29T00:28:59.589Z",
  "devdoc": {
    "methods": {
      "accept(bytes32,bytes32)": {
        "details": "Lender accepts loan repayment and principal + interest are sent back to the Lender / Loan Fund",
        "params": {
          "loan": "The Id of the Loan",
          "secret": "Secret B1 revealed by the Lender"
        }
      },
      "approve(bytes32)": {
        "params": {
          "loan": "The Id of the Loan"
        }
      },
      "cancel(bytes32,bytes32)": {
        "details": "Lender cancels loan and principal is sent back to the Lender / Loan Fund",
        "params": {
          "loan": "The Id of the Loan",
          "secret": "Secret B1 revealed by the Lender"
        }
      },
      "create(uint256,address[3],uint256[7],bytes32)": {
        "params": {
          "fundIndex_": "The optional Fund Index",
          "loanExpiration_": "The timestamp for the end of the loan",
          "usrs_": "Array of three addresses containing the borrower, lender, and optional arbiter address",
          "vals_": "Array of six uints containing loan principal, interest, liquidation penalty, optional arbiter fee, collateral amount, liquidation ratio"
        }
      },
      "fund(bytes32)": {
        "params": {
          "loan": "The Id of the Loan"
        }
      },
      "liquidate(bytes32,bytes32,bytes20)": {
        "params": {
          "loan": "The Id of the Loan",
          "pubKeyHash": "The Bitcoin Public Key Hash of the liquidator",
          "secretHash": "The Secret Hash D1 provided by the liquidator"
        },
        "return": "sale_ The Id of the Sale (Liquidation)"
      },
      "refund(bytes32)": {
        "details": "Send tokens back to the Borrower, and close Loan",
        "params": {
          "loan": "The Id of the Loan     *        Note: If Lender does not accept repayment, liquidation cannot occur"
        }
      },
      "repay(bytes32,uint256)": {
        "params": {
          "amount": "The amount of tokens to repay     *        Note: Anyone can repay the loan",
          "loan": "The Id of the Loan"
        }
      },
      "setSales(address)": {
        "details": "Sets Sales contract",
        "params": {
          "sales_": "Address of Sales contract"
        }
      },
      "setSecretHashes(bytes32,bytes32[4],bytes32[4],bytes32[4],bytes,bytes,bytes)": {
        "params": {
          "arbiterPubKey_": "Arbiter Bitcoin Public Key",
          "arbiterSecretHashes": "Arbiter secret hashes",
          "borrowerPubKey_": "Borrower Bitcoin Public Key",
          "borrowerSecretHashes": "Borrower secret hashes",
          "lenderPubKey_": "Lender Bitcoin Public Key",
          "lenderSecretHashes": "Lender secret hashes",
          "loan": "The Id of the Loan"
        }
      },
      "withdraw(bytes32,bytes32)": {
        "params": {
          "loan": "The Id of the Loan",
          "secretA1": "Secret A1 provided by the borrower"
        }
      }
    }
  },
  "userdoc": {
    "methods": {
      "accept(bytes32,bytes32)": {
        "notice": "Lender accepts loan repayment"
      },
      "approve(bytes32)": {
        "notice": "Lender approves locking of Bitcoin collateral"
      },
      "cancel(bytes32,bytes32)": {
        "notice": "Lender cancels loan after Borrower locks collateral"
      },
      "create(uint256,address[3],uint256[7],bytes32)": {
        "notice": "Creates a new loan agreement"
      },
      "fund(bytes32)": {
        "notice": "Lender sends tokens to the loan agreement"
      },
      "liquidate(bytes32,bytes32,bytes20)": {
        "notice": "Any third party starts liquidation of the Bitcoin collateral by providing tokens with the intention to buy at a discount"
      },
      "refund(bytes32)": {
        "notice": "Borrower refunds tokens in the case that Lender doesn't accept loan repayment"
      },
      "repay(bytes32,uint256)": {
        "notice": "Lender sends tokens to the loan agreement"
      },
      "setSecretHashes(bytes32,bytes32[4],bytes32[4],bytes32[4],bytes,bytes,bytes)": {
        "notice": "Set Secret Hashes for loan agreement"
      },
      "withdraw(bytes32,bytes32)": {
        "notice": "Borrower withdraws loan"
      }
    }
  }
}