{
  "contractName": "Sales",
  "abi": [
    {
      "constant": true,
      "inputs": [
        {
          "name": "",
          "type": "bytes32"
        }
      ],
      "name": "sales",
      "outputs": [
        {
          "name": "loanIndex",
          "type": "bytes32"
        },
        {
          "name": "discountBuy",
          "type": "uint256"
        },
        {
          "name": "liquidator",
          "type": "address"
        },
        {
          "name": "borrower",
          "type": "address"
        },
        {
          "name": "lender",
          "type": "address"
        },
        {
          "name": "arbiter",
          "type": "address"
        },
        {
          "name": "createdAt",
          "type": "uint256"
        },
        {
          "name": "pubKeyHash",
          "type": "bytes20"
        },
        {
          "name": "set",
          "type": "bool"
        },
        {
          "name": "accepted",
          "type": "bool"
        },
        {
          "name": "off",
          "type": "bool"
        }
      ],
      "payable": false,
      "stateMutability": "view",
      "type": "function"
    },
    {
      "constant": true,
      "inputs": [
        {
          "name": "",
          "type": "bytes32"
        },
        {
          "name": "",
          "type": "uint256"
        }
      ],
      "name": "saleIndexByLoan",
      "outputs": [
        {
          "name": "",
          "type": "bytes32"
        }
      ],
      "payable": false,
      "stateMutability": "view",
      "type": "function"
    },
    {
      "constant": true,
      "inputs": [],
      "name": "SETTLEMENT_EXP",
      "outputs": [
        {
          "name": "",
          "type": "uint256"
        }
      ],
      "payable": false,
      "stateMutability": "view",
      "type": "function"
    },
    {
      "constant": true,
      "inputs": [],
      "name": "saleIndex",
      "outputs": [
        {
          "name": "",
          "type": "uint256"
        }
      ],
      "payable": false,
      "stateMutability": "view",
      "type": "function"
    },
    {
      "constant": true,
      "inputs": [
        {
          "name": "",
          "type": "bytes32"
        }
      ],
      "name": "arbiterSigs",
      "outputs": [
        {
          "name": "refundableSig",
          "type": "bytes"
        },
        {
          "name": "seizableSig",
          "type": "bytes"
        }
      ],
      "payable": false,
      "stateMutability": "view",
      "type": "function"
    },
    {
      "constant": true,
      "inputs": [
        {
          "name": "",
          "type": "bytes32"
        }
      ],
      "name": "lenderSigs",
      "outputs": [
        {
          "name": "refundableSig",
          "type": "bytes"
        },
        {
          "name": "seizableSig",
          "type": "bytes"
        }
      ],
      "payable": false,
      "stateMutability": "view",
      "type": "function"
    },
    {
      "constant": true,
      "inputs": [
        {
          "name": "",
          "type": "bytes32"
        }
      ],
      "name": "secretHashes",
      "outputs": [
        {
          "name": "secretHashA",
          "type": "bytes32"
        },
        {
          "name": "secretA",
          "type": "bytes32"
        },
        {
          "name": "secretHashB",
          "type": "bytes32"
        },
        {
          "name": "secretB",
          "type": "bytes32"
        },
        {
          "name": "secretHashC",
          "type": "bytes32"
        },
        {
          "name": "secretC",
          "type": "bytes32"
        },
        {
          "name": "secretHashD",
          "type": "bytes32"
        },
        {
          "name": "secretD",
          "type": "bytes32"
        }
      ],
      "payable": false,
      "stateMutability": "view",
      "type": "function"
    },
    {
      "constant": true,
      "inputs": [
        {
          "name": "",
          "type": "bytes32"
        }
      ],
      "name": "borrowerSigs",
      "outputs": [
        {
          "name": "refundableSig",
          "type": "bytes"
        },
        {
          "name": "seizableSig",
          "type": "bytes"
        }
      ],
      "payable": false,
      "stateMutability": "view",
      "type": "function"
    },
    {
      "constant": true,
      "inputs": [],
      "name": "deployer",
      "outputs": [
        {
          "name": "",
          "type": "address"
        }
      ],
      "payable": false,
      "stateMutability": "view",
      "type": "function"
    },
    {
      "constant": true,
      "inputs": [],
      "name": "SWAP_EXP",
      "outputs": [
        {
          "name": "",
          "type": "uint256"
        }
      ],
      "payable": false,
      "stateMutability": "view",
      "type": "function"
    },
    {
      "constant": true,
      "inputs": [
        {
          "name": "x",
          "type": "uint256"
        },
        {
          "name": "y",
          "type": "uint256"
        }
      ],
      "name": "cmul",
      "outputs": [
        {
          "name": "z",
          "type": "uint256"
        }
      ],
      "payable": false,
      "stateMutability": "pure",
      "type": "function"
    },
    {
      "constant": true,
      "inputs": [],
      "name": "token",
      "outputs": [
        {
          "name": "",
          "type": "address"
        }
      ],
      "payable": false,
      "stateMutability": "view",
      "type": "function"
    },
    {
      "inputs": [
        {
          "name": "loans_",
          "type": "address"
        },
        {
          "name": "med_",
          "type": "address"
        },
        {
          "name": "token_",
          "type": "address"
        }
      ],
      "payable": false,
      "stateMutability": "nonpayable",
      "type": "constructor"
    },
    {
      "constant": true,
      "inputs": [
        {
          "name": "sale",
          "type": "bytes32"
        }
      ],
      "name": "discountBuy",
      "outputs": [
        {
          "name": "",
          "type": "uint256"
        }
      ],
      "payable": false,
      "stateMutability": "view",
      "type": "function"
    },
    {
      "constant": true,
      "inputs": [
        {
          "name": "sale",
          "type": "bytes32"
        }
      ],
      "name": "swapExpiration",
      "outputs": [
        {
          "name": "",
          "type": "uint256"
        }
      ],
      "payable": false,
      "stateMutability": "view",
      "type": "function"
    },
    {
      "constant": true,
      "inputs": [
        {
          "name": "sale",
          "type": "bytes32"
        }
      ],
      "name": "settlementExpiration",
      "outputs": [
        {
          "name": "",
          "type": "uint256"
        }
      ],
      "payable": false,
      "stateMutability": "view",
      "type": "function"
    },
    {
      "constant": true,
      "inputs": [
        {
          "name": "sale",
          "type": "bytes32"
        }
      ],
      "name": "accepted",
      "outputs": [
        {
          "name": "",
          "type": "bool"
        }
      ],
      "payable": false,
      "stateMutability": "view",
      "type": "function"
    },
    {
      "constant": true,
      "inputs": [
        {
          "name": "sale",
          "type": "bytes32"
        }
      ],
      "name": "off",
      "outputs": [
        {
          "name": "",
          "type": "bool"
        }
      ],
      "payable": false,
      "stateMutability": "view",
      "type": "function"
    },
    {
      "constant": true,
      "inputs": [
        {
          "name": "loan",
          "type": "bytes32"
        }
      ],
      "name": "next",
      "outputs": [
        {
          "name": "",
          "type": "uint256"
        }
      ],
      "payable": false,
      "stateMutability": "view",
      "type": "function"
    },
    {
      "constant": false,
      "inputs": [
        {
          "name": "loanIndex",
          "type": "bytes32"
        },
        {
          "name": "borrower",
          "type": "address"
        },
        {
          "name": "lender",
          "type": "address"
        },
        {
          "name": "arbiter",
          "type": "address"
        },
        {
          "name": "liquidator",
          "type": "address"
        },
        {
          "name": "secretHashA",
          "type": "bytes32"
        },
        {
          "name": "secretHashB",
          "type": "bytes32"
        },
        {
          "name": "secretHashC",
          "type": "bytes32"
        },
        {
          "name": "secretHashD",
          "type": "bytes32"
        },
        {
          "name": "pubKeyHash",
          "type": "bytes20"
        }
      ],
      "name": "create",
      "outputs": [
        {
          "name": "sale",
          "type": "bytes32"
        }
      ],
      "payable": false,
      "stateMutability": "nonpayable",
      "type": "function"
    },
    {
      "constant": false,
      "inputs": [
        {
          "name": "sale",
          "type": "bytes32"
        },
        {
          "name": "refundableSig",
          "type": "bytes"
        },
        {
          "name": "seizableSig",
          "type": "bytes"
        }
      ],
      "name": "provideSig",
      "outputs": [],
      "payable": false,
      "stateMutability": "nonpayable",
      "type": "function"
    },
    {
      "constant": false,
      "inputs": [
        {
          "name": "sale",
          "type": "bytes32"
        },
        {
          "name": "secret_",
          "type": "bytes32"
        }
      ],
      "name": "provideSecret",
      "outputs": [],
      "payable": false,
      "stateMutability": "nonpayable",
      "type": "function"
    },
    {
      "constant": true,
      "inputs": [
        {
          "name": "sale",
          "type": "bytes32"
        }
      ],
      "name": "hasSecrets",
      "outputs": [
        {
          "name": "",
          "type": "bool"
        }
      ],
      "payable": false,
      "stateMutability": "view",
      "type": "function"
    },
    {
      "constant": false,
      "inputs": [
        {
          "name": "sale",
          "type": "bytes32"
        }
      ],
      "name": "accept",
      "outputs": [],
      "payable": false,
      "stateMutability": "nonpayable",
      "type": "function"
    },
    {
      "constant": false,
      "inputs": [
        {
          "name": "sale",
          "type": "bytes32"
        }
      ],
      "name": "refund",
      "outputs": [],
      "payable": false,
      "stateMutability": "nonpayable",
      "type": "function"
    }
  ],
  "bytecode": "0x608060405234801561001057600080fd5b50604051606080611e808339810180604052606081101561003057600080fd5b5080516020820151604090920151600280546001600160a01b039384166001600160a01b031991821681179092556000805482169092179091556001805494841694821694909417909355600b80549290911691909216179055611de7806100996000396000f3fe608060405234801561001057600080fd5b50600436106101585760003560e01c806383cd9fbf116100c3578063d4b7a0721161007c578063d4b7a0721461060e578063d5f394881461062b578063e34abe4c1461064f578063e4725ba114610657578063f7837eb714610674578063fc0c546a1461069757610158565b806383cd9fbf146103955780638642afd114610490578063a6b7d54e146104ad578063b9b8b1fe146104ca578063d34ca8ff14610593578063d357691d146105b057610158565b80632dab9da3116101155780632dab9da3146102f457806359949df4146103195780636c636ca5146103365780636ec012e7146103535780636f6d99ab1461035b5780637249fbb61461037857610158565b806302d3af5b1461015d5780630c2afd721461018c5780630c4afecf146102215780631a81dcab146102985780631b9e0f8f146102bb5780632d33c553146102ec575b600080fd5b61017a6004803603602081101561017357600080fd5b503561069f565b60408051918252519081900360200190f35b6101a9600480360360208110156101a257600080fd5b50356106b1565b604080519b8c5260208c019a909a526001600160a01b039889168b8b015296881660608b015294871660808a01529290951660a088015260c08701526bffffffffffffffffffffffff1990931660e0860152911515610100850152901515610120840152151561014083015251908190036101600190f35b61017a600480360361014081101561023857600080fd5b5080359060208101356001600160a01b03908116916040810135821691606082013581169160808101359091169060a08101359060c08101359060e0810135906101008101359061012001356bffffffffffffffffffffffff191661072d565b61017a600480360360408110156102ae57600080fd5b5080359060200135610a48565b6102d8600480360360208110156102d157600080fd5b5035610a76565b604080519115158252519081900360200190f35b61017a610b05565b6103176004803603604081101561030a57600080fd5b5080359060200135610b0b565b005b6102d86004803603602081101561032f57600080fd5b5035610caf565b61017a6004803603602081101561034c57600080fd5b5035610cce565b61017a610ce3565b61017a6004803603602081101561037157600080fd5b5035610ce9565b6103176004803603602081101561038e57600080fd5b5035610d02565b6103b2600480360360208110156103ab57600080fd5b5035610f51565b604051808060200180602001838103835285818151815260200191508051906020019080838360005b838110156103f35781810151838201526020016103db565b50505050905090810190601f1680156104205780820380516001836020036101000a031916815260200191505b50838103825284518152845160209182019186019080838360005b8381101561045357818101518382015260200161043b565b50505050905090810190601f1680156104805780820380516001836020036101000a031916815260200191505b5094505050505060405180910390f35b6102d8600480360360208110156104a657600080fd5b5035611090565b61017a600480360360208110156104c357600080fd5b50356110af565b610317600480360360608110156104e057600080fd5b8135919081019060408101602082013564010000000081111561050257600080fd5b82018360208201111561051457600080fd5b8035906020019184600183028401116401000000008311171561053657600080fd5b91939092909160208101903564010000000081111561055457600080fd5b82018360208201111561056657600080fd5b8035906020019184600183028401116401000000008311171561058857600080fd5b5090925090506110c8565b6103b2600480360360208110156105a957600080fd5b5035611217565b6105cd600480360360208110156105c657600080fd5b5035611283565b604080519889526020890197909752878701959095526060870193909352608086019190915260a085015260c084015260e083015251908190036101000190f35b6103b26004803603602081101561062457600080fd5b50356112cb565b610633611337565b604080516001600160a01b039092168252519081900360200190f35b61017a611346565b6103176004803603602081101561066d57600080fd5b503561134c565b61017a6004803603604081101561068a57600080fd5b5080359060200135611c81565b610633611cae565b60009081526009602052604090205490565b600360208190526000918252604090912080546001820154600283015493830154600484015460058501546006860154600790960154949693956001600160a01b03948516959385169492831693919092169190606081901b9060ff600160a01b8204811691600160a81b8104821691600160b01b909104168b565b600080546001600160a01b0316331461074557600080fd5b6107526008546001611cbd565b60088190555060085460001b90508a6003600083815260200190815260200160002060000181905550896003600083815260200190815260200160002060030160006101000a8154816001600160a01b0302191690836001600160a01b03160217905550886003600083815260200190815260200160002060040160006101000a8154816001600160a01b0302191690836001600160a01b03160217905550876003600083815260200190815260200160002060050160006101000a8154816001600160a01b0302191690836001600160a01b03160217905550866003600083815260200190815260200160002060020160006101000a8154816001600160a01b0302191690836001600160a01b03160217905550426003600083815260200190815260200160002060060181905550816003600083815260200190815260200160002060070160006101000a8154816001600160a01b03021916908360601c02179055506000809054906101000a90046001600160a01b03166001600160a01b0316637ff6fecc6000809054906101000a90046001600160a01b03166001600160a01b0316637888938b8e6040518263ffffffff1660e01b81526004018082815260200191505060206040518083038186803b15801561093257600080fd5b505afa158015610946573d6000803e3d6000fd5b505050506040513d602081101561095c57600080fd5b50516040805163ffffffff841660e01b81526004810192909252516024808301926020929190829003018186803b15801561099657600080fd5b505afa1580156109aa573d6000803e3d6000fd5b505050506040513d60208110156109c057600080fd5b505160008281526003602090815260408083206001808201959095556007908101805474ff00000000000000000000000000000000000000001916600160a01b1790558252808320998a5560028a0198909855600489019690965560069097019390935599855250600982529183208054928301815583529091200185905550929392505050565b60096020528160005260406000208181548110610a6157fe5b90600052602060002001600091509150505481565b6000818152600760209081526040808320548352600a909152812054819060ff1615610aa0576001015b6000838152600760209081526040808320600201548352600a90915290205460ff1615610acb576001015b6000838152600760209081526040808320600401548352600a90915290205460ff1615610af6576001015b600260ff909116101592915050565b61384081565b600082815260036020526040902060070154600160a01b900460ff16610b3057600080fd5b6000600282604051602001808281526020019150506040516020818303038152906040526040518082805190602001908083835b60208310610b835780518252601f199092019160209182019101610b64565b51815160209384036101000a60001901801990921691161790526040519190930194509192505080830381855afa158015610bc2573d6000803e3d6000fd5b5050506040513d6020811015610bd757600080fd5b50516000818152600a60209081526040808320805460ff191660011790558683526007909152902054909150811415610c1f5760008381526007602052604090206001018290555b600083815260076020526040902060020154811415610c4d5760008381526007602052604090206003018290555b600083815260076020526040902060040154811415610c7b5760008381526007602052604090206005018290555b600083815260076020526040902060060154811415610caa576000838152600760208190526040909120018290555b505050565b600090815260036020526040902060070154600160b01b900460ff1690565b60009081526003602052604090206001015490565b60085481565b600090815260036020526040902060060154611c200190565b610d0b81611090565b15610d1557600080fd5b610d1e81610caf565b15610d2857600080fd5b610d31816110af565b4211610d3c57600080fd5b600081815260036020526040902060010154610d5757600080fd5b6000818152600360209081526040808320600781018054600160b01b60ff021916600160b01b179055600b546002820154600192909201548351600160e01b63a9059cbb0281526001600160a01b0393841660048201526024810191909152925191169363a9059cbb93604480850194919392918390030190829087803b158015610de157600080fd5b505af1158015610df5573d6000803e3d6000fd5b505050506040513d6020811015610e0b57600080fd5b5051610e1657600080fd5b600081815260036020526040902054610e2e9061069f565b60031415610f4e57600b54600082815260036020818152604080842092830154935492548151600160e01b633e4b2a29028152600481019190915290516001600160a01b039586169563a9059cbb958116941692633e4b2a299260248082019391829003018186803b158015610ea357600080fd5b505afa158015610eb7573d6000803e3d6000fd5b505050506040513d6020811015610ecd57600080fd5b50516040805163ffffffff851660e01b81526001600160a01b03909316600484015260248301919091525160448083019260209291908290030181600087803b158015610f1957600080fd5b505af1158015610f2d573d6000803e3d6000fd5b505050506040513d6020811015610f4357600080fd5b5051610f4e57600080fd5b50565b60066020908152600091825260409182902080548351601f60026000196101006001861615020190931692909204918201849004840281018401909452808452909291839190830182828015610fe85780601f10610fbd57610100808354040283529160200191610fe8565b820191906000526020600020905b815481529060010190602001808311610fcb57829003601f168201915b505050505090806001018054600181600116156101000203166002900480601f0160208091040260200160405190810160405280929190818152602001828054600181600116156101000203166002900480156110865780601f1061105b57610100808354040283529160200191611086565b820191906000526020600020905b81548152906001019060200180831161106957829003601f168201915b5050505050905082565b600090815260036020526040902060070154600160a81b900460ff1690565b6000908152600360205260409020600601546138400190565b600085815260036020526040902060070154600160a01b900460ff166110ed57600080fd5b6110f6856110af565b421061110157600080fd5b600085815260036020819052604090912001546001600160a01b031633141561116057600085815260046020526040902061113d908585611d20565b50600085815260046020526040902061115a906001018383611d20565b50611210565b6000858152600360205260409020600401546001600160a01b03163314156111b857600085815260056020526040902061119b908585611d20565b50600085815260056020526040902061115a906001018383611d20565b6000858152600360205260409020600501546001600160a01b03163314156101585760008581526006602052604090206111f3908585611d20565b50600085815260066020526040902061115a906001018383611d20565b5050505050565b60056020908152600091825260409182902080548351601f60026000196101006001861615020190931692909204918201849004840281018401909452808452909291839190830182828015610fe85780601f10610fbd57610100808354040283529160200191610fe8565b60076020528060005260406000206000915090508060000154908060010154908060020154908060030154908060040154908060050154908060060154908060070154905088565b60046020908152600091825260409182902080548351601f60026000196101006001861615020190931692909204918201849004840281018401909452808452909291839190830182828015610fe85780601f10610fbd57610100808354040283529160200191610fe8565b6002546001600160a01b031681565b611c2081565b61135581611090565b1561135f57600080fd5b61136881610caf565b1561137257600080fd5b61137b81610a76565b61138457600080fd5b6000818152600760209081526040808320600601548352600a90915290205460ff166113af57600080fd5b6000818152600360209081526040808320600781018054600160a81b60ff021916600160a81b1790556001810154845491548351600160e01b633e4b2a290281526004810191909152925161145f9491936001600160a01b0390931692633e4b2a29926024808301939192829003018186803b15801561142e57600080fd5b505afa158015611442573d6000803e3d6000fd5b505050506040513d602081101561145857600080fd5b5051611cbd565b60008054848252600360209081526040808420548151600160e51b6307b4b9b70281526004810191909152905194955092936114f29386936001600160a01b03169263f69736e092602480840193829003018186803b1580156114c157600080fd5b505afa1580156114d5573d6000803e3d6000fd5b505050506040513d60208110156114eb57600080fd5b5051611cd3565b600b5460008581526003602090815260408083206004908101548251600160e01b63a9059cbb0281526001600160a01b039182169281019290925260248201879052915195965093169363a9059cbb93604480820194918390030190829087803b15801561155f57600080fd5b505af1158015611573573d6000803e3d6000fd5b505050506040513d602081101561158957600080fd5b505161159457600080fd5b61159e8282611cec565b6000805485825260036020908152604092839020548351600160e11b6313e6d58302815260048101919091529251939550611687936001600160a01b03909216926327cdab069260248083019392829003018186803b15801561160057600080fd5b505afa158015611614573d6000803e3d6000fd5b505050506040513d602081101561162a57600080fd5b50516000805486825260036020908152604092839020548351600160e41b63026fc759028152600481019190915292516001600160a01b03909216926326fc75909260248083019392829003018186803b15801561142e57600080fd5b8210611ad2576000838152600360205260409020600501546001600160a01b0316156117c857600b5460008481526003602090815260408083206005810154935490548251600160e11b6313e6d583028152600481019190915291516001600160a01b039586169563a9059cbb958116949216926327cdab06926024808301939192829003018186803b15801561171d57600080fd5b505afa158015611731573d6000803e3d6000fd5b505050506040513d602081101561174757600080fd5b50516040805163ffffffff851660e01b81526001600160a01b03909316600484015260248301919091525160448083019260209291908290030181600087803b15801561179357600080fd5b505af11580156117a7573d6000803e3d6000fd5b505050506040513d60208110156117bd57600080fd5b50516117c857600080fd5b600b546001546000805486825260036020908152604092839020548351600160e41b63026fc759028152600481019190915292516001600160a01b039586169563095ea7b3958116949316926326fc7590926024808301939192829003018186803b15801561183657600080fd5b505afa15801561184a573d6000803e3d6000fd5b505050506040513d602081101561186057600080fd5b50516040805163ffffffff851660e01b81526001600160a01b03909316600484015260248301919091525160448083019260209291908290030181600087803b1580156118ac57600080fd5b505af11580156118c0573d6000803e3d6000fd5b505050506040513d60208110156118d657600080fd5b50516118e157600080fd5b6001546000805485825260036020908152604092839020548351600160e41b63026fc759028152600481019190915292516001600160a01b039485169463eee92395949316926326fc7590926024808301939192829003018186803b15801561194957600080fd5b505afa15801561195d573d6000803e3d6000fd5b505050506040513d602081101561197357600080fd5b5051600b546040805163ffffffff851660e01b815260048101939093526001600160a01b03909116602483015251604480830192600092919082900301818387803b1580156119c157600080fd5b505af11580156119d5573d6000803e3d6000fd5b50506000805486825260036020908152604092839020548351600160e11b6313e6d58302815260048101919091529251611acb9550879450611ac6936001600160a01b03909316926327cdab06926024808301939192829003018186803b158015611a3f57600080fd5b505afa158015611a53573d6000803e3d6000fd5b505050506040513d6020811015611a6957600080fd5b50516000805488825260036020908152604092839020548351600160e41b63026fc759028152600481019190915292516001600160a01b03909216926326fc75909260248083019392829003018186803b15801561142e57600080fd5b611cec565b9150611be1565b8115611be157600b5460015460408051600160e01b63095ea7b30281526001600160a01b039283166004820152602481018690529051919092169163095ea7b39160448083019260209291908290030181600087803b158015611b3457600080fd5b505af1158015611b48573d6000803e3d6000fd5b505050506040513d6020811015611b5e57600080fd5b5051611b6957600080fd5b600154600b5460408051600160e01b63eee92395028152600481018690526001600160a01b0392831660248201529051919092169163eee9239591604480830192600092919082900301818387803b158015611bc457600080fd5b505af1158015611bd8573d6000803e3d6000fd5b50505050600091505b8115610caa57600b546000848152600360208181526040808420909201548251600160e01b63a9059cbb0281526001600160a01b03918216600482015260248101889052925194169363a9059cbb936044808501948390030190829087803b158015611c4c57600080fd5b505af1158015611c60573d6000803e3d6000fd5b505050506040513d6020811015611c7657600080fd5b5051610caa57600080fd5b60006305f5e100611c9f611c958585611cfc565b6302faf080611cbd565b81611ca657fe5b049392505050565b600b546001600160a01b031681565b80820182811015611ccd57600080fd5b92915050565b600081831115611ce35781611ce5565b825b9392505050565b80820382811115611ccd57600080fd5b6000811580611d1757505080820282828281611d1457fe5b04145b611ccd57600080fd5b828054600181600116156101000203166002900490600052602060002090601f016020900481019282601f10611d615782800160ff19823516178555611d8e565b82800160010185558215611d8e579182015b82811115611d8e578235825591602001919060010190611d73565b50611d9a929150611d9e565b5090565b611db891905b80821115611d9a5760008155600101611da4565b9056fea165627a7a72305820d1b44425d82c445b6dfe160f904a3116a7cbf2f69663aa9dff7d4218cd204ef00029",
  "source": "import 'openzeppelin-solidity/contracts/token/ERC20/ERC20.sol';\nimport 'openzeppelin-solidity/contracts/math/SafeMath.sol';\n\nimport './Loans.sol';\nimport './Medianizer.sol';\nimport './DSMath.sol';\n\npragma solidity ^0.5.8;\n\ncontract Sales is DSMath {\n\tLoans loans;\n\tMedianizer med;\n\n    uint256 public constant SWAP_EXP = 2 hours;       // Swap Expiration\n    uint256 public constant SETTLEMENT_EXP = 4 hours; // Settlement Expiration\n\n\taddress public deployer; // Only the Loans contract can edit data\n\n\tmapping (bytes32 => Sale)       public sales;        // Auctions\n\tmapping (bytes32 => Sig)        public borrowerSigs; // Borrower Signatures\n\tmapping (bytes32 => Sig)        public lenderSigs;   // Lender Signatures\n\tmapping (bytes32 => Sig)        public arbiterSigs;  // Lender Signatures\n\tmapping (bytes32 => SecretHash) public secretHashes; // Auction Secret Hashes\n    uint256                         public saleIndex;    // Auction Index\n\n    mapping (bytes32 => bytes32[])  public saleIndexByLoan; // Loan Auctions (find by loanIndex)\n\n    mapping(bytes32 => bool) revealed;\n\n    ERC20 public token;\n\n    /**\n     * @notice Container for the sale information\n     * @member loanIndex The Id of the loan\n     * @member discountBuy The amount in tokens that the Bitcoin collateral was bought for at discount\n     * @member liquidator The address of the liquidator (party that buys the Bitcoin collateral at a discount)\n     * @member borrower The address of the borrower\n     * @member lender The address of the lender\n     * @member arbiter The address of the arbiter\n     * @member createAt The creation timestamp of the sale\n     * @member pubKeyHash The Bitcoin Public Key Hash of the liquidator\n     * @member set Indicates that the sale at this specific index has been opened\n     * @member accepted Indicates that the discountBuy has been accepted\n     * @member off Indicates that the is failed\n     */\n    struct Sale {\n        bytes32    loanIndex;\n        uint256    discountBuy;\n        address    liquidator;\n        address    borrower;\n        address    lender;\n        address    arbiter;\n        uint256    createdAt;\n        bytes20    pubKeyHash;\n        bool       set;\n        bool       accepted;\n        bool       off;\n    }\n\n    /**\n     * @notice Container for the Bitcoin refundable and seizable signature information\n     * @member refundableSig The Bitcoin refundable signature to move collateral to swap P2SH\n     * @member seizableSig The Bitcoin seizable signature to move collateral to swap P2SH\n     */\n    struct Sig {\n        bytes refundableSig;\n        bytes seizableSig;\n    }\n\n    /**\n     * @notice Container for the Bitcoin Secret and Secret Hashes information\n     */\n    struct SecretHash {\n        bytes32 secretHashA; // Secret Hash A\n        bytes32 secretA;     // Secret A\n        bytes32 secretHashB; // Secret Hash B\n        bytes32 secretB;     // Secret B\n        bytes32 secretHashC; // Secret Hash C\n        bytes32 secretC;     // Secret C\n        bytes32 secretHashD; // Secret Hash D\n        bytes32 secretD;     // Secret D\n    }\n\n    function discountBuy(bytes32 sale) public view returns (uint256) {\n        return sales[sale].discountBuy;\n    }\n\n    function swapExpiration(bytes32 sale) public view returns (uint256) {\n        return sales[sale].createdAt + SWAP_EXP;\n    }\n\n    function settlementExpiration(bytes32 sale) public view returns (uint256) {\n        return sales[sale].createdAt + SETTLEMENT_EXP;\n    }\n\n    function accepted(bytes32 sale) public view returns (bool) {\n        return sales[sale].accepted;\n    }\n\n    function off(bytes32 sale) public view returns (bool) {\n        return sales[sale].off;\n    }\n\n    constructor (Loans loans_, Medianizer med_, ERC20 token_) public {\n    \tdeployer = address(loans_);\n    \tloans    = loans_;\n    \tmed      = med_;\n        token    = token_;\n    }\n\n    function next(bytes32 loan) public view returns (uint256) {\n    \treturn saleIndexByLoan[loan].length;\n    }\n\n    /**\n     * @dev Creates a new sale (called by the Loans contract)\n     * @param loanIndex The Id of the Loan\n     * @param borrower The address of the borrower\n     * @param lender The address of the lender\n     * @param arbiter The address of the arbiter\n     * @param liquidator The address of the liquidator\n     * @param secretHashA The Secret Hash of the Borrower for the current sale number\n     * @param secretHashB The Secret Hash of the Lender for the current sale number\n     * @param secretHashC The Secret Hash of the Arbiter for the current sale number\n     * @param secretHashD the Secret Hash of the Liquidator\n     * @param pubKeyHash The Bitcoin Public Key Hash of the Liquidator\n     * @return sale The Id of the sale\n     */\n    function create(\n    \tbytes32 loanIndex,\n    \taddress borrower,\n    \taddress lender,\n        address arbiter,\n        address liquidator,\n    \tbytes32 secretHashA,\n    \tbytes32 secretHashB,\n    \tbytes32 secretHashC,\n        bytes32 secretHashD,\n        bytes20 pubKeyHash\n\t) external returns(bytes32 sale) {\n    \trequire(msg.sender == address(loans));\n    \tsaleIndex = add(saleIndex, 1);\n        sale = bytes32(saleIndex);\n        sales[sale].loanIndex   = loanIndex;\n        sales[sale].borrower    = borrower;\n        sales[sale].lender      = lender;\n        sales[sale].arbiter       = arbiter;\n        sales[sale].liquidator  = liquidator;\n        sales[sale].createdAt   = now;\n        sales[sale].pubKeyHash  = pubKeyHash;\n        sales[sale].discountBuy = loans.ddiv(loans.discountCollateralValue(loanIndex));\n        sales[sale].set         = true;\n        secretHashes[sale].secretHashA = secretHashA;\n        secretHashes[sale].secretHashB = secretHashB;\n        secretHashes[sale].secretHashC = secretHashC;\n        secretHashes[sale].secretHashD = secretHashD;\n        saleIndexByLoan[loanIndex].push(sale);\n    }\n\n    /**\n     * @notice Provide Bitcoin signatures for moving collateral to collateral swap script\n     * @param sale The Id of the sale\n     * @param refundableSig The Bitcoin refundable collateral signature\n     * @param seizableSig The Bitcoin seizable collateral signature\n     *\n     *         Note: More info on the collateral swap script can be seen here:\n                     https://github.com/AtomicLoans/chainabstractionlayer-loans\n     */\n\tfunction provideSig(\n\t\tbytes32        sale,\n\t\tbytes calldata refundableSig,\n\t\tbytes calldata seizableSig\n\t) external {\n\t\trequire(sales[sale].set);\n\t\trequire(now < settlementExpiration(sale));\n\t\tif (msg.sender == sales[sale].borrower) {\n\t\t\tborrowerSigs[sale].refundableSig = refundableSig;\n\t\t\tborrowerSigs[sale].seizableSig   = seizableSig;\n\t\t} else if (msg.sender == sales[sale].lender) {\n\t\t\tlenderSigs[sale].refundableSig = refundableSig;\n\t\t\tlenderSigs[sale].seizableSig   = seizableSig;\n\t\t} else if (msg.sender == sales[sale].arbiter) {\n\t\t\tarbiterSigs[sale].refundableSig = refundableSig;\n\t\t\tarbiterSigs[sale].seizableSig   = seizableSig;\n\t\t} else {\n\t\t\trevert();\n\t\t}\n\t}\n\n    /**\n     * @notice Provide secret to enable liquidator to claim collateral\n     * @param secret_ The secret provided by the borrower, lender, arbiter, or liquidator\n     */\n    function provideSecret(bytes32 sale, bytes32 secret_) external {\n        require(sales[sale].set);\n        bytes32 secretHash = sha256(abi.encodePacked(secret_));\n        revealed[secretHash] = true;\n        if (secretHash == secretHashes[sale].secretHashA) { secretHashes[sale].secretA = secret_; }\n        if (secretHash == secretHashes[sale].secretHashB) { secretHashes[sale].secretB = secret_; }\n        if (secretHash == secretHashes[sale].secretHashC) { secretHashes[sale].secretC = secret_; }\n        if (secretHash == secretHashes[sale].secretHashD) { secretHashes[sale].secretD = secret_; }\n    }\n\n    /**\n     * @dev Indicates that two of Secret A, Secret B, Secret C have been submitted\n     * @param sale The Id of the sale\n     */\n    function hasSecrets(bytes32 sale) public view returns (bool) {\n        uint8 numCorrectSecrets = 0;\n        if (revealed[secretHashes[sale].secretHashA]) { numCorrectSecrets += 1; }\n        if (revealed[secretHashes[sale].secretHashB]) { numCorrectSecrets += 1; }\n        if (revealed[secretHashes[sale].secretHashC]) { numCorrectSecrets += 1; }\n        return (numCorrectSecrets >= 2);\n    }\n\n    /**\n     * @notice Accept discount buy by liquidator and disperse funds to rightful parties\n     * @param sale The Id of the sale\n     */\n\tfunction accept(bytes32 sale) external {\n        require(!accepted(sale));\n        require(!off(sale));\n\t\trequire(hasSecrets(sale));\n\t\trequire(revealed[secretHashes[sale].secretHashD]);\n        sales[sale].accepted = true;\n\n        uint256 available = add(sales[sale].discountBuy, loans.repaid(sales[sale].loanIndex));\n        uint256 amount = min(available, loans.owedToLender(sales[sale].loanIndex));\n\n        require(token.transfer(sales[sale].lender, amount));\n        available = sub(available, amount);\n\n        if (available >= add(loans.fee(sales[sale].loanIndex), loans.penalty(sales[sale].loanIndex))) {\n            if (sales[sale].arbiter != address(0)) {\n                require(token.transfer(sales[sale].arbiter, loans.fee(sales[sale].loanIndex)));\n            }\n            require(token.approve(address(med), loans.penalty(sales[sale].loanIndex)));\n            med.fund(loans.penalty(sales[sale].loanIndex), token);\n            available = sub(available, add(loans.fee(sales[sale].loanIndex), loans.penalty(sales[sale].loanIndex)));\n        } else if (available > 0) {\n            require(token.approve(address(med), available));\n            med.fund(available, token);\n            available = 0;\n        }\n\n        if (available > 0) { require(token.transfer(sales[sale].borrower, available)); }\n\t}\n\n    /**\n     * @notice Refund discount buy to liquidator\n     * @param sale The Id of the sale\n     */\n\tfunction refund(bytes32 sale) external {\n        require(!accepted(sale));\n        require(!off(sale));\n\t\trequire(now > settlementExpiration(sale));\n\t\trequire(sales[sale].discountBuy > 0);\n        sales[sale].off = true;\n\t\trequire(token.transfer(sales[sale].liquidator, sales[sale].discountBuy));\n        if (next(sales[sale].loanIndex) == 3) {\n            require(token.transfer(sales[sale].borrower, loans.repaid(sales[sale].loanIndex)));\n        }\n\t}\n}",
  "sourcePath": "/Users/steven/src/github.com/AtomicLoans/atomicloans-eth-contracts/contracts/Sales.sol",
  "compiler": {
    "name": "solc",
    "version": "0.5.8+commit.23d335f2.Emscripten.clang"
  },
  "schemaVersion": "3.0.12",
  "updatedAt": "2019-09-29T00:28:59.655Z",
  "devdoc": {
    "methods": {
      "accept(bytes32)": {
        "params": {
          "sale": "The Id of the sale"
        }
      },
      "create(bytes32,address,address,address,address,bytes32,bytes32,bytes32,bytes32,bytes20)": {
        "details": "Creates a new sale (called by the Loans contract)",
        "params": {
          "arbiter": "The address of the arbiter",
          "borrower": "The address of the borrower",
          "lender": "The address of the lender",
          "liquidator": "The address of the liquidator",
          "loanIndex": "The Id of the Loan",
          "pubKeyHash": "The Bitcoin Public Key Hash of the Liquidator",
          "secretHashA": "The Secret Hash of the Borrower for the current sale number",
          "secretHashB": "The Secret Hash of the Lender for the current sale number",
          "secretHashC": "The Secret Hash of the Arbiter for the current sale number",
          "secretHashD": "the Secret Hash of the Liquidator"
        },
        "return": "sale The Id of the sale"
      },
      "hasSecrets(bytes32)": {
        "details": "Indicates that two of Secret A, Secret B, Secret C have been submitted",
        "params": {
          "sale": "The Id of the sale"
        }
      },
      "provideSecret(bytes32,bytes32)": {
        "params": {
          "secret_": "The secret provided by the borrower, lender, arbiter, or liquidator"
        }
      },
      "provideSig(bytes32,bytes,bytes)": {
        "params": {
          "refundableSig": "The Bitcoin refundable collateral signature",
          "sale": "The Id of the sale",
          "seizableSig": "The Bitcoin seizable collateral signature     *         Note: More info on the collateral swap script can be seen here: https://github.com/AtomicLoans/chainabstractionlayer-loans"
        }
      },
      "refund(bytes32)": {
        "params": {
          "sale": "The Id of the sale"
        }
      }
    }
  },
  "userdoc": {
    "methods": {
      "accept(bytes32)": {
        "notice": "Accept discount buy by liquidator and disperse funds to rightful parties"
      },
      "provideSecret(bytes32,bytes32)": {
        "notice": "Provide secret to enable liquidator to claim collateral"
      },
      "provideSig(bytes32,bytes,bytes)": {
        "notice": "Provide Bitcoin signatures for moving collateral to collateral swap script"
      },
      "refund(bytes32)": {
        "notice": "Refund discount buy to liquidator"
      }
    }
  }
}