{
    "contractName": "Funds",
    "abi": [
        {
            "constant": true,
            "inputs": [
                {
                    "name": "",
                    "type": "address"
                }
            ],
            "name": "secretHashIndex",
            "outputs": [
                {
                    "name": "",
                    "type": "uint256"
                }
            ],
            "payable": false,
            "stateMutability": "view",
            "type": "function"
        },
        {
            "constant": true,
            "inputs": [],
            "name": "maxUtilizationDelta",
            "outputs": [
                {
                    "name": "",
                    "type": "uint256"
                }
            ],
            "payable": false,
            "stateMutability": "view",
            "type": "function"
        },
        {
            "constant": true,
            "inputs": [],
            "name": "defaultArbiterFee",
            "outputs": [
                {
                    "name": "",
                    "type": "uint256"
                }
            ],
            "payable": false,
            "stateMutability": "view",
            "type": "function"
        },
        {
            "constant": true,
            "inputs": [],
            "name": "cTokenMarketLiquidity",
            "outputs": [
                {
                    "name": "",
                    "type": "uint256"
                }
            ],
            "payable": false,
            "stateMutability": "view",
            "type": "function"
        },
        {
            "constant": true,
            "inputs": [],
            "name": "DEFAULT_LIQUIDATION_RATIO",
            "outputs": [
                {
                    "name": "",
                    "type": "uint256"
                }
            ],
            "payable": false,
            "stateMutability": "view",
            "type": "function"
        },
        {
            "constant": true,
            "inputs": [],
            "name": "globalInterestRateNumerator",
            "outputs": [
                {
                    "name": "",
                    "type": "uint256"
                }
            ],
            "payable": false,
            "stateMutability": "view",
            "type": "function"
        },
        {
            "constant": true,
            "inputs": [
                {
                    "name": "",
                    "type": "address"
                }
            ],
            "name": "fundOwner",
            "outputs": [
                {
                    "name": "",
                    "type": "bytes32"
                }
            ],
            "payable": false,
            "stateMutability": "view",
            "type": "function"
        },
        {
            "constant": true,
            "inputs": [],
            "name": "lastGlobalInterestUpdated",
            "outputs": [
                {
                    "name": "",
                    "type": "uint256"
                }
            ],
            "payable": false,
            "stateMutability": "view",
            "type": "function"
        },
        {
            "constant": true,
            "inputs": [],
            "name": "decimals",
            "outputs": [
                {
                    "name": "",
                    "type": "uint256"
                }
            ],
            "payable": false,
            "stateMutability": "view",
            "type": "function"
        },
        {
            "constant": true,
            "inputs": [],
            "name": "MAX_UINT_256",
            "outputs": [
                {
                    "name": "",
                    "type": "uint256"
                }
            ],
            "payable": false,
            "stateMutability": "view",
            "type": "function"
        },
        {
            "constant": true,
            "inputs": [],
            "name": "DEFAULT_MIN_LOAN_AMT",
            "outputs": [
                {
                    "name": "",
                    "type": "uint256"
                }
            ],
            "payable": false,
            "stateMutability": "view",
            "type": "function"
        },
        {
            "constant": true,
            "inputs": [],
            "name": "getComptrollerAddress",
            "outputs": [
                {
                    "name": "",
                    "type": "address"
                }
            ],
            "payable": false,
            "stateMutability": "view",
            "type": "function"
        },
        {
            "constant": true,
            "inputs": [],
            "name": "utilizationInterestDivisor",
            "outputs": [
                {
                    "name": "",
                    "type": "uint256"
                }
            ],
            "payable": false,
            "stateMutability": "view",
            "type": "function"
        },
        {
            "constant": true,
            "inputs": [
                {
                    "name": "",
                    "type": "address"
                },
                {
                    "name": "",
                    "type": "uint256"
                }
            ],
            "name": "secretHashes",
            "outputs": [
                {
                    "name": "",
                    "type": "bytes32"
                }
            ],
            "payable": false,
            "stateMutability": "view",
            "type": "function"
        },
        {
            "constant": true,
            "inputs": [],
            "name": "globalInterestRate",
            "outputs": [
                {
                    "name": "",
                    "type": "uint256"
                }
            ],
            "payable": false,
            "stateMutability": "view",
            "type": "function"
        },
        {
            "constant": true,
            "inputs": [],
            "name": "comptroller",
            "outputs": [
                {
                    "name": "",
                    "type": "address"
                }
            ],
            "payable": false,
            "stateMutability": "view",
            "type": "function"
        },
        {
            "constant": true,
            "inputs": [],
            "name": "marketLiquidity",
            "outputs": [
                {
                    "name": "",
                    "type": "uint256"
                }
            ],
            "payable": false,
            "stateMutability": "view",
            "type": "function"
        },
        {
            "constant": true,
            "inputs": [],
            "name": "MAX_LOAN_LENGTH",
            "outputs": [
                {
                    "name": "",
                    "type": "uint256"
                }
            ],
            "payable": false,
            "stateMutability": "view",
            "type": "function"
        },
        {
            "constant": true,
            "inputs": [],
            "name": "minInterestRateNumerator",
            "outputs": [
                {
                    "name": "",
                    "type": "uint256"
                }
            ],
            "payable": false,
            "stateMutability": "view",
            "type": "function"
        },
        {
            "constant": true,
            "inputs": [],
            "name": "cToken",
            "outputs": [
                {
                    "name": "",
                    "type": "address"
                }
            ],
            "payable": false,
            "stateMutability": "view",
            "type": "function"
        },
        {
            "constant": true,
            "inputs": [
                {
                    "name": "",
                    "type": "bytes32"
                }
            ],
            "name": "funds",
            "outputs": [
                {
                    "name": "lender",
                    "type": "address"
                },
                {
                    "name": "minLoanAmt",
                    "type": "uint256"
                },
                {
                    "name": "maxLoanAmt",
                    "type": "uint256"
                },
                {
                    "name": "minLoanDur",
                    "type": "uint256"
                },
                {
                    "name": "maxLoanDur",
                    "type": "uint256"
                },
                {
                    "name": "fundExpiry",
                    "type": "uint256"
                },
                {
                    "name": "interest",
                    "type": "uint256"
                },
                {
                    "name": "penalty",
                    "type": "uint256"
                },
                {
                    "name": "fee",
                    "type": "uint256"
                },
                {
                    "name": "liquidationRatio",
                    "type": "uint256"
                },
                {
                    "name": "arbiter",
                    "type": "address"
                },
                {
                    "name": "balance",
                    "type": "uint256"
                },
                {
                    "name": "cBalance",
                    "type": "uint256"
                }
            ],
            "payable": false,
            "stateMutability": "view",
            "type": "function"
        },
        {
            "constant": true,
            "inputs": [
                {
                    "name": "",
                    "type": "bytes32"
                }
            ],
            "name": "bools",
            "outputs": [
                {
                    "name": "custom",
                    "type": "bool"
                },
                {
                    "name": "compoundEnabled",
                    "type": "bool"
                }
            ],
            "payable": false,
            "stateMutability": "view",
            "type": "function"
        },
        {
            "constant": true,
            "inputs": [],
            "name": "totalBorrow",
            "outputs": [
                {
                    "name": "",
                    "type": "uint256"
                }
            ],
            "payable": false,
            "stateMutability": "view",
            "type": "function"
        },
        {
            "constant": true,
            "inputs": [],
            "name": "fundIndex",
            "outputs": [
                {
                    "name": "",
                    "type": "uint256"
                }
            ],
            "payable": false,
            "stateMutability": "view",
            "type": "function"
        },
        {
            "constant": true,
            "inputs": [],
            "name": "DEFAULT_MIN_LOAN_DUR",
            "outputs": [
                {
                    "name": "",
                    "type": "uint256"
                }
            ],
            "payable": false,
            "stateMutability": "view",
            "type": "function"
        },
        {
            "constant": true,
            "inputs": [],
            "name": "DEFAULT_LIQUIDATION_PENALTY",
            "outputs": [
                {
                    "name": "",
                    "type": "uint256"
                }
            ],
            "payable": false,
            "stateMutability": "view",
            "type": "function"
        },
        {
            "constant": true,
            "inputs": [],
            "name": "DEFAULT_MAX_LOAN_AMT",
            "outputs": [
                {
                    "name": "",
                    "type": "uint256"
                }
            ],
            "payable": false,
            "stateMutability": "view",
            "type": "function"
        },
        {
            "constant": true,
            "inputs": [
                {
                    "name": "",
                    "type": "address"
                }
            ],
            "name": "pubKeys",
            "outputs": [
                {
                    "name": "",
                    "type": "bytes"
                }
            ],
            "payable": false,
            "stateMutability": "view",
            "type": "function"
        },
        {
            "constant": true,
            "inputs": [],
            "name": "NUM_SECONDS_IN_YEAR",
            "outputs": [
                {
                    "name": "",
                    "type": "uint256"
                }
            ],
            "payable": false,
            "stateMutability": "view",
            "type": "function"
        },
        {
            "constant": true,
            "inputs": [],
            "name": "interestUpdateDelay",
            "outputs": [
                {
                    "name": "",
                    "type": "uint256"
                }
            ],
            "payable": false,
            "stateMutability": "view",
            "type": "function"
        },
        {
            "constant": true,
            "inputs": [],
            "name": "maxInterestRateNumerator",
            "outputs": [
                {
                    "name": "",
                    "type": "uint256"
                }
            ],
            "payable": false,
            "stateMutability": "view",
            "type": "function"
        },
        {
            "constant": true,
            "inputs": [],
            "name": "lastUtilizationRatio",
            "outputs": [
                {
                    "name": "",
                    "type": "uint256"
                }
            ],
            "payable": false,
            "stateMutability": "view",
            "type": "function"
        },
        {
            "constant": true,
            "inputs": [
                {
                    "name": "x",
                    "type": "uint256"
                },
                {
                    "name": "y",
                    "type": "uint256"
                }
            ],
            "name": "cmul",
            "outputs": [
                {
                    "name": "z",
                    "type": "uint256"
                }
            ],
            "payable": false,
            "stateMutability": "pure",
            "type": "function"
        },
        {
            "constant": true,
            "inputs": [],
            "name": "token",
            "outputs": [
                {
                    "name": "",
                    "type": "address"
                }
            ],
            "payable": false,
            "stateMutability": "view",
            "type": "function"
        },
        {
            "constant": true,
            "inputs": [],
            "name": "tokenMarketLiquidity",
            "outputs": [
                {
                    "name": "",
                    "type": "uint256"
                }
            ],
            "payable": false,
            "stateMutability": "view",
            "type": "function"
        },
        {
            "inputs": [
                {
                    "name": "token_",
                    "type": "address"
                },
                {
                    "name": "decimals_",
                    "type": "uint256"
                }
            ],
            "payable": false,
            "stateMutability": "nonpayable",
            "type": "constructor"
        },
        {
            "anonymous": false,
            "inputs": [
                {
                    "indexed": false,
                    "name": "fund",
                    "type": "bytes32"
                }
            ],
            "name": "Create",
            "type": "event"
        },
        {
            "anonymous": false,
            "inputs": [
                {
                    "indexed": false,
                    "name": "fund",
                    "type": "bytes32"
                },
                {
                    "indexed": false,
                    "name": "amount_",
                    "type": "uint256"
                }
            ],
            "name": "Deposit",
            "type": "event"
        },
        {
            "anonymous": false,
            "inputs": [
                {
                    "indexed": false,
                    "name": "fund",
                    "type": "bytes32"
                },
                {
                    "indexed": false,
                    "name": "maxLoanDur_",
                    "type": "uint256"
                },
                {
                    "indexed": false,
                    "name": "fundExpiry_",
                    "type": "uint256"
                },
                {
                    "indexed": false,
                    "name": "arbiter_",
                    "type": "address"
                }
            ],
            "name": "Update",
            "type": "event"
        },
        {
            "anonymous": false,
            "inputs": [
                {
                    "indexed": false,
                    "name": "fund",
                    "type": "bytes32"
                },
                {
                    "indexed": false,
                    "name": "borrower_",
                    "type": "address"
                },
                {
                    "indexed": false,
                    "name": "amount_",
                    "type": "uint256"
                },
                {
                    "indexed": false,
                    "name": "collateral_",
                    "type": "uint256"
                },
                {
                    "indexed": false,
                    "name": "loanDur_",
                    "type": "uint256"
                },
                {
                    "indexed": false,
                    "name": "requestTimestamp_",
                    "type": "uint256"
                }
            ],
            "name": "Request",
            "type": "event"
        },
        {
            "anonymous": false,
            "inputs": [
                {
                    "indexed": false,
                    "name": "fund",
                    "type": "bytes32"
                },
                {
                    "indexed": false,
                    "name": "amount_",
                    "type": "uint256"
                },
                {
                    "indexed": false,
                    "name": "recipient_",
                    "type": "address"
                }
            ],
            "name": "Withdraw",
            "type": "event"
        },
        {
            "anonymous": false,
            "inputs": [
                {
                    "indexed": false,
                    "name": "fund",
                    "type": "bytes32"
                }
            ],
            "name": "EnableCompound",
            "type": "event"
        },
        {
            "anonymous": false,
            "inputs": [
                {
                    "indexed": false,
                    "name": "fund",
                    "type": "bytes32"
                }
            ],
            "name": "DisableCompound",
            "type": "event"
        },
        {
            "constant": false,
            "inputs": [
                {
                    "name": "loans_",
                    "type": "address"
                }
            ],
            "name": "setLoans",
            "outputs": [],
            "payable": false,
            "stateMutability": "nonpayable",
            "type": "function"
        },
        {
            "constant": false,
            "inputs": [
                {
                    "name": "cToken_",
                    "type": "address"
                },
                {
                    "name": "comptroller_",
                    "type": "address"
                }
            ],
            "name": "setCompound",
            "outputs": [],
            "payable": false,
            "stateMutability": "nonpayable",
            "type": "function"
        },
        {
            "constant": false,
            "inputs": [
                {
                    "name": "utilizationInterestDivisor_",
                    "type": "uint256"
                }
            ],
            "name": "setUtilizationInterestDivisor",
            "outputs": [],
            "payable": false,
            "stateMutability": "nonpayable",
            "type": "function"
        },
        {
            "constant": false,
            "inputs": [
                {
                    "name": "maxUtilizationDelta_",
                    "type": "uint256"
                }
            ],
            "name": "setMaxUtilizationDelta",
            "outputs": [],
            "payable": false,
            "stateMutability": "nonpayable",
            "type": "function"
        },
        {
            "constant": false,
            "inputs": [
                {
                    "name": "globalInterestRateNumerator_",
                    "type": "uint256"
                }
            ],
            "name": "setGlobalInterestRateNumerator",
            "outputs": [],
            "payable": false,
            "stateMutability": "nonpayable",
            "type": "function"
        },
        {
            "constant": false,
            "inputs": [
                {
                    "name": "globalInterestRate_",
                    "type": "uint256"
                }
            ],
            "name": "setGlobalInterestRate",
            "outputs": [],
            "payable": false,
            "stateMutability": "nonpayable",
            "type": "function"
        },
        {
            "constant": false,
            "inputs": [
                {
                    "name": "maxInterestRateNumerator_",
                    "type": "uint256"
                }
            ],
            "name": "setMaxInterestRateNumerator",
            "outputs": [],
            "payable": false,
            "stateMutability": "nonpayable",
            "type": "function"
        },
        {
            "constant": false,
            "inputs": [
                {
                    "name": "minInterestRateNumerator_",
                    "type": "uint256"
                }
            ],
            "name": "setMinInterestRateNumerator",
            "outputs": [],
            "payable": false,
            "stateMutability": "nonpayable",
            "type": "function"
        },
        {
            "constant": false,
            "inputs": [
                {
                    "name": "interestUpdateDelay_",
                    "type": "uint256"
                }
            ],
            "name": "setInterestUpdateDelay",
            "outputs": [],
            "payable": false,
            "stateMutability": "nonpayable",
            "type": "function"
        },
        {
            "constant": false,
            "inputs": [
                {
                    "name": "defaultArbiterFee_",
                    "type": "uint256"
                }
            ],
            "name": "setDefaultArbiterFee",
            "outputs": [],
            "payable": false,
            "stateMutability": "nonpayable",
            "type": "function"
        },
        {
            "constant": true,
            "inputs": [
                {
                    "name": "fund",
                    "type": "bytes32"
                }
            ],
            "name": "lender",
            "outputs": [
                {
                    "name": "",
                    "type": "address"
                }
            ],
            "payable": false,
            "stateMutability": "view",
            "type": "function"
        },
        {
            "constant": true,
            "inputs": [
                {
                    "name": "fund",
                    "type": "bytes32"
                }
            ],
            "name": "minLoanAmt",
            "outputs": [
                {
                    "name": "",
                    "type": "uint256"
                }
            ],
            "payable": false,
            "stateMutability": "view",
            "type": "function"
        },
        {
            "constant": true,
            "inputs": [
                {
                    "name": "fund",
                    "type": "bytes32"
                }
            ],
            "name": "maxLoanAmt",
            "outputs": [
                {
                    "name": "",
                    "type": "uint256"
                }
            ],
            "payable": false,
            "stateMutability": "view",
            "type": "function"
        },
        {
            "constant": true,
            "inputs": [
                {
                    "name": "fund",
                    "type": "bytes32"
                }
            ],
            "name": "minLoanDur",
            "outputs": [
                {
                    "name": "",
                    "type": "uint256"
                }
            ],
            "payable": false,
            "stateMutability": "view",
            "type": "function"
        },
        {
            "constant": true,
            "inputs": [
                {
                    "name": "fund",
                    "type": "bytes32"
                }
            ],
            "name": "maxLoanDur",
            "outputs": [
                {
                    "name": "",
                    "type": "uint256"
                }
            ],
            "payable": false,
            "stateMutability": "view",
            "type": "function"
        },
        {
            "constant": true,
            "inputs": [
                {
                    "name": "fund",
                    "type": "bytes32"
                }
            ],
            "name": "fundExpiry",
            "outputs": [
                {
                    "name": "",
                    "type": "uint256"
                }
            ],
            "payable": false,
            "stateMutability": "view",
            "type": "function"
        },
        {
            "constant": true,
            "inputs": [
                {
                    "name": "fund",
                    "type": "bytes32"
                }
            ],
            "name": "interest",
            "outputs": [
                {
                    "name": "",
                    "type": "uint256"
                }
            ],
            "payable": false,
            "stateMutability": "view",
            "type": "function"
        },
        {
            "constant": true,
            "inputs": [
                {
                    "name": "fund",
                    "type": "bytes32"
                }
            ],
            "name": "penalty",
            "outputs": [
                {
                    "name": "",
                    "type": "uint256"
                }
            ],
            "payable": false,
            "stateMutability": "view",
            "type": "function"
        },
        {
            "constant": true,
            "inputs": [
                {
                    "name": "fund",
                    "type": "bytes32"
                }
            ],
            "name": "fee",
            "outputs": [
                {
                    "name": "",
                    "type": "uint256"
                }
            ],
            "payable": false,
            "stateMutability": "view",
            "type": "function"
        },
        {
            "constant": true,
            "inputs": [
                {
                    "name": "fund",
                    "type": "bytes32"
                }
            ],
            "name": "liquidationRatio",
            "outputs": [
                {
                    "name": "",
                    "type": "uint256"
                }
            ],
            "payable": false,
            "stateMutability": "view",
            "type": "function"
        },
        {
            "constant": true,
            "inputs": [
                {
                    "name": "fund",
                    "type": "bytes32"
                }
            ],
            "name": "arbiter",
            "outputs": [
                {
                    "name": "",
                    "type": "address"
                }
            ],
            "payable": false,
            "stateMutability": "view",
            "type": "function"
        },
        {
            "constant": false,
            "inputs": [
                {
                    "name": "fund",
                    "type": "bytes32"
                }
            ],
            "name": "balance",
            "outputs": [
                {
                    "name": "",
                    "type": "uint256"
                }
            ],
            "payable": false,
            "stateMutability": "nonpayable",
            "type": "function"
        },
        {
            "constant": false,
            "inputs": [],
            "name": "cTokenExchangeRate",
            "outputs": [
                {
                    "name": "",
                    "type": "uint256"
                }
            ],
            "payable": false,
            "stateMutability": "nonpayable",
            "type": "function"
        },
        {
            "constant": true,
            "inputs": [
                {
                    "name": "fund",
                    "type": "bytes32"
                }
            ],
            "name": "custom",
            "outputs": [
                {
                    "name": "",
                    "type": "bool"
                }
            ],
            "payable": false,
            "stateMutability": "view",
            "type": "function"
        },
        {
            "constant": true,
            "inputs": [
                {
                    "name": "addr_",
                    "type": "address"
                }
            ],
            "name": "secretHashesCount",
            "outputs": [
                {
                    "name": "",
                    "type": "uint256"
                }
            ],
            "payable": false,
            "stateMutability": "view",
            "type": "function"
        },
        {
            "constant": false,
            "inputs": [
                {
                    "name": "maxLoanDur_",
                    "type": "uint256"
                },
                {
                    "name": "fundExpiry_",
                    "type": "uint256"
                },
                {
                    "name": "arbiter_",
                    "type": "address"
                },
                {
                    "name": "compoundEnabled_",
                    "type": "bool"
                },
                {
                    "name": "amount_",
                    "type": "uint256"
                }
            ],
            "name": "create",
            "outputs": [
                {
                    "name": "fund",
                    "type": "bytes32"
                }
            ],
            "payable": false,
            "stateMutability": "nonpayable",
            "type": "function"
        },
        {
            "constant": false,
            "inputs": [
                {
                    "name": "minLoanAmt_",
                    "type": "uint256"
                },
                {
                    "name": "maxLoanAmt_",
                    "type": "uint256"
                },
                {
                    "name": "minLoanDur_",
                    "type": "uint256"
                },
                {
                    "name": "maxLoanDur_",
                    "type": "uint256"
                },
                {
                    "name": "fundExpiry_",
                    "type": "uint256"
                },
                {
                    "name": "liquidationRatio_",
                    "type": "uint256"
                },
                {
                    "name": "interest_",
                    "type": "uint256"
                },
                {
                    "name": "penalty_",
                    "type": "uint256"
                },
                {
                    "name": "fee_",
                    "type": "uint256"
                },
                {
                    "name": "arbiter_",
                    "type": "address"
                },
                {
                    "name": "compoundEnabled_",
                    "type": "bool"
                },
                {
                    "name": "amount_",
                    "type": "uint256"
                }
            ],
            "name": "createCustom",
            "outputs": [
                {
                    "name": "fund",
                    "type": "bytes32"
                }
            ],
            "payable": false,
            "stateMutability": "nonpayable",
            "type": "function"
        },
        {
            "constant": false,
            "inputs": [
                {
                    "name": "fund",
                    "type": "bytes32"
                },
                {
                    "name": "amount_",
                    "type": "uint256"
                }
            ],
            "name": "deposit",
            "outputs": [],
            "payable": false,
            "stateMutability": "nonpayable",
            "type": "function"
        },
        {
            "constant": false,
            "inputs": [
                {
                    "name": "fund",
                    "type": "bytes32"
                },
                {
                    "name": "maxLoanDur_",
                    "type": "uint256"
                },
                {
                    "name": "fundExpiry_",
                    "type": "uint256"
                },
                {
                    "name": "arbiter_",
                    "type": "address"
                }
            ],
            "name": "update",
            "outputs": [],
            "payable": false,
            "stateMutability": "nonpayable",
            "type": "function"
        },
        {
            "constant": false,
            "inputs": [
                {
                    "name": "fund",
                    "type": "bytes32"
                },
                {
                    "name": "minLoanAmt_",
                    "type": "uint256"
                },
                {
                    "name": "maxLoanAmt_",
                    "type": "uint256"
                },
                {
                    "name": "minLoanDur_",
                    "type": "uint256"
                },
                {
                    "name": "maxLoanDur_",
                    "type": "uint256"
                },
                {
                    "name": "fundExpiry_",
                    "type": "uint256"
                },
                {
                    "name": "interest_",
                    "type": "uint256"
                },
                {
                    "name": "penalty_",
                    "type": "uint256"
                },
                {
                    "name": "fee_",
                    "type": "uint256"
                },
                {
                    "name": "liquidationRatio_",
                    "type": "uint256"
                },
                {
                    "name": "arbiter_",
                    "type": "address"
                }
            ],
            "name": "updateCustom",
            "outputs": [],
            "payable": false,
            "stateMutability": "nonpayable",
            "type": "function"
        },
        {
            "constant": false,
            "inputs": [
                {
                    "name": "fund",
                    "type": "bytes32"
                },
                {
                    "name": "borrower_",
                    "type": "address"
                },
                {
                    "name": "amount_",
                    "type": "uint256"
                },
                {
                    "name": "collateral_",
                    "type": "uint256"
                },
                {
                    "name": "loanDur_",
                    "type": "uint256"
                },
                {
                    "name": "requestTimestamp_",
                    "type": "uint256"
                },
                {
                    "name": "secretHashes_",
                    "type": "bytes32[8]"
                },
                {
                    "name": "pubKeyA_",
                    "type": "bytes"
                },
                {
                    "name": "pubKeyB_",
                    "type": "bytes"
                }
            ],
            "name": "request",
            "outputs": [
                {
                    "name": "loanIndex",
                    "type": "bytes32"
                }
            ],
            "payable": false,
            "stateMutability": "nonpayable",
            "type": "function"
        },
        {
            "constant": false,
            "inputs": [
                {
                    "name": "fund",
                    "type": "bytes32"
                },
                {
                    "name": "amount_",
                    "type": "uint256"
                }
            ],
            "name": "withdraw",
            "outputs": [],
            "payable": false,
            "stateMutability": "nonpayable",
            "type": "function"
        },
        {
            "constant": false,
            "inputs": [
                {
                    "name": "fund",
                    "type": "bytes32"
                },
                {
                    "name": "amount_",
                    "type": "uint256"
                },
                {
                    "name": "recipient_",
                    "type": "address"
                }
            ],
            "name": "withdrawTo",
            "outputs": [],
            "payable": false,
            "stateMutability": "nonpayable",
            "type": "function"
        },
        {
            "constant": false,
            "inputs": [
                {
                    "name": "secretHashes_",
                    "type": "bytes32[]"
                }
            ],
            "name": "generate",
            "outputs": [],
            "payable": false,
            "stateMutability": "nonpayable",
            "type": "function"
        },
        {
            "constant": false,
            "inputs": [
                {
                    "name": "pubKey_",
                    "type": "bytes"
                }
            ],
            "name": "setPubKey",
            "outputs": [],
            "payable": false,
            "stateMutability": "nonpayable",
            "type": "function"
        },
        {
            "constant": false,
            "inputs": [
                {
                    "name": "fund",
                    "type": "bytes32"
                }
            ],
            "name": "enableCompound",
            "outputs": [],
            "payable": false,
            "stateMutability": "nonpayable",
            "type": "function"
        },
        {
            "constant": false,
            "inputs": [
                {
                    "name": "fund",
                    "type": "bytes32"
                }
            ],
            "name": "disableCompound",
            "outputs": [],
            "payable": false,
            "stateMutability": "nonpayable",
            "type": "function"
        },
        {
            "constant": false,
            "inputs": [
                {
                    "name": "amount_",
                    "type": "uint256"
                }
            ],
            "name": "decreaseTotalBorrow",
            "outputs": [],
            "payable": false,
            "stateMutability": "nonpayable",
            "type": "function"
        },
        {
            "constant": false,
            "inputs": [],
            "name": "calcGlobalInterest",
            "outputs": [],
            "payable": false,
            "stateMutability": "nonpayable",
            "type": "function"
        },
        {
            "constant": true,
            "inputs": [
                {
                    "name": "amount_",
                    "type": "uint256"
                },
                {
                    "name": "rate_",
                    "type": "uint256"
                },
                {
                    "name": "loanDur_",
                    "type": "uint256"
                }
            ],
            "name": "calcInterest",
            "outputs": [
                {
                    "name": "",
                    "type": "uint256"
                }
            ],
            "payable": false,
            "stateMutability": "pure",
            "type": "function"
        },
        {
            "constant": true,
            "inputs": [
                {
                    "name": "value",
                    "type": "uint256"
                },
                {
                    "name": "addNow",
                    "type": "bool"
                }
            ],
            "name": "ensureNotZero",
            "outputs": [
                {
                    "name": "",
                    "type": "uint256"
                }
            ],
            "payable": false,
            "stateMutability": "view",
            "type": "function"
        }
    ],
    "bytecode": "0x60806040523480156200001157600080fd5b506040516200593038038062005930833981810160405260408110156200003757600080fd5b5080516020909101516001600160a01b038216620000a1576040517f08c379a0000000000000000000000000000000000000000000000000000000008152600401808060200182810382526031815260200180620058d36031913960400191505060405180910390fd5b80620000f9576040517f08c379a000000000000000000000000000000000000000000000000000000000815260040180806020018281038252602c81526020018062005904602c913960400191505060405180910390fd5b601a8054336001600160a01b031991821617909155601780549091166001600160a01b03841617905560188190556b22079eda249d327c677048096012556a4ed6b7353f71d0a0f402496011819055600e8190556a96d0176d4a7d47fc102c6f6013556a146cdd36157a9553e20f0a601455620151806015556b033b2e3ca31a444ebbf023c4601655620001b4906b033b2e3c9fd0803ce800000090620001a5906301e13380620001c0565b6001600160e01b03620001e116565b60105550620001f89050565b6000808211620001cf57600080fd5b818381620001d957fe5b049392505050565b80820182811015620001f257600080fd5b92915050565b6156cb80620002086000396000f3fe608060405234801561001057600080fd5b50600436106104545760003560e01c806376a0b16611610241578063d39a2c0c1161013b578063e91d14a4116100c3578063f61d02d311610087578063f61d02d314610de2578063f7837eb714610e51578063fa3bfb1714610e74578063fc0c546a14610e91578063fdd5aab114610e9957610454565b8063e91d14a414610cb9578063eae1c2cf14610cd6578063f05541be14610cde578063f0a422d014610ce6578063f59bf27314610cee57610454565b8063da2c5c5b1161010a578063da2c5c5b14610bec578063db9b376c14610bf4578063e179e77114610bfc578063e32d291314610c2e578063e493325614610c9c57610454565b8063d39a2c0c14610b0d578063d4785d2914610b33578063d73b906214610b50578063d9d0a2d114610bbe57610454565b8063a2c70b6b116101c9578063ba617eef1161018d578063ba617eef14610a30578063bf12f43d14610a4d578063ccb99d5514610a6a578063ce26d44b146105d0578063d1b8b4bf14610a7257610454565b8063a2c70b6b146109c9578063a5a70965146109e6578063a5fa6706146109ee578063a634baf214610a0b578063b2d6107114610a2857610454565b80638c5d5268116102105780638c5d52681461090f578063994871fa1461092c5780639d06bcea146109555780639fc3f02f1461097b578063a18e4a801461099857610454565b806376a0b166146108b05780637e25a221146108cd5780638285ef40146108ea57806389eba421146108f257610454565b806344b6ba95116103525780635fe3b567116102da57806369e527da1161029e57806369e527da1461077a5780636a29a620146107825780636a7bb32c1461081b5780636e1719a61461085b578063712d8e6a1461089357610454565b80635fe3b56714610735578063612ef80b1461073d5780636158153d14610745578063668064da1461074d578063689c76ef1461077257610454565b80634f9bc9d5116103215780634f9bc9d514610676578063513916741461067e578063516dbe24146106e457806354e39f90146107015780635b873ffa1461072d57610454565b806344b6ba95146105f557806347ca77161461062e5780634c9fb84a146106365780634ee9159a1461066e57610454565b80631beec294116103e05780632eb1ad73116103a45780632eb1ad73146105b8578063313ce567146105c057806333549b1b146105c85780633d41a26b146105d057806342febf0c146105d857610454565b80631beec294146105185780631de26e161461053557806321fd933b1461055857806326fc75901461057e57806327cdab061461059b57610454565b806304e9ef031161042757806304e9ef03146104db57806316df840a146104e35780631723cfa5146104eb5780631873fe50146104f35780631bb736971461051057610454565b806301937d0414610459578063031558e51461049157806303b69d1814610499578063040cf020146104b6575b600080fd5b61047f6004803603602081101561046f57600080fd5b50356001600160a01b0316610ea1565b60408051918252519081900360200190f35b61047f610eb3565b61047f600480360360208110156104af57600080fd5b5035610eb9565b6104d9600480360360408110156104cc57600080fd5b5080359060200135610f12565b005b61047f610f21565b61047f610f27565b61047f610f2d565b6104d96004803603602081101561050957600080fd5b5035610f3d565b61047f610fd6565b6104d96004803603602081101561052e57600080fd5b5035610fdc565b6104d96004803603604081101561054b57600080fd5b5080359060200135611066565b61047f6004803603602081101561056e57600080fd5b50356001600160a01b03166112eb565b61047f6004803603602081101561059457600080fd5b50356112fd565b61047f600480360360208110156105b157600080fd5b503561133f565b61047f611377565b61047f61137d565b6104d9611383565b61047f611495565b61047f600480360360208110156105ee57600080fd5b503561149b565b6106126004803603602081101561060b57600080fd5b50356114d3565b604080516001600160a01b039092168252519081900360200190f35b61047f6114f1565b6104d96004803603608081101561064c57600080fd5b50803590602081013590604081013590606001356001600160a01b03166114fe565b610612611648565b61047f611658565b6104d9600480360361016081101561069557600080fd5b5080359060208101359060408101359060608101359060808101359060a08101359060c08101359060e081013590610100810135906101208101359061014001356001600160a01b031661165e565b6104d9600480360360208110156106fa57600080fd5b503561177e565b61047f6004803603604081101561071757600080fd5b506001600160a01b038135169060200135611808565b61047f611836565b61061261183c565b61047f61184b565b61047f611851565b61047f6004803603604081101561076357600080fd5b50803590602001351515611859565b61047f611887565b61061261188d565b61079f6004803603602081101561079857600080fd5b503561189c565b604080516001600160a01b039e8f168152602081019d909d528c81019b909b5260608c019990995260808b019790975260a08a019590955260c089019390935260e08801919091526101008701526101208601529094166101408401526101608301939093526101808201929092529051908190036101a00190f35b61047f600480360360a081101561083157600080fd5b508035906020810135906001600160a01b0360408201351690606081013515159060800135611910565b6108786004803603602081101561087157600080fd5b5035611b45565b60408051921515835290151560208301528051918290030190f35b61047f600480360360208110156108a957600080fd5b5035611b63565b61047f600480360360208110156108c657600080fd5b5035611b78565b6104d9600480360360208110156108e357600080fd5b5035611bba565b61047f611e2a565b61047f6004803603602081101561090857600080fd5b5035611e30565b6104d96004803603602081101561092557600080fd5b5035611ef1565b61047f6004803603606081101561094257600080fd5b5080359060208101359060400135611f7b565b6104d96004803603602081101561096b57600080fd5b50356001600160a01b0316611fa1565b6106126004803603602081101561099157600080fd5b503561214d565b6109b5600480360360208110156109ae57600080fd5b5035612168565b604080519115158252519081900360200190f35b6104d9600480360360208110156109df57600080fd5b503561217d565b61047f612207565b6104d960048036036020811015610a0457600080fd5b503561220d565b61047f60048036036020811015610a2157600080fd5b50356124d2565b61047f61250a565b61047f60048036036020811015610a4657600080fd5b5035612510565b6104d960048036036020811015610a6357600080fd5b5035612526565b61047f6125b0565b610a9860048036036020811015610a8857600080fd5b50356001600160a01b03166125c0565b6040805160208082528351818301528351919283929083019185019080838360005b83811015610ad2578181015183820152602001610aba565b50505050905090810190601f168015610aff5780820380516001836020036101000a031916815260200191505b509250505060405180910390f35b61047f60048036036020811015610b2357600080fd5b50356001600160a01b031661265b565b6104d960048036036020811015610b4957600080fd5b5035612676565b6104d960048036036020811015610b6657600080fd5b810190602081018135600160201b811115610b8057600080fd5b820183602082011115610b9257600080fd5b803590602001918460208302840111600160201b83111715610bb357600080fd5b509092509050612700565b6104d960048036036040811015610bd457600080fd5b506001600160a01b0381358116916020013516612755565b61047f6128af565b61047f6128b7565b6104d960048036036060811015610c1257600080fd5b50803590602081013590604001356001600160a01b03166128bd565b6104d960048036036020811015610c4457600080fd5b810190602081018135600160201b811115610c5e57600080fd5b820183602082011115610c7057600080fd5b803590602001918460018302840111600160201b83111715610c9157600080fd5b509092509050612d0a565b6104d960048036036020811015610cb257600080fd5b5035612d24565b61047f60048036036020811015610ccf57600080fd5b5035612d7f565b61047f612db7565b61047f612dbd565b61047f612dc3565b61047f6004803603610200811015610d0557600080fd5b8135916001600160a01b036020820135169160408201359160608101359160808201359160a08101359160c0820191908101906101e081016101c0820135600160201b811115610d5457600080fd5b820183602082011115610d6657600080fd5b803590602001918460018302840111600160201b83111715610d8757600080fd5b919390929091602081019035600160201b811115610da457600080fd5b820183602082011115610db657600080fd5b803590602001918460018302840111600160201b83111715610dd757600080fd5b509092509050612e63565b61047f6004803603610180811015610df957600080fd5b5080359060208101359060408101359060608101359060808101359060a08101359060c08101359060e081013590610100810135906001600160a01b036101208201351690610140810135151590610160013561334b565b61047f60048036036040811015610e6757600080fd5b50803590602001356136a4565b6104d960048036036020811015610e8a57600080fd5b50356136d5565b61061261375f565b61047f61376e565b60036020526000908152604090205481565b60115481565b60008181526007602052604081205460ff1615610ee85750600081815260056020526040902060010154610f0d565b610f0a68015af1d78b58c40000610f026012601854613774565b600a0a613784565b90505b919050565b610f1d8282336128bd565b5050565b60165481565b600b5481565b6b04860d8812f0b3887800000081565b601a546001600160a01b03163314610f865760405162461bcd60e51b815260040180806020018281038252603e815260200180614fdd603e913960400191505060405180910390fd5b6b033b2e3ca43176a9d2dfd0a5811115610fd15760405162461bcd60e51b81526004018080602001828103825260458152602001806154da6045913960600191505060405180910390fd5b601655565b600e5481565b601a546001600160a01b031633146110255760405162461bcd60e51b8152600401808060200182810382526048815260200180614b7a6048913960600191505060405180910390fd5b806110615760405162461bcd60e51b815260040180806020018281038252604981526020018061505b6049913960600191505060405180910390fd5b600e55565b601754604080516323b872dd60e01b81523360048201523060248201526044810184905290516001600160a01b03909216916323b872dd916064808201926020929091908290030181600087803b1580156110c057600080fd5b505af11580156110d4573d6000803e3d6000fd5b505050506040513d60208110156110ea57600080fd5b50516111275760405162461bcd60e51b81526004018080602001828103825260288152602001806151186028913960400191505060405180910390fd5b600082815260076020526040902054610100900460ff161561124c57601754601954611160916001600160a01b0390811691168361379b565b60006111f861117783670de0b6b3a76400006138b5565b601960009054906101000a90046001600160a01b03166001600160a01b031663bd6d894d6040518163ffffffff1660e01b8152600401602060405180830381600087803b1580156111c757600080fd5b505af11580156111db573d6000803e3d6000fd5b505050506040513d60208110156111f157600080fd5b5051613784565b6000848152600560205260409020600c015490915061121790826138d9565b6000848152600560205260409020600c015561123283612168565b61124657611242600b54826138d9565b600b555b50611297565b6000828152600560205260409020600b015461126890826138d9565b6000838152600560205260409020600b015561128382612168565b61129757611293600a54826138d9565b600a555b6112a082612168565b6112ac576112ac611383565b604080518381526020810183905281517f98e783c3864bbf744a057ef605a2a61701c3b62b5ed68b3745b99094497daf1f929181900390910190a15050565b60066020526000908152604090205481565b60008181526007602052604081205460ff161561132c5750600081815260056020526040902060070154610f0d565b506b033b2e3cacd278c7503e82c1610f0d565b60008181526007602052604081205460ff161561136e5750600081815260056020526040902060080154610f0d565b50601654610f0d565b60095481565b60185481565b6113a1600a5461139c600b54611397612dc3565b6138e9565b6138d9565b600c556009546015546113b491906138d9565b421115611493576000600d546000146113e3576113e0600d546113db600c54600d546138d9565b613911565b90505b600f5481111561142e5760006113fb82600f54613774565b9050611425601354611420600e5461139c61141860115487613935565b601254613911565b613935565b600e5550611468565b600061143c600f5483613774565b905061146360145461145e600e5461145961141860115487613935565b613774565b613948565b600e55505b6114886b033b2e3c9fd0803ce800000061139c600e546301e13380613784565b60105542600955600f555b565b60001981565b60008181526007602052604081205460ff16156114ca5750600081815260056020526040902060020154610f0d565b50600019610f0d565b6000908152600560205260409020600a01546001600160a01b031690565b68015af1d78b58c4000081565b6115078461214d565b6001600160a01b0316336001600160a01b0316146115565760405162461bcd60e51b8152600401808060200182810382526031815260200180614e4e6031913960400191505060405180910390fd5b6312cc0300611566846000611859565b111580156115845750426312cc030001611581836001611859565b11155b6115bf5760405162461bcd60e51b815260040180806020018281038252603e815260200180614bfe603e913960400191505060405180910390fd5b60008481526005602081815260409283902060048101879055918201859055600a90910180546001600160a01b0385166001600160a01b031990911681179091558251878152918201869052818301859052606082015290517fbc2980147202467df8874a7f933ee11c59b6b1f6273647aca58bd18d349e67ac9181900360800190a150505050565b6000546001600160a01b03165b90565b60125481565b60008b81526007602052604090205460ff166116ab5760405162461bcd60e51b815260040180806020018281038252602e81526020018061551f602e913960400191505060405180910390fd5b898910156116ea5760405162461bcd60e51b815260040180806020018281038252604a815260200180614c7c604a913960600191505060405180910390fd5b876116f6886000611859565b10156117335760405162461bcd60e51b815260040180806020018281038252604a815260200180615376604a913960600191505060405180910390fd5b61173f8b8888846114fe565b506000998a5260056020526040909920600181019890985560028801969096556003870194909455600686015550506007830155600882015560090155565b601a546001600160a01b031633146117c75760405162461bcd60e51b815260040180806020018281038252604081526020018061501b6040913960400191505060405180910390fd5b806118035760405162461bcd60e51b8152600401808060200182810382526039815260200180614b416039913960400191505060405180910390fd5b601555565b6002602052816000526040600020818154811061182157fe5b90600052602060002001600091509150505481565b60105481565b6000546001600160a01b031681565b600c5481565b6312cc030081565b60008261187e5781156118735750426312cc030001611881565b506312cc0300611881565b50815b92915050565b60145481565b6019546001600160a01b031681565b600560208190526000918252604090912080546001820154600283015460038401546004850154958501546006860154600787015460088801546009890154600a8a0154600b8b0154600c909b01546001600160a01b039a8b169c999b989a9799989697959694959394929390911691908d565b336000818152600660209081526040808320548352600590915281205490916001600160a01b039091161415806119515750601a546001600160a01b031633145b61198c5760405162461bcd60e51b8152600401808060200182810382526034815260200180614eb86034913960400191505060405180910390fd5b6312cc030061199c876000611859565b1080156119b85750426312cc0300016119b6866001611859565b105b6119f35760405162461bcd60e51b815260040180806020018281038252603e815260200180614dbb603e913960400191505060405180910390fd5b601954600160a01b900460ff16611a41578215611a415760405162461bcd60e51b81526004018080602001828103825260428152602001806151f66042913960600191505060405180910390fd5b611a4e60085460016138d9565b6008819055600081815260056020526040812080546001600160a01b03191633179055909150611a7f908790611859565b600082815260056020526040902060040155611a9c856001611859565b600082815260056020818152604080842092830194909455600a90910180546001600160a01b0319166001600160a01b03891617905560078152828220805461ffff1916610100881515021790556008543383526006909152919020558115611b0957611b098183611066565b6040805182815290517fa7857d7da6974b0157f3bf7dd25a745bd7d81d845bb525ee0b316a87541a5c319181900360200190a195945050505050565b60076020526000908152604090205460ff8082169161010090041682565b60009081526005602052604090206004015490565b60008181526007602052604081205460ff1615611ba75750600081815260056020526040902060090154610f0d565b506b04860d8812f0b38878000000610f0d565b600081815260076020526040902054610100900460ff16611c0c5760405162461bcd60e51b81526004018080602001828103825260338152602001806149f86033913960400191505060405180910390fd5b611c158161214d565b6001600160a01b0316336001600160a01b031614611c645760405162461bcd60e51b815260040180806020018281038252603b815260200180614d80603b913960400191505060405180910390fd5b601754604080516370a0823160e01b815230600482015290516000926001600160a01b0316916370a08231916024808301926020929190829003018186803b158015611caf57600080fd5b505afa158015611cc3573d6000803e3d6000fd5b505050506040513d6020811015611cd957600080fd5b50516019546000848152600560205260409020600c0154919250611d08916001600160a01b0390911690613958565b601754604080516370a0823160e01b815230600482015290516000926001600160a01b0316916370a08231916024808301926020929190829003018186803b158015611d5357600080fd5b505afa158015611d67573d6000803e3d6000fd5b505050506040513d6020811015611d7d57600080fd5b505190506000611d8d8284613774565b9050611d9b600a54826138d9565b600a55600b546000858152600560205260409020600c0154611dbd9190613774565b600b9081556000858152600760209081526040808320805461ff001916905560058252808320600c81019390935591909201839055805186815290517ffb6e0a1c4958f3e250db013b5035dc019d1e6426df7b4a40a5d0229a336aad53929181900390910190a150505050565b600d5481565b600081815260076020526040812054610100900460ff1615611ed9576000828152600560209081526040808320600c0154601954825163bd6d894d60e01b81529251610f0a9592946001600160a01b039092169363bd6d894d9360048083019493928390030190829087803b158015611ea857600080fd5b505af1158015611ebc573d6000803e3d6000fd5b505050506040513d6020811015611ed257600080fd5b50516138e9565b506000818152600560205260409020600b0154610f0d565b601a546001600160a01b03163314611f3a5760405162461bcd60e51b815260040180806020018281038252603f815260200180615238603f913960400191505060405180910390fd5b80611f765760405162461bcd60e51b81526004018080602001828103825260378152602001806152c16037913960400191505060405180910390fd5b601055565b6000611f99611f9385611f8e8686613aa8565b613b02565b85613774565b949350505050565b601a546001600160a01b03163314611fea5760405162461bcd60e51b8152600401808060200182810382526032815260200180614e1c6032913960400191505060405180910390fd5b6001546001600160a01b0316156120325760405162461bcd60e51b8152600401808060200182810382526032815260200180614cc66032913960400191505060405180910390fd5b6001600160a01b0381166120775760405162461bcd60e51b815260040180806020018281038252602e815260200180615473602e913960400191505060405180910390fd5b600180546001600160a01b0319166001600160a01b038381169182179092556017546040805163095ea7b360e01b8152600481019390935260001960248401525192169163095ea7b3916044808201926020929091908290030181600087803b1580156120e357600080fd5b505af11580156120f7573d6000803e3d6000fd5b505050506040513d602081101561210d57600080fd5b505161214a5760405162461bcd60e51b81526004018080602001828103825260298152602001806149986029913960400191505060405180910390fd5b50565b6000908152600560205260409020546001600160a01b031690565b60009081526007602052604090205460ff1690565b601a546001600160a01b031633146121c65760405162461bcd60e51b81526004018080602001828103825260408152602001806155736040913960400191505060405180910390fd5b806122025760405162461bcd60e51b8152600401808060200182810382526039815260200180614e7f6039913960400191505060405180910390fd5b601155565b60085481565b601954600160a01b900460ff166122555760405162461bcd60e51b815260040180806020018281038252604a815260200180615277604a913960600191505060405180910390fd5b600081815260076020526040902054610100900460ff16156122a85760405162461bcd60e51b81526004018080602001828103825260318152602001806149676031913960400191505060405180910390fd5b6122b18161214d565b6001600160a01b0316336001600160a01b0316146123005760405162461bcd60e51b81526004018080602001828103825260398152602001806154a16039913960400191505060405180910390fd5b601954604080516370a0823160e01b815230600482015290516000926001600160a01b0316916370a08231916024808301926020929190829003018186803b15801561234b57600080fd5b505afa15801561235f573d6000803e3d6000fd5b505050506040513d602081101561237557600080fd5b50516017546019546000858152600560205260409020600b01549293506123ab926001600160a01b03928316929091169061379b565b601954604080516370a0823160e01b815230600482015290516000926001600160a01b0316916370a08231916024808301926020929190829003018186803b1580156123f657600080fd5b505afa15801561240a573d6000803e3d6000fd5b505050506040513d602081101561242057600080fd5b5051905060006124308284613774565b600a546000868152600560205260409020600b015491925061245191613774565b600a55600b5461246190826138d9565b600b9081556000858152600760209081526040808320805461ff0019166101001790556005825280832093840192909255600c909201839055805186815290517f43c40c3c72eec13a64775a3231f52699c8ba28e57131e7343e4f57734d8a3ce4929181900390910190a150505050565b60008181526007602052604081205460ff16156125015750600081815260056020526040902060030154610f0d565b50615460610f0d565b61546081565b6000908152600560208190526040909120015490565b601a546001600160a01b0316331461256f5760405162461bcd60e51b8152600401808060200182810382526047815260200180614a2b6047913960600191505060405180910390fd5b806125ab5760405162461bcd60e51b81526004018080602001828103825260478152602001806149206047913960600191505060405180910390fd5b601255565b6b033b2e3cacd278c7503e82c181565b60046020908152600091825260409182902080548351601f6002600019610100600186161502019093169290920491820184900484028101840190945280845290918301828280156126535780601f1061262857610100808354040283529160200191612653565b820191906000526020600020905b81548152906001019060200180831161263657829003601f168201915b505050505081565b6001600160a01b031660009081526002602052604090205490565b601a546001600160a01b031633146126bf5760405162461bcd60e51b8152600401808060200182810382526045815260200180614cf86045913960600191505060405180910390fd5b806126fb5760405162461bcd60e51b8152600401808060200182810382526043815260200180614a726043913960600191505060405180910390fd5b601455565b60005b818110156127505733600090815260026020526040902083838381811061272657fe5b83546001808201865560009586526020958690209290950293909301359201919091555001612703565b505050565b601a546001600160a01b0316331461279e5760405162461bcd60e51b8152600401808060200182810382526040815260200180614c3c6040913960400191505060405180910390fd5b601954600160a01b900460ff16156127e75760405162461bcd60e51b8152600401808060200182810382526038815260200180614f2b6038913960400191505060405180910390fd5b6001600160a01b03821661282c5760405162461bcd60e51b81526004018080602001828103825260328152602001806155b36032913960400191505060405180910390fd5b6001600160a01b0381166128715760405162461bcd60e51b81526004018080602001828103825260378152602001806149c16037913960400191505060405180910390fd5b60198054600080546001600160a01b039485166001600160a01b03199182161790915560ff60a01b199390941693169290921716600160a01b179055565b6301e1338081565b60155481565b6128c68361214d565b6001600160a01b0316336001600160a01b0316146129155760405162461bcd60e51b81526004018080602001828103825260358152602001806153fb6035913960400191505060405180910390fd5b8161291f84611e30565b101561295c5760405162461bcd60e51b815260040180806020018281038252602681526020018061554d6026913960400191505060405180910390fd5b600083815260076020526040902054610100900460ff1615612ba057601954604080516370a0823160e01b815230600482015290516000926001600160a01b0316916370a08231916024808301926020929190829003018186803b1580156129c357600080fd5b505afa1580156129d7573d6000803e3d6000fd5b505050506040513d60208110156129ed57600080fd5b5051601954909150612a08906001600160a01b031684613b32565b601954604080516370a0823160e01b815230600482015290516000926001600160a01b0316916370a08231916024808301926020929190829003018186803b158015612a5357600080fd5b505afa158015612a67573d6000803e3d6000fd5b505050506040513d6020811015612a7d57600080fd5b505190506000612a8d8383613774565b6000878152600560205260409020600c0154909150612aac9082613774565b6000878152600560209081526040808320600c0193909355601754835163a9059cbb60e01b81526001600160a01b038981166004830152602482018b90529451949091169363a9059cbb93604480840194938390030190829087803b158015612b1457600080fd5b505af1158015612b28573d6000803e3d6000fd5b505050506040513d6020811015612b3e57600080fd5b5051612b7b5760405162461bcd60e51b81526004018080602001828103825260278152602001806151406027913960400191505060405180910390fd5b612b8486612168565b612b9857612b94600b5482613774565b600b555b505050612ca8565b6000838152600560205260409020600b0154612bbc9083613774565b6000848152600560209081526040808320600b0193909355601754835163a9059cbb60e01b81526001600160a01b038681166004830152602482018890529451949091169363a9059cbb93604480840194938390030190829087803b158015612c2457600080fd5b505af1158015612c38573d6000803e3d6000fd5b505050506040513d6020811015612c4e57600080fd5b5051612c8b5760405162461bcd60e51b81526004018080602001828103825260278152602001806151406027913960400191505060405180910390fd5b612c9483612168565b612ca857612ca4600a5483613774565b600a555b612cb183612168565b612cbd57612cbd611383565b60408051848152602081018490526001600160a01b0383168183015290517f181177e6e9bbf7d7a45604cf4fdb0444641e20905d8d4daf2a7863036e56dc159181900360600190a1505050565b336000908152600460205260409020612750908383614869565b6001546001600160a01b03163314612d6d5760405162461bcd60e51b8152600401808060200182810382526043815260200180614d3d6043913960600191505060405180910390fd5b612d79600d5482613774565b600d5550565b60008181526007602052604081205460ff1615612dae5750600081815260056020526040902060060154610f0d565b50601054610f0d565b60135481565b600f5481565b601954600090600160a01b900460ff1615612e5b57601960009054906101000a90046001600160a01b03166001600160a01b031663bd6d894d6040518163ffffffff1660e01b8152600401602060405180830381600087803b158015612e2857600080fd5b505af1158015612e3c573d6000803e3d6000fd5b505050506040513d6020811015612e5257600080fd5b50519050611655565b506000611655565b6000612e6e8c61214d565b6001600160a01b0316336001600160a01b031614612ebd5760405162461bcd60e51b81526004018080602001828103825260398152602001806150df6039913960400191505060405180910390fd5b612ec68c611e30565b8a1115612f045760405162461bcd60e51b8152600401808060200182810382526023815260200180614df96023913960400191505060405180910390fd5b612f0d8c610eb9565b8a1015612f4b5760405162461bcd60e51b815260040180806020018281038252603f815260200180614eec603f913960400191505060405180910390fd5b612f548c61149b565b8a1115612f925760405162461bcd60e51b815260040180806020018281038252603c815260200180614bc2603c913960400191505060405180910390fd5b612f9b8c6124d2565b881015612fd95760405162461bcd60e51b815260040180806020018281038252603c81526020018061565b603c913960400191505060405180910390fd5b612feb612fe58d612510565b42613774565b88111580156130025750612ffe8c611b63565b8811155b61303d5760405162461bcd60e51b8152600401808060200182810382526044815260200180614ab56044913960600191505060405180910390fd5b6001600160a01b038b166130825760405162461bcd60e51b8152600401808060200182810382526030815260200180614f636030913960400191505060405180910390fd5b8535158015906130955750602086013515155b6130d05760405162461bcd60e51b815260040180806020018281038252603b8152602001806155e5603b913960400191505060405180910390fd5b6040860135158015906130e65750606086013515155b6131215760405162461bcd60e51b815260040180806020018281038252603b815260200180615620603b913960400191505060405180910390fd5b608086013515801590613137575060a086013515155b6131725760405162461bcd60e51b815260040180806020018281038252603b8152602001806153c0603b913960400191505060405180910390fd5b60c086013515801590613188575060e086013515155b6131c35760405162461bcd60e51b815260040180806020018281038252603b8152602001806150a4603b913960400191505060405180910390fd5b6131d18c8c8c8c8c8c613ce5565b905061326f8c8288600880602002604051908101604052809291908260086020028082843760009201919091525050604080516020601f8c018190048102820181019092528a815291508a908a908190840183828082843760009201919091525050604080516020601f8c018190048102820181019092528a815292508a9150899081908401838280828437600092019190915250613e7a92505050565b6132798c8b614159565b6001546040805163bf14c11960e01b81526004810184905290516001600160a01b039092169163bf14c1199160248082019260009290919082900301818387803b1580156132c657600080fd5b505af11580156132da573d6000803e3d6000fd5b5050604080518f81526001600160a01b038f1660208201528082018e9052606081018d9052608081018c905260a081018b905290517ff494fa7145682762e6918aefe85748818b2f1092c6f8c0a3284bcb18506416d593509081900360c0019150a19b9a5050505050505050505050565b336000818152600660209081526040808320548352600590915281205490916001600160a01b0390911614158061338c5750601a546001600160a01b031633145b6133c75760405162461bcd60e51b8152600401808060200182810382526034815260200180614eb86034913960400191505060405180910390fd5b6312cc03006133d78b6000611859565b1080156133f35750426312cc0300016133f18a6001611859565b105b61342e5760405162461bcd60e51b81526004018080602001828103825260448152602001806152f86044913960600191505060405180910390fd5b8c8c101561346d5760405162461bcd60e51b815260040180806020018281038252604a8152602001806151ac604a913960600191505060405180910390fd5b8a6134798b6000611859565b10156134b65760405162461bcd60e51b815260040180806020018281038252604a815260200180614f93604a913960600191505060405180910390fd5b601954600160a01b900460ff166135045782156135045760405162461bcd60e51b8152600401808060200182810382526048815260200180614af96048913960600191505060405180910390fd5b61351160085460016138d9565b60088190555060085460001b9050336005600083815260200190815260200160002060000160006101000a8154816001600160a01b0302191690836001600160a01b031602179055508c60056000838152602001908152602001600020600101819055508b60056000838152602001908152602001600020600201819055508a60056000838152602001908152602001600020600301819055506135b68a6000611859565b6000828152600560205260409020600401556135d3896001611859565b60008281526005602081815260408084209283019490945560068083018c905560078084018c905560088085018c9055600985018f9055600a90940180546001600160a01b0319166001600160a01b038c161790558252848420805460ff191660011761ff0019166101008a1515021790559154338452919052919020558115613661576136618183611066565b6040805182815290517fa7857d7da6974b0157f3bf7dd25a745bd7d81d845bb525ee0b316a87541a5c319181900360200190a19c9b505050505050505050505050565b60006305f5e1006136c66136b885856138b5565b60026305f5e1005b046138d9565b816136cd57fe5b049392505050565b601a546001600160a01b0316331461371e5760405162461bcd60e51b81526004018080602001828103825260458152602001806151676045913960600191505060405180910390fd5b8061375a5760405162461bcd60e51b81526004018080602001828103825260438152602001806154306043913960600191505060405180910390fd5b601355565b6017546001600160a01b031681565b600a5481565b8082038281111561188157600080fd5b600080821161379257600080fd5b8183816136cd57fe5b6137a48261434f565b604080516370a0823160e01b8152306004820152905184916000916001600160a01b038416916370a08231916024808301926020929190829003018186803b1580156137ef57600080fd5b505afa158015613803573d6000803e3d6000fd5b505050506040513d602081101561381957600080fd5b50519050828111156138285750815b836138348683836145d2565b806001600160a01b031663a0712d68836040518263ffffffff1660e01b815260040180828152602001915050602060405180830381600087803b15801561387a57600080fd5b505af115801561388e573d6000803e3d6000fd5b505050506040513d60208110156138a457600080fd5b5051156138ad57fe5b505050505050565b60008115806138d0575050808202828282816138cd57fe5b04145b61188157600080fd5b8082018281101561188157600080fd5b6000670de0b6b3a76400006136c661390185856138b5565b6002670de0b6b3a76400006136c0565b6000816136c661392d856b033b2e3c9fd0803ce80000006138b5565b6002856136c0565b60008183111561187e57815b9392505050565b60008183101561187e5781613941565b604080516370a0823160e01b8152306004820152905183916000916001600160a01b038416916370a08231916024808301926020929190829003018186803b1580156139a357600080fd5b505afa1580156139b7573d6000803e3d6000fd5b505050506040513d60208110156139cd57600080fd5b50519050828111156139dc5750815b6139e78482866145d2565b816001600160a01b031663db006a75826040518263ffffffff1660e01b815260040180828152602001915050602060405180830381600087803b158015613a2d57600080fd5b505af1158015613a41573d6000803e3d6000fd5b505050506040513d6020811015613a5757600080fd5b505115613aa2576040805162461bcd60e51b8152602060048201526014602482015273736f6d657468696e672077656e742077726f6e6760601b604482015290519081900360640190fd5b50505050565b600060028206613ac4576b033b2e3c9fd0803ce8000000613ac6565b825b90506002820491505b811561188157613adf8384613b02565b92506002820615613af757613af48184613b02565b90505b600282049150613acf565b60006b033b2e3c9fd0803ce80000006136c6613b1e85856138b5565b60026b033b2e3c9fd0803ce80000006136c0565b81613b538174446c3b15f9926687d2c40534fdb564000000000000816145d2565b604080516370a0823160e01b815230600482015290516000916001600160a01b038416916370a0823191602480820192602092909190829003018186803b158015613b9d57600080fd5b505afa158015613bb1573d6000803e3d6000fd5b505050506040513d6020811015613bc757600080fd5b50516040805163bd6d894d60e01b81529051919250600091613c169184916001600160a01b0387169163bd6d894d91600480830192602092919082900301818987803b158015611ea857600080fd5b905083811115613c235750825b826001600160a01b031663852a12e3826040518263ffffffff1660e01b815260040180828152602001915050602060405180830381600087803b158015613c6957600080fd5b505af1158015613c7d573d6000803e3d6000fd5b505050506040513d6020811015613c9357600080fd5b505115613cde576040805162461bcd60e51b8152602060048201526014602482015273736f6d657468696e672077656e742077726f6e6760601b604482015290519081900360640190fd5b5050505050565b60015460408051606081019091526001600160a01b03878116825260009216906310375921904286019060208101613d1c8c61214d565b6001600160a01b03908116825260008d815260056020908152604091829020600a015490921692820192909252815160e081019092528a82528101613d6a8b613d648f612d7f565b8b611f7b565b8152602001613d7c8b613d648f6112fd565b8152602001613d8e8b613d648f61133f565b8152602001898152602001613da28d611b78565b81526020018790526040516001600160e01b031960e086901b168152600481018481528d9160240184606080838360005b83811015613deb578181015183820152602001613dd3565b5050505090500183600760200280838360005b83811015613e16578181015183820152602001613dfe565b50505050905001828152602001945050505050602060405180830381600087803b158015613e4357600080fd5b505af1158015613e57573d6000803e3d6000fd5b505050506040513d6020811015613e6d57600080fd5b5051979650505050505050565b600154604080516080808201835286518252602080880151818401528784015183850152606080890151908401528351808301855291880151825260a0880151908201526001600160a01b039093169263ee79b12b928892919081018860066020020151815260200188600760088110613ef057fe5b60200201519052613f08613f038b6114d3565b6146b2565b878760046000613f178f6114d3565b6001600160a01b03166001600160a01b031681526020019081526020016000206040518863ffffffff1660e01b81526004018088815260200187600460200280838360005b83811015613f74578181015183820152602001613f5c565b5050505090500186600460200280838360005b83811015613f9f578181015183820152602001613f87565b5050505090500185600460200280838360005b83811015613fca578181015183820152602001613fb2565b50505050905001806020018060200180602001848103845287818151815260200191508051906020019080838360005b83811015614012578181015183820152602001613ffa565b50505050905090810190601f16801561403f5780820380516001836020036101000a031916815260200191505b50848103835286518152865160209182019188019080838360005b8381101561407257818101518382015260200161405a565b50505050905090810190601f16801561409f5780820380516001836020036101000a031916815260200191505b508481038252855460026000196101006001841615020190911604808252602090910190869080156141125780601f106140e757610100808354040283529160200191614112565b820191906000526020600020905b8154815290600101906020018083116140f557829003601f168201915b50509a5050505050505050505050600060405180830381600087803b15801561413a57600080fd5b505af115801561414e573d6000803e3d6000fd5b505050505050505050565b600082815260076020526040902054610100900460ff16156142e057601954604080516370a0823160e01b815230600482015290516000926001600160a01b0316916370a08231916024808301926020929190829003018186803b1580156141c057600080fd5b505afa1580156141d4573d6000803e3d6000fd5b505050506040513d60208110156141ea57600080fd5b5051601954909150614205906001600160a01b031683613b32565b601954604080516370a0823160e01b815230600482015290516000926001600160a01b0316916370a08231916024808301926020929190829003018186803b15801561425057600080fd5b505afa158015614264573d6000803e3d6000fd5b505050506040513d602081101561427a57600080fd5b50519050600061428a8383613774565b6000868152600560205260409020600c01549091506142a99082613774565b6000868152600560205260409020600c01556142c485612168565b6142d8576142d4600b5482613774565b600b555b50505061432b565b6000828152600560205260409020600b01546142fc9082613774565b6000838152600560205260409020600b015561431782612168565b61432b57614327600a5482613774565b600a555b61433482612168565b610f1d57614344600d54826138d9565b600d55610f1d611383565b6000614359611648565b60408051632aff3bff60e21b815230600482015290519192506060916001600160a01b0384169163abfceffc916024808301926000929190829003018186803b1580156143a557600080fd5b505afa1580156143b9573d6000803e3d6000fd5b505050506040513d6000823e601f3d908101601f1916820160405260208110156143e257600080fd5b810190808051600160201b8111156143f957600080fd5b8201602081018481111561440c57600080fd5b81518560208202830111600160201b8211171561442857600080fd5b509094506000935083925050505b825181101561447957846001600160a01b031683828151811061445557fe5b60200260200101516001600160a01b0316141561447157600191505b600101614436565b5080613aa2576040805160018082528183019092526060916020808301908038833901905050905084816000815181106144af57fe5b6001600160a01b03928316602091820292909201810191909152604051631853304760e31b8152600481018281528451602483015284519388169363c29982389386938392604490910191858101910280838360005b8381101561451d578181015183820152602001614505565b5050505090500192505050600060405180830381600087803b15801561454257600080fd5b505af1158015614556573d6000803e3d6000fd5b505050506040513d6000823e601f3d908101601f19168201604052602081101561457f57600080fd5b810190808051600160201b81111561459657600080fd5b820160208101848111156145a957600080fd5b81518560208202830111600160201b821117156145c557600080fd5b5050505050505050505050565b60408051636eb1769f60e11b81523060048201526001600160a01b038381166024830152915185926000929084169163dd62ed3e91604480820192602092909190829003018186803b15801561462757600080fd5b505afa15801561463b573d6000803e3d6000fd5b505050506040513d602081101561465157600080fd5b5051905080841115613cde576040805163095ea7b360e01b81526001600160a01b038581166004830152600160ff1b602483015291519184169163095ea7b39160448082019260009290919082900301818387803b15801561413a57600080fd5b6146ba6148e7565b6001600160a01b0382166000908152600360205260409020546146de9060046138d9565b6001600160a01b03831660009081526003602052604090208190556147028361265b565b101561473f5760405162461bcd60e51b815260040180806020018281038252603a81526020018061533c603a913960400191505060405180910390fd5b604080516080810182526001600160a01b0384166000908152600260209081528382206003909152929020549091829161477a906004613774565b8154811061478457fe5b600091825260208083209091015483526001600160a01b03861682526002815260408083206003808452919093205493909101926147c191613774565b815481106147cb57fe5b600091825260208083209091015483526001600160a01b03861682526002808252604080842060038452932054939091019261480691613774565b8154811061481057fe5b600091825260208083209091015483526001600160a01b03861682526002815260408083206003835292205492019161484a906001613774565b8154811061485457fe5b90600052602060002001548152509050919050565b828054600181600116156101000203166002900490600052602060002090601f016020900481019282601f106148aa5782800160ff198235161785556148d7565b828001600101855582156148d7579182015b828111156148d75782358255916020019190600101906148bc565b506148e3929150614905565b5090565b60405180608001604052806004906020820280388339509192915050565b61165591905b808211156148e3576000815560010161490b56fe46756e64732e7365745574696c697a6174696f6e496e74657265737444697669736f723a207574696c697a6174696f6e496e74657265737444697669736f72206973207a65726f46756e64732e656e61626c65436f6d706f756e643a20436f6d706f756e6420697320616c726561647920656e61626c656446756e64732e7365744c6f616e733a20546f6b656e732063616e6e6f7420626520617070726f76656446756e64732e736574436f6d706f756e643a20636f6d7074726f6c6c65722061646472657373206d757374206265206e6f6e2d7a65726f46756e64732e64697361626c65436f6d706f756e643a20436f6d706f756e6420697320616c72656164792064697361626c656446756e64732e7365745574696c697a6174696f6e496e74657265737444697669736f723a204f6e6c7920746865206465706c6f7965722063616e20706572666f726d207468697346756e64732e7365744d696e496e746572657374526174654e756d657261746f723a206d696e496e746572657374526174654e756d657261746f72206973207a65726f46756e64732e726571756573743a204c6f616e206475726174696f6e206d757374206265206c657373207468616e206d61784c6f616e44757220616e642065787069727946756e64732e637265617465437573746f6d3a2043616e6e6f7420656e61626c6520436f6d706f756e6420617320697420686173206e6f74206265656e20636f6e6669677572656446756e64732e736574496e74657265737455706461746544656c61793a20696e74657265737455706461746544656c6179206973207a65726f46756e64732e736574476c6f62616c496e746572657374526174654e756d657261746f723a204f6e6c7920746865206465706c6f7965722063616e20706572666f726d207468697346756e64732e726571756573743a20416d6f756e7420726571756573746564206d757374206265206c657373207468616e206d61784c6f616e416d7446756e64732e7570646174653a2066756e6445787069727920616e64206d61784c6f616e4475722063616e6e6f742065786365656420313020796561727346756e64732e736574436f6d706f756e643a204f6e6c7920746865206465706c6f7965722063616e20656e61626c6520436f6d706f756e64206c656e64696e6746756e64732e757064617465437573746f6d3a206d61784c6f616e416d74206d7573742062652067726561746572207468616e206f7220657175616c20746f206d696e4c6f616e416d7446756e64732e7365744c6f616e733a204c6f616e7320616464726573732068617320616c7265616479206265656e2073657446756e64732e7365744d696e496e746572657374526174654e756d657261746f723a204f6e6c7920746865206465706c6f7965722063616e20706572666f726d207468697346756e64732e6465637265617365546f74616c426f72726f773a204f6e6c7920746865204c6f616e7320636f6e74726163742063616e20706572666f726d207468697346756e64732e64697361626c65436f6d706f756e643a204f6e6c7920746865206c656e6465722063616e2064697361626c6520436f6d706f756e6446756e64732e6372656174653a2066756e6445787069727920616e64206d61784c6f616e4475722063616e6e6f742065786365656420313020796561727346756e64732e726571756573743a20496e73756666696369656e742062616c616e636546756e64732e7365744c6f616e733a204f6e6c7920746865206465706c6f7965722063616e20706572666f726d207468697346756e64732e7570646174653a204f6e6c7920746865206c656e6465722063616e20757064617465207468652066756e6446756e64732e7365744d61785574696c697a6174696f6e44656c74613a206d61785574696c697a6174696f6e44656c7461206973207a65726f46756e64732e6372656174653a204f6e6c79206f6e65206c6f616e2066756e6420616c6c6f77656420706572206164647265737346756e64732e726571756573743a20416d6f756e7420726571756573746564206d7573742062652067726561746572207468616e206d696e4c6f616e416d7446756e64732e736574436f6d706f756e643a20436f6d706f756e6420616464726573732068617320616c7265616479206265656e2073657446756e64732e726571756573743a20426f72726f7765722061646472657373206d757374206265206e6f6e2d7a65726f46756e64732e637265617465437573746f6d3a206d61784c6f616e447572206d7573742062652067726561746572207468616e206f7220657175616c20746f206d696e4c6f616e44757246756e64732e73657444656661756c74417262697465724665653a204f6e6c7920746865206465706c6f7965722063616e20706572666f726d207468697346756e64732e736574496e74657265737455706461746544656c61793a204f6e6c7920746865206465706c6f7965722063616e20706572666f726d207468697346756e64732e736574476c6f62616c496e746572657374526174654e756d657261746f723a20676c6f62616c496e746572657374526174654e756d657261746f72206973207a65726f46756e64732e726571756573743a20536563726574486173683720262053656372657448617368382073686f756c64206265206e6f6e2d7a65726f46756e64732e726571756573743a204f6e6c7920746865206c656e6465722063616e2066756c66696c6c2061206c6f616e207265717565737446756e64732e6465706f7369743a204661696c656420746f207472616e7366657220746f6b656e7346756e64732e7769746864726177546f3a20546f6b656e207472616e73666572206661696c656446756e64732e7365744d6178496e746572657374526174654e756d657261746f723a204f6e6c7920746865206465706c6f7965722063616e20706572666f726d207468697346756e64732e637265617465437573746f6d3a206d61784c6f616e416d74206d7573742062652067726561746572207468616e206f7220657175616c20746f206d696e4c6f616e416d7446756e64732e6372656174653a2043616e6e6f7420656e61626c6520436f6d706f756e6420617320697420686173206e6f74206265656e20636f6e6669677572656446756e64732e736574476c6f62616c496e746572657374526174653a204f6e6c7920746865206465706c6f7965722063616e20706572666f726d207468697346756e64732e656e61626c65436f6d706f756e643a2043616e6e6f7420656e61626c6520436f6d706f756e6420617320697420686173206e6f74206265656e20636f6e6669677572656446756e64732e736574476c6f62616c496e746572657374526174653a20676c6f62616c496e74657265737452617465206973207a65726f46756e64732e637265617465437573746f6d3a2066756e6445787069727920616e64206d61784c6f616e4475722063616e6e6f742065786365656420313020796561727346756e64732e676574536563726574486173686573466f724c6f616e3a204e6f7420656e6f75676820736563726574732067656e65726174656446756e64732e757064617465437573746f6d3a206d61784c6f616e447572206d7573742062652067726561746572207468616e206f7220657175616c20746f206d696e4c6f616e44757246756e64732e726571756573743a20536563726574486173683520262053656372657448617368362073686f756c64206265206e6f6e2d7a65726f46756e64732e7769746864726177546f3a204f6e6c7920746865206c656e6465722063616e20776974686472617720746f6b656e7346756e64732e7365744d6178496e746572657374526174654e756d657261746f723a206d6178496e746572657374526174654e756d657261746f72206973207a65726f46756e64732e7365744c6f616e733a204c6f616e732061646472657373206d757374206265206e6f6e2d7a65726f46756e64732e656e61626c65436f6d706f756e643a204f6e6c7920746865206c656e6465722063616e20656e61626c6520436f6d706f756e6446756e64732e73657444656661756c74417262697465724665653a2064656661756c74417262697465724665652063616e6e6f74206265206c657373207468616e202d312546756e64732e757064617465437573746f6d3a2046756e64206d757374206265206120637573746f6d2066756e6446756e64732e7769746864726177546f3a20496e73756666696369656e742062616c616e636546756e64732e7365744d61785574696c697a6174696f6e44656c74613a204f6e6c7920746865206465706c6f7965722063616e20706572666f726d207468697346756e64732e736574436f6d706f756e643a2063546f6b656e2061646472657373206d757374206265206e6f6e2d7a65726f46756e64732e726571756573743a20536563726574486173683120262053656372657448617368322073686f756c64206265206e6f6e2d7a65726f46756e64732e726571756573743a20536563726574486173683320262053656372657448617368342073686f756c64206265206e6f6e2d7a65726f46756e64732e726571756573743a204c6f616e206475726174696f6e206d7573742062652067726561746572207468616e206d696e4c6f616e447572a265627a7a7230582081612c9d1c28015d44dade989e86ec1630a356a3a7b59b778ef3c1bfca6dd51464736f6c634300050a003246756e64732e636f6e7374727563746f723a20546f6b656e2061646472657373206d757374206265206e6f6e2d7a65726f46756e64732e636f6e7374727563746f723a20446563696d616c73206d757374206265206e6f6e2d7a65726f",
    "source": "pragma solidity 0.5.10;\n\nimport 'openzeppelin-solidity/contracts/token/ERC20/ERC20.sol';\nimport 'openzeppelin-solidity/contracts/math/SafeMath.sol';\n\nimport './Loans.sol';\nimport './ALCompound.sol';\n\n/**\n * @title Atomic Loans Funds Contract\n * @author Atomic Loans\n */\ncontract Funds is DSMath, ALCompound {\n    Loans loans;\n\n    uint256 public constant DEFAULT_LIQUIDATION_RATIO = 1400000000000000000000000000;   // 140% (1.4x in RAY) minimum collateralization ratio\n    uint256 public constant DEFAULT_LIQUIDATION_PENALTY = 1000000000937303470807876289; // 3% (3 in RAY) liquidation penalty ((1.000000000937303470807876289) ^ (60 *  60 * 24 * 365)) - 1 = ~0.03\n    uint256 public constant DEFAULT_MIN_LOAN_AMT = 25 ether; // Min 25 WAD\n    uint256 public constant DEFAULT_MAX_LOAN_AMT = 2**256-1; // Max 2**256\n    uint256 public constant DEFAULT_MIN_LOAN_DUR = 6 hours;  // 6 hours\n    uint256 public constant NUM_SECONDS_IN_YEAR = 365 days;\n    uint256 public constant MAX_LOAN_LENGTH = 10 * NUM_SECONDS_IN_YEAR;\n    uint256 public constant MAX_UINT_256 = 2**256-1;\n\n    mapping (address => bytes32[]) public secretHashes;    // User secret hashes\n    mapping (address => uint256)   public secretHashIndex; // User secret hash index\n\n    mapping (address => bytes)     public pubKeys;  // User A Coin PubKeys\n\n    mapping (bytes32 => Fund)      public funds;\n    mapping (address => bytes32)   public fundOwner;\n    mapping (bytes32 => Bools)     public bools;\n    uint256                        public fundIndex;\n\n    uint256 public lastGlobalInterestUpdated;\n    uint256 public tokenMarketLiquidity;\n    uint256 public cTokenMarketLiquidity;\n    uint256 public marketLiquidity;\n    uint256 public totalBorrow;\n    uint256 public globalInterestRateNumerator;\n    uint256 public lastUtilizationRatio;\n    uint256 public globalInterestRate;\n    uint256 public maxUtilizationDelta;\n    uint256 public utilizationInterestDivisor;\n    uint256 public maxInterestRateNumerator;\n    uint256 public minInterestRateNumerator;\n    uint256 public interestUpdateDelay;\n    uint256 public defaultArbiterFee;\n\n    ERC20 public token;\n    uint256 public decimals;\n    CTokenInterface public cToken;\n    bool compoundSet;\n\n    address deployer;\n\n    /**\n     * @notice Container for Loan Fund information\n     * @member lender Loan Fund Owner\n     * @member minLoanAmt Minimum Loan Amount that can be requested by a 'borrower'\n     * @member maxLoanAmt Maximum Loan Amount that can be requested by a 'borrower'\n     * @member minLoanDur Minimum Loan Duration that can be requested by a 'borrower'\n     * @member maxLoanDur Maximum Loan Duration that can be requested by a 'borrower'\n     * @member interest Interest Rate of Loan Fund in RAY per second\n     * @member penalty Liquidation Penalty Rate of Loan Fund in RAY per second\n     * @member fee Optional Automation Fee Rate of Loan Fund in RAY per second\n     * @member liquidationRatio Liquidation Ratio of Loan Fund in RAY\n     * @member arbiter Optional address of Automator Arbiter\n     * @member balance Amount of non-borrowed tokens in Loan Fund\n     * @member cBalance Amount of non-borrowed cTokens in Loan Fund\n     */\n    struct Fund {\n        address  lender;\n        uint256  minLoanAmt;\n        uint256  maxLoanAmt;\n        uint256  minLoanDur;\n        uint256  maxLoanDur;\n        uint256  fundExpiry;\n        uint256  interest;\n        uint256  penalty;\n        uint256  fee;\n        uint256  liquidationRatio;\n        address  arbiter;\n        uint256  balance;\n        uint256  cBalance;\n    }\n\n    /**\n     * @notice Container for Loan Fund boolean configurations\n     * @member custom Indicator that this Loan Fund is custom and does not use global settings\n     * @member compoundEnabled Indicator that this Loan Fund lends non-borrowed tokens on Compound\n     */\n    struct Bools {\n        bool     custom;\n        bool     compoundEnabled;\n    }\n\n    event Create(bytes32 fund);\n\n    event Deposit(bytes32 fund, uint256 amount_);\n\n    event Update(bytes32  fund, uint256  maxLoanDur_, uint256  fundExpiry_, address  arbiter_);\n\n    event Request(bytes32 fund, address borrower_, uint256 amount_, uint256 collateral_, uint256 loanDur_, uint256 requestTimestamp_);\n\n    event Withdraw(bytes32 fund, uint256 amount_, address recipient_);\n\n    event EnableCompound(bytes32 fund);\n\n    event DisableCompound(bytes32 fund);\n\n    /**\n     * @notice Construct a new Medianizer\n     */\n    /**\n     * @notice Construct a new Funds contract\n     * @param token_ The address of the stablecoin token\n     * @param decimals_ The number of decimals in the stablecoin token\n     */\n    constructor(\n        ERC20   token_,\n        uint256 decimals_\n    ) public {\n        require(address(token_) != address(0), \"Funds.constructor: Token address must be non-zero\");\n        require(decimals_ != 0, \"Funds.constructor: Decimals must be non-zero\");\n\n        deployer = msg.sender;\n        token = token_;\n        decimals = decimals_;\n        utilizationInterestDivisor = 10531702972595856680093239305; // 10.53 in RAY (~10:1 ratio for % change in utilization ratio to % change in interest rate)\n        maxUtilizationDelta = 95310179948351216961192521; // Global Interest Rate Numerator can change up to 9.53% in RAY (~10% change in utilization ratio = ~1% change in interest rate)\n        globalInterestRateNumerator = 95310179948351216961192521; // ~10%  ( (e^(ln(1.100)/(60*60*24*365)) - 1) * (60*60*24*365) )\n        maxInterestRateNumerator = 182321557320989604265864303; // ~20%  ( (e^(ln(1.200)/(60*60*24*365)) - 1) * (60*60*24*365) )\n        minInterestRateNumerator = 24692612600038629323181834; // ~2.5% ( (e^(ln(1.025)/(60*60*24*365)) - 1) * (60*60*24*365) )\n        interestUpdateDelay = 86400; // 1 DAY\n        defaultArbiterFee = 1000000000236936036262880196; // 0.75% (0.75 in RAY) optional arbiter fee ((1.000000000236936036262880196) ^ (60 *  60 * 24 * 365)) - 1 = ~0.0075\n        globalInterestRate = add(RAY, div(globalInterestRateNumerator, NUM_SECONDS_IN_YEAR)); // Interest rate per second\n    }\n\n    // NOTE: THE FOLLOWING FUNCTIONS CAN ONLY BE CALLED BY THE DEPLOYER OF THE\n    //       CONTRACT ONCE. THIS IS TO ALLOW FOR FUNDS, LOANS, AND SALES\n    //       CONTRACTS TO BE DEPLOYED SEPARATELY (DUE TO GAS LIMIT RESTRICTIONS).\n    //       IF YOU ARE USING THIS CONTRACT, ENSURE THAT THESE FUNCTIONS HAVE\n    //       ALREADY BEEN CALLED BEFORE DEPOSITING FUNDS.\n    // ======================================================================\n\n    /**\n     * @dev Sets Loans contract\n     * @param loans_ Address of Loans contract\n     */\n    function setLoans(Loans loans_) external {\n        require(msg.sender == deployer, \"Funds.setLoans: Only the deployer can perform this\");\n        require(address(loans) == address(0), \"Funds.setLoans: Loans address has already been set\");\n        require(address(loans_) != address(0), \"Funds.setLoans: Loans address must be non-zero\");\n        loans = loans_;\n        require(token.approve(address(loans_), MAX_UINT_256), \"Funds.setLoans: Tokens cannot be approved\");\n    }\n\n    /**\n     * @dev Enables assets in loan fund that haven't been borrowed to be lent on Compound\n     * @param cToken_ The address of the Compound Token\n     * @param comptroller_ The address of the Compound Comptroller\n     */\n    function setCompound(CTokenInterface cToken_, address comptroller_) external {\n        require(msg.sender == deployer, \"Funds.setCompound: Only the deployer can enable Compound lending\");\n        require(!compoundSet, \"Funds.setCompound: Compound address has already been set\");\n        require(address(cToken_) != address(0), \"Funds.setCompound: cToken address must be non-zero\");\n        require(comptroller_ != address(0), \"Funds.setCompound: comptroller address must be non-zero\");\n        cToken = cToken_;\n        comptroller = comptroller_;\n        compoundSet = true;\n    }\n    // ======================================================================\n\n    // NOTE: THE FOLLOWING FUNCTIONS ALLOW VARIABLES TO BE MODIFIED BY THE\n    //       DEPLOYER, SINCE THE ALGORITHM FOR CALCULATING GLOBAL INTEREST\n    //       RATE IS UNTESTED WITH A DECENTRALIZED PROTOCOL, AND MAY NEED TO\n    //       BE UPDATED IN THE CASE THAT RATES DO NOT UPDATE AS INTENDED. A\n    //       FUTURE ITERATION OF THE PROTOCOL WILL REMOVE THESE FUNCTIONS. IF\n    //       YOU WISH TO OPT OUT OF GLOBAL APR YOU CAN CREATE A CUSTOM LOAN FUND\n    // ======================================================================\n\n    /**\n     * @dev Sets the Utilization Interest Divisor\n     */\n    function setUtilizationInterestDivisor(uint256 utilizationInterestDivisor_) external {\n        require(msg.sender == deployer, \"Funds.setUtilizationInterestDivisor: Only the deployer can perform this\");\n        require(utilizationInterestDivisor_ != 0, \"Funds.setUtilizationInterestDivisor: utilizationInterestDivisor is zero\");\n        utilizationInterestDivisor = utilizationInterestDivisor_;\n    }\n\n    /**\n     * @dev Sets the Max Utilization Delta\n     */\n    function setMaxUtilizationDelta(uint256 maxUtilizationDelta_) external {\n        require(msg.sender == deployer, \"Funds.setMaxUtilizationDelta: Only the deployer can perform this\");\n        require(maxUtilizationDelta_ != 0, \"Funds.setMaxUtilizationDelta: maxUtilizationDelta is zero\");\n        maxUtilizationDelta = maxUtilizationDelta_;\n    }\n\n    /**\n     * @dev Sets the Global Interest Rate Numerator\n     */\n    function setGlobalInterestRateNumerator(uint256 globalInterestRateNumerator_) external {\n        require(msg.sender == deployer, \"Funds.setGlobalInterestRateNumerator: Only the deployer can perform this\");\n        require(globalInterestRateNumerator_ != 0, \"Funds.setGlobalInterestRateNumerator: globalInterestRateNumerator is zero\");\n        globalInterestRateNumerator = globalInterestRateNumerator_;\n    }\n\n    /**\n     * @dev Sets the Global Interest Rate\n     */\n    function setGlobalInterestRate(uint256 globalInterestRate_) external {\n        require(msg.sender == deployer, \"Funds.setGlobalInterestRate: Only the deployer can perform this\");\n        require(globalInterestRate_ != 0, \"Funds.setGlobalInterestRate: globalInterestRate is zero\");\n        globalInterestRate = globalInterestRate_;\n    }\n\n    /**\n     * @dev Sets the Maximum Interest Rate Numerator\n     */\n    function setMaxInterestRateNumerator(uint256 maxInterestRateNumerator_) external {\n        require(msg.sender == deployer, \"Funds.setMaxInterestRateNumerator: Only the deployer can perform this\");\n        require(maxInterestRateNumerator_ != 0, \"Funds.setMaxInterestRateNumerator: maxInterestRateNumerator is zero\");\n        maxInterestRateNumerator = maxInterestRateNumerator_;\n    }\n\n    /**\n     * @dev Sets the Minimum Interest Rate Numerator\n     */\n    function setMinInterestRateNumerator(uint256 minInterestRateNumerator_) external {\n        require(msg.sender == deployer, \"Funds.setMinInterestRateNumerator: Only the deployer can perform this\");\n        require(minInterestRateNumerator_ != 0, \"Funds.setMinInterestRateNumerator: minInterestRateNumerator is zero\");\n        minInterestRateNumerator = minInterestRateNumerator_;\n    }\n\n    /**\n     * @dev Sets the Interest Update Delay\n     */\n    function setInterestUpdateDelay(uint256 interestUpdateDelay_) external {\n        require(msg.sender == deployer, \"Funds.setInterestUpdateDelay: Only the deployer can perform this\");\n        require(interestUpdateDelay_ != 0, \"Funds.setInterestUpdateDelay: interestUpdateDelay is zero\");\n        interestUpdateDelay = interestUpdateDelay_;\n    }\n\n    /**\n     * @dev Sets the Default Arbiter Fee\n     */\n    function setDefaultArbiterFee(uint256 defaultArbiterFee_) external {\n        require(msg.sender == deployer, \"Funds.setDefaultArbiterFee: Only the deployer can perform this\");\n        require(defaultArbiterFee_ <= 1000000000315522921573372069, \"Funds.setDefaultArbiterFee: defaultArbiterFee cannot be less than -1%\"); // ~1% ((1.000000000315522921573372069) ^ (60 *  60 * 24 * 365)) - 1 = ~0.01\n        defaultArbiterFee = defaultArbiterFee_;\n    }\n    // ======================================================================\n\n    /**\n     * @notice Get the lender of a Loan Fund\n     * @param fund The Id of a Loan Fund\n     * @return Owner address of Loan Fund\n     */\n    function lender(bytes32 fund) public view returns (address) {\n        return funds[fund].lender;\n    }\n\n    /**\n     * @notice Get minimum loan amount able to be requested by a 'borrower'\n     * @param fund The Id of a Loan Fund\n     * @return The minimum amount of tokens that can be requested from a Loan Fund\n     */\n    function minLoanAmt(bytes32 fund) public view returns (uint256) {\n        if (bools[fund].custom) {return funds[fund].minLoanAmt;}\n        else                    {return div(DEFAULT_MIN_LOAN_AMT, (10 ** sub(18, decimals)));}\n    }\n\n    /**\n     * @notice Get maximum loan amount able to be requested by a 'borrower'\n     * @param fund The Id of a Loan Fund\n     * @return The maximum amount of tokens that can be requested from a Loan Fund\n     */\n    function maxLoanAmt(bytes32 fund) public view returns (uint256) {\n        if (bools[fund].custom) {return funds[fund].maxLoanAmt;}\n        else                    {return DEFAULT_MAX_LOAN_AMT;}\n    }\n\n    /**\n     * @notice Get minimum loan duration able to be requested by a 'borrower'\n     * @param fund The Id of a Loan Fund\n     * @return The minimum duration loan that can be requested from a Loan Fund\n     */\n    function minLoanDur(bytes32 fund) public view returns (uint256) {\n        if (bools[fund].custom) {return funds[fund].minLoanDur;}\n        else                    {return DEFAULT_MIN_LOAN_DUR;}\n    }\n\n    /**\n     * @notice Get maximum loan duration able to be requested by a 'borrower'\n     * @param fund The Id of a Loan Fund\n     * @return The maximum duration loan that can be requested from a Loan Fund\n     */\n    function maxLoanDur(bytes32 fund) public view returns (uint256) {\n        return funds[fund].maxLoanDur;\n    }\n\n    /**\n     * @notice Get maximum loan duration able to be requested by a 'borrower'\n     * @param fund The Id of a Loan Fund\n     * @return The maximum duration loan that can be requested from a Loan Fund\n     */\n    function fundExpiry(bytes32 fund) public view returns (uint256) {\n        return funds[fund].fundExpiry;\n    }\n\n    /**\n     * @notice Get the interest rate for a Loan Fund\n     * @param fund The Id of a Loan Fund\n     * @return The interest rate per second for a Loan Fund in RAY per second\n     */\n    function interest(bytes32 fund) public view returns (uint256) {\n        if (bools[fund].custom) {return funds[fund].interest;}\n        else                    {return globalInterestRate;}\n    }\n\n    /**\n     * @notice Get the liquidation penalty rate for a Loan Fund\n     * @param fund The Id of a Loan Fund\n     * @return The liquidation penalty rate per second for a Loan Fund in RAY per second\n     */\n    function penalty(bytes32 fund) public view returns (uint256) {\n        if (bools[fund].custom) {return funds[fund].penalty;}\n        else                    {return DEFAULT_LIQUIDATION_PENALTY;}\n    }\n\n    /**\n     * @notice Get the optional automation fee for a Loan Fund\n     * @param fund The Id of a Loan Fund\n     * @return The optional automation fee rate of Loan Fund in RAY per second\n     */\n    function fee(bytes32 fund) public view returns (uint256) {\n        if (bools[fund].custom) {return funds[fund].fee;}\n        else                    {return defaultArbiterFee;}\n    }\n\n    /**\n     * @notice Get the liquidation ratio of a Loan Fund\n     * @param fund The Id of a Loan Fund\n     * @return The liquidation ratio of Loan Fund in RAY\n     */\n    function liquidationRatio(bytes32 fund) public view returns (uint256) {\n        if (bools[fund].custom) {return funds[fund].liquidationRatio;}\n        else                    {return DEFAULT_LIQUIDATION_RATIO;}\n    }\n\n    /**\n     * @notice Get the arbiter for a Loan Fund\n     * @param fund The Id of a Loan Fund\n     * @return The address of the arbiter for a Loan fund\n     */\n    function arbiter(bytes32 fund) public view returns (address) {\n        return funds[fund].arbiter;\n    }\n\n    /**\n     * @notice Get the current balance of a Loan Fund in tokens\n     * @param fund The Id of a Loan Fund\n     * @return The amount of tokens remaining in Loan Fund\n     */\n    function balance(bytes32 fund) public returns (uint256) {\n        if (bools[fund].compoundEnabled) {\n            return wmul(funds[fund].cBalance, cToken.exchangeRateCurrent());\n        } else {\n            return funds[fund].balance;\n        }\n    }\n\n    function cTokenExchangeRate() public returns (uint256) {\n        if (compoundSet) {\n            return cToken.exchangeRateCurrent();\n        } else {\n            return 0;\n        }\n    }\n\n    /**\n     * @notice Get the custom indicator for a Loan Fund\n     * @param fund The Id of a Loan Fund\n     * @return The indicator of whether a Loan Fund is custom or not\n     */\n    function custom(bytes32 fund) public view returns (bool) {\n        return bools[fund].custom;\n    }\n\n    /**\n     * @notice Get the number of secretHashes provided per address\n     * @param addr_ The address of the user\n     * @return The length of the secretHashes array for user address\n     */\n    function secretHashesCount(address addr_) public view returns (uint256) {\n        return secretHashes[addr_].length;\n    }\n\n    /**\n     * @notice Lenders create Loan Fund using Global Protocol parameters and deposit assets\n     * @param maxLoanDur_ Max Loan Duration of Loan Fund in seconds\n     * @param arbiter_  Optional address of arbiter\n     * @param compoundEnabled_ Indicator whether excess funds should be lent on Compound\n     * @param amount_ Amount of tokens to be deposited on creation\n     * @return The Id of a Loan Fund\n     *\n     *         Note: Only one loan fund is allowed per ethereum address.\n     *               Exception is made for the deployer for testing.\n     */\n    function create(\n        uint256  maxLoanDur_,\n        uint256  fundExpiry_,\n        address  arbiter_,\n        bool     compoundEnabled_,\n        uint256  amount_\n    ) external returns (bytes32 fund) {\n        // #IF TESTING\n        require(funds[fundOwner[msg.sender]].lender != msg.sender || msg.sender == deployer, \"Funds.create: Only one loan fund allowed per address\");\n        // #ELSE:\n        // require(funds[fundOwner[msg.sender]].lender != msg.sender, \"Funds.create: Only one loan fund allowed per address\"); // Only allow one loan fund per address\n        // #ENDIF\n        require(\n            ensureNotZero(maxLoanDur_, false) < MAX_LOAN_LENGTH && ensureNotZero(fundExpiry_, true) < now + MAX_LOAN_LENGTH,\n            \"Funds.create: fundExpiry and maxLoanDur cannot exceed 10 years\"\n        ); // Make sure someone can't request a loan for longer than 10 years\n        if (!compoundSet) {require(compoundEnabled_ == false, \"Funds.create: Cannot enable Compound as it has not been configured\");}\n        fundIndex = add(fundIndex, 1);\n        fund = bytes32(fundIndex);\n        funds[fund].lender = msg.sender;\n        funds[fund].maxLoanDur = ensureNotZero(maxLoanDur_, false);\n        funds[fund].fundExpiry = ensureNotZero(fundExpiry_, true);\n        funds[fund].arbiter = arbiter_;\n        bools[fund].custom = false;\n        bools[fund].compoundEnabled = compoundEnabled_;\n        fundOwner[msg.sender] = bytes32(fundIndex);\n        if (amount_ > 0) {deposit(fund, amount_);}\n\n        emit Create(fund);\n    }\n\n    /**\n     * @notice Lenders create Loan Fund using Custom parameters and deposit assets\n     * @param minLoanAmt_ Minimum amount of tokens that can be borrowed from Loan Fund\n     * @param maxLoanAmt_ Maximum amount of tokens that can be borrowed from Loan Fund\n     * @param minLoanDur_ Minimum length of loan that can be requested from Loan Fund in seconds\n     * @param maxLoanDur_ Maximum length of loan that can be requested from Loan Fund in seconds\n     * @param arbiter_  Optional address of arbiter\n     * @param compoundEnabled_ Indicator whether excess funds should be lent on Compound\n     * @param amount_ Amount of tokens to be deposited on creation\n     * @return The Id of a Loan Fund\n     *\n     *         Note: Only one loan fund is allowed per ethereum address.\n     *               Exception is made for the deployer for testing.\n     */\n    function createCustom(\n        uint256  minLoanAmt_,\n        uint256  maxLoanAmt_,\n        uint256  minLoanDur_,\n        uint256  maxLoanDur_,\n        uint256  fundExpiry_,\n        uint256  liquidationRatio_,\n        uint256  interest_,\n        uint256  penalty_,\n        uint256  fee_,\n        address  arbiter_,\n        bool     compoundEnabled_,\n        uint256  amount_\n    ) external returns (bytes32 fund) {\n        // #IF TESTING\n        require(funds[fundOwner[msg.sender]].lender != msg.sender || msg.sender == deployer, \"Funds.create: Only one loan fund allowed per address\"); // Exception for deployer during testing\n        // #ELSE:\n        // require(funds[fundOwner[msg.sender]].lender != msg.sender, \"Funds.create: Only one loan fund allowed per address\"); // Only allow one loan fund per address\n        // #ENDIF\n        require(\n            ensureNotZero(maxLoanDur_, false) < MAX_LOAN_LENGTH && ensureNotZero(fundExpiry_, true) < now + MAX_LOAN_LENGTH,\n            \"Funds.createCustom: fundExpiry and maxLoanDur cannot exceed 10 years\"\n        ); // Make sure someone can't request a loan for longer than 10 years\n        require(maxLoanAmt_ >= minLoanAmt_, \"Funds.createCustom: maxLoanAmt must be greater than or equal to minLoanAmt\");\n        require(ensureNotZero(maxLoanDur_, false) >= minLoanDur_, \"Funds.createCustom: maxLoanDur must be greater than or equal to minLoanDur\");\n\n        if (!compoundSet) {require(compoundEnabled_ == false, \"Funds.createCustom: Cannot enable Compound as it has not been configured\");}\n        fundIndex = add(fundIndex, 1);\n        fund = bytes32(fundIndex);\n        funds[fund].lender = msg.sender;\n        funds[fund].minLoanAmt = minLoanAmt_;\n        funds[fund].maxLoanAmt = maxLoanAmt_;\n        funds[fund].minLoanDur = minLoanDur_;\n        funds[fund].maxLoanDur = ensureNotZero(maxLoanDur_, false);\n        funds[fund].fundExpiry = ensureNotZero(fundExpiry_, true);\n        funds[fund].interest = interest_;\n        funds[fund].penalty = penalty_;\n        funds[fund].fee = fee_;\n        funds[fund].liquidationRatio = liquidationRatio_;\n        funds[fund].arbiter = arbiter_;\n        bools[fund].custom = true;\n        bools[fund].compoundEnabled = compoundEnabled_;\n        fundOwner[msg.sender] = bytes32(fundIndex);\n        if (amount_ > 0) {deposit(fund, amount_);}\n\n        emit Create(fund);\n    }\n\n    /**\n     * @notice Lenders deposit tokens in Loan Fund\n     * @param fund The Id of a Loan Fund\n     * @param amount_ Amount of tokens to deposit\n     *\n     *        Note: Anyone can deposit tokens into a Loan Fund\n     */\n    function deposit(bytes32 fund, uint256 amount_) public {\n        require(token.transferFrom(msg.sender, address(this), amount_), \"Funds.deposit: Failed to transfer tokens\");\n        if (bools[fund].compoundEnabled) {\n            mintCToken(address(token), address(cToken), amount_);\n            uint256 cTokenToAdd = div(mul(amount_, WAD), cToken.exchangeRateCurrent());\n            funds[fund].cBalance = add(funds[fund].cBalance, cTokenToAdd);\n            if (!custom(fund)) {cTokenMarketLiquidity = add(cTokenMarketLiquidity, cTokenToAdd);}\n        } else {\n            funds[fund].balance = add(funds[fund].balance, amount_);\n            if (!custom(fund)) {tokenMarketLiquidity = add(tokenMarketLiquidity, amount_);}\n        }\n        if (!custom(fund)) {calcGlobalInterest();}\n\n        emit Deposit(fund, amount_);\n    }\n\n    /**\n     * @notice Users update Loan Fund settings\n     * @param fund The Id of a Loan Fund\n     * @param maxLoanDur_ Maximum length of loan that can be requested from Loan Fund in seconds\n     * @param fundExpiry_ Timestamp when all funds should be removable from Loan Fund\n     * @param arbiter_ Optional address of the arbiter for a Loan fund\n     *\n     *        Note: msg.sender must be the lender of the Loan Fund\n     */\n    function update(\n        bytes32  fund,\n        uint256  maxLoanDur_,\n        uint256  fundExpiry_,\n        address  arbiter_\n    ) public {\n        require(msg.sender == lender(fund), \"Funds.update: Only the lender can update the fund\");\n        require(\n            ensureNotZero(maxLoanDur_, false) <= MAX_LOAN_LENGTH && ensureNotZero(fundExpiry_, true) <= now + MAX_LOAN_LENGTH,\n            \"Funds.update: fundExpiry and maxLoanDur cannot exceed 10 years\"\n        );  // Make sure someone can't request a loan for eternity\n        funds[fund].maxLoanDur = maxLoanDur_;\n        funds[fund].fundExpiry = fundExpiry_;\n        funds[fund].arbiter = arbiter_;\n\n        emit Update(fund, maxLoanDur_, fundExpiry_, arbiter_);\n    }\n\n    /**\n     * @notice Users update custom Loan Fund settings\n     * @param fund The Id of a Loan Fund\n     * @param minLoanAmt_ Minimum amount of tokens that can be borrowed from Loan Fund\n     * @param maxLoanAmt_ Maximum amount of tokens that can be borrowed from Loan Fund\n     * @param minLoanDur_ Minimum length of loan that can be requested from Loan Fund in seconds\n     * @param maxLoanDur_ Maximum length of loan that can be requested from Loan Fund in seconds\n     * @param fundExpiry_ Timestamp when all funds should be removable from Loan Fund\n     * @param interest_ The interest rate per second for a Loan Fund in RAY per second\n     * @param penalty_ The liquidation penalty rate per second for a Loan Fund in RAY per second\n     * @param fee_ The optional automation fee rate of Loan Fund in RAY per second\n     * @param liquidationRatio_ The liquidation ratio of Loan Fund in RAY\n     * @param arbiter_ Optional address of the arbiter for a Loan fund\n     *\n     *        Note: msg.sender must be the lender of the Loan Fund\n     */\n    function updateCustom(\n        bytes32  fund,\n        uint256  minLoanAmt_,\n        uint256  maxLoanAmt_,\n        uint256  minLoanDur_,\n        uint256  maxLoanDur_,\n        uint256  fundExpiry_,\n        uint256  interest_,\n        uint256  penalty_,\n        uint256  fee_,\n        uint256  liquidationRatio_,\n        address  arbiter_\n    ) external {\n        require(bools[fund].custom, \"Funds.updateCustom: Fund must be a custom fund\");\n        require(maxLoanAmt_ >= minLoanAmt_, \"Funds.updateCustom: maxLoanAmt must be greater than or equal to minLoanAmt\");\n        require(ensureNotZero(maxLoanDur_, false) >= minLoanDur_, \"Funds.updateCustom: maxLoanDur must be greater than or equal to minLoanDur\");\n        update(fund, maxLoanDur_, fundExpiry_, arbiter_);\n        funds[fund].minLoanAmt = minLoanAmt_;\n        funds[fund].maxLoanAmt = maxLoanAmt_;\n        funds[fund].minLoanDur = minLoanDur_;\n        funds[fund].interest = interest_;\n        funds[fund].penalty = penalty_;\n        funds[fund].fee = fee_;\n        funds[fund].liquidationRatio = liquidationRatio_;\n    }\n\n    /**\n     * @notice Lenders request loan from Loan Fund on behalf of Borrower\n     * @param fund The Id of a Loan Fund\n     * @param amount_ Amount of tokens to request\n     * @param collateral_ Amount of collateral to deposit in satoshis\n     * @param loanDur_ Length of loan request in seconds\n     * @param secretHashes_ 4 Borrower Secret Hashes and 4 Lender Secret Hashes\n     * @param pubKeyA_ Borrower Bitcoin public key to use for refunding collateral\n     * @param pubKeyB_ Lender Bitcoin public key to use for refunding collateral\n     *\n     *        Note: Borrower client should verify params after Ethereum tx\n     *              confirmation before locking Bitcoin.\n     *\n     */\n    function request(\n        bytes32             fund,\n        address             borrower_,\n        uint256             amount_,\n        uint256             collateral_,\n        uint256             loanDur_,\n        uint256             requestTimestamp_,\n        bytes32[8] calldata secretHashes_,\n        bytes      calldata pubKeyA_,\n        bytes      calldata pubKeyB_\n    ) external returns (bytes32 loanIndex) {\n        require(msg.sender == lender(fund), \"Funds.request: Only the lender can fulfill a loan request\");\n        require(amount_ <= balance(fund), \"Funds.request: Insufficient balance\");\n        require(amount_ >= minLoanAmt(fund), \"Funds.request: Amount requested must be greater than minLoanAmt\");\n        require(amount_ <= maxLoanAmt(fund), \"Funds.request: Amount requested must be less than maxLoanAmt\");\n        require(loanDur_ >= minLoanDur(fund), \"Funds.request: Loan duration must be greater than minLoanDur\");\n        require(loanDur_ <= sub(fundExpiry(fund), now) && loanDur_ <= maxLoanDur(fund), \"Funds.request: Loan duration must be less than maxLoanDur and expiry\");\n        require(borrower_ != address(0), \"Funds.request: Borrower address must be non-zero\");\n        require(secretHashes_[0] != bytes32(0) && secretHashes_[1] != bytes32(0), \"Funds.request: SecretHash1 & SecretHash2 should be non-zero\");\n        require(secretHashes_[2] != bytes32(0) && secretHashes_[3] != bytes32(0), \"Funds.request: SecretHash3 & SecretHash4 should be non-zero\");\n        require(secretHashes_[4] != bytes32(0) && secretHashes_[5] != bytes32(0), \"Funds.request: SecretHash5 & SecretHash6 should be non-zero\");\n        require(secretHashes_[6] != bytes32(0) && secretHashes_[7] != bytes32(0), \"Funds.request: SecretHash7 & SecretHash8 should be non-zero\");\n\n        loanIndex = createLoan(fund, borrower_, amount_, collateral_, loanDur_, requestTimestamp_);\n        loanSetSecretHashes(fund, loanIndex, secretHashes_, pubKeyA_, pubKeyB_);\n        loanUpdateMarketLiquidity(fund, amount_);\n        loans.fund(loanIndex);\n\n        emit Request(fund, borrower_, amount_, collateral_, loanDur_, requestTimestamp_);\n    }\n\n    /**\n     * @notice Lenders withdraw tokens in Loan Fund\n     * @param fund The Id of a Loan Fund\n     * @param amount_ Amount of tokens to withdraw\n     */\n    function withdraw(bytes32 fund, uint256 amount_) external {\n        withdrawTo(fund, amount_, msg.sender);\n    }\n\n    /**\n     * @notice Lenders withdraw tokens in Loan Fund\n     * @param fund The Id of a Loan Fund\n     * @param amount_ Amount of tokens to withdraw\n     * @param recipient_ Address that should receive the funds\n     */\n    function withdrawTo(bytes32 fund, uint256 amount_, address recipient_) public {\n        require(msg.sender == lender(fund), \"Funds.withdrawTo: Only the lender can withdraw tokens\");\n        require(balance(fund) >= amount_, \"Funds.withdrawTo: Insufficient balance\");\n        if (bools[fund].compoundEnabled) {\n            uint256 cBalanceBefore = cToken.balanceOf(address(this));\n            redeemUnderlying(address(cToken), amount_);\n            uint256 cBalanceAfter = cToken.balanceOf(address(this));\n            uint256 cTokenToRemove = sub(cBalanceBefore, cBalanceAfter);\n            funds[fund].cBalance = sub(funds[fund].cBalance, cTokenToRemove);\n            require(token.transfer(recipient_, amount_), \"Funds.withdrawTo: Token transfer failed\");\n            if (!custom(fund)) {cTokenMarketLiquidity = sub(cTokenMarketLiquidity, cTokenToRemove);}\n        } else {\n            funds[fund].balance = sub(funds[fund].balance, amount_);\n            require(token.transfer(recipient_, amount_), \"Funds.withdrawTo: Token transfer failed\");\n            if (!custom(fund)) {tokenMarketLiquidity = sub(tokenMarketLiquidity, amount_);}\n        }\n        if (!custom(fund)) {calcGlobalInterest();}\n\n        emit Withdraw(fund, amount_, recipient_);\n    }\n\n    /**\n     * @notice Submit secretHashes to be used with future loans\n     * @param secretHashes_ List of secretHashes\n     */\n    function generate(bytes32[] calldata secretHashes_) external {\n        for (uint i = 0; i < secretHashes_.length; i++) {\n            secretHashes[msg.sender].push(secretHashes_[i]);\n        }\n    }\n\n    /**\n     * @notice Set Lender or Arbiter Bitcoin Public Key\n     * @param pubKey_ Bitcoin Public Key\n     */\n    function setPubKey(bytes calldata pubKey_) external { // Set PubKey for Fund\n        pubKeys[msg.sender] = pubKey_;\n    }\n\n    /**\n     * @notice Enable Compound for Loan Fund\n     * @param fund The Id of a Loan Fund\n     */\n    function enableCompound(bytes32 fund) external {\n        require(compoundSet, \"Funds.enableCompound: Cannot enable Compound as it has not been configured\");\n        require(bools[fund].compoundEnabled == false, \"Funds.enableCompound: Compound is already enabled\");\n        require(msg.sender == lender(fund), \"Funds.enableCompound: Only the lender can enable Compound\");\n        uint256 cBalanceBefore = cToken.balanceOf(address(this));\n        mintCToken(address(token), address(cToken), funds[fund].balance);\n        uint256 cBalanceAfter = cToken.balanceOf(address(this));\n        uint256 cTokenToReturn = sub(cBalanceAfter, cBalanceBefore);\n        tokenMarketLiquidity = sub(tokenMarketLiquidity, funds[fund].balance);\n        cTokenMarketLiquidity = add(cTokenMarketLiquidity, cTokenToReturn);\n        bools[fund].compoundEnabled = true;\n        funds[fund].balance = 0;\n        funds[fund].cBalance = cTokenToReturn;\n\n        emit EnableCompound(fund);\n    }\n\n    /**\n     * @notice Disable Compound for Loan Fund\n     * @param fund The Id of a Loan Fund\n     */\n    function disableCompound(bytes32 fund) external {\n        require(bools[fund].compoundEnabled, \"Funds.disableCompound: Compound is already disabled\");\n        require(msg.sender == lender(fund), \"Funds.disableCompound: Only the lender can disable Compound\");\n        uint256 balanceBefore = token.balanceOf(address(this));\n        redeemCToken(address(cToken), funds[fund].cBalance);\n        uint256 balanceAfter = token.balanceOf(address(this));\n        uint256 tokenToReturn = sub(balanceAfter, balanceBefore);\n        tokenMarketLiquidity = add(tokenMarketLiquidity, tokenToReturn);\n        cTokenMarketLiquidity = sub(cTokenMarketLiquidity, funds[fund].cBalance);\n        bools[fund].compoundEnabled = false;\n        funds[fund].cBalance = 0;\n        funds[fund].balance = tokenToReturn;\n\n        emit DisableCompound(fund);\n    }\n\n    /**\n     * @notice Decrease Total Borrow by Loans contract\n     * @param amount_ The amount of tokens to decrease totalBorrow by\n     */\n    function decreaseTotalBorrow(uint256 amount_) external {\n        require(msg.sender == address(loans), \"Funds.decreaseTotalBorrow: Only the Loans contract can perform this\");\n        totalBorrow = sub(totalBorrow, amount_);\n    }\n\n    /**\n     * @notice Calculate and update Global Interest Rate\n     * @dev Implementation returns Global Interest Rate per second in RAY\n     *\n     *      Note: Only updates interest rate if interestUpdateDelay has passed since last update\n     *            if utilizationRatio increases newAPR = oldAPR + (min(10%, utilizationRatio) / 10)\n     *            if utilizationRatio decreases newAPR = oldAPR - (max(10%, utilizationRatio) / 10)\n     *            APR should be less than or equal to 1%\n     *            For every 10% change in utilization ratio, the interest rate will change a maximum of 1%\n     *            i.e. newAPR = 11.5% + (10% / 10) = 12.5%\n     *\n     */\n    function calcGlobalInterest() public {\n        marketLiquidity = add(tokenMarketLiquidity, wmul(cTokenMarketLiquidity, cTokenExchangeRate()));\n\n        if (now > (add(lastGlobalInterestUpdated, interestUpdateDelay))) {\n            uint256 utilizationRatio;\n            if (totalBorrow != 0) {utilizationRatio = rdiv(totalBorrow, add(marketLiquidity, totalBorrow));}\n\n            if (utilizationRatio > lastUtilizationRatio) {\n                uint256 changeUtilizationRatio = sub(utilizationRatio, lastUtilizationRatio);\n                globalInterestRateNumerator = min(maxInterestRateNumerator, add(globalInterestRateNumerator, rdiv(min(maxUtilizationDelta, changeUtilizationRatio), utilizationInterestDivisor)));\n            } else {\n                uint256 changeUtilizationRatio = sub(lastUtilizationRatio, utilizationRatio);\n                globalInterestRateNumerator = max(minInterestRateNumerator, sub(globalInterestRateNumerator, rdiv(min(maxUtilizationDelta, changeUtilizationRatio), utilizationInterestDivisor)));\n            }\n\n            globalInterestRate = add(RAY, div(globalInterestRateNumerator, NUM_SECONDS_IN_YEAR));\n\n            lastGlobalInterestUpdated = now;\n            lastUtilizationRatio = utilizationRatio;\n        }\n    }\n\n    /**\n     * @notice Calculate compound interest for a length of time\n     * @param amount_ The amount of tokens\n     * @param rate_ 1 + nominal per second interest rate in percentage terms\n     * @param loanDur_ The loan duration in seconds\n     */\n    function calcInterest(uint256 amount_, uint256 rate_, uint256 loanDur_) public pure returns (uint256) {\n        return sub(rmul(amount_, rpow(rate_, loanDur_)), amount_);\n    }\n\n    /**\n     * @dev Ensure null values for fundExpiry and maxLoanDur are set to MAX_LOAN_LENGTH\n     * @param value The value to be sanity checked\n     */\n    function ensureNotZero(uint256 value, bool addNow) public view returns (uint256) {\n        if (value == 0) {\n            if (addNow) {\n                return now + MAX_LOAN_LENGTH;\n            }\n            return MAX_LOAN_LENGTH;\n        }\n        return value;\n    }\n\n    /**\n     * @dev Takes loan request parameters, creates loan, and returns loanIndex\n     * @param fund The Id of a Loan Fund\n     * @param amount_ Amount of tokens to request\n     * @param collateral_ Amount of collateral to deposit in satoshis\n     * @param loanDur_ Length of loan request in seconds\n     */\n    function createLoan(\n        bytes32  fund,\n        address  borrower_,\n        uint256  amount_,\n        uint256  collateral_,\n        uint256  loanDur_,\n        uint256  requestTimestamp_\n    ) private returns (bytes32 loanIndex) {\n        loanIndex = loans.create(\n            now + loanDur_,\n            [borrower_, lender(fund), funds[fund].arbiter],\n            [\n                amount_,\n                calcInterest(amount_, interest(fund), loanDur_),\n                calcInterest(amount_, penalty(fund), loanDur_),\n                calcInterest(amount_, fee(fund), loanDur_),\n                collateral_,\n                liquidationRatio(fund),\n                requestTimestamp_\n            ],\n            fund\n        );\n    }\n\n    /**\n     * @dev Takes loan request Bitcoin parameters, sets loan Public Keys and Secret Hashes\n     * @param fund The Id of the Loan Fund\n     * @param loan The Id of the Loan\n     * @param secretHashes_ 4 Borrower Secret Hashes and 4 Lender Secret Hashes\n     * @param pubKeyA_ Borrower Bitcoin public key to use for refunding collateral\n     * @param pubKeyB_ Lender Bitcoin public key to use for refunding collateral\n     */\n    function loanSetSecretHashes(\n        bytes32           fund,\n        bytes32           loan,\n        bytes32[8] memory secretHashes_,\n        bytes      memory pubKeyA_,\n        bytes      memory pubKeyB_\n    ) private {\n        loans.setSecretHashes(\n            loan,\n            [ secretHashes_[0], secretHashes_[1], secretHashes_[2], secretHashes_[3] ],\n            [ secretHashes_[4], secretHashes_[5], secretHashes_[6], secretHashes_[7] ],\n            getSecretHashesForLoan(arbiter(fund)),\n            pubKeyA_,\n            pubKeyB_,\n            pubKeys[arbiter(fund)]\n        );\n    }\n\n    /**\n     * @dev Updates market liquidity based on amount of tokens being requested to borrow\n     * @param fund Loan Id of the Loan Fund\n     * @param amount_ The amount of tokens that are being requested\n     */\n    function loanUpdateMarketLiquidity(bytes32 fund, uint256 amount_) private {\n        if (bools[fund].compoundEnabled) {\n            uint256 cBalanceBefore = cToken.balanceOf(address(this));\n            redeemUnderlying(address(cToken), amount_);\n            uint256 cBalanceAfter = cToken.balanceOf(address(this));\n            uint256 cTokenToRemove = sub(cBalanceBefore, cBalanceAfter);\n            funds[fund].cBalance = sub(funds[fund].cBalance, cTokenToRemove);\n            if (!custom(fund)) {cTokenMarketLiquidity = sub(cTokenMarketLiquidity, cTokenToRemove);}\n        } else {\n            funds[fund].balance = sub(funds[fund].balance, amount_);\n            if (!custom(fund)) {tokenMarketLiquidity = sub(tokenMarketLiquidity, amount_);}\n        }\n        if (!custom(fund)) {\n            totalBorrow = add(totalBorrow, amount_);\n            calcGlobalInterest();\n        }\n    }\n\n    /**\n     * @dev Get the next 4 secret hashes required for loan\n     * @param addr_ Address of Lender or Arbiter\n     */\n    function getSecretHashesForLoan(address addr_) private returns (bytes32[4] memory) {\n        secretHashIndex[addr_] = add(secretHashIndex[addr_], 4);\n        require(secretHashesCount(addr_) >= secretHashIndex[addr_], \"Funds.getSecretHashesForLoan: Not enough secrets generated\");\n        return [\n            secretHashes[addr_][sub(secretHashIndex[addr_], 4)],\n            secretHashes[addr_][sub(secretHashIndex[addr_], 3)],\n            secretHashes[addr_][sub(secretHashIndex[addr_], 2)],\n            secretHashes[addr_][sub(secretHashIndex[addr_], 1)]\n        ];\n    }\n}\n",
    "sourcePath": "/Users/matthewblack/atomicloans/atomicloans-eth-contracts/contracts/Funds.sol",
    "compiler": {
        "name": "solc",
        "version": "0.5.10+commit.5a6ea5b1.Emscripten.clang"
    },
    "schemaVersion": "3.0.11",
    "updatedAt": "2020-02-23T04:11:13.176Z",
    "devdoc": {
        "author": "Atomic Loans",
        "methods": {
            "arbiter(bytes32)": {
                "params": {
                    "fund": "The Id of a Loan Fund"
                },
                "return": "The address of the arbiter for a Loan fund"
            },
            "balance(bytes32)": {
                "params": {
                    "fund": "The Id of a Loan Fund"
                },
                "return": "The amount of tokens remaining in Loan Fund"
            },
            "calcGlobalInterest()": {
                "details": "Implementation returns Global Interest Rate per second in RAY     *      Note: Only updates interest rate if interestUpdateDelay has passed since last update           if utilizationRatio increases newAPR = oldAPR + (min(10%, utilizationRatio) / 10)           if utilizationRatio decreases newAPR = oldAPR - (max(10%, utilizationRatio) / 10)           APR should be less than or equal to 1%           For every 10% change in utilization ratio, the interest rate will change a maximum of 1%           i.e. newAPR = 11.5% + (10% / 10) = 12.5%     "
            },
            "calcInterest(uint256,uint256,uint256)": {
                "params": {
                    "amount_": "The amount of tokens",
                    "loanDur_": "The loan duration in seconds",
                    "rate_": "1 + nominal per second interest rate in percentage terms"
                }
            },
            "constructor": {
                "params": {
                    "decimals_": "The number of decimals in the stablecoin token",
                    "token_": "The address of the stablecoin token"
                }
            },
            "create(uint256,uint256,address,bool,uint256)": {
                "params": {
                    "amount_": "Amount of tokens to be deposited on creation",
                    "arbiter_": "Optional address of arbiter",
                    "compoundEnabled_": "Indicator whether excess funds should be lent on Compound",
                    "maxLoanDur_": "Max Loan Duration of Loan Fund in seconds"
                },
                "return": "The Id of a Loan Fund     *         Note: Only one loan fund is allowed per ethereum address.              Exception is made for the deployer for testing."
            },
            "createCustom(uint256,uint256,uint256,uint256,uint256,uint256,uint256,uint256,uint256,address,bool,uint256)": {
                "params": {
                    "amount_": "Amount of tokens to be deposited on creation",
                    "arbiter_": "Optional address of arbiter",
                    "compoundEnabled_": "Indicator whether excess funds should be lent on Compound",
                    "maxLoanAmt_": "Maximum amount of tokens that can be borrowed from Loan Fund",
                    "maxLoanDur_": "Maximum length of loan that can be requested from Loan Fund in seconds",
                    "minLoanAmt_": "Minimum amount of tokens that can be borrowed from Loan Fund",
                    "minLoanDur_": "Minimum length of loan that can be requested from Loan Fund in seconds"
                },
                "return": "The Id of a Loan Fund     *         Note: Only one loan fund is allowed per ethereum address.              Exception is made for the deployer for testing."
            },
            "custom(bytes32)": {
                "params": {
                    "fund": "The Id of a Loan Fund"
                },
                "return": "The indicator of whether a Loan Fund is custom or not"
            },
            "decreaseTotalBorrow(uint256)": {
                "params": {
                    "amount_": "The amount of tokens to decrease totalBorrow by"
                }
            },
            "deposit(bytes32,uint256)": {
                "params": {
                    "amount_": "Amount of tokens to deposit     *        Note: Anyone can deposit tokens into a Loan Fund",
                    "fund": "The Id of a Loan Fund"
                }
            },
            "disableCompound(bytes32)": {
                "params": {
                    "fund": "The Id of a Loan Fund"
                }
            },
            "enableCompound(bytes32)": {
                "params": {
                    "fund": "The Id of a Loan Fund"
                }
            },
            "ensureNotZero(uint256,bool)": {
                "details": "Ensure null values for fundExpiry and maxLoanDur are set to MAX_LOAN_LENGTH",
                "params": {
                    "value": "The value to be sanity checked"
                }
            },
            "fee(bytes32)": {
                "params": {
                    "fund": "The Id of a Loan Fund"
                },
                "return": "The optional automation fee rate of Loan Fund in RAY per second"
            },
            "fundExpiry(bytes32)": {
                "params": {
                    "fund": "The Id of a Loan Fund"
                },
                "return": "The maximum duration loan that can be requested from a Loan Fund"
            },
            "generate(bytes32[])": {
                "params": {
                    "secretHashes_": "List of secretHashes"
                }
            },
            "getComptrollerAddress()": {
                "details": "get Compound Comptroller Address"
            },
            "interest(bytes32)": {
                "params": {
                    "fund": "The Id of a Loan Fund"
                },
                "return": "The interest rate per second for a Loan Fund in RAY per second"
            },
            "lender(bytes32)": {
                "params": {
                    "fund": "The Id of a Loan Fund"
                },
                "return": "Owner address of Loan Fund"
            },
            "liquidationRatio(bytes32)": {
                "params": {
                    "fund": "The Id of a Loan Fund"
                },
                "return": "The liquidation ratio of Loan Fund in RAY"
            },
            "maxLoanAmt(bytes32)": {
                "params": {
                    "fund": "The Id of a Loan Fund"
                },
                "return": "The maximum amount of tokens that can be requested from a Loan Fund"
            },
            "maxLoanDur(bytes32)": {
                "params": {
                    "fund": "The Id of a Loan Fund"
                },
                "return": "The maximum duration loan that can be requested from a Loan Fund"
            },
            "minLoanAmt(bytes32)": {
                "params": {
                    "fund": "The Id of a Loan Fund"
                },
                "return": "The minimum amount of tokens that can be requested from a Loan Fund"
            },
            "minLoanDur(bytes32)": {
                "params": {
                    "fund": "The Id of a Loan Fund"
                },
                "return": "The minimum duration loan that can be requested from a Loan Fund"
            },
            "penalty(bytes32)": {
                "params": {
                    "fund": "The Id of a Loan Fund"
                },
                "return": "The liquidation penalty rate per second for a Loan Fund in RAY per second"
            },
            "request(bytes32,address,uint256,uint256,uint256,uint256,bytes32[8],bytes,bytes)": {
                "params": {
                    "amount_": "Amount of tokens to request",
                    "collateral_": "Amount of collateral to deposit in satoshis",
                    "fund": "The Id of a Loan Fund",
                    "loanDur_": "Length of loan request in seconds",
                    "pubKeyA_": "Borrower Bitcoin public key to use for refunding collateral",
                    "pubKeyB_": "Lender Bitcoin public key to use for refunding collateral     *        Note: Borrower client should verify params after Ethereum tx             confirmation before locking Bitcoin.     ",
                    "secretHashes_": "4 Borrower Secret Hashes and 4 Lender Secret Hashes"
                }
            },
            "secretHashesCount(address)": {
                "params": {
                    "addr_": "The address of the user"
                },
                "return": "The length of the secretHashes array for user address"
            },
            "setCompound(address,address)": {
                "details": "Enables assets in loan fund that haven't been borrowed to be lent on Compound",
                "params": {
                    "cToken_": "The address of the Compound Token",
                    "comptroller_": "The address of the Compound Comptroller"
                }
            },
            "setDefaultArbiterFee(uint256)": {
                "details": "Sets the Default Arbiter Fee"
            },
            "setGlobalInterestRate(uint256)": {
                "details": "Sets the Global Interest Rate"
            },
            "setGlobalInterestRateNumerator(uint256)": {
                "details": "Sets the Global Interest Rate Numerator"
            },
            "setInterestUpdateDelay(uint256)": {
                "details": "Sets the Interest Update Delay"
            },
            "setLoans(address)": {
                "details": "Sets Loans contract",
                "params": {
                    "loans_": "Address of Loans contract"
                }
            },
            "setMaxInterestRateNumerator(uint256)": {
                "details": "Sets the Maximum Interest Rate Numerator"
            },
            "setMaxUtilizationDelta(uint256)": {
                "details": "Sets the Max Utilization Delta"
            },
            "setMinInterestRateNumerator(uint256)": {
                "details": "Sets the Minimum Interest Rate Numerator"
            },
            "setPubKey(bytes)": {
                "params": {
                    "pubKey_": "Bitcoin Public Key"
                }
            },
            "setUtilizationInterestDivisor(uint256)": {
                "details": "Sets the Utilization Interest Divisor"
            },
            "update(bytes32,uint256,uint256,address)": {
                "params": {
                    "arbiter_": "Optional address of the arbiter for a Loan fund     *        Note: msg.sender must be the lender of the Loan Fund",
                    "fund": "The Id of a Loan Fund",
                    "fundExpiry_": "Timestamp when all funds should be removable from Loan Fund",
                    "maxLoanDur_": "Maximum length of loan that can be requested from Loan Fund in seconds"
                }
            },
            "updateCustom(bytes32,uint256,uint256,uint256,uint256,uint256,uint256,uint256,uint256,uint256,address)": {
                "params": {
                    "arbiter_": "Optional address of the arbiter for a Loan fund     *        Note: msg.sender must be the lender of the Loan Fund",
                    "fee_": "The optional automation fee rate of Loan Fund in RAY per second",
                    "fund": "The Id of a Loan Fund",
                    "fundExpiry_": "Timestamp when all funds should be removable from Loan Fund",
                    "interest_": "The interest rate per second for a Loan Fund in RAY per second",
                    "liquidationRatio_": "The liquidation ratio of Loan Fund in RAY",
                    "maxLoanAmt_": "Maximum amount of tokens that can be borrowed from Loan Fund",
                    "maxLoanDur_": "Maximum length of loan that can be requested from Loan Fund in seconds",
                    "minLoanAmt_": "Minimum amount of tokens that can be borrowed from Loan Fund",
                    "minLoanDur_": "Minimum length of loan that can be requested from Loan Fund in seconds",
                    "penalty_": "The liquidation penalty rate per second for a Loan Fund in RAY per second"
                }
            },
            "withdraw(bytes32,uint256)": {
                "params": {
                    "amount_": "Amount of tokens to withdraw",
                    "fund": "The Id of a Loan Fund"
                }
            },
            "withdrawTo(bytes32,uint256,address)": {
                "params": {
                    "amount_": "Amount of tokens to withdraw",
                    "fund": "The Id of a Loan Fund",
                    "recipient_": "Address that should receive the funds"
                }
            }
        },
        "title": "Atomic Loans Funds Contract"
    },
    "userdoc": {
        "methods": {
            "arbiter(bytes32)": {
                "notice": "Get the arbiter for a Loan Fund"
            },
            "balance(bytes32)": {
                "notice": "Get the current balance of a Loan Fund in tokens"
            },
            "calcGlobalInterest()": {
                "notice": "Calculate and update Global Interest Rate"
            },
            "calcInterest(uint256,uint256,uint256)": {
                "notice": "Calculate compound interest for a length of time"
            },
            "constructor": "Construct a new Funds contract",
            "create(uint256,uint256,address,bool,uint256)": {
                "notice": "Lenders create Loan Fund using Global Protocol parameters and deposit assets"
            },
            "createCustom(uint256,uint256,uint256,uint256,uint256,uint256,uint256,uint256,uint256,address,bool,uint256)": {
                "notice": "Lenders create Loan Fund using Custom parameters and deposit assets"
            },
            "custom(bytes32)": {
                "notice": "Get the custom indicator for a Loan Fund"
            },
            "decreaseTotalBorrow(uint256)": {
                "notice": "Decrease Total Borrow by Loans contract"
            },
            "deposit(bytes32,uint256)": {
                "notice": "Lenders deposit tokens in Loan Fund"
            },
            "disableCompound(bytes32)": {
                "notice": "Disable Compound for Loan Fund"
            },
            "enableCompound(bytes32)": {
                "notice": "Enable Compound for Loan Fund"
            },
            "fee(bytes32)": {
                "notice": "Get the optional automation fee for a Loan Fund"
            },
            "fundExpiry(bytes32)": {
                "notice": "Get maximum loan duration able to be requested by a 'borrower'"
            },
            "generate(bytes32[])": {
                "notice": "Submit secretHashes to be used with future loans"
            },
            "interest(bytes32)": {
                "notice": "Get the interest rate for a Loan Fund"
            },
            "lender(bytes32)": {
                "notice": "Get the lender of a Loan Fund"
            },
            "liquidationRatio(bytes32)": {
                "notice": "Get the liquidation ratio of a Loan Fund"
            },
            "maxLoanAmt(bytes32)": {
                "notice": "Get maximum loan amount able to be requested by a 'borrower'"
            },
            "maxLoanDur(bytes32)": {
                "notice": "Get maximum loan duration able to be requested by a 'borrower'"
            },
            "minLoanAmt(bytes32)": {
                "notice": "Get minimum loan amount able to be requested by a 'borrower'"
            },
            "minLoanDur(bytes32)": {
                "notice": "Get minimum loan duration able to be requested by a 'borrower'"
            },
            "penalty(bytes32)": {
                "notice": "Get the liquidation penalty rate for a Loan Fund"
            },
            "request(bytes32,address,uint256,uint256,uint256,uint256,bytes32[8],bytes,bytes)": {
                "notice": "Lenders request loan from Loan Fund on behalf of Borrower"
            },
            "secretHashesCount(address)": {
                "notice": "Get the number of secretHashes provided per address"
            },
            "setPubKey(bytes)": {
                "notice": "Set Lender or Arbiter Bitcoin Public Key"
            },
            "update(bytes32,uint256,uint256,address)": {
                "notice": "Users update Loan Fund settings"
            },
            "updateCustom(bytes32,uint256,uint256,uint256,uint256,uint256,uint256,uint256,uint256,uint256,address)": {
                "notice": "Users update custom Loan Fund settings"
            },
            "withdraw(bytes32,uint256)": {
                "notice": "Lenders withdraw tokens in Loan Fund"
            },
            "withdrawTo(bytes32,uint256,address)": {
                "notice": "Lenders withdraw tokens in Loan Fund"
            }
        }
    }
}