{
    "contractName": "Loans",
    "abi": [
        {
            "constant": true,
            "inputs": [],
            "name": "MAX_NUM_LIQUIDATIONS",
            "outputs": [
                {
                    "name": "",
                    "type": "uint256"
                }
            ],
            "payable": false,
            "stateMutability": "view",
            "type": "function"
        },
        {
            "constant": true,
            "inputs": [],
            "name": "decimals",
            "outputs": [
                {
                    "name": "",
                    "type": "uint256"
                }
            ],
            "payable": false,
            "stateMutability": "view",
            "type": "function"
        },
        {
            "constant": true,
            "inputs": [],
            "name": "LIQUIDATION_EXP_THRESHOLD",
            "outputs": [
                {
                    "name": "",
                    "type": "uint256"
                }
            ],
            "payable": false,
            "stateMutability": "view",
            "type": "function"
        },
        {
            "constant": true,
            "inputs": [
                {
                    "name": "",
                    "type": "address"
                },
                {
                    "name": "",
                    "type": "uint256"
                }
            ],
            "name": "lenderLoans",
            "outputs": [
                {
                    "name": "",
                    "type": "bytes32"
                }
            ],
            "payable": false,
            "stateMutability": "view",
            "type": "function"
        },
        {
            "constant": true,
            "inputs": [],
            "name": "MAX_UINT_256",
            "outputs": [
                {
                    "name": "",
                    "type": "uint256"
                }
            ],
            "payable": false,
            "stateMutability": "view",
            "type": "function"
        },
        {
            "constant": true,
            "inputs": [
                {
                    "name": "",
                    "type": "bytes32"
                }
            ],
            "name": "bools",
            "outputs": [
                {
                    "name": "funded",
                    "type": "bool"
                },
                {
                    "name": "approved",
                    "type": "bool"
                },
                {
                    "name": "withdrawn",
                    "type": "bool"
                },
                {
                    "name": "sale",
                    "type": "bool"
                },
                {
                    "name": "paid",
                    "type": "bool"
                },
                {
                    "name": "off",
                    "type": "bool"
                }
            ],
            "payable": false,
            "stateMutability": "view",
            "type": "function"
        },
        {
            "constant": true,
            "inputs": [
                {
                    "name": "",
                    "type": "address"
                },
                {
                    "name": "",
                    "type": "uint256"
                }
            ],
            "name": "addressToTimestamp",
            "outputs": [
                {
                    "name": "",
                    "type": "bool"
                }
            ],
            "payable": false,
            "stateMutability": "view",
            "type": "function"
        },
        {
            "constant": true,
            "inputs": [
                {
                    "name": "",
                    "type": "bytes32"
                }
            ],
            "name": "pubKeys",
            "outputs": [
                {
                    "name": "borrowerPubKey",
                    "type": "bytes"
                },
                {
                    "name": "lenderPubKey",
                    "type": "bytes"
                },
                {
                    "name": "arbiterPubKey",
                    "type": "bytes"
                }
            ],
            "payable": false,
            "stateMutability": "view",
            "type": "function"
        },
        {
            "constant": true,
            "inputs": [],
            "name": "loanIndex",
            "outputs": [
                {
                    "name": "",
                    "type": "uint256"
                }
            ],
            "payable": false,
            "stateMutability": "view",
            "type": "function"
        },
        {
            "constant": true,
            "inputs": [],
            "name": "LIQUIDATION_DISCOUNT",
            "outputs": [
                {
                    "name": "",
                    "type": "uint256"
                }
            ],
            "payable": false,
            "stateMutability": "view",
            "type": "function"
        },
        {
            "constant": true,
            "inputs": [],
            "name": "ACCEPT_EXP_THRESHOLD",
            "outputs": [
                {
                    "name": "",
                    "type": "uint256"
                }
            ],
            "payable": false,
            "stateMutability": "view",
            "type": "function"
        },
        {
            "constant": true,
            "inputs": [
                {
                    "name": "",
                    "type": "bytes32"
                }
            ],
            "name": "fundIndex",
            "outputs": [
                {
                    "name": "",
                    "type": "bytes32"
                }
            ],
            "payable": false,
            "stateMutability": "view",
            "type": "function"
        },
        {
            "constant": true,
            "inputs": [],
            "name": "APPROVE_EXP_THRESHOLD",
            "outputs": [
                {
                    "name": "",
                    "type": "uint256"
                }
            ],
            "payable": false,
            "stateMutability": "view",
            "type": "function"
        },
        {
            "constant": true,
            "inputs": [
                {
                    "name": "",
                    "type": "bytes32"
                }
            ],
            "name": "loans",
            "outputs": [
                {
                    "name": "borrower",
                    "type": "address"
                },
                {
                    "name": "lender",
                    "type": "address"
                },
                {
                    "name": "arbiter",
                    "type": "address"
                },
                {
                    "name": "createdAt",
                    "type": "uint256"
                },
                {
                    "name": "loanExpiration",
                    "type": "uint256"
                },
                {
                    "name": "requestTimestamp",
                    "type": "uint256"
                },
                {
                    "name": "closedTimestamp",
                    "type": "uint256"
                },
                {
                    "name": "principal",
                    "type": "uint256"
                },
                {
                    "name": "interest",
                    "type": "uint256"
                },
                {
                    "name": "penalty",
                    "type": "uint256"
                },
                {
                    "name": "fee",
                    "type": "uint256"
                },
                {
                    "name": "liquidationRatio",
                    "type": "uint256"
                }
            ],
            "payable": false,
            "stateMutability": "view",
            "type": "function"
        },
        {
            "constant": true,
            "inputs": [],
            "name": "SEIZURE_EXP_THRESHOLD",
            "outputs": [
                {
                    "name": "",
                    "type": "uint256"
                }
            ],
            "payable": false,
            "stateMutability": "view",
            "type": "function"
        },
        {
            "constant": true,
            "inputs": [
                {
                    "name": "",
                    "type": "bytes32"
                }
            ],
            "name": "secretHashes",
            "outputs": [
                {
                    "name": "secretHashA1",
                    "type": "bytes32"
                },
                {
                    "name": "secretHashB1",
                    "type": "bytes32"
                },
                {
                    "name": "secretHashC1",
                    "type": "bytes32"
                },
                {
                    "name": "withdrawSecret",
                    "type": "bytes32"
                },
                {
                    "name": "acceptSecret",
                    "type": "bytes32"
                },
                {
                    "name": "set",
                    "type": "bool"
                }
            ],
            "payable": false,
            "stateMutability": "view",
            "type": "function"
        },
        {
            "constant": true,
            "inputs": [
                {
                    "name": "",
                    "type": "address"
                },
                {
                    "name": "",
                    "type": "uint256"
                }
            ],
            "name": "borrowerLoans",
            "outputs": [
                {
                    "name": "",
                    "type": "bytes32"
                }
            ],
            "payable": false,
            "stateMutability": "view",
            "type": "function"
        },
        {
            "constant": true,
            "inputs": [
                {
                    "name": "",
                    "type": "bytes32"
                }
            ],
            "name": "repayments",
            "outputs": [
                {
                    "name": "",
                    "type": "uint256"
                }
            ],
            "payable": false,
            "stateMutability": "view",
            "type": "function"
        },
        {
            "constant": true,
            "inputs": [
                {
                    "name": "x",
                    "type": "uint256"
                },
                {
                    "name": "y",
                    "type": "uint256"
                }
            ],
            "name": "cmul",
            "outputs": [
                {
                    "name": "z",
                    "type": "uint256"
                }
            ],
            "payable": false,
            "stateMutability": "pure",
            "type": "function"
        },
        {
            "constant": true,
            "inputs": [],
            "name": "token",
            "outputs": [
                {
                    "name": "",
                    "type": "address"
                }
            ],
            "payable": false,
            "stateMutability": "view",
            "type": "function"
        },
        {
            "inputs": [
                {
                    "name": "funds_",
                    "type": "address"
                },
                {
                    "name": "med_",
                    "type": "address"
                },
                {
                    "name": "token_",
                    "type": "address"
                },
                {
                    "name": "decimals_",
                    "type": "uint256"
                }
            ],
            "payable": false,
            "stateMutability": "nonpayable",
            "type": "constructor"
        },
        {
            "anonymous": false,
            "inputs": [
                {
                    "indexed": false,
                    "name": "loan",
                    "type": "bytes32"
                }
            ],
            "name": "Create",
            "type": "event"
        },
        {
            "anonymous": false,
            "inputs": [
                {
                    "indexed": false,
                    "name": "loan",
                    "type": "bytes32"
                }
            ],
            "name": "SetSecretHashes",
            "type": "event"
        },
        {
            "anonymous": false,
            "inputs": [
                {
                    "indexed": false,
                    "name": "loan",
                    "type": "bytes32"
                }
            ],
            "name": "FundLoan",
            "type": "event"
        },
        {
            "anonymous": false,
            "inputs": [
                {
                    "indexed": false,
                    "name": "loan",
                    "type": "bytes32"
                }
            ],
            "name": "Approve",
            "type": "event"
        },
        {
            "anonymous": false,
            "inputs": [
                {
                    "indexed": false,
                    "name": "loan",
                    "type": "bytes32"
                },
                {
                    "indexed": false,
                    "name": "secretA1",
                    "type": "bytes32"
                }
            ],
            "name": "Withdraw",
            "type": "event"
        },
        {
            "anonymous": false,
            "inputs": [
                {
                    "indexed": false,
                    "name": "loan",
                    "type": "bytes32"
                },
                {
                    "indexed": false,
                    "name": "amount",
                    "type": "uint256"
                }
            ],
            "name": "Repay",
            "type": "event"
        },
        {
            "anonymous": false,
            "inputs": [
                {
                    "indexed": false,
                    "name": "loan",
                    "type": "bytes32"
                }
            ],
            "name": "Refund",
            "type": "event"
        },
        {
            "anonymous": false,
            "inputs": [
                {
                    "indexed": false,
                    "name": "loan",
                    "type": "bytes32"
                },
                {
                    "indexed": false,
                    "name": "secret",
                    "type": "bytes32"
                }
            ],
            "name": "Cancel",
            "type": "event"
        },
        {
            "anonymous": false,
            "inputs": [
                {
                    "indexed": false,
                    "name": "loan",
                    "type": "bytes32"
                },
                {
                    "indexed": false,
                    "name": "secret",
                    "type": "bytes32"
                }
            ],
            "name": "Accept",
            "type": "event"
        },
        {
            "anonymous": false,
            "inputs": [
                {
                    "indexed": false,
                    "name": "loan",
                    "type": "bytes32"
                },
                {
                    "indexed": false,
                    "name": "secretHash",
                    "type": "bytes32"
                },
                {
                    "indexed": false,
                    "name": "pubKeyHash",
                    "type": "bytes20"
                }
            ],
            "name": "Liquidate",
            "type": "event"
        },
        {
            "constant": true,
            "inputs": [
                {
                    "name": "loan",
                    "type": "bytes32"
                }
            ],
            "name": "borrower",
            "outputs": [
                {
                    "name": "",
                    "type": "address"
                }
            ],
            "payable": false,
            "stateMutability": "view",
            "type": "function"
        },
        {
            "constant": true,
            "inputs": [
                {
                    "name": "loan",
                    "type": "bytes32"
                }
            ],
            "name": "lender",
            "outputs": [
                {
                    "name": "",
                    "type": "address"
                }
            ],
            "payable": false,
            "stateMutability": "view",
            "type": "function"
        },
        {
            "constant": true,
            "inputs": [
                {
                    "name": "loan",
                    "type": "bytes32"
                }
            ],
            "name": "arbiter",
            "outputs": [
                {
                    "name": "",
                    "type": "address"
                }
            ],
            "payable": false,
            "stateMutability": "view",
            "type": "function"
        },
        {
            "constant": true,
            "inputs": [
                {
                    "name": "loan",
                    "type": "bytes32"
                }
            ],
            "name": "approveExpiration",
            "outputs": [
                {
                    "name": "",
                    "type": "uint256"
                }
            ],
            "payable": false,
            "stateMutability": "view",
            "type": "function"
        },
        {
            "constant": true,
            "inputs": [
                {
                    "name": "loan",
                    "type": "bytes32"
                }
            ],
            "name": "acceptExpiration",
            "outputs": [
                {
                    "name": "",
                    "type": "uint256"
                }
            ],
            "payable": false,
            "stateMutability": "view",
            "type": "function"
        },
        {
            "constant": true,
            "inputs": [
                {
                    "name": "loan",
                    "type": "bytes32"
                }
            ],
            "name": "liquidationExpiration",
            "outputs": [
                {
                    "name": "",
                    "type": "uint256"
                }
            ],
            "payable": false,
            "stateMutability": "view",
            "type": "function"
        },
        {
            "constant": true,
            "inputs": [
                {
                    "name": "loan",
                    "type": "bytes32"
                }
            ],
            "name": "seizureExpiration",
            "outputs": [
                {
                    "name": "",
                    "type": "uint256"
                }
            ],
            "payable": false,
            "stateMutability": "view",
            "type": "function"
        },
        {
            "constant": true,
            "inputs": [
                {
                    "name": "loan",
                    "type": "bytes32"
                }
            ],
            "name": "principal",
            "outputs": [
                {
                    "name": "",
                    "type": "uint256"
                }
            ],
            "payable": false,
            "stateMutability": "view",
            "type": "function"
        },
        {
            "constant": true,
            "inputs": [
                {
                    "name": "loan",
                    "type": "bytes32"
                }
            ],
            "name": "interest",
            "outputs": [
                {
                    "name": "",
                    "type": "uint256"
                }
            ],
            "payable": false,
            "stateMutability": "view",
            "type": "function"
        },
        {
            "constant": true,
            "inputs": [
                {
                    "name": "loan",
                    "type": "bytes32"
                }
            ],
            "name": "fee",
            "outputs": [
                {
                    "name": "",
                    "type": "uint256"
                }
            ],
            "payable": false,
            "stateMutability": "view",
            "type": "function"
        },
        {
            "constant": true,
            "inputs": [
                {
                    "name": "loan",
                    "type": "bytes32"
                }
            ],
            "name": "penalty",
            "outputs": [
                {
                    "name": "",
                    "type": "uint256"
                }
            ],
            "payable": false,
            "stateMutability": "view",
            "type": "function"
        },
        {
            "constant": true,
            "inputs": [
                {
                    "name": "loan",
                    "type": "bytes32"
                }
            ],
            "name": "collateral",
            "outputs": [
                {
                    "name": "",
                    "type": "uint256"
                }
            ],
            "payable": false,
            "stateMutability": "view",
            "type": "function"
        },
        {
            "constant": true,
            "inputs": [
                {
                    "name": "loan",
                    "type": "bytes32"
                }
            ],
            "name": "refundableCollateral",
            "outputs": [
                {
                    "name": "",
                    "type": "uint256"
                }
            ],
            "payable": false,
            "stateMutability": "view",
            "type": "function"
        },
        {
            "constant": true,
            "inputs": [
                {
                    "name": "loan",
                    "type": "bytes32"
                }
            ],
            "name": "seizableCollateral",
            "outputs": [
                {
                    "name": "",
                    "type": "uint256"
                }
            ],
            "payable": false,
            "stateMutability": "view",
            "type": "function"
        },
        {
            "constant": true,
            "inputs": [
                {
                    "name": "loan",
                    "type": "bytes32"
                }
            ],
            "name": "temporaryRefundableCollateral",
            "outputs": [
                {
                    "name": "",
                    "type": "uint256"
                }
            ],
            "payable": false,
            "stateMutability": "view",
            "type": "function"
        },
        {
            "constant": true,
            "inputs": [
                {
                    "name": "loan",
                    "type": "bytes32"
                }
            ],
            "name": "temporarySeizableCollateral",
            "outputs": [
                {
                    "name": "",
                    "type": "uint256"
                }
            ],
            "payable": false,
            "stateMutability": "view",
            "type": "function"
        },
        {
            "constant": true,
            "inputs": [
                {
                    "name": "loan",
                    "type": "bytes32"
                }
            ],
            "name": "repaid",
            "outputs": [
                {
                    "name": "",
                    "type": "uint256"
                }
            ],
            "payable": false,
            "stateMutability": "view",
            "type": "function"
        },
        {
            "constant": true,
            "inputs": [
                {
                    "name": "loan",
                    "type": "bytes32"
                }
            ],
            "name": "liquidationRatio",
            "outputs": [
                {
                    "name": "",
                    "type": "uint256"
                }
            ],
            "payable": false,
            "stateMutability": "view",
            "type": "function"
        },
        {
            "constant": true,
            "inputs": [
                {
                    "name": "loan",
                    "type": "bytes32"
                }
            ],
            "name": "owedToLender",
            "outputs": [
                {
                    "name": "",
                    "type": "uint256"
                }
            ],
            "payable": false,
            "stateMutability": "view",
            "type": "function"
        },
        {
            "constant": true,
            "inputs": [
                {
                    "name": "loan",
                    "type": "bytes32"
                }
            ],
            "name": "owedForLoan",
            "outputs": [
                {
                    "name": "",
                    "type": "uint256"
                }
            ],
            "payable": false,
            "stateMutability": "view",
            "type": "function"
        },
        {
            "constant": true,
            "inputs": [
                {
                    "name": "loan",
                    "type": "bytes32"
                }
            ],
            "name": "owedForLiquidation",
            "outputs": [
                {
                    "name": "",
                    "type": "uint256"
                }
            ],
            "payable": false,
            "stateMutability": "view",
            "type": "function"
        },
        {
            "constant": true,
            "inputs": [
                {
                    "name": "loan",
                    "type": "bytes32"
                }
            ],
            "name": "owing",
            "outputs": [
                {
                    "name": "",
                    "type": "uint256"
                }
            ],
            "payable": false,
            "stateMutability": "view",
            "type": "function"
        },
        {
            "constant": true,
            "inputs": [
                {
                    "name": "loan",
                    "type": "bytes32"
                }
            ],
            "name": "funded",
            "outputs": [
                {
                    "name": "",
                    "type": "bool"
                }
            ],
            "payable": false,
            "stateMutability": "view",
            "type": "function"
        },
        {
            "constant": true,
            "inputs": [
                {
                    "name": "loan",
                    "type": "bytes32"
                }
            ],
            "name": "approved",
            "outputs": [
                {
                    "name": "",
                    "type": "bool"
                }
            ],
            "payable": false,
            "stateMutability": "view",
            "type": "function"
        },
        {
            "constant": true,
            "inputs": [
                {
                    "name": "loan",
                    "type": "bytes32"
                }
            ],
            "name": "withdrawn",
            "outputs": [
                {
                    "name": "",
                    "type": "bool"
                }
            ],
            "payable": false,
            "stateMutability": "view",
            "type": "function"
        },
        {
            "constant": true,
            "inputs": [
                {
                    "name": "loan",
                    "type": "bytes32"
                }
            ],
            "name": "sale",
            "outputs": [
                {
                    "name": "",
                    "type": "bool"
                }
            ],
            "payable": false,
            "stateMutability": "view",
            "type": "function"
        },
        {
            "constant": true,
            "inputs": [
                {
                    "name": "loan",
                    "type": "bytes32"
                }
            ],
            "name": "paid",
            "outputs": [
                {
                    "name": "",
                    "type": "bool"
                }
            ],
            "payable": false,
            "stateMutability": "view",
            "type": "function"
        },
        {
            "constant": true,
            "inputs": [
                {
                    "name": "loan",
                    "type": "bytes32"
                }
            ],
            "name": "off",
            "outputs": [
                {
                    "name": "",
                    "type": "bool"
                }
            ],
            "payable": false,
            "stateMutability": "view",
            "type": "function"
        },
        {
            "constant": true,
            "inputs": [
                {
                    "name": "x",
                    "type": "uint256"
                }
            ],
            "name": "dmul",
            "outputs": [
                {
                    "name": "",
                    "type": "uint256"
                }
            ],
            "payable": false,
            "stateMutability": "view",
            "type": "function"
        },
        {
            "constant": true,
            "inputs": [
                {
                    "name": "x",
                    "type": "uint256"
                }
            ],
            "name": "ddiv",
            "outputs": [
                {
                    "name": "",
                    "type": "uint256"
                }
            ],
            "payable": false,
            "stateMutability": "view",
            "type": "function"
        },
        {
            "constant": true,
            "inputs": [
                {
                    "name": "borrower_",
                    "type": "address"
                }
            ],
            "name": "borrowerLoanCount",
            "outputs": [
                {
                    "name": "",
                    "type": "uint256"
                }
            ],
            "payable": false,
            "stateMutability": "view",
            "type": "function"
        },
        {
            "constant": true,
            "inputs": [
                {
                    "name": "lender_",
                    "type": "address"
                }
            ],
            "name": "lenderLoanCount",
            "outputs": [
                {
                    "name": "",
                    "type": "uint256"
                }
            ],
            "payable": false,
            "stateMutability": "view",
            "type": "function"
        },
        {
            "constant": true,
            "inputs": [
                {
                    "name": "loan",
                    "type": "bytes32"
                }
            ],
            "name": "minSeizableCollateral",
            "outputs": [
                {
                    "name": "",
                    "type": "uint256"
                }
            ],
            "payable": false,
            "stateMutability": "view",
            "type": "function"
        },
        {
            "constant": true,
            "inputs": [
                {
                    "name": "loan",
                    "type": "bytes32"
                }
            ],
            "name": "collateralValue",
            "outputs": [
                {
                    "name": "",
                    "type": "uint256"
                }
            ],
            "payable": false,
            "stateMutability": "view",
            "type": "function"
        },
        {
            "constant": true,
            "inputs": [
                {
                    "name": "loan",
                    "type": "bytes32"
                }
            ],
            "name": "minCollateralValue",
            "outputs": [
                {
                    "name": "",
                    "type": "uint256"
                }
            ],
            "payable": false,
            "stateMutability": "view",
            "type": "function"
        },
        {
            "constant": true,
            "inputs": [
                {
                    "name": "loan",
                    "type": "bytes32"
                }
            ],
            "name": "discountCollateralValue",
            "outputs": [
                {
                    "name": "",
                    "type": "uint256"
                }
            ],
            "payable": false,
            "stateMutability": "view",
            "type": "function"
        },
        {
            "constant": true,
            "inputs": [
                {
                    "name": "loan",
                    "type": "bytes32"
                }
            ],
            "name": "safe",
            "outputs": [
                {
                    "name": "",
                    "type": "bool"
                }
            ],
            "payable": false,
            "stateMutability": "view",
            "type": "function"
        },
        {
            "constant": false,
            "inputs": [
                {
                    "name": "sales_",
                    "type": "address"
                }
            ],
            "name": "setSales",
            "outputs": [],
            "payable": false,
            "stateMutability": "nonpayable",
            "type": "function"
        },
        {
            "constant": false,
            "inputs": [
                {
                    "name": "col_",
                    "type": "address"
                }
            ],
            "name": "setCollateral",
            "outputs": [],
            "payable": false,
            "stateMutability": "nonpayable",
            "type": "function"
        },
        {
            "constant": false,
            "inputs": [
                {
                    "name": "loanExpiration_",
                    "type": "uint256"
                },
                {
                    "name": "usrs_",
                    "type": "address[3]"
                },
                {
                    "name": "vals_",
                    "type": "uint256[7]"
                },
                {
                    "name": "fund",
                    "type": "bytes32"
                }
            ],
            "name": "create",
            "outputs": [
                {
                    "name": "loan",
                    "type": "bytes32"
                }
            ],
            "payable": false,
            "stateMutability": "nonpayable",
            "type": "function"
        },
        {
            "constant": false,
            "inputs": [
                {
                    "name": "loan",
                    "type": "bytes32"
                },
                {
                    "name": "borrowerSecretHashes",
                    "type": "bytes32[4]"
                },
                {
                    "name": "lenderSecretHashes",
                    "type": "bytes32[4]"
                },
                {
                    "name": "arbiterSecretHashes",
                    "type": "bytes32[4]"
                },
                {
                    "name": "borrowerPubKey_",
                    "type": "bytes"
                },
                {
                    "name": "lenderPubKey_",
                    "type": "bytes"
                },
                {
                    "name": "arbiterPubKey_",
                    "type": "bytes"
                }
            ],
            "name": "setSecretHashes",
            "outputs": [],
            "payable": false,
            "stateMutability": "nonpayable",
            "type": "function"
        },
        {
            "constant": false,
            "inputs": [
                {
                    "name": "loan",
                    "type": "bytes32"
                }
            ],
            "name": "fund",
            "outputs": [],
            "payable": false,
            "stateMutability": "nonpayable",
            "type": "function"
        },
        {
            "constant": false,
            "inputs": [
                {
                    "name": "loan",
                    "type": "bytes32"
                }
            ],
            "name": "approve",
            "outputs": [],
            "payable": false,
            "stateMutability": "nonpayable",
            "type": "function"
        },
        {
            "constant": false,
            "inputs": [
                {
                    "name": "loan",
                    "type": "bytes32"
                },
                {
                    "name": "secretA1",
                    "type": "bytes32"
                }
            ],
            "name": "withdraw",
            "outputs": [],
            "payable": false,
            "stateMutability": "nonpayable",
            "type": "function"
        },
        {
            "constant": false,
            "inputs": [
                {
                    "name": "loan",
                    "type": "bytes32"
                },
                {
                    "name": "amount",
                    "type": "uint256"
                }
            ],
            "name": "repay",
            "outputs": [],
            "payable": false,
            "stateMutability": "nonpayable",
            "type": "function"
        },
        {
            "constant": false,
            "inputs": [
                {
                    "name": "loan",
                    "type": "bytes32"
                }
            ],
            "name": "refund",
            "outputs": [],
            "payable": false,
            "stateMutability": "nonpayable",
            "type": "function"
        },
        {
            "constant": false,
            "inputs": [
                {
                    "name": "loan",
                    "type": "bytes32"
                },
                {
                    "name": "secret",
                    "type": "bytes32"
                }
            ],
            "name": "cancel",
            "outputs": [],
            "payable": false,
            "stateMutability": "nonpayable",
            "type": "function"
        },
        {
            "constant": false,
            "inputs": [
                {
                    "name": "loan",
                    "type": "bytes32"
                }
            ],
            "name": "cancel",
            "outputs": [],
            "payable": false,
            "stateMutability": "nonpayable",
            "type": "function"
        },
        {
            "constant": false,
            "inputs": [
                {
                    "name": "loan",
                    "type": "bytes32"
                },
                {
                    "name": "secret",
                    "type": "bytes32"
                }
            ],
            "name": "accept",
            "outputs": [],
            "payable": false,
            "stateMutability": "nonpayable",
            "type": "function"
        },
        {
            "constant": false,
            "inputs": [
                {
                    "name": "loan",
                    "type": "bytes32"
                },
                {
                    "name": "secretHash",
                    "type": "bytes32"
                },
                {
                    "name": "pubKeyHash",
                    "type": "bytes20"
                }
            ],
            "name": "liquidate",
            "outputs": [
                {
                    "name": "sale_",
                    "type": "bytes32"
                }
            ],
            "payable": false,
            "stateMutability": "nonpayable",
            "type": "function"
        }
    ],
    "bytecode": "0x60806040523480156200001157600080fd5b5060405162005cae38038062005cae833981810160405260808110156200003757600080fd5b50805160208201516040830151606090930151919290916001600160a01b038416620000c457604080517f08c379a000000000000000000000000000000000000000000000000000000000815260206004820152601e60248201527f46756e64732061646472657373206d757374206265206e6f6e2d7a65726f0000604482015290519081900360640190fd5b6001600160a01b03831662000125576040517f08c379a000000000000000000000000000000000000000000000000000000000815260040180806020018281038252602381526020018062005c8b6023913960400191505060405180910390fd5b6001600160a01b0382166200019b57604080517f08c379a000000000000000000000000000000000000000000000000000000000815260206004820152601e60248201527f546f6b656e2061646472657373206d757374206265206e6f6e2d7a65726f0000604482015290519081900360640190fd5b60108054336001600160a01b0319918216179091556000805482166001600160a01b0387811691909117808355600180548516888416179055600e80549094168683161793849055600f859055604080517f095ea7b30000000000000000000000000000000000000000000000000000000081529183166004830152600019602483015251939091169263095ea7b392604480840193602093929083900390910190829087803b1580156200024f57600080fd5b505af115801562000264573d6000803e3d6000fd5b505050506040513d60208110156200027b57600080fd5b5051620002e957604080517f08c379a000000000000000000000000000000000000000000000000000000000815260206004820152601460248201527f546f6b656e20617070726f7665206661696c6564000000000000000000000000604482015290519081900360640190fd5b5050505061598e80620002fd6000396000f3fe608060405234801561001057600080fd5b50600436106104115760003560e01c80637a2e18fd11610220578063c4a9081511610130578063e91d14a4116100b8578063ee79b12b11610087578063ee79b12b14610da3578063f69736e014610eca578063f7837eb714610ee7578063fc0c546a14610f0a578063fcfd860514610f1257610411565b8063e91d14a414610d29578063e95823ad14610d46578063ebd1f26a14610d63578063ec7a4f4314610d8057610411565b8063c82e428d116100ff578063c82e428d14610a71578063d357691d14610c71578063df90997b14610cc3578063e3ed190214610ce0578063e3eff40814610d0c57610411565b8063c4a9081514610b86578063c4d252f514610c11578063c52c0c9814610c2e578063c71230bf14610c4b57610411565b80639e7c565e116101b3578063a5d9dc7b11610182578063a5d9dc7b14610b0a578063a632730714610b27578063add89bb214610b44578063ba38c83e14610b61578063bf14c11914610b6957610411565b80639e7c565e14610a965780639f9b3d3b14610ab35780639fc3f02f14610ad0578063a53a1adf14610aed57610411565b8063886abef5116101ef578063886abef514610a2e5780638fa6f57814610a5457806397bd506d14610a715780639b33997c14610a7957610411565b80637a2e18fd146109db5780637a8cfcb414610a015780637ff6fecc14610a0957806383f4ca7b14610a2657610411565b80633aaffb78116103265780635be765b8116102ae578063724b02ad1161027d578063724b02ad146107f757806376a0b166146108235780637865c3ad14610840578063787a969c1461085d5780637888938b146109be57610411565b80635be765b81461074457806363615149146107615780636e1719a6146107845780637249fbb6146107da57610411565b80633f6aff31116102f55780633f6aff31146106a457806344b6ba95146106ca5780634672d7bf146106e7578063531f4c401461070457806359949df41461072757610411565b80633aaffb781461064b5780633cdb72f1146106535780633d41a26b1461067f5780633e4b2a291461068757610411565b806326fc7590116103a95780632e3b81eb116103785780632e3b81eb146105a5578063305f9cb2146105d8578063313ce567146105f557806332025b69146105fd5780633823d66c1461061a57610411565b806326fc75901461053157806327cdab061461054e5780632cdc3c121461056b5780632e2cf9ca1461058857610411565b80630e112476116103e55780630e112476146104ab57806310375921146104c85780631594bbbe146104f75780631abc4a781461051457610411565b8062f989ad1461041657806301ec48431461043b578063080120bd146104555780630be1880f14610472575b600080fd5b6104396004803603604081101561042c57600080fd5b5080359060200135610f2f565b005b6104436112fd565b60408051918252519081900360200190f35b6104436004803603602081101561046b57600080fd5b5035611302565b61048f6004803603602081101561048857600080fd5b503561141b565b604080516001600160a01b039092168252519081900360200190f35b610443600480360360208110156104c157600080fd5b5035611436565b61044360048036036101808110156104df57600080fd5b5080359060208101906080810190610160013561150f565b6104436004803603602081101561050d57600080fd5b50356119a1565b6104436004803603602081101561052a57600080fd5b50356119c6565b6104436004803603602081101561054757600080fd5b50356119e4565b6104436004803603602081101561056457600080fd5b50356119f9565b6104436004803603602081101561058157600080fd5b5035611a0e565b6104436004803603602081101561059e57600080fd5b5035611a2d565b610443600480360360608110156105bb57600080fd5b50803590602081013590604001356001600160601b031916611aab565b610443600480360360208110156105ee57600080fd5b503561286b565b6104436128b7565b6104436004803603602081101561061357600080fd5b50356128bd565b6106376004803603602081101561063057600080fd5b50356128d4565b604080519115158252519081900360200190f35b6104436128ef565b6104436004803603604081101561066957600080fd5b506001600160a01b0381351690602001356128f6565b610443612924565b6104436004803603602081101561069d57600080fd5b503561292a565b610443600480360360208110156106ba57600080fd5b50356001600160a01b031661293c565b61048f600480360360208110156106e057600080fd5b5035612957565b610637600480360360208110156106fd57600080fd5b5035612975565b6104396004803603604081101561071a57600080fd5b5080359060200135612991565b6106376004803603602081101561073d57600080fd5b5035612d99565b6104436004803603602081101561075a57600080fd5b5035612db5565b6104396004803603604081101561077757600080fd5b5080359060200135612e01565b6107a16004803603602081101561079a57600080fd5b5035613270565b604080519615158752941515602087015292151585850152901515606085015215156080840152151560a0830152519081900360c00190f35b610439600480360360208110156107f057600080fd5b50356132b5565b6106376004803603604081101561080d57600080fd5b506001600160a01b0381351690602001356136c5565b6104436004803603602081101561083957600080fd5b50356136e5565b6106376004803603602081101561085657600080fd5b50356136fa565b61087a6004803603602081101561087357600080fd5b5035613714565b60405180806020018060200180602001848103845287818151815260200191508051906020019080838360005b838110156108bf5781810151838201526020016108a7565b50505050905090810190601f1680156108ec5780820380516001836020036101000a031916815260200191505b50848103835286518152865160209182019188019080838360005b8381101561091f578181015183820152602001610907565b50505050905090810190601f16801561094c5780820380516001836020036101000a031916815260200191505b50848103825285518152855160209182019187019080838360005b8381101561097f578181015183820152602001610967565b50505050905090810190601f1680156109ac5780820380516001836020036101000a031916815260200191505b50965050505050505060405180910390f35b610443600480360360208110156109d457600080fd5b50356138e5565b610439600480360360208110156109f157600080fd5b50356001600160a01b0316613901565b6104436139f9565b61044360048036036020811015610a1f57600080fd5b50356139ff565b610443613a1a565b61043960048036036020811015610a4457600080fd5b50356001600160a01b0316613a26565b61044360048036036020811015610a6a57600080fd5b5035613b1e565b610443613b6a565b61044360048036036020811015610a8f57600080fd5b5035613b71565b61044360048036036020811015610aac57600080fd5b5035613b88565b61063760048036036020811015610ac957600080fd5b5035613bd4565b61048f60048036036020811015610ae657600080fd5b5035613be9565b61043960048036036020811015610b0357600080fd5b5035613c07565b61044360048036036020811015610b2057600080fd5b5035613d4b565b61044360048036036020811015610b3d57600080fd5b5035613d5d565b61063760048036036020811015610b5a57600080fd5b5035613d74565b610443613d90565b61043960048036036020811015610b7f57600080fd5b5035613d96565b610ba360048036036020811015610b9c57600080fd5b5035613f6e565b604080516001600160a01b039d8e1681529b8d1660208d015299909b168a8a015260608a0197909752608089019590955260a088019390935260c087019190915260e08601526101008501526101208401526101408301526101608201929092529051908190036101800190f35b61043960048036036020811015610c2757600080fd5b5035613fdc565b61044360048036036020811015610c4457600080fd5b5035614158565b61044360048036036020811015610c6157600080fd5b50356001600160a01b031661416f565b610c8e60048036036020811015610c8757600080fd5b503561418a565b6040805196875260208701959095528585019390935260608501919091526080840152151560a0830152519081900360c00190f35b61044360048036036020811015610cd957600080fd5b50356141c2565b61044360048036036040811015610cf657600080fd5b506001600160a01b0381351690602001356141ed565b61044360048036036020811015610d2257600080fd5b5035614206565b61044360048036036020811015610d3f57600080fd5b503561421b565b61063760048036036020811015610d5c57600080fd5b5035614230565b61044360048036036020811015610d7957600080fd5b503561424c565b61043960048036036040811015610d9657600080fd5b508035906020013561425e565b6104396004803603610200811015610dba57600080fd5b813591602081019160a08201916101208101918101906101c081016101a0820135600160201b811115610dec57600080fd5b820183602082011115610dfe57600080fd5b803590602001918460018302840111600160201b83111715610e1f57600080fd5b919390929091602081019035600160201b811115610e3c57600080fd5b820183602082011115610e4e57600080fd5b803590602001918460018302840111600160201b83111715610e6f57600080fd5b919390929091602081019035600160201b811115610e8c57600080fd5b820183602082011115610e9e57600080fd5b803590602001918460018302840111600160201b83111715610ebf57600080fd5b5090925090506142a7565b61044360048036036020811015610ee057600080fd5b50356144ef565b61044360048036036040811015610efd57600080fd5b5080359060200135614506565b61048f614537565b61044360048036036020811015610f2857600080fd5b5035614546565b610f3882612d99565b15610f745760405162461bcd60e51b8152600401808060200182810382526024815260200180614e5e6024913960400191505060405180910390fd5b610f7d82612975565b15610fb95760405162461bcd60e51b81526004018080602001828103825260348152602001806154e86034913960400191505060405180910390fd5b60008281526007602052604090205462010000900460ff1615156001146110115760405162461bcd60e51b815260040180806020018281038252602d8152602001806158e3602d913960400191505060405180910390fd5b600082815260046020819052604090912001544211156110625760405162461bcd60e51b815260040180806020018281038252602581526020018061551c6025913960400191505060405180910390fd5b61106b826128bd565b61107d826110788561292a565b614561565b11156110ba5760405162461bcd60e51b81526004018080602001828103825260338152602001806150546033913960400191505060405180910390fd5b600e54604080516323b872dd60e01b81523360048201523060248201526044810184905290516001600160a01b03909216916323b872dd916064808201926020929091908290030181600087803b15801561111457600080fd5b505af1158015611128573d6000803e3d6000fd5b505050506040513d602081101561113e57600080fd5b505161117b5760405162461bcd60e51b815260040180806020018281038252602681526020018061567e6026913960400191505060405180910390fd5b600082815260096020526040902054611195908290614561565b6000838152600960205260409020556111ad826128bd565b6111b68361292a565b14156112be576000828152600760209081526040808320805464ff000000001916600160201b1790556003548151633a51d29160e21b815291516001600160a01b03919091169263e9474a449260048181019391829003018186803b15801561121e57600080fd5b505afa158015611232573d6000803e3d6000fd5b505050506040513d602081101561124857600080fd5b50516001600160a01b0316146112be576003546040805163b32fefbf60e01b81526004810185905290516001600160a01b039092169163b32fefbf9160248082019260009290919082900301818387803b1580156112a557600080fd5b505af11580156112b9573d6000803e3d6000fd5b505050505b604080518381526020810183905281517f59454c2c3385a95399182e59da91521ee5621f0211b9f016ff08b2e8e5fc9843929181900390910190a15050565b600381565b6000806000600160009054906101000a90046001600160a01b03166001600160a01b03166359e02dd76040518163ffffffff1660e01b8152600401604080518083038186803b15801561135457600080fd5b505afa158015611368573d6000803e3d6000fd5b505050506040513d604081101561137e57600080fd5b5080516020909101519092509050806113c85760405162461bcd60e51b81526004018080602001828103825260338152602001806155416033913960400191505060405180910390fd5b816114126113f76113f16113ec6113de896128bd565b6113e78a61292a565b614571565b614546565b83614581565b61140d670de0b6b3a76400006305f5e1006145a1565b6145a1565b95945050505050565b6000908152600460205260409020546001600160a01b031690565b6000806000600160009054906101000a90046001600160a01b03166001600160a01b03166359e02dd76040518163ffffffff1660e01b8152600401604080518083038186803b15801561148857600080fd5b505afa15801561149c573d6000803e3d6000fd5b505050506040513d60408110156114b257600080fd5b5080516020909101519092509050806114fc5760405162461bcd60e51b815260040180806020018281038252602d8152602001806155a7602d913960400191505060405180910390fd5b816114128161150a87613b88565b614506565b600081156115d75760005460408051639fc3f02f60e01b81526004810185905290516020878101356001600160a01b03908116941692639fc3f02f9260248083019392829003018186803b15801561156657600080fd5b505afa15801561157a573d6000803e3d6000fd5b505050506040513d602081101561159057600080fd5b50516001600160a01b0316146115d75760405162461bcd60e51b81526004018080602001828103825260288152602001806154746028913960400191505060405180910390fd5b83356001600160a01b03166000908152600c6020908152604080832060c0870135845290915290205460ff161561163f5760405162461bcd60e51b815260040180806020018281038252603a81526020018061519e603a913960400191505060405180910390fd5b42851161167d5760405162461bcd60e51b81526004018080602001828103825260378152602001806151346037913960400191505060405180910390fd5b6001600160a01b03843516158015906116a257506001600160a01b0360208501351615155b6116dd5760405162461bcd60e51b815260040180806020018281038252603a8152602001806153cf603a913960400191505060405180910390fd5b8235158015906116f05750608083013515155b61172b5760405162461bcd60e51b8152600401808060200182810382526037815260200180614ef36037913960400191505060405180910390fd5b60a083013515801590611741575060c083013515155b61177c5760405162461bcd60e51b81526004018080602001828103825260468152602001806150ee6046913960600191505060405180910390fd5b611789600d546001614561565b600d81905560008181526004602081815260408084204260038201559283018a905582546001600160a01b03199081166001600160a01b038b35811691909117855560018501805483168c86013583161790556002850180549092168b8401359091161790558735600784015590870135600883015586013560098201556060860135600a9091015590915061181e82611302565b6003549091506001600160a01b0316639a7e740183611841608088013585614571565b846040518463ffffffff1660e01b8152600401808481526020018381526020018281526020019350505050600060405180830381600087803b15801561188657600080fd5b505af115801561189a573d6000803e3d6000fd5b50505050836005600781106118ab57fe5b60008481526004602090815260408083209382029490940135600b8085019190915560c089013560059094018490556008825284832088905560068252848320600e01805460ff199081169091556001600160a01b038b358116808652600a8552878620600d8054825460018181018555938a52888a2001558e8701359093168752938552878620915482548086018455928752858720909201919091558452600c8352858420948452938252918490208054909316909117909155815184815291517fa7857d7da6974b0157f3bf7dd25a745bd7d81d845bb525ee0b316a87541a5c319281900390910190a150949350505050565b6000818152600460208190526040822001546119c0906202a300614561565b92915050565b6000818152600460205260408120600301546119c090611c20614561565b60009081526004602052604090206009015490565b6000908152600460205260409020600a015490565b6000818152600460208190526040822001546119c09062093a80614561565b600354604080516317167ce560e11b81526004810184905290516000926001600160a01b031691632e2cf9ca916024808301926020929190829003018186803b158015611a7957600080fd5b505afa158015611a8d573d6000803e3d6000fd5b505050506040513d6020811015611aa357600080fd5b505192915050565b6000611ab684612d99565b15611af25760405162461bcd60e51b815260040180806020018281038252602a815260200180614f2a602a913960400191505060405180910390fd5b60008481526007602052604090205462010000900460ff161515600114611b4a5760405162461bcd60e51b8152600401808060200182810382526031815260200180614ec26031913960400191505060405180910390fd5b6000848152600460205260409020546001600160a01b03163314801590611b8b57506000848152600460205260409020600101546001600160a01b03163314155b611bc65760405162461bcd60e51b81526004018080602001828103825260318152602001806156ce6031913960400191505060405180910390fd5b8215801590611bde57506001600160601b0319821615155b611c195760405162461bcd60e51b815260040180806020018281038252603b815260200180614f54603b913960400191505060405180910390fd5b600254604080516302d3af5b60e01b81526004810187905290516001600160a01b03909216916302d3af5b91602480820192602092909190829003018186803b158015611c6557600080fd5b505afa158015611c79573d6000803e3d6000fd5b505050506040513d6020811015611c8f57600080fd5b5051611ea45760008481526004602081905260409091200154421115611d0957600084815260076020526040902054600160201b900460ff1615611d045760405162461bcd60e51b81526004018080602001828103825260378152602001806151d86037913960400191505060405180910390fd5b611d4e565b611d1284614230565b15611d4e5760405162461bcd60e51b815260040180806020018281038252604c81526020018061549c604c913960600191505060405180910390fd5b60008054858252600860209081526040928390205483516301431c9560e71b8152600481019190915292516001600160a01b039092169263a18e4a809260248083019392829003018186803b158015611da657600080fd5b505afa158015611dba573d6000803e3d6000fd5b505050506040513d6020811015611dd057600080fd5b5051611e9f5760008054858252600460208190526040808420600701548151637249992b60e11b815292830152516001600160a01b039092169263e49332569260248084019382900301818387803b158015611e2b57600080fd5b505af1158015611e3f573d6000803e3d6000fd5b505060008054604080516333549b1b60e01b815290516001600160a01b0390921694506333549b1b9350600480820193929182900301818387803b158015611e8657600080fd5b505af1158015611e9a573d6000803e3d6000fd5b505050505b6122a3565b600254604080516302d3af5b60e01b81526004810187905290516003926001600160a01b0316916302d3af5b916024808301926020929190829003018186803b158015611ef057600080fd5b505afa158015611f04573d6000803e3d6000fd5b505050506040513d6020811015611f1a57600080fd5b505110611f585760405162461bcd60e51b81526004018080602001828103825260338152602001806155746033913960400191505060405180910390fd5b600254604080516302d3af5b60e01b81526004810187905290516001600160a01b0390921691638642afd1918391631a81dcab91899160019185916302d3af5b91602480820192602092909190829003018186803b158015611fb957600080fd5b505afa158015611fcd573d6000803e3d6000fd5b505050506040513d6020811015611fe357600080fd5b5051604080516001600160e01b031960e087901b168152600481019490945291900360248301525160448083019260209291908290030181600087803b15801561202c57600080fd5b505af1158015612040573d6000803e3d6000fd5b505050506040513d602081101561205657600080fd5b5051604080516001600160e01b031960e085901b1681526004810192909252516024808301926020929190829003018186803b15801561209557600080fd5b505afa1580156120a9573d6000803e3d6000fd5b505050506040513d60208110156120bf57600080fd5b5051156120fd5760405162461bcd60e51b81526004018080602001828103825260368152602001806153326036913960400191505060405180910390fd5b600254604080516302d3af5b60e01b81526004810187905290516001600160a01b039092169163a6b7d54e918391631a81dcab91899160019185916302d3af5b91602480820192602092909190829003018186803b15801561215e57600080fd5b505afa158015612172573d6000803e3d6000fd5b505050506040513d602081101561218857600080fd5b5051604080516001600160e01b031960e087901b168152600481019490945291900360248301525160448083019260209291908290030181600087803b1580156121d157600080fd5b505af11580156121e5573d6000803e3d6000fd5b505050506040513d60208110156121fb57600080fd5b5051604080516001600160e01b031960e085901b1681526004810192909252516024808301926020929190829003018186803b15801561223a57600080fd5b505afa15801561224e573d6000803e3d6000fd5b505050506040513d602081101561226457600080fd5b505142116122a35760405162461bcd60e51b815260040180806020018281038252604a815260200180615910604a913960600191505060405180910390fd5b6122b46122af856138e5565b6139ff565b600e54604080516370a0823160e01b815233600482015290516001600160a01b03909216916370a0823191602480820192602092909190829003018186803b1580156122ff57600080fd5b505afa158015612313573d6000803e3d6000fd5b505050506040513d602081101561232957600080fd5b505110156123685760405162461bcd60e51b8152600401808060200182810382526032815260200180614d036032913960400191505060405180910390fd5b600e546002546001600160a01b03918216916323b872dd9133911661238f6122af896138e5565b6040518463ffffffff1660e01b815260040180846001600160a01b03166001600160a01b03168152602001836001600160a01b03166001600160a01b031681526020018281526020019350505050602060405180830381600087803b1580156123f757600080fd5b505af115801561240b573d6000803e3d6000fd5b505050506040513d602081101561242157600080fd5b505161245e5760405162461bcd60e51b815260040180806020018281038252602681526020018061530c6026913960400191505060405180910390fd5b600084815260066020908152604080832060025482516302d3af5b60e01b8152600481018a905292519194936001600160a01b03909116926302d3af5b9260248083019392829003018186803b1580156124b757600080fd5b505afa1580156124cb573d6000803e3d6000fd5b505050506040513d60208110156124e157600080fd5b5051600280546000898152600460205260409020805460018083015492909401549495506001600160a01b0392831694630c4afecf948c94928316938316929091169033908901886003811061253357fe5b015489600501896003811061254457fe5b01548a6009018a6003811061255557fe5b0154604080516001600160e01b031960e08c901b16815260048101999099526001600160a01b0397881660248a01529587166044890152938616606488015291909416608486015260a485019390935260c484019290925260e483019190915261010482018990526001600160601b03198816610124830152516101448083019260209291908290030181600087803b1580156125f157600080fd5b505af1158015612605573d6000803e3d6000fd5b505050506040513d602081101561261b57600080fd5b50516000878152600760205260409020549093506301000000900460ff16612734576000868152600760205260409020805463ff00000019166301000000179055600e546002546001600160a01b039182169163a9059cbb911661267e8961292a565b6040518363ffffffff1660e01b815260040180836001600160a01b03166001600160a01b0316815260200182815260200192505050602060405180830381600087803b1580156126cd57600080fd5b505af11580156126e1573d6000803e3d6000fd5b505050506040513d60208110156126f757600080fd5b50516127345760405162461bcd60e51b81526004018080602001828103825260388152602001806157d76038913960400191505060405180910390fd5b60035460408051633a51d29160e21b815290516000926001600160a01b03169163e9474a44916004808301926020929190829003018186803b15801561277957600080fd5b505afa15801561278d573d6000803e3d6000fd5b505050506040513d60208110156127a357600080fd5b50516001600160a01b031614612819576003546040805163b32fefbf60e01b81526004810189905290516001600160a01b039092169163b32fefbf9160248082019260009290919082900301818387803b15801561280057600080fd5b505af1158015612814573d6000803e3d6000fd5b505050505b60408051878152602081018790526001600160601b031986168183015290517fc219795d9133fc09720767bb9eff6ce9f818bc1091bd58e34e4147fdb5edfc919181900360600190a150509392505050565b6003546040805163182fce5960e11b81526004810184905290516000926001600160a01b03169163305f9cb2916024808301926020929190829003018186803b158015611a7957600080fd5b600f5481565b60006119c06128cb836144ef565b611078846119f9565b60009081526007602052604090205462010000900460ff1690565b62093a8081565b600b602052816000526040600020818154811061290f57fe5b90600052602060002001600091509150505481565b60001981565b60009081526009602052604090205490565b6001600160a01b03166000908152600b602052604090205490565b6000908152600460205260409020600201546001600160a01b031690565b6000908152600760205260409020546301000000900460ff1690565b61299a82612d99565b156129d65760405162461bcd60e51b815260040180806020018281038252602781526020018061520f6027913960400191505060405180910390fd5b60008281526007602052604090205462010000900460ff161580612a145750600082815260076020526040902054600160201b900460ff1615156001145b612a4f5760405162461bcd60e51b815260040180806020018281038252603981526020018061543b6039913960400191505060405180910390fd5b6000828152600460205260409020600101546001600160a01b0316331480612a9057506000828152600460205260409020600201546001600160a01b031633145b612acb5760405162461bcd60e51b81526004018080602001828103825260328152602001806154096032913960400191505060405180910390fd5b612ad4826119a1565b421115612b125760405162461bcd60e51b815260040180806020018281038252602a8152602001806156a4602a913960400191505060405180910390fd5b6000828152600760205260409020546301000000900460ff1615612b675760405162461bcd60e51b815260040180806020018281038252603681526020018061580f6036913960400191505060405180910390fd5b6006600083815260200190815260200160002060040154600282604051602001808281526020019150506040516020818303038152906040526040518082805190602001908083835b60208310612bcf5780518252601f199092019160209182019101612bb0565b51815160209384036101000a60001901801990921691161790526040519190930194509192505080830381855afa158015612c0e573d6000803e3d6000fd5b5050506040513d6020811015612c2357600080fd5b50511480612cec57506006600083815260200190815260200160002060080154600282604051602001808281526020019150506040516020818303038152906040526040518082805190602001908083835b60208310612c945780518252601f199092019160209182019101612c75565b51815160209384036101000a60001901801990921691161790526040519190930194509192505080830381855afa158015612cd3573d6000803e3d6000fd5b5050506040513d6020811015612ce857600080fd5b5051145b612d3d576040805162461bcd60e51b815260206004820152601c60248201527f4c6f616e732e6163636570743a20496e76616c69642073656372657400000000604482015290519081900360640190fd5b6000828152600660205260409020600d01819055612d5a826145b8565b604080518381526020810183905281517fd001c5fed05473ebc31735197ca758919c1b82b1db58753430b848f875a5eaef929181900390910190a15050565b600090815260076020526040902054600160281b900460ff1690565b60035460408051630b7cecb760e31b81526004810184905290516000926001600160a01b031691635be765b8916024808301926020929190829003018186803b158015611a7957600080fd5b612e0a82612d99565b15612e465760405162461bcd60e51b81526004018080602001828103825260278152602001806156576027913960400191505060405180910390fd5b60008281526007602052604090205460ff161515600114612e985760405162461bcd60e51b81526004018080602001828103825260238152602001806157b46023913960400191505060405180910390fd5b60008281526007602052604090205460ff610100909104161515600114612ef05760405162461bcd60e51b8152600401808060200182810382526025815260200180614fbd6025913960400191505060405180910390fd5b60008281526007602052604090205462010000900460ff1615612f445760405162461bcd60e51b8152600401808060200182810382526039815260200180614e256039913960400191505060405180910390fd5b6006600083815260200190815260200160002060000154600282604051602001808281526020019150506040516020818303038152906040526040518082805190602001908083835b60208310612fac5780518252601f199092019160209182019101612f8d565b51815160209384036101000a60001901801990921691161790526040519190930194509192505080830381855afa158015612feb573d6000803e3d6000fd5b5050506040513d602081101561300057600080fd5b50511461303e5760405162461bcd60e51b81526004018080602001828103825260258152602001806156326025913960400191505060405180910390fd5b6000828152600760209081526040808320805462ff0000191662010000179055600e546004909252909120546001600160a01b039182169163a9059cbb911661308685614206565b6040518363ffffffff1660e01b815260040180836001600160a01b03166001600160a01b0316815260200182815260200192505050602060405180830381600087803b1580156130d557600080fd5b505af11580156130e9573d6000803e3d6000fd5b505050506040513d60208110156130ff57600080fd5b505161313c5760405162461bcd60e51b81526004018080602001828103825260298152602001806156096029913960400191505060405180910390fd5b6000828152600660209081526040808320600c018490556003548151633a51d29160e21b815291516001600160a01b039091169263e9474a449260048082019391829003018186803b15801561319157600080fd5b505afa1580156131a5573d6000803e3d6000fd5b505050506040513d60208110156131bb57600080fd5b50516001600160a01b0316146132315760035460408051632e4606b160e01b81526004810185905290516001600160a01b0390921691632e4606b19160248082019260009290919082900301818387803b15801561321857600080fd5b505af115801561322c573d6000803e3d6000fd5b505050505b604080518381526020810183905281517f47aeb056e8eba8d7bbb5348f53123f67d6c678b16f7950aac696e4a168174873929181900390910190a15050565b60076020526000908152604090205460ff80821691610100810482169162010000820481169163010000008104821691600160201b8204811691600160281b90041686565b6132be81612d99565b156132fa5760405162461bcd60e51b8152600401808060200182810382526025815260200180614d716025913960400191505060405180910390fd5b61330381612975565b1561333f5760405162461bcd60e51b8152600401808060200182810382526035815260200180614df06035913960400191505060405180910390fd5b613348816119a1565b42116133855760405162461bcd60e51b8152600401808060200182810382526040815260200180614e826040913960400191505060405180910390fd5b600081815260076020526040902054600160201b900460ff1615156001146133de5760405162461bcd60e51b81526004018080602001828103825260258152602001806157596025913960400191505060405180910390fd5b6000818152600460205260409020546001600160a01b031633146134335760405162461bcd60e51b815260040180806020018281038252603481526020018061539b6034913960400191505060405180910390fd5b6000818152600760209081526040808320805465ff00000000001916600160281b179055600480835281842042600690910155835460088452938290205482516301431c9560e71b81529182015290516001600160a01b039093169263a18e4a8092602480840193919291829003018186803b1580156134b257600080fd5b505afa1580156134c6573d6000803e3d6000fd5b505050506040513d60208110156134dc57600080fd5b50516135ab5760008054828252600460208190526040808420600701548151637249992b60e11b815292830152516001600160a01b039092169263e49332569260248084019382900301818387803b15801561353757600080fd5b505af115801561354b573d6000803e3d6000fd5b505060008054604080516333549b1b60e01b815290516001600160a01b0390921694506333549b1b9350600480820193929182900301818387803b15801561359257600080fd5b505af11580156135a6573d6000803e3d6000fd5b505050505b600e546000828152600460205260409020546001600160a01b039182169163a9059cbb91166135d9846128bd565b6040518363ffffffff1660e01b815260040180836001600160a01b03166001600160a01b0316815260200182815260200192505050602060405180830381600087803b15801561362857600080fd5b505af115801561363c573d6000803e3d6000fd5b505050506040513d602081101561365257600080fd5b505161368f5760405162461bcd60e51b81526004018080602001828103825260278152602001806152916027913960400191505060405180910390fd5b6040805182815290517f3fbd469ec3a5ce074f975f76ce27e727ba21c99176917b97ae2e713695582a129181900360200190a150565b600c60209081526000928352604080842090915290825290205460ff1681565b6000908152600460205260409020600b015490565b600090815260076020526040902054610100900460ff1690565b60056020908152600091825260409182902080548351601f600260001961010060018616150201909316929092049182018490048402810184019094528084529092918391908301828280156137ab5780601f10613780576101008083540402835291602001916137ab565b820191906000526020600020905b81548152906001019060200180831161378e57829003601f168201915b505050505090806001018054600181600116156101000203166002900480601f0160208091040260200160405190810160405280929190818152602001828054600181600116156101000203166002900480156138495780601f1061381e57610100808354040283529160200191613849565b820191906000526020600020905b81548152906001019060200180831161382c57829003601f168201915b50505060028085018054604080516020601f60001961010060018716150201909416959095049283018590048502810185019091528181529596959450909250908301828280156138db5780601f106138b0576101008083540402835291602001916138db565b820191906000526020600020905b8154815290600101906020018083116138be57829003601f168201915b5050505050905083565b60006119c06138f383611436565b670ce80612991d0000614bbd565b6010546001600160a01b0316331461394a5760405162461bcd60e51b81526004018080602001828103825260328152602001806152da6032913960400191505060405180910390fd5b6002546001600160a01b0316156139925760405162461bcd60e51b81526004018080602001828103825260368152602001806152366036913960400191505060405180910390fd5b6001600160a01b0381166139d75760405162461bcd60e51b815260040180806020018281038252602e815260200180615845602e913960400191505060405180910390fd5b600280546001600160a01b0319166001600160a01b0392909216919091179055565b600d5481565b60006119c082613a126012600f54614571565b600a0a6145a1565b670ce80612991d000081565b6010546001600160a01b03163314613a6f5760405162461bcd60e51b81526004018080602001828103825260378152602001806150b76037913960400191505060405180910390fd5b6003546001600160a01b031615613ab75760405162461bcd60e51b81526004018080602001828103825260408152602001806150146040913960400191505060405180910390fd5b6001600160a01b038116613afc5760405162461bcd60e51b81526004018080602001828103825260388152602001806156ff6038913960400191505060405180910390fd5b600380546001600160a01b0319166001600160a01b0392909216919091179055565b600354604080516311f4deaf60e31b81526004810184905290516000926001600160a01b031691638fa6f578916024808301926020929190829003018186803b158015611a7957600080fd5b6202a30081565b60006119c0613b7f836128bd565b611078846119e4565b60035460408051634f3e2b2f60e11b81526004810184905290516000926001600160a01b031691639e7c565e916024808301926020929190829003018186803b158015611a7957600080fd5b60009081526007602052604090205460ff1690565b6000908152600460205260409020600101546001600160a01b031690565b60008181526007602052604090205460ff161515600114613c595760405162461bcd60e51b81526004018080602001828103825260228152602001806157376022913960400191505060405180910390fd5b6000818152600460205260409020600101546001600160a01b03163314613cb15760405162461bcd60e51b81526004018080602001828103825260338152602001806153686033913960400191505060405180910390fd5b613cba816119c6565b421115613cf85760405162461bcd60e51b81526004018080602001828103825260308152602001806150876030913960400191505060405180910390fd5b600081815260076020908152604091829020805461ff001916610100179055815183815291517f323d40c0aa1cf896ec093775d91d6ba7455923481a9da93e54d4e114e0d6fb169281900390910190a150565b60086020526000908152604090205481565b60006119c0613d6b836128bd565b6113e78461292a565b600090815260076020526040902054600160201b900460ff1690565b611c2081565b6000818152600660205260409020600e015460ff16613de65760405162461bcd60e51b815260040180806020018281038252602581526020018061526c6025913960400191505060405180910390fd5b60008181526007602052604090205460ff1615613e345760405162461bcd60e51b81526004018080602001828103825260228152602001806152b86022913960400191505060405180910390fd5b6000818152600760205260409020805460ff19166001179055600e546001600160a01b03166323b872dd3330613e6985614206565b6040518463ffffffff1660e01b815260040180846001600160a01b03166001600160a01b03168152602001836001600160a01b03166001600160a01b031681526020018281526020019350505050602060405180830381600087803b158015613ed157600080fd5b505af1158015613ee5573d6000803e3d6000fd5b505050506040513d6020811015613efb57600080fd5b5051613f385760405162461bcd60e51b81526004018080602001828103825260258152602001806158be6025913960400191505060405180910390fd5b6040805182815290517f3561bc82a7926abd63a8c9d0b398ba40a4afd996df634bd6f1606c269781dfe09181900360200190a150565b600460208190526000918252604090912080546001820154600283015460038401549484015460058501546006860154600787015460088801546009890154600a8a0154600b909a01546001600160a01b03998a169b988a169a97909916989596949593949293919290918c565b613fe581612d99565b156140215760405162461bcd60e51b8152600401808060200182810382526027815260200180614dc96027913960400191505060405180910390fd5b60008181526007602052604090205462010000900460ff16156140755760405162461bcd60e51b8152600401808060200182810382526032815260200180614fe26032913960400191505060405180910390fd5b61407e81614158565b4210156140bc5760405162461bcd60e51b8152600401808060200182810382526033815260200180614d966033913960400191505060405180910390fd5b6000818152600760205260409020546301000000900460ff16156141115760405162461bcd60e51b81526004018080602001828103825260358152602001806155d46035913960400191505060405180910390fd5b61411a816145b8565b604080518281526000602082015281517f9e5d8891dc1b047de610617bc9bc2d8ccffebbc3d63363431a546831245858a6929181900390910190a150565b60006119c061416683611a0e565b6202a300614561565b6001600160a01b03166000908152600a602052604090205490565b6006602052600090815260409020805460048201546008830154600c840154600d850154600e90950154939492939192909160ff1686565b60006119c06141df6113ec6141d6856128bd565b6113e78661292a565b6141e8846136e5565b614be5565b600a602052816000526040600020818154811061290f57fe5b60009081526004602052604090206007015490565b60009081526004602052604090206008015490565b600061423b826141c2565b61424483611436565b101592915050565b60096020526000908152604090205481565b6142688282612991565b604080518381526020810183905281517f9e5d8891dc1b047de610617bc9bc2d8ccffebbc3d63363431a546831245858a6929181900390910190a15050565b60008a8152600660205260409020600e015460ff16156142f85760405162461bcd60e51b815260040180806020018281038252603c815260200180614d35603c913960400191505060405180910390fd5b60008a8152600460205260409020546001600160a01b0316331480614336575060008a8152600460205260409020600101546001600160a01b031633145b8061434b57506000546001600160a01b031633145b6143865760405162461bcd60e51b815260040180806020018281038252604b815260200180615873604b913960600191505060405180910390fd5b60008a81526006602081815260408084208d3581558151606080820184528f85013582528f840135828601528f013592810192909252938e90529190526143d291600101906003614c39565b5060008a81526006602081815260408084208c3560048201558151606080820184528e85013582528e840135828601528e013592810192909252938e905291905261442291600501906003614c39565b5060008a81526006602081815260408084208b3560088201558151606080820184528d85013582528d840135828601528d013592810192909252938e905291905261447291600901906003614c39565b5060008a815260056020526040902061448c908787614c77565b5060008a81526005602052604090206144a9906001018585614c77565b5060008a81526005602052604090206144c6906002018383614c77565b50505060009788525050600660205250506040909320600e01805460ff19166001179055505050565b60006119c06144fd83614206565b6110788461421b565b60006305f5e10061452861451a8585614c15565b60026305f5e1005b04614561565b8161452f57fe5b049392505050565b600e546001600160a01b031681565b60006119c0826145596012600f54614571565b600a0a614c15565b808201828110156119c057600080fd5b808203828111156119c057600080fd5b60008161452861459985670de0b6b3a7640000614c15565b600285614522565b60008082116145af57600080fd5b81838161452f57fe5b6000818152600760208181526040808420805465ff00000000001916600160281b17815560048352932042600690910155525462010000900460ff1661485b576000818152600860205260409020546146e057600e5460008281526004602081815260408084206001810154600790910154825163a9059cbb60e01b81526001600160a01b03928316958101959095526024850152905194169363a9059cbb936044808501948390030190829087803b15801561467457600080fd5b505af1158015614688573d6000803e3d6000fd5b505050506040513d602081101561469e57600080fd5b50516146db5760405162461bcd60e51b815260040180806020018281038252603381526020018061516b6033913960400191505060405180910390fd5b614856565b60008054828252600860209081526040928390205483516301431c9560e71b8152600481019190915292516001600160a01b039092169263a18e4a809260248083019392829003018186803b15801561473857600080fd5b505afa15801561474c573d6000803e3d6000fd5b505050506040513d602081101561476257600080fd5b50516147d65760008054828252600460208190526040808420600701548151637249992b60e11b815292830152516001600160a01b039092169263e49332569260248084019382900301818387803b1580156147bd57600080fd5b505af11580156147d1573d6000803e3d6000fd5b505050505b6000805482825260086020908152604080842054600492839052818520600701548251630ef1370b60e11b8152938401919091526024830152516001600160a01b0390921692631de26e169260448084019382900301818387803b15801561483d57600080fd5b505af1158015614851573d6000803e3d6000fd5b505050505b614bba565b60008181526008602052604090205461495a57600e546000828152600460205260409020600101546001600160a01b039182169163a9059cbb911661489f846144ef565b6040518363ffffffff1660e01b815260040180836001600160a01b03166001600160a01b0316815260200182815260200192505050602060405180830381600087803b1580156148ee57600080fd5b505af1158015614902573d6000803e3d6000fd5b505050506040513d602081101561491857600080fd5b50516149555760405162461bcd60e51b815260040180806020018281038252603681526020018061577e6036913960400191505060405180910390fd5b614ad3565b60008054828252600860209081526040928390205483516301431c9560e71b8152600481019190915292516001600160a01b039092169263a18e4a809260248083019392829003018186803b1580156149b257600080fd5b505afa1580156149c6573d6000803e3d6000fd5b505050506040513d60208110156149dc57600080fd5b5051614a505760008054828252600460208190526040808420600701548151637249992b60e11b815292830152516001600160a01b039092169263e49332569260248084019382900301818387803b158015614a3757600080fd5b505af1158015614a4b573d6000803e3d6000fd5b505050505b6000805482825260086020526040909120546001600160a01b0390911690631de26e1690614a7d846144ef565b6040518363ffffffff1660e01b81526004018083815260200182815260200192505050600060405180830381600087803b158015614aba57600080fd5b505af1158015614ace573d6000803e3d6000fd5b505050505b600e546000828152600460205260409020600201546001600160a01b039182169163a9059cbb9116614b04846119f9565b6040518363ffffffff1660e01b815260040180836001600160a01b03166001600160a01b0316815260200182815260200192505050602060405180830381600087803b158015614b5357600080fd5b505af1158015614b67573d6000803e3d6000fd5b505050506040513d6020811015614b7d57600080fd5b5051614bba5760405162461bcd60e51b815260040180806020018281038252602e815260200180614f8f602e913960400191505060405180910390fd5b50565b6000670de0b6b3a7640000614528614bd58585614c15565b6002670de0b6b3a7640000614522565b60006b033b2e3c9fd0803ce8000000614528614c018585614c15565b60026b033b2e3c9fd0803ce8000000614522565b6000811580614c3057505080820282828281614c2d57fe5b04145b6119c057600080fd5b8260038101928215614c67579160200282015b82811115614c67578251825591602001919060010190614c4c565b50614c73929150614ce5565b5090565b828054600181600116156101000203166002900490600052602060002090601f016020900481019282601f10614cb85782800160ff19823516178555614c67565b82800160010185558215614c67579182015b82811115614c67578235825591602001919060010190614cca565b614cff91905b80821115614c735760008155600101614ceb565b9056fe4c6f616e732e6c69717569646174653a20696e73756666696369656e742062616c616e636520746f206c69717569646174654c6f616e732e7365745365637265744861736865733a2053656372657420686173686573206d757374206e6f7420616c7265616479206265207365744c6f616e732e726566756e643a204c6f616e2063616e6e6f7420626520696e6163746976654c6f616e732e63616e63656c3a205365697a75726520646561646c696e6520686173206e6f74206265656e20726561636865644c6f616e732e63616e63656c3a204c6f616e206d757374206e6f7420626520696e6163746976654c6f616e732e726566756e643a204c6f616e2063616e6e6f7420626520756e646572676f696e672061206c69717569646174696f6e4c6f616e732e77697468647261773a204c6f616e207072696e636970616c2068617320616c7265616479206265656e2077697468647261776e4c6f616e732e72657061793a204c6f616e2063616e6e6f7420626520696e6163746976654c6f616e732e726566756e643a2043616e6e6f74207265717565737420726566756e6420756e74696c2061667465722061636365707445787069726174696f6e4c6f616e732e6c69717569646174653a204c6f616e207072696e636970616c206d7573742062652077697468647261776e4c6f616e732e6372656174653a205072696e636970616c20616e6420436f6c6c61746572616c206d757374206265206e6f6e2d7a65726f4c6f616e732e6c69717569646174653a204c6f616e206d757374206e6f7420626520696e6163746976654c6f616e732e6c69717569646174653a207365637265744861736820616e64207075624b657948617368206d757374206265206e6f6e2d7a65726f4c6f616e732e636c6f73653a204661696c656420746f207472616e736665722066656520746f20417262697465724c6f616e732e77697468647261773a204c6f616e206d75737420626520617070726f7665644c6f616e732e63616e63656c3a204c6f616e207072696e636970616c206d757374206e6f742062652077697468647261776e4c6f616e732e736574436f6c6c61746572616c3a2054686520436f6c6c61746572616c20616464726573732068617320616c7265616479206265656e207365744c6f616e732e72657061793a2043616e6e6f74207265706179206d6f7265207468616e20746865206f77656420616d6f756e744c6f616e732e617070726f76653a204c6f616e20697320706173742074686520617070726f766520646561646c696e654c6f616e732e736574436f6c6c61746572616c3a204f6e6c7920746865206465706c6f7965722063616e20706572666f726d20746869734c6f616e732e6372656174653a204c69717569646174696f6e20726174696f20616e6420526571756573742074696d657374616d70206d757374206265206e6f6e2d7a65726f4c6f616e732e6372656174653a206c6f616e45787069726174696f6e206d7573742062652067726561746572207468616e20606e6f77604c6f616e732e636c6f73653a204661696c656420746f207472616e73666572207072696e636970616c20746f204c656e6465724c6f616e732e6372656174653a204475706c696361746520726571756573742074696d657374616d707320617265206e6f7420616c6c6f7765644c6f616e732e6c69717569646174653a206c6f616e206d757374206e6f74206861766520616c7265616479206265656e207265706169644c6f616e732e6163636570743a204c6f616e206d757374206e6f7420626520696e6163746976654c6f616e732e73657453616c65733a205468652053616c657320616464726573732068617320616c7265616479206265656e207365744c6f616e732e66756e643a2053656372657420686173686573206d757374206265207365744c6f616e732e726566756e643a204661696c656420746f207472616e7366657220746f6b656e734c6f616e732e66756e643a204c6f616e20697320616c72656164792066756e6465644c6f616e732e73657453616c65733a204f6e6c7920746865206465706c6f7965722063616e20706572666f726d20746869734c6f616e732e6c69717569646174653a20546f6b656e207472616e73666572206661696c65644c6f616e732e6c69717569646174653a2050726576696f7573206c69717569646174696f6e20616c72656164792061636365707465644c6f616e732e617070726f76653a204f6e6c7920746865206c656e6465722063616e20617070726f766520746865206c6f616e4c6f616e732e726566756e643a204f6e6c792074686520626f72726f7765722063616e2072657175657374206120726566756e644c6f616e732e6372656174653a20426f72726f77657220616e64204c656e6465722061646472657373206d757374206265206e6f6e2d7a65726f4c6f616e732e6163636570743a206d73672e73656e646572206d757374206265206c656e646572206f7220617262697465724c6f616e732e6163636570743a204c6f616e206d75737420626520656974686572206e6f742077697468647261776e206f72207265706169644c6f616e732e6372656174653a204c656e646572206f662046756e64206e6f7420696e20617267734c6f616e732e6c69717569646174653a20636f6c6c61746572616c697a6174696f6e206d7573742062652062656c6f77206d696e2d636f6c6c61746572616c697a6174696f6e20726174696f4c6f616e732e72657061793a204c6f616e2063616e6e6f7420626520756e646572676f696e672061206c69717569646174696f6e4c6f616e732e72657061793a204c6f616e2063616e6e6f74206861766520657870697265644c6f616e732e6d696e5365697a61626c65436f6c6c61746572616c3a204d656469616e697a6572206d757374206265207365744c6f616e732e6c69717569646174653a204d6178206e756d626572206f66206c69717569646174696f6e7320726561636865644c6f616e732e636f6c6c61746572616c56616c75653a204d656469616e697a6572206d757374206265207365744c6f616e732e63616e63656c3a204c6f616e206d757374206e6f7420626520756e646572676f696e67206c69717569646174696f6e4c6f616e732e77697468647261773a204661696c656420746f207472616e7366657220746f6b656e734c6f616e732e77697468647261773a2053656372657420646f6573206e6f74206d617463684c6f616e732e77697468647261773a204c6f616e2063616e6e6f7420626520696e6163746976654c6f616e732e72657061793a204661696c656420746f207472616e7366657220746f6b656e734c6f616e732e6163636570743a20416363657074616e636520646561646c696e652068617320706173744c6f616e732e6c69717569646174653a204c697175696461746f72206d75737420626520612074686972642d70617274794c6f616e732e736574436f6c6c61746572616c3a20436f6c6c61746572616c2061646472657373206d757374206265206e6f6e2d7a65726f4c6f616e732e617070726f76653a204c6f616e206d7573742062652066756e6465644c6f616e732e726566756e643a20546865206c6f616e206d757374206265207265706169644c6f616e732e636c6f73653a204661696c656420746f207472616e73666572206f776564546f4c656e64657220746f204c656e6465724c6f616e732e77697468647261773a204c6f616e206d7573742062652066756e6465644c6f616e732e6c69717569646174653a20546f6b656e207472616e7366657220746f2053616c657320636f6e7472616374206661696c65644c6f616e732e6163636570743a204c6f616e206d757374206e6f7420626520676f696e6720756e646572206c69717569646174696f6e4c6f616e732e73657453616c65733a2053616c65732061646472657373206d757374206265206e6f6e2d7a65726f4c6f616e732e7365745365637265744861736865733a206d73672e73656e646572206d75737420626520426f72726f7765722c204c656e646572206f722046756e647320416464726573734c6f616e732e66756e643a204661696c656420746f207472616e7366657220746f6b656e734c6f616e732e72657061793a204c6f616e207072696e636970616c206d7573742062652077697468647261776e4c6f616e732e6c69717569646174653a2050726576696f7573206c69717569646174696f6e20736574746c656d656e742065787069726174696f6e206861736e27742065787069726564a265627a7a72305820c5d83d549969b7d958ad47e4587ac823f0ae45d2c6c19136e67496cc3f3dd11664736f6c634300050a00324d656469616e697a65722061646472657373206d757374206265206e6f6e2d7a65726f",
    "source": "pragma solidity 0.5.10;\n\nimport 'openzeppelin-solidity/contracts/token/ERC20/ERC20.sol';\nimport 'openzeppelin-solidity/contracts/math/SafeMath.sol';\n\nimport {BytesLib} from \"@summa-tx/bitcoin-spv-sol/contracts/BytesLib.sol\";\nimport {BTCUtils} from \"@summa-tx/bitcoin-spv-sol/contracts/BTCUtils.sol\";\n\nimport './FundsInterface.sol';\nimport './SalesInterface.sol';\nimport './CollateralInterface.sol';\nimport './DSMath.sol';\nimport './Medianizer.sol';\n\n/**\n * @title Atomic Loans Loans Contract\n * @author Atomic Loans\n */\ncontract Loans is DSMath {\n    FundsInterface funds;\n    Medianizer med;\n    SalesInterface sales;\n    CollateralInterface col;\n\n    uint256 public constant APPROVE_EXP_THRESHOLD = 2 hours;    // approval expiration threshold\n    uint256 public constant ACCEPT_EXP_THRESHOLD = 2 days;      // acceptance expiration threshold\n    uint256 public constant LIQUIDATION_EXP_THRESHOLD = 7 days; // liquidation expiration threshold\n    uint256 public constant SEIZURE_EXP_THRESHOLD = 2 days;     // seizable expiration threshold\n    uint256 public constant LIQUIDATION_DISCOUNT = 930000000000000000; // 93% (7% discount)\n    uint256 public constant MAX_NUM_LIQUIDATIONS = 3; // Maximum number of liquidations that can occur\n    uint256 public constant MAX_UINT_256 = 2**256-1;\n\n    mapping (bytes32 => Loan)                     public loans;\n    mapping (bytes32 => PubKeys)                  public pubKeys;             // Bitcoin Public Keys\n    mapping (bytes32 => SecretHashes)             public secretHashes;        // Secret Hashes\n    mapping (bytes32 => Bools)                    public bools;               // Boolean state of Loan\n    mapping (bytes32 => bytes32)                  public fundIndex;           // Mapping of Loan Index to Fund Index\n    mapping (bytes32 => uint256)                  public repayments;          // Amount paid back in a Loan\n    mapping (address => bytes32[])                public borrowerLoans;\n    mapping (address => bytes32[])                public lenderLoans;\n    mapping (address => mapping(uint256 => bool)) public addressToTimestamp;\n    uint256                                       public loanIndex;           // Current Loan Index\n\n    ERC20 public token; // ERC20 Debt Stablecoin\n    uint256 public decimals;\n\n    address deployer;\n\n    /**\n     * @notice Container for loan information\n     * @member borrower The address of the borrower\n     * @member lender The address of the lender\n     * @member arbiter The address of the arbiter\n     * @member createdAt The creation timestamp of the loan\n     * @member loanExpiration The timestamp for the end of the loan\n     * @member requestTimestamp The timestamp for when the loan is requested\n     * @member closedTimestamp The timestamp for when the loan is closed\n     * @member penalty The amount of tokens to be paid as a penalty for defaulting or allowing the loan to be liquidated\n     * @member principal The amount of principal in tokens to be paid back at the end of the loan\n     * @member interest The amount of interest in tokens to be paid back by the end of the loan\n     * @member penalty The amount of tokens to be paid as a penalty for defaulting or allowing the loan to be liquidated\n     * @member fee The amount of tokens paid to the arbiter\n     * @member liquidationRatio The ratio of collateral to debt where the loan can be liquidated\n     */\n    struct Loan {\n        address borrower;\n        address lender;\n        address arbiter;\n        uint256 createdAt;\n        uint256 loanExpiration;\n        uint256 requestTimestamp;\n        uint256 closedTimestamp;\n        uint256 principal;\n        uint256 interest;\n        uint256 penalty;\n        uint256 fee;\n        uint256 liquidationRatio;\n    }\n\n    /**\n     * @notice Container for Bitcoin public key information\n     * @member borrowerPubKey Borrower Bitcoin Public Key\n     * @member lenderPubKey Lender Bitcoin Public Key\n     * @member arbiterPubKey Arbiter Bitcoin Public Key\n     *\n     *         Note: This struct is unnecessary for the Ethereum\n     *               contract itself, but is used as a point of\n     *               reference for generating the correct P2WSH for\n     *               locking Bitcoin collateral\n     */\n    struct PubKeys {\n        bytes   borrowerPubKey;\n        bytes   lenderPubKey;\n        bytes   arbiterPubKey;\n    }\n\n    /**\n     * @notice Container for borrower, lender, and arbiter Secret Hashes\n     * @member secretHashA1 Borrower Secret Hash for the loan\n     * @member secretHashAs Borrower Secret Hashes for up to three liquidations\n     * @member secretHashB1 Lender Secret Hash for the loan\n     * @member secretHashBs Lender Secret Hashes for up to three liquidations\n     * @member secretHashC1 Arbiter Secret Hash for the loan\n     * @member secretHashCs Arbiter Secret Hashes for up to three liquidations\n     * @member withdrawSecret Secret A1 when revealed by borrower\n     * @member acceptSecret Secret B1 or Secret C1 when revelaed by the lender or arbiter\n     * @member set Secret Hashes set for particular loan\n     */\n    struct SecretHashes {\n        bytes32    secretHashA1;\n        bytes32[3] secretHashAs;\n        bytes32    secretHashB1;\n        bytes32[3] secretHashBs;\n        bytes32    secretHashC1;\n        bytes32[3] secretHashCs;\n        bytes32    withdrawSecret;\n        bytes32    acceptSecret;\n        bool       set;\n    }\n\n    /**\n     * @notice Container for states of loan agreement\n     * @member funded Indicates that the loan has been funded with tokens\n     * @member approved Indicates that the lender has approved locking of the Bitcoin collateral\n     * @member withdrawn Indicates that the borrower has withdrawn the tokens from the contract\n     * @member sale Indicates that the collateral liquidation process has started\n     * @member paid Indicates that the loan has been repaid\n     * @member off Indicates that the loan has been cancelled or the loan repayment has been accepted\n     */\n    struct Bools {\n        bool funded;\n        bool approved;\n        bool withdrawn;\n        bool sale;\n        bool paid;\n        bool off;\n    }\n\n    event Create(bytes32 loan);\n\n    event SetSecretHashes(bytes32 loan);\n\n    event FundLoan(bytes32 loan);\n\n    event Approve(bytes32 loan);\n\n    event Withdraw(bytes32 loan, bytes32 secretA1);\n\n    event Repay(bytes32 loan, uint256 amount);\n\n    event Refund(bytes32 loan);\n\n    event Cancel(bytes32 loan, bytes32 secret);\n\n    event Accept(bytes32 loan, bytes32 secret);\n\n    event Liquidate(bytes32 loan, bytes32 secretHash, bytes20 pubKeyHash);\n\n    /**\n     * @notice Get the Borrower of a Loan\n     * @param loan The Id of a Loan\n     * @return Borrower address of Loan\n     */\n    function borrower(bytes32 loan) external view returns (address) {\n        return loans[loan].borrower;\n    }\n\n    /**\n     * @notice Get the Lender of a Loan\n     * @param loan The Id of a Loan\n     * @return Lender address of Loan\n     */\n    function lender(bytes32 loan) external view returns (address) {\n        return loans[loan].lender;\n    }\n\n    /**\n     * @notice Get the Arbiter of a Loan\n     * @param loan The Id of a Loan\n     * @return Arbiter address of Loan\n     */\n    function arbiter(bytes32 loan) external view returns (address) {\n        return loans[loan].arbiter;\n    }\n\n    /**\n     * @notice Get the Approve Expiration of a Loan\n     * @param loan The Id of a Loan\n     * @return Approve Expiration Timestamp\n     */\n    function approveExpiration(bytes32 loan) public view returns (uint256) { // Approval Expiration\n        return add(loans[loan].createdAt, APPROVE_EXP_THRESHOLD);\n    }\n\n    /**\n     * @notice Get the Accept Expiration of a Loan\n     * @param loan The Id of a Loan\n     * @return Accept Expiration Timestamp\n     */\n    function acceptExpiration(bytes32 loan) public view returns (uint256) { // Acceptance Expiration\n        return add(loans[loan].loanExpiration, ACCEPT_EXP_THRESHOLD);\n    }\n\n    /**\n     * @notice Get the Liquidation Expiration of a Loan\n     * @param loan The Id of a Loan\n     * @return Liquidation Expiration Timestamp\n     */\n    function liquidationExpiration(bytes32 loan) public view returns (uint256) { // Liquidation Expiration\n        return add(loans[loan].loanExpiration, LIQUIDATION_EXP_THRESHOLD);\n    }\n\n    /**\n     * @notice Get the Seizure Expiration of a Loan\n     * @param loan The Id of a Loan\n     * @return Seizure Expiration Timestamp\n     */\n    function seizureExpiration(bytes32 loan) public view returns (uint256) {\n        return add(liquidationExpiration(loan), SEIZURE_EXP_THRESHOLD);\n    }\n\n    /**\n     * @notice Get the Principal of a Loan\n     * @param loan The Id of a Loan\n     * @return Amount of Principal in stablecoin tokens\n     */\n    function principal(bytes32 loan) public view returns (uint256) {\n        return loans[loan].principal;\n    }\n\n    /**\n     * @notice Get the Interest of a Loan\n     * @param loan The Id of a Loan\n     * @return Amount of Interest in stablecoin tokens\n     */\n    function interest(bytes32 loan) public view returns (uint256) {\n        return loans[loan].interest;\n    }\n\n    /**\n     * @notice Get the Fee of a Loan\n     * @param loan The Id of a Loan\n     * @return Amount of Fee in stablecoin tokens\n     */\n    function fee(bytes32 loan) public view returns (uint256) {\n        return loans[loan].fee;\n    }\n\n    /**\n     * @notice Get the Penalty of a Loan (if not repaid)\n     * @dev Upon liquidation penalty is paid out to oracles to give incentive for users to continue updating them\n     * @param loan The Id of a Loan\n     * @return Amount of Penalty in stablecoin tokens\n     */\n    function penalty(bytes32 loan) public view returns (uint256) {\n        return loans[loan].penalty;\n    }\n\n    /**\n     * @notice Get the Collateral of a Loan\n     * @param loan The Id of a Loan\n     * @return Amount of collateral backing the loan (in sats)\n     */\n    function collateral(bytes32 loan) public view returns (uint256) {\n        return col.collateral(loan);\n    }\n\n    /**\n     * @notice Get the Refundable Collateral of a Loan\n     * @param loan The Id of a Loan\n     * @return Amount of refundable collateral backing the loan (in sats)\n     */\n    function refundableCollateral(bytes32 loan) external view returns (uint256) {\n        return col.refundableCollateral(loan);\n    }\n\n    /**\n     * @notice Get the Seizable Collateral of a Loan\n     * @param loan The Id of a Loan\n     * @return Amount of seizable collateral backing the loan (in sats)\n     */\n    function seizableCollateral(bytes32 loan) external view returns (uint256) {\n        return col.seizableCollateral(loan);\n    }\n\n    /**\n     * @notice Get the Temporary Refundable Collateral of a Loan\n     * @dev Represents the amount of refundable collateral that has been locked and only has 1 conf, where 6 confs hasn't been received yet\n     * @param loan The Id of a Loan\n     * @return Amount of temporary refundable collateral backing the loan (in sats)\n     */\n    function temporaryRefundableCollateral(bytes32 loan) external view returns (uint256) {\n        return col.temporaryRefundableCollateral(loan);\n    }\n\n    /**\n     * @notice Get the Temporary Seizable Collateral of a Loan\n     * @dev Represents the amount of seizable collateral that has been locked and only has 1 conf, where 6 confs hasn't been received yet\n     * @param loan The Id of a Loan\n     * @return Amount of temporary seizable collateral backing the loan (in sats)\n     */\n    function temporarySeizableCollateral(bytes32 loan) external view returns (uint256) {\n        return col.temporarySeizableCollateral(loan);\n    }\n\n    /**\n     * @notice Get the amount repaid towards a Loan\n     * @param loan The Id of a Loan\n     * @return Amount of the loan that has been repaid\n     */\n    function repaid(bytes32 loan) public view returns (uint256) { // Amount paid back for loan\n        return repayments[loan];\n    }\n\n    /**\n     * @notice Get Liquidation Ratio of a Loan (Minimum Collateralization Ratio)\n     * @param loan The Id of a Loan\n     * @return Liquidation Ratio in RAY (i.e. 140% would be 1.4 * (10 ** 27))\n     */\n    function liquidationRatio(bytes32 loan) public view returns (uint256) {\n        return loans[loan].liquidationRatio;\n    }\n\n    /**\n     * @notice Get the amount owed to the Lender for a Loan\n     * @param loan The Id of a Loan\n     * @return Amount owed to the Lender\n     */\n    function owedToLender(bytes32 loan) public view returns (uint256) { // Amount lent by Lender\n        return add(principal(loan), interest(loan));\n    }\n\n    /**\n     * @notice Get the amount needed to repay a Loan\n     * @param loan The Id of a Loan\n     * @return Amount needed to repay the Loan\n     */\n    function owedForLoan(bytes32 loan) public view returns (uint256) { // Amount owed\n        return add(owedToLender(loan), fee(loan));\n    }\n\n    /**\n     * @notice Get the amount that needs to be covered in the case of a liquidation for a Loan\n     * @dev owedForLiquidation includes penalty which is paid out to oracles to give incentive for users to continue updating them\n     * @param loan The Id of a Loan\n     * @return Amount needed to cover a liquidation\n     */\n    function owedForLiquidation(bytes32 loan) external view returns (uint256) { // Deductible amount from collateral\n        return add(owedForLoan(loan), penalty(loan));\n    }\n\n    /**\n     * @notice Get the amount still owing for a Loan\n     * @param loan The Id of a Loan\n     * @return Amount owing for a Loan\n     */\n    function owing(bytes32 loan) external view returns (uint256) {\n        return sub(owedForLoan(loan), repaid(loan));\n    }\n\n    /**\n     * @notice Get the funded status of a Loan\n     * @param loan The Id of a Loan\n     * @return Bool that indicates whether loan has been funded\n     */\n    function funded(bytes32 loan) external view returns (bool) {\n        return bools[loan].funded;\n    }\n\n    /**\n     * @notice Get the approved status of a Loan\n     * @param loan The Id of a Loan\n     * @return Bool that indicates whether loan has been approved\n     */\n    function approved(bytes32 loan) external view returns (bool) {\n        return bools[loan].approved;\n    }\n\n    /**\n     * @notice Get the withdrawn status of a Loan\n     * @param loan The Id of a Loan\n     * @return Bool that indicates whether loan has been withdrawn\n     */\n    function withdrawn(bytes32 loan) external view returns (bool) {\n        return bools[loan].withdrawn;\n    }\n\n    /**\n     * @notice Get the sale status of a Loan\n     * @param loan The Id of a Loan\n     * @return Bool that indicates whether loan has been liquidated\n     */\n    function sale(bytes32 loan) public view returns (bool) {\n        return bools[loan].sale;\n    }\n\n    /**\n     * @notice Get the paid status of a Loan\n     * @param loan The Id of a Loan\n     * @return Bool that indicates whether loan has been repaid\n     */\n    function paid(bytes32 loan) external view returns (bool) {\n        return bools[loan].paid;\n    }\n\n    /**\n     * @notice Get the off status of a Loan\n     * @param loan The Id of a Loan\n     * @return Bool that indicates whether loan has been terminated\n     */\n    function off(bytes32 loan) public view returns (bool) {\n        return bools[loan].off;\n    }\n\n    /**\n     * @notice Decimal multiplication that multiplies the number to 10 ** 18 if stablecoin token decimals are less than 18\n     * @param x The number to decimal multiply\n     * @return x converted to WAD (10 ** 18) if decimals are less than 18, else x\n     */\n    function dmul(uint x) public view returns (uint256) {\n        return mul(x, (10 ** sub(18, decimals)));\n    }\n\n    /**\n     * @notice Decimal division that divides the number to 10 ** decimals from 10 ** 18 if stablecoin token decimals are less than 18\n     * @param x The number to decimal divide\n     * @return x converted to 10 ** decimals if decimals are less than 18, else x\n     */\n    function ddiv(uint x) public view returns (uint256) {\n        return div(x, (10 ** sub(18, decimals)));\n    }\n\n    /**\n     * @notice Get the number of loans originated by a Borrower\n     * @param borrower_ Address of the Borrower\n     * @return Number of loans originated by Borrower\n     */\n    function borrowerLoanCount(address borrower_) external view returns (uint256) {\n        return borrowerLoans[borrower_].length;\n    }\n\n    /**\n     * @notice Get the number of loans originated by a Lender\n     * @param lender_ Address of the Lender\n     * @return Number of loans originated by Lender\n     */\n    function lenderLoanCount(address lender_) external view returns (uint256) {\n        return lenderLoans[lender_].length;\n    }\n\n    /**\n     * @notice The minimum seizable collateral required to cover a Loan\n     * @param loan The Id of a Loan\n     * @return Amount of seizable collateral value (in sats) required to cover a Loan\n     */\n    function minSeizableCollateral(bytes32 loan) public view returns (uint256) {\n        (bytes32 val, bool set) = med.peek();\n        require(set, \"Loans.minSeizableCollateral: Medianizer must be set\");\n        uint256 price = uint(val);\n        return div(wdiv(dmul(sub(owedForLoan(loan), repaid(loan))), price), div(WAD, COL));\n    }\n\n    /**\n     * @notice The current collateral value of a Loan\n     * @dev Gets the price in USD from the Medianizer and multiplies it by the collateral in sats to get the USD value of collateral\n     * @param loan The Id of a Loan\n     * @return Value of collateral (USD in WAD)\n     */\n    function collateralValue(bytes32 loan) public view returns (uint256) {\n        (bytes32 val, bool set) = med.peek();\n        require(set, \"Loans.collateralValue: Medianizer must be set\");\n        uint256 price = uint(val);\n        return cmul(price, collateral(loan));\n    }\n\n    /**\n     * @notice The minimum collateral value to cover the amount owed for a Loan\n     * @dev Gets the amount in the Loan that still needs to be repaid, converts to WAD, and multiplies it by the minimum liquidation ratio\n     * @param loan The Id of a Loan\n     * @return Value of the minimum collateral required (USD in WAD)\n     */\n    function minCollateralValue(bytes32 loan) public view returns (uint256) {\n        return rmul(dmul(sub(owedForLoan(loan), repaid(loan))), liquidationRatio(loan));\n    }\n\n    /**\n     * @notice The discount collateral value in which a Liquidator can purchase the collateral for\n     * @param loan The Id of a Loan\n     * @return Value of the discounted collateral required to Liquidate a Loan (USD in WAD)\n     */\n    function discountCollateralValue(bytes32 loan) public view returns (uint256) {\n        return wmul(collateralValue(loan), LIQUIDATION_DISCOUNT);\n    }\n\n    /**\n     * @notice Get the safe status of a Loan\n     * @param loan The Id of a Loan\n     * @return Bool that indicates whether loan is safe from liquidation\n     */\n    function safe(bytes32 loan) public view returns (bool) {\n        return collateralValue(loan) >= minCollateralValue(loan);\n    }\n\n    /**\n     * @notice Construct a new Loans contract\n     * @param funds_ The address of the Funds contract\n     * @param med_ The address of the Medianizer contract\n     * @param token_ The stablecoin token address\n     * @param decimals_ The number of decimals in the stablecoin token\n     */\n    constructor (FundsInterface funds_, Medianizer med_, ERC20 token_, uint256 decimals_) public {\n        require(address(funds_) != address(0), \"Funds address must be non-zero\");\n        require(address(med_) != address(0), \"Medianizer address must be non-zero\");\n        require(address(token_) != address(0), \"Token address must be non-zero\");\n\n        deployer = msg.sender;\n        funds = funds_;\n        med = med_;\n        token = token_;\n        decimals = decimals_;\n        require(token.approve(address(funds), MAX_UINT_256), \"Token approve failed\");\n    }\n\n    // NOTE: THE FOLLOWING FUNCTIONS CAN ONLY BE CALLED BY THE DEPLOYER OF THE\n    //       CONTRACT ONCE. THIS IS TO ALLOW FOR FUNDS, LOANS, AND SALES\n    //       CONTRACTS TO BE DEPLOYED SEPARATELY (DUE TO GAS LIMIT RESTRICTIONS).\n    //       IF YOU ARE USING THIS CONTRACT, ENSURE THAT THESE FUNCTIONS HAVE\n    //       ALREADY BEEN CALLED BEFORE DEPOSITING FUNDS.\n    // ======================================================================\n\n    /**\n     * @dev Sets Sales contract\n     * @param sales_ Address of Sales contract\n     */\n    function setSales(SalesInterface sales_) external {\n        require(msg.sender == deployer, \"Loans.setSales: Only the deployer can perform this\");\n        require(address(sales) == address(0), \"Loans.setSales: The Sales address has already been set\");\n        require(address(sales_) != address(0), \"Loans.setSales: Sales address must be non-zero\");\n        sales = sales_;\n    }\n\n    /**\n     * @dev Sets Spv contract\n     * @param col_ Address of Collateral contract\n     */\n    function setCollateral(CollateralInterface col_) external {\n        require(msg.sender == deployer, \"Loans.setCollateral: Only the deployer can perform this\");\n        require(address(col) == address(0), \"Loans.setCollateral: The Collateral address has already been set\");\n        require(address(col_) != address(0), \"Loans.setCollateral: Collateral address must be non-zero\");\n        col = col_;\n    }\n    // ======================================================================\n\n    /**\n     * @notice Creates a new loan agreement\n     * @param loanExpiration_ The timestamp for the end of the loan\n     * @param usrs_ Array of three addresses containing the borrower, lender, and optional arbiter address\n     * @param vals_ Array of seven uints containing loan principal, interest, liquidation penalty, optional arbiter fee, collateral amount, liquidation ratio, and request timestamp\n     * @param fund The optional Fund ID\n     */\n    function create(\n        uint256             loanExpiration_,\n        address[3] calldata usrs_,\n        uint256[7] calldata vals_,\n        bytes32             fund\n    ) external returns (bytes32 loan) {\n        if (fund != bytes32(0)) {\n            require(funds.lender(fund) == usrs_[1], \"Loans.create: Lender of Fund not in args\");\n        }\n        require(!addressToTimestamp[usrs_[0]][vals_[6]], \"Loans.create: Duplicate request timestamps are not allowed\");\n        require(loanExpiration_ > now, \"Loans.create: loanExpiration must be greater than `now`\");\n        require(usrs_[0] != address(0) && usrs_[1] != address(0), \"Loans.create: Borrower and Lender address must be non-zero\");\n        require(vals_[0] != 0 && vals_[4] != 0, \"Loans.create: Principal and Collateral must be non-zero\");\n        require(vals_[5] != 0 && vals_[6] != 0, \"Loans.create: Liquidation ratio and Request timestamp must be non-zero\");\n\n        loanIndex = add(loanIndex, 1);\n        loan = bytes32(loanIndex);\n        loans[loan].createdAt = now;\n        loans[loan].loanExpiration = loanExpiration_;\n        loans[loan].borrower = usrs_[0];\n        loans[loan].lender = usrs_[1];\n        loans[loan].arbiter = usrs_[2];\n        loans[loan].principal = vals_[0];\n        loans[loan].interest = vals_[1];\n        loans[loan].penalty = vals_[2];\n        loans[loan].fee = vals_[3];\n        uint256 minSeizableCol = minSeizableCollateral(loan);\n        col.setCollateral(loan, sub(vals_[4], minSeizableCol), minSeizableCol);\n        loans[loan].liquidationRatio = vals_[5];\n        loans[loan].requestTimestamp = vals_[6];\n        fundIndex[loan] = fund;\n        secretHashes[loan].set = false;\n        borrowerLoans[usrs_[0]].push(bytes32(loanIndex));\n        lenderLoans[usrs_[1]].push(bytes32(loanIndex));\n        addressToTimestamp[usrs_[0]][vals_[6]] = true;\n\n        emit Create(loan);\n    }\n\n    /**\n     * @notice Set Secret Hashes for loan agreement\n     * @param loan The Id of the Loan\n     * @param borrowerSecretHashes Borrower secret hashes\n     * @param lenderSecretHashes Lender secret hashes\n     * @param arbiterSecretHashes Arbiter secret hashes\n     * @param borrowerPubKey_ Borrower Bitcoin Public Key\n     * @param lenderPubKey_ Lender Bitcoin Public Key\n     * @param arbiterPubKey_ Arbiter Bitcoin Public Key\n     */\n    function setSecretHashes(\n        bytes32             loan,\n        bytes32[4] calldata borrowerSecretHashes,\n        bytes32[4] calldata lenderSecretHashes,\n        bytes32[4] calldata arbiterSecretHashes,\n        bytes      calldata borrowerPubKey_,\n        bytes      calldata lenderPubKey_,\n        bytes      calldata arbiterPubKey_\n    ) external {\n        require(!secretHashes[loan].set, \"Loans.setSecretHashes: Secret hashes must not already be set\");\n        require(\n            msg.sender == loans[loan].borrower || msg.sender == loans[loan].lender || msg.sender == address(funds),\n            \"Loans.setSecretHashes: msg.sender must be Borrower, Lender or Funds Address\"\n        );\n        secretHashes[loan].secretHashA1 = borrowerSecretHashes[0];\n        secretHashes[loan].secretHashAs = [ borrowerSecretHashes[1], borrowerSecretHashes[2], borrowerSecretHashes[3] ];\n        secretHashes[loan].secretHashB1 = lenderSecretHashes[0];\n        secretHashes[loan].secretHashBs = [ lenderSecretHashes[1], lenderSecretHashes[2], lenderSecretHashes[3] ];\n        secretHashes[loan].secretHashC1 = arbiterSecretHashes[0];\n        secretHashes[loan].secretHashCs = [ arbiterSecretHashes[1], arbiterSecretHashes[2], arbiterSecretHashes[3] ];\n        pubKeys[loan].borrowerPubKey = borrowerPubKey_;\n        pubKeys[loan].lenderPubKey = lenderPubKey_;\n        pubKeys[loan].arbiterPubKey = arbiterPubKey_;\n        secretHashes[loan].set = true;\n    }\n\n    /**\n     * @notice Lender sends tokens to the loan agreement\n     * @param loan The Id of the Loan\n     */\n    function fund(bytes32 loan) external {\n        require(secretHashes[loan].set, \"Loans.fund: Secret hashes must be set\");\n        require(bools[loan].funded == false, \"Loans.fund: Loan is already funded\");\n        bools[loan].funded = true;\n        require(token.transferFrom(msg.sender, address(this), principal(loan)), \"Loans.fund: Failed to transfer tokens\");\n\n        emit FundLoan(loan);\n    }\n\n    /**\n     * @notice Lender approves locking of Bitcoin collateral\n     * @param loan The Id of the Loan\n     */\n    function approve(bytes32 loan) external { // Approve locking of collateral\n    \trequire(bools[loan].funded == true, \"Loans.approve: Loan must be funded\");\n    \trequire(loans[loan].lender == msg.sender, \"Loans.approve: Only the lender can approve the loan\");\n        require(now <= approveExpiration(loan), \"Loans.approve: Loan is past the approve deadline\");\n    \tbools[loan].approved = true;\n\n        emit Approve(loan);\n    }\n\n    /**\n     * @notice Borrower withdraws loan\n     * @param loan The Id of the Loan\n     * @param secretA1 Secret A1 provided by the borrower\n     */\n    function withdraw(bytes32 loan, bytes32 secretA1) external {\n        require(!off(loan), \"Loans.withdraw: Loan cannot be inactive\");\n        require(bools[loan].funded == true, \"Loans.withdraw: Loan must be funded\");\n        require(bools[loan].approved == true, \"Loans.withdraw: Loan must be approved\");\n        require(bools[loan].withdrawn == false, \"Loans.withdraw: Loan principal has already been withdrawn\");\n        require(sha256(abi.encodePacked(secretA1)) == secretHashes[loan].secretHashA1, \"Loans.withdraw: Secret does not match\");\n        bools[loan].withdrawn = true;\n        require(token.transfer(loans[loan].borrower, principal(loan)), \"Loans.withdraw: Failed to transfer tokens\");\n\n        secretHashes[loan].withdrawSecret = secretA1;\n        if (address(col.onDemandSpv()) != address(0)) {col.requestSpv(loan);}\n\n        emit Withdraw(loan, secretA1);\n    }\n\n    /**\n     * @notice Lender sends tokens to the loan agreement\n     * @param loan The Id of the Loan\n     * @param amount The amount of tokens to repay\n     *\n     *        Note: Anyone can repay the loan\n     */\n    function repay(bytes32 loan, uint256 amount) external {\n        require(!off(loan), \"Loans.repay: Loan cannot be inactive\");\n        require(!sale(loan), \"Loans.repay: Loan cannot be undergoing a liquidation\");\n        require(bools[loan].withdrawn == true, \"Loans.repay: Loan principal must be withdrawn\");\n        require(now <= loans[loan].loanExpiration, \"Loans.repay: Loan cannot have expired\");\n        require(add(amount, repaid(loan)) <= owedForLoan(loan), \"Loans.repay: Cannot repay more than the owed amount\");\n        require(token.transferFrom(msg.sender, address(this), amount), \"Loans.repay: Failed to transfer tokens\");\n        repayments[loan] = add(amount, repayments[loan]);\n        if (repaid(loan) == owedForLoan(loan)) {\n            bools[loan].paid = true;\n            if (address(col.onDemandSpv()) != address(0)) {col.cancelSpv(loan);}\n        }\n\n        emit Repay(loan, amount);\n    }\n\n    /**\n     * @notice Borrower refunds tokens in the case that Lender doesn't accept loan repayment\n     * @dev Send tokens back to the Borrower, and close Loan\n     * @param loan The Id of the Loan\n     *\n     *        Note: If Lender does not accept repayment, liquidation cannot occur\n     */\n    function refund(bytes32 loan) external {\n        require(!off(loan), \"Loans.refund: Loan cannot be inactive\");\n        require(!sale(loan), \"Loans.refund: Loan cannot be undergoing a liquidation\");\n        require(now > acceptExpiration(loan), \"Loans.refund: Cannot request refund until after acceptExpiration\");\n        require(bools[loan].paid == true, \"Loans.refund: The loan must be repaid\");\n        require(msg.sender == loans[loan].borrower, \"Loans.refund: Only the borrower can request a refund\");\n        bools[loan].off = true;\n        loans[loan].closedTimestamp = now;\n        if (funds.custom(fundIndex[loan]) == false) {\n            funds.decreaseTotalBorrow(loans[loan].principal);\n            funds.calcGlobalInterest();\n        }\n        require(token.transfer(loans[loan].borrower, owedForLoan(loan)), \"Loans.refund: Failed to transfer tokens\");\n\n        emit Refund(loan);\n    }\n\n    /**\n     * @notice Lender cancels loan after Borrower locks collateral\n     * @dev Lender cancels loan and principal is sent back to the Lender / Loan Fund\n     * @param loan The Id of the Loan\n     * @param secret Secret B1 revealed by the Lender\n     */\n    function cancel(bytes32 loan, bytes32 secret) external {\n        accept(loan, secret);\n\n        emit Cancel(loan, secret);\n    }\n\n    /**\n     * @notice Lender cancels loan after Seizure Expiration in case Lender loses secret\n     * @dev Lender cancels loan and principal is sent back to the Lender / Loan Fund\n     * @param loan The Id of the Loan\n     */\n    function cancel(bytes32 loan) external {\n        require(!off(loan), \"Loans.cancel: Loan must not be inactive\");\n        require(bools[loan].withdrawn == false, \"Loans.cancel: Loan principal must not be withdrawn\");\n        require(now >= seizureExpiration(loan), \"Loans.cancel: Seizure deadline has not been reached\");\n        require(bools[loan].sale == false, \"Loans.cancel: Loan must not be undergoing liquidation\");\n        close(loan);\n\n        emit Cancel(loan, bytes32(0));\n    }\n\n    /**\n     * @notice Lender accepts loan repayment\n     * @dev Lender accepts loan repayment and principal + interest are sent back to the Lender / Loan Fund\n     * @param loan The Id of the Loan\n     * @param secret Secret B1 revealed by the Lender\n     */\n    function accept(bytes32 loan, bytes32 secret) public {\n        require(!off(loan), \"Loans.accept: Loan must not be inactive\");\n        require(bools[loan].withdrawn == false || bools[loan].paid == true, \"Loans.accept: Loan must be either not withdrawn or repaid\");\n        require(msg.sender == loans[loan].lender || msg.sender == loans[loan].arbiter, \"Loans.accept: msg.sender must be lender or arbiter\");\n        require(now <= acceptExpiration(loan), \"Loans.accept: Acceptance deadline has past\");\n        require(bools[loan].sale == false, \"Loans.accept: Loan must not be going under liquidation\");\n        require(\n            sha256(abi.encodePacked(secret)) == secretHashes[loan].secretHashB1 || sha256(abi.encodePacked(secret)) == secretHashes[loan].secretHashC1,\n            \"Loans.accept: Invalid secret\"\n        );\n        secretHashes[loan].acceptSecret = secret;\n        close(loan);\n\n        emit Accept(loan, secret);\n    }\n\n    /**\n     * @notice Terminate Loan and transfer funds back to Lender and Arbiter (if there are any fees acrued)\n     * @param loan The Id of the Loan\n     */\n    function close(bytes32 loan) private {\n        bools[loan].off = true;\n        loans[loan].closedTimestamp = now;\n        // If Loan has not been withdraw, simply transfer Principal back to the Lender\n        if (bools[loan].withdrawn == false) {\n            if (fundIndex[loan] == bytes32(0)) {\n                require(token.transfer(loans[loan].lender, loans[loan].principal), \"Loans.close: Failed to transfer principal to Lender\");\n            } else {\n                if (funds.custom(fundIndex[loan]) == false) {\n                    funds.decreaseTotalBorrow(loans[loan].principal);\n                }\n                funds.deposit(fundIndex[loan], loans[loan].principal);\n            }\n        }\n        // If Loan has been withdrawn, transfer Principal + Interest to Lender and Fee to Arbiter\n        else {\n            if (fundIndex[loan] == bytes32(0)) {\n                require(token.transfer(loans[loan].lender, owedToLender(loan)), \"Loans.close: Failed to transfer owedToLender to Lender\");\n            } else {\n                if (funds.custom(fundIndex[loan]) == false) {\n                    funds.decreaseTotalBorrow(loans[loan].principal);\n                }\n                funds.deposit(fundIndex[loan], owedToLender(loan));\n            }\n            require(token.transfer(loans[loan].arbiter, fee(loan)), \"Loans.close: Failed to transfer fee to Arbiter\");\n        }\n    }\n\n    /**\n     * @notice Any third party starts liquidation of the Bitcoin collateral by providing tokens with the intention to buy at a discount\n     * @param loan The Id of the Loan\n     * @param secretHash The Secret Hash D1 provided by the liquidator\n     * @param pubKeyHash The Bitcoin Public Key Hash of the liquidator\n     * @return sale_ The Id of the Sale (Liquidation)\n     */\n    function liquidate(bytes32 loan, bytes32 secretHash, bytes20 pubKeyHash) external returns (bytes32 sale_) {\n        require(!off(loan), \"Loans.liquidate: Loan must not be inactive\");\n        require(bools[loan].withdrawn == true, \"Loans.liquidate: Loan principal must be withdrawn\");\n        require(msg.sender != loans[loan].borrower && msg.sender != loans[loan].lender, \"Loans.liquidate: Liquidator must be a third-party\");\n        require(secretHash != bytes32(0) && pubKeyHash != bytes20(0), \"Loans.liquidate: secretHash and pubKeyHash must be non-zero\");\n        // Check if this is the first liquidation (if a liquidation fails because the liquidator didn't claim, up to MAX_NUM_LIQUIDATIONS can occur)\n        if (sales.next(loan) == 0) {\n            // Check if current time is greater than loan expiration timestamp\n            if (now > loans[loan].loanExpiration) {\n                require(bools[loan].paid == false, \"Loans.liquidate: loan must not have already been repaid\");\n            } else {\n                require(!safe(loan), \"Loans.liquidate: collateralization must be below min-collateralization ratio\");\n            }\n            // If Loan is not custom, update global borrow and interest variables in Funds contract\n            if (funds.custom(fundIndex[loan]) == false) {\n                funds.decreaseTotalBorrow(loans[loan].principal);\n                funds.calcGlobalInterest();\n            }\n        } else {\n            // Since there is only 1 + MAX_NUM_LIQUIDATIONS secret hashes per participant, only MAX_NUM_LIQUIDATIONS Liquidation can occur\n            require(sales.next(loan) < MAX_NUM_LIQUIDATIONS, \"Loans.liquidate: Max number of liquidations reached\");\n            require(!sales.accepted(sales.saleIndexByLoan(loan, sales.next(loan) - 1)), \"Loans.liquidate: Previous liquidation already accepted\");\n            require(\n                now > sales.settlementExpiration(sales.saleIndexByLoan(loan, sales.next(loan) - 1)),\n                \"Loans.liquidate: Previous liquidation settlement expiration hasn't expired\"\n            );\n        }\n        require(token.balanceOf(msg.sender) >= ddiv(discountCollateralValue(loan)), \"Loans.liquidate: insufficient balance to liquidate\");\n        require(token.transferFrom(msg.sender, address(sales), ddiv(discountCollateralValue(loan))), \"Loans.liquidate: Token transfer failed\");\n        SecretHashes storage h = secretHashes[loan];\n        uint256 i = sales.next(loan);\n        // Create new Sale with secret hashes associated with sale index\n        sale_ = sales.create(\n            loan, loans[loan].borrower, loans[loan].lender, loans[loan].arbiter, msg.sender,\n            h.secretHashAs[i], h.secretHashBs[i], h.secretHashCs[i], secretHash, pubKeyHash\n        );\n        if (bools[loan].sale == false) {\n            bools[loan].sale = true;\n            require(token.transfer(address(sales), repaid(loan)), \"Loans.liquidate: Token transfer to Sales contract failed\");\n        }\n        // If onDemandSpv is set, cancel spv proofs for this Loan\n        if (address(col.onDemandSpv()) != address(0)) {col.cancelSpv(loan);}\n\n        emit Liquidate(loan, secretHash, pubKeyHash);\n    }\n}\n",
    "sourcePath": "/Users/matthewblack/atomicloans/atomicloans-eth-contracts/contracts/Loans.sol",
    "compiler": {
        "name": "solc",
        "version": "0.5.10+commit.5a6ea5b1.Emscripten.clang"
    },
    "schemaVersion": "3.0.11",
    "updatedAt": "2020-02-23T04:11:13.238Z",
    "devdoc": {
        "author": "Atomic Loans",
        "methods": {
            "accept(bytes32,bytes32)": {
                "details": "Lender accepts loan repayment and principal + interest are sent back to the Lender / Loan Fund",
                "params": {
                    "loan": "The Id of the Loan",
                    "secret": "Secret B1 revealed by the Lender"
                }
            },
            "acceptExpiration(bytes32)": {
                "params": {
                    "loan": "The Id of a Loan"
                },
                "return": "Accept Expiration Timestamp"
            },
            "approve(bytes32)": {
                "params": {
                    "loan": "The Id of the Loan"
                }
            },
            "approveExpiration(bytes32)": {
                "params": {
                    "loan": "The Id of a Loan"
                },
                "return": "Approve Expiration Timestamp"
            },
            "approved(bytes32)": {
                "params": {
                    "loan": "The Id of a Loan"
                },
                "return": "Bool that indicates whether loan has been approved"
            },
            "arbiter(bytes32)": {
                "params": {
                    "loan": "The Id of a Loan"
                },
                "return": "Arbiter address of Loan"
            },
            "borrower(bytes32)": {
                "params": {
                    "loan": "The Id of a Loan"
                },
                "return": "Borrower address of Loan"
            },
            "borrowerLoanCount(address)": {
                "params": {
                    "borrower_": "Address of the Borrower"
                },
                "return": "Number of loans originated by Borrower"
            },
            "cancel(bytes32)": {
                "details": "Lender cancels loan and principal is sent back to the Lender / Loan Fund",
                "params": {
                    "loan": "The Id of the Loan"
                }
            },
            "cancel(bytes32,bytes32)": {
                "details": "Lender cancels loan and principal is sent back to the Lender / Loan Fund",
                "params": {
                    "loan": "The Id of the Loan",
                    "secret": "Secret B1 revealed by the Lender"
                }
            },
            "collateral(bytes32)": {
                "params": {
                    "loan": "The Id of a Loan"
                },
                "return": "Amount of collateral backing the loan (in sats)"
            },
            "collateralValue(bytes32)": {
                "details": "Gets the price in USD from the Medianizer and multiplies it by the collateral in sats to get the USD value of collateral",
                "params": {
                    "loan": "The Id of a Loan"
                },
                "return": "Value of collateral (USD in WAD)"
            },
            "constructor": {
                "params": {
                    "decimals_": "The number of decimals in the stablecoin token",
                    "funds_": "The address of the Funds contract",
                    "med_": "The address of the Medianizer contract",
                    "token_": "The stablecoin token address"
                }
            },
            "create(uint256,address[3],uint256[7],bytes32)": {
                "params": {
                    "fund": "The optional Fund ID",
                    "loanExpiration_": "The timestamp for the end of the loan",
                    "usrs_": "Array of three addresses containing the borrower, lender, and optional arbiter address",
                    "vals_": "Array of seven uints containing loan principal, interest, liquidation penalty, optional arbiter fee, collateral amount, liquidation ratio, and request timestamp"
                }
            },
            "ddiv(uint256)": {
                "params": {
                    "x": "The number to decimal divide"
                },
                "return": "x converted to 10 ** decimals if decimals are less than 18, else x"
            },
            "discountCollateralValue(bytes32)": {
                "params": {
                    "loan": "The Id of a Loan"
                },
                "return": "Value of the discounted collateral required to Liquidate a Loan (USD in WAD)"
            },
            "dmul(uint256)": {
                "params": {
                    "x": "The number to decimal multiply"
                },
                "return": "x converted to WAD (10 ** 18) if decimals are less than 18, else x"
            },
            "fee(bytes32)": {
                "params": {
                    "loan": "The Id of a Loan"
                },
                "return": "Amount of Fee in stablecoin tokens"
            },
            "fund(bytes32)": {
                "params": {
                    "loan": "The Id of the Loan"
                }
            },
            "funded(bytes32)": {
                "params": {
                    "loan": "The Id of a Loan"
                },
                "return": "Bool that indicates whether loan has been funded"
            },
            "interest(bytes32)": {
                "params": {
                    "loan": "The Id of a Loan"
                },
                "return": "Amount of Interest in stablecoin tokens"
            },
            "lender(bytes32)": {
                "params": {
                    "loan": "The Id of a Loan"
                },
                "return": "Lender address of Loan"
            },
            "lenderLoanCount(address)": {
                "params": {
                    "lender_": "Address of the Lender"
                },
                "return": "Number of loans originated by Lender"
            },
            "liquidate(bytes32,bytes32,bytes20)": {
                "params": {
                    "loan": "The Id of the Loan",
                    "pubKeyHash": "The Bitcoin Public Key Hash of the liquidator",
                    "secretHash": "The Secret Hash D1 provided by the liquidator"
                },
                "return": "sale_ The Id of the Sale (Liquidation)"
            },
            "liquidationExpiration(bytes32)": {
                "params": {
                    "loan": "The Id of a Loan"
                },
                "return": "Liquidation Expiration Timestamp"
            },
            "liquidationRatio(bytes32)": {
                "params": {
                    "loan": "The Id of a Loan"
                },
                "return": "Liquidation Ratio in RAY (i.e. 140% would be 1.4 * (10 ** 27))"
            },
            "minCollateralValue(bytes32)": {
                "details": "Gets the amount in the Loan that still needs to be repaid, converts to WAD, and multiplies it by the minimum liquidation ratio",
                "params": {
                    "loan": "The Id of a Loan"
                },
                "return": "Value of the minimum collateral required (USD in WAD)"
            },
            "minSeizableCollateral(bytes32)": {
                "params": {
                    "loan": "The Id of a Loan"
                },
                "return": "Amount of seizable collateral value (in sats) required to cover a Loan"
            },
            "off(bytes32)": {
                "params": {
                    "loan": "The Id of a Loan"
                },
                "return": "Bool that indicates whether loan has been terminated"
            },
            "owedForLiquidation(bytes32)": {
                "details": "owedForLiquidation includes penalty which is paid out to oracles to give incentive for users to continue updating them",
                "params": {
                    "loan": "The Id of a Loan"
                },
                "return": "Amount needed to cover a liquidation"
            },
            "owedForLoan(bytes32)": {
                "params": {
                    "loan": "The Id of a Loan"
                },
                "return": "Amount needed to repay the Loan"
            },
            "owedToLender(bytes32)": {
                "params": {
                    "loan": "The Id of a Loan"
                },
                "return": "Amount owed to the Lender"
            },
            "owing(bytes32)": {
                "params": {
                    "loan": "The Id of a Loan"
                },
                "return": "Amount owing for a Loan"
            },
            "paid(bytes32)": {
                "params": {
                    "loan": "The Id of a Loan"
                },
                "return": "Bool that indicates whether loan has been repaid"
            },
            "penalty(bytes32)": {
                "details": "Upon liquidation penalty is paid out to oracles to give incentive for users to continue updating them",
                "params": {
                    "loan": "The Id of a Loan"
                },
                "return": "Amount of Penalty in stablecoin tokens"
            },
            "principal(bytes32)": {
                "params": {
                    "loan": "The Id of a Loan"
                },
                "return": "Amount of Principal in stablecoin tokens"
            },
            "refund(bytes32)": {
                "details": "Send tokens back to the Borrower, and close Loan",
                "params": {
                    "loan": "The Id of the Loan     *        Note: If Lender does not accept repayment, liquidation cannot occur"
                }
            },
            "refundableCollateral(bytes32)": {
                "params": {
                    "loan": "The Id of a Loan"
                },
                "return": "Amount of refundable collateral backing the loan (in sats)"
            },
            "repaid(bytes32)": {
                "params": {
                    "loan": "The Id of a Loan"
                },
                "return": "Amount of the loan that has been repaid"
            },
            "repay(bytes32,uint256)": {
                "params": {
                    "amount": "The amount of tokens to repay     *        Note: Anyone can repay the loan",
                    "loan": "The Id of the Loan"
                }
            },
            "safe(bytes32)": {
                "params": {
                    "loan": "The Id of a Loan"
                },
                "return": "Bool that indicates whether loan is safe from liquidation"
            },
            "sale(bytes32)": {
                "params": {
                    "loan": "The Id of a Loan"
                },
                "return": "Bool that indicates whether loan has been liquidated"
            },
            "seizableCollateral(bytes32)": {
                "params": {
                    "loan": "The Id of a Loan"
                },
                "return": "Amount of seizable collateral backing the loan (in sats)"
            },
            "seizureExpiration(bytes32)": {
                "params": {
                    "loan": "The Id of a Loan"
                },
                "return": "Seizure Expiration Timestamp"
            },
            "setCollateral(address)": {
                "details": "Sets Spv contract",
                "params": {
                    "col_": "Address of Collateral contract"
                }
            },
            "setSales(address)": {
                "details": "Sets Sales contract",
                "params": {
                    "sales_": "Address of Sales contract"
                }
            },
            "setSecretHashes(bytes32,bytes32[4],bytes32[4],bytes32[4],bytes,bytes,bytes)": {
                "params": {
                    "arbiterPubKey_": "Arbiter Bitcoin Public Key",
                    "arbiterSecretHashes": "Arbiter secret hashes",
                    "borrowerPubKey_": "Borrower Bitcoin Public Key",
                    "borrowerSecretHashes": "Borrower secret hashes",
                    "lenderPubKey_": "Lender Bitcoin Public Key",
                    "lenderSecretHashes": "Lender secret hashes",
                    "loan": "The Id of the Loan"
                }
            },
            "temporaryRefundableCollateral(bytes32)": {
                "details": "Represents the amount of refundable collateral that has been locked and only has 1 conf, where 6 confs hasn't been received yet",
                "params": {
                    "loan": "The Id of a Loan"
                },
                "return": "Amount of temporary refundable collateral backing the loan (in sats)"
            },
            "temporarySeizableCollateral(bytes32)": {
                "details": "Represents the amount of seizable collateral that has been locked and only has 1 conf, where 6 confs hasn't been received yet",
                "params": {
                    "loan": "The Id of a Loan"
                },
                "return": "Amount of temporary seizable collateral backing the loan (in sats)"
            },
            "withdraw(bytes32,bytes32)": {
                "params": {
                    "loan": "The Id of the Loan",
                    "secretA1": "Secret A1 provided by the borrower"
                }
            },
            "withdrawn(bytes32)": {
                "params": {
                    "loan": "The Id of a Loan"
                },
                "return": "Bool that indicates whether loan has been withdrawn"
            }
        },
        "title": "Atomic Loans Loans Contract"
    },
    "userdoc": {
        "methods": {
            "accept(bytes32,bytes32)": {
                "notice": "Lender accepts loan repayment"
            },
            "acceptExpiration(bytes32)": {
                "notice": "Get the Accept Expiration of a Loan"
            },
            "approve(bytes32)": {
                "notice": "Lender approves locking of Bitcoin collateral"
            },
            "approveExpiration(bytes32)": {
                "notice": "Get the Approve Expiration of a Loan"
            },
            "approved(bytes32)": {
                "notice": "Get the approved status of a Loan"
            },
            "arbiter(bytes32)": {
                "notice": "Get the Arbiter of a Loan"
            },
            "borrower(bytes32)": {
                "notice": "Get the Borrower of a Loan"
            },
            "borrowerLoanCount(address)": {
                "notice": "Get the number of loans originated by a Borrower"
            },
            "cancel(bytes32)": {
                "notice": "Lender cancels loan after Seizure Expiration in case Lender loses secret"
            },
            "cancel(bytes32,bytes32)": {
                "notice": "Lender cancels loan after Borrower locks collateral"
            },
            "collateral(bytes32)": {
                "notice": "Get the Collateral of a Loan"
            },
            "collateralValue(bytes32)": {
                "notice": "The current collateral value of a Loan"
            },
            "constructor": "Construct a new Loans contract",
            "create(uint256,address[3],uint256[7],bytes32)": {
                "notice": "Creates a new loan agreement"
            },
            "ddiv(uint256)": {
                "notice": "Decimal division that divides the number to 10 ** decimals from 10 ** 18 if stablecoin token decimals are less than 18"
            },
            "discountCollateralValue(bytes32)": {
                "notice": "The discount collateral value in which a Liquidator can purchase the collateral for"
            },
            "dmul(uint256)": {
                "notice": "Decimal multiplication that multiplies the number to 10 ** 18 if stablecoin token decimals are less than 18"
            },
            "fee(bytes32)": {
                "notice": "Get the Fee of a Loan"
            },
            "fund(bytes32)": {
                "notice": "Lender sends tokens to the loan agreement"
            },
            "funded(bytes32)": {
                "notice": "Get the funded status of a Loan"
            },
            "interest(bytes32)": {
                "notice": "Get the Interest of a Loan"
            },
            "lender(bytes32)": {
                "notice": "Get the Lender of a Loan"
            },
            "lenderLoanCount(address)": {
                "notice": "Get the number of loans originated by a Lender"
            },
            "liquidate(bytes32,bytes32,bytes20)": {
                "notice": "Any third party starts liquidation of the Bitcoin collateral by providing tokens with the intention to buy at a discount"
            },
            "liquidationExpiration(bytes32)": {
                "notice": "Get the Liquidation Expiration of a Loan"
            },
            "liquidationRatio(bytes32)": {
                "notice": "Get Liquidation Ratio of a Loan (Minimum Collateralization Ratio)"
            },
            "minCollateralValue(bytes32)": {
                "notice": "The minimum collateral value to cover the amount owed for a Loan"
            },
            "minSeizableCollateral(bytes32)": {
                "notice": "The minimum seizable collateral required to cover a Loan"
            },
            "off(bytes32)": {
                "notice": "Get the off status of a Loan"
            },
            "owedForLiquidation(bytes32)": {
                "notice": "Get the amount that needs to be covered in the case of a liquidation for a Loan"
            },
            "owedForLoan(bytes32)": {
                "notice": "Get the amount needed to repay a Loan"
            },
            "owedToLender(bytes32)": {
                "notice": "Get the amount owed to the Lender for a Loan"
            },
            "owing(bytes32)": {
                "notice": "Get the amount still owing for a Loan"
            },
            "paid(bytes32)": {
                "notice": "Get the paid status of a Loan"
            },
            "penalty(bytes32)": {
                "notice": "Get the Penalty of a Loan (if not repaid)"
            },
            "principal(bytes32)": {
                "notice": "Get the Principal of a Loan"
            },
            "refund(bytes32)": {
                "notice": "Borrower refunds tokens in the case that Lender doesn't accept loan repayment"
            },
            "refundableCollateral(bytes32)": {
                "notice": "Get the Refundable Collateral of a Loan"
            },
            "repaid(bytes32)": {
                "notice": "Get the amount repaid towards a Loan"
            },
            "repay(bytes32,uint256)": {
                "notice": "Lender sends tokens to the loan agreement"
            },
            "safe(bytes32)": {
                "notice": "Get the safe status of a Loan"
            },
            "sale(bytes32)": {
                "notice": "Get the sale status of a Loan"
            },
            "seizableCollateral(bytes32)": {
                "notice": "Get the Seizable Collateral of a Loan"
            },
            "seizureExpiration(bytes32)": {
                "notice": "Get the Seizure Expiration of a Loan"
            },
            "setSecretHashes(bytes32,bytes32[4],bytes32[4],bytes32[4],bytes,bytes,bytes)": {
                "notice": "Set Secret Hashes for loan agreement"
            },
            "temporaryRefundableCollateral(bytes32)": {
                "notice": "Get the Temporary Refundable Collateral of a Loan"
            },
            "temporarySeizableCollateral(bytes32)": {
                "notice": "Get the Temporary Seizable Collateral of a Loan"
            },
            "withdraw(bytes32,bytes32)": {
                "notice": "Borrower withdraws loan"
            },
            "withdrawn(bytes32)": {
                "notice": "Get the withdrawn status of a Loan"
            }
        }
    }
}