{
  "contractName": "Sales",
  "abi": [
    {
      "constant": true,
      "inputs": [],
      "name": "MAX_NUM_LIQUIDATIONS",
      "outputs": [
        {
          "name": "",
          "type": "uint256"
        }
      ],
      "payable": false,
      "stateMutability": "view",
      "type": "function"
    },
    {
      "constant": true,
      "inputs": [
        {
          "name": "",
          "type": "bytes32"
        }
      ],
      "name": "sales",
      "outputs": [
        {
          "name": "loanIndex",
          "type": "bytes32"
        },
        {
          "name": "discountBuy",
          "type": "uint256"
        },
        {
          "name": "liquidator",
          "type": "address"
        },
        {
          "name": "borrower",
          "type": "address"
        },
        {
          "name": "lender",
          "type": "address"
        },
        {
          "name": "arbiter",
          "type": "address"
        },
        {
          "name": "createdAt",
          "type": "uint256"
        },
        {
          "name": "pubKeyHash",
          "type": "bytes20"
        },
        {
          "name": "set",
          "type": "bool"
        },
        {
          "name": "accepted",
          "type": "bool"
        },
        {
          "name": "off",
          "type": "bool"
        }
      ],
      "payable": false,
      "stateMutability": "view",
      "type": "function"
    },
    {
      "constant": true,
      "inputs": [
        {
          "name": "",
          "type": "bytes32"
        },
        {
          "name": "",
          "type": "uint256"
        }
      ],
      "name": "saleIndexByLoan",
      "outputs": [
        {
          "name": "",
          "type": "bytes32"
        }
      ],
      "payable": false,
      "stateMutability": "view",
      "type": "function"
    },
    {
      "constant": true,
      "inputs": [],
      "name": "SETTLEMENT_EXP",
      "outputs": [
        {
          "name": "",
          "type": "uint256"
        }
      ],
      "payable": false,
      "stateMutability": "view",
      "type": "function"
    },
    {
      "constant": true,
      "inputs": [],
      "name": "MAX_UINT_256",
      "outputs": [
        {
          "name": "",
          "type": "uint256"
        }
      ],
      "payable": false,
      "stateMutability": "view",
      "type": "function"
    },
    {
      "constant": true,
      "inputs": [],
      "name": "saleIndex",
      "outputs": [
        {
          "name": "",
          "type": "uint256"
        }
      ],
      "payable": false,
      "stateMutability": "view",
      "type": "function"
    },
    {
      "constant": true,
      "inputs": [
        {
          "name": "",
          "type": "bytes32"
        }
      ],
      "name": "arbiterSigs",
      "outputs": [
        {
          "name": "refundableSig",
          "type": "bytes"
        },
        {
          "name": "seizableSig",
          "type": "bytes"
        }
      ],
      "payable": false,
      "stateMutability": "view",
      "type": "function"
    },
    {
      "constant": true,
      "inputs": [
        {
          "name": "",
          "type": "bytes32"
        }
      ],
      "name": "lenderSigs",
      "outputs": [
        {
          "name": "refundableSig",
          "type": "bytes"
        },
        {
          "name": "seizableSig",
          "type": "bytes"
        }
      ],
      "payable": false,
      "stateMutability": "view",
      "type": "function"
    },
    {
      "constant": true,
      "inputs": [
        {
          "name": "",
          "type": "bytes32"
        }
      ],
      "name": "secretHashes",
      "outputs": [
        {
          "name": "secretHashA",
          "type": "bytes32"
        },
        {
          "name": "secretA",
          "type": "bytes32"
        },
        {
          "name": "secretHashB",
          "type": "bytes32"
        },
        {
          "name": "secretB",
          "type": "bytes32"
        },
        {
          "name": "secretHashC",
          "type": "bytes32"
        },
        {
          "name": "secretC",
          "type": "bytes32"
        },
        {
          "name": "secretHashD",
          "type": "bytes32"
        },
        {
          "name": "secretD",
          "type": "bytes32"
        }
      ],
      "payable": false,
      "stateMutability": "view",
      "type": "function"
    },
    {
      "constant": true,
      "inputs": [
        {
          "name": "",
          "type": "bytes32"
        }
      ],
      "name": "borrowerSigs",
      "outputs": [
        {
          "name": "refundableSig",
          "type": "bytes"
        },
        {
          "name": "seizableSig",
          "type": "bytes"
        }
      ],
      "payable": false,
      "stateMutability": "view",
      "type": "function"
    },
    {
      "constant": true,
      "inputs": [],
      "name": "deployer",
      "outputs": [
        {
          "name": "",
          "type": "address"
        }
      ],
      "payable": false,
      "stateMutability": "view",
      "type": "function"
    },
    {
      "constant": true,
      "inputs": [],
      "name": "SWAP_EXP",
      "outputs": [
        {
          "name": "",
          "type": "uint256"
        }
      ],
      "payable": false,
      "stateMutability": "view",
      "type": "function"
    },
    {
      "constant": true,
      "inputs": [
        {
          "name": "x",
          "type": "uint256"
        },
        {
          "name": "y",
          "type": "uint256"
        }
      ],
      "name": "cmul",
      "outputs": [
        {
          "name": "z",
          "type": "uint256"
        }
      ],
      "payable": false,
      "stateMutability": "pure",
      "type": "function"
    },
    {
      "constant": true,
      "inputs": [],
      "name": "token",
      "outputs": [
        {
          "name": "",
          "type": "address"
        }
      ],
      "payable": false,
      "stateMutability": "view",
      "type": "function"
    },
    {
      "inputs": [
        {
          "name": "loans_",
          "type": "address"
        },
        {
          "name": "funds_",
          "type": "address"
        },
        {
          "name": "med_",
          "type": "address"
        },
        {
          "name": "token_",
          "type": "address"
        }
      ],
      "payable": false,
      "stateMutability": "nonpayable",
      "type": "constructor"
    },
    {
      "anonymous": false,
      "inputs": [
        {
          "indexed": false,
          "name": "sale",
          "type": "bytes32"
        }
      ],
      "name": "Create",
      "type": "event"
    },
    {
      "anonymous": false,
      "inputs": [
        {
          "indexed": false,
          "name": "sale",
          "type": "bytes32"
        }
      ],
      "name": "ProvideSig",
      "type": "event"
    },
    {
      "anonymous": false,
      "inputs": [
        {
          "indexed": false,
          "name": "sale",
          "type": "bytes32"
        },
        {
          "indexed": false,
          "name": "secret_",
          "type": "bytes32"
        }
      ],
      "name": "ProvideSecret",
      "type": "event"
    },
    {
      "anonymous": false,
      "inputs": [
        {
          "indexed": false,
          "name": "sale",
          "type": "bytes32"
        }
      ],
      "name": "Accept",
      "type": "event"
    },
    {
      "anonymous": false,
      "inputs": [
        {
          "indexed": false,
          "name": "sale",
          "type": "bytes32"
        }
      ],
      "name": "Refund",
      "type": "event"
    },
    {
      "constant": true,
      "inputs": [
        {
          "name": "sale",
          "type": "bytes32"
        }
      ],
      "name": "discountBuy",
      "outputs": [
        {
          "name": "",
          "type": "uint256"
        }
      ],
      "payable": false,
      "stateMutability": "view",
      "type": "function"
    },
    {
      "constant": true,
      "inputs": [
        {
          "name": "sale",
          "type": "bytes32"
        }
      ],
      "name": "swapExpiration",
      "outputs": [
        {
          "name": "",
          "type": "uint256"
        }
      ],
      "payable": false,
      "stateMutability": "view",
      "type": "function"
    },
    {
      "constant": true,
      "inputs": [
        {
          "name": "sale",
          "type": "bytes32"
        }
      ],
      "name": "settlementExpiration",
      "outputs": [
        {
          "name": "",
          "type": "uint256"
        }
      ],
      "payable": false,
      "stateMutability": "view",
      "type": "function"
    },
    {
      "constant": true,
      "inputs": [
        {
          "name": "sale",
          "type": "bytes32"
        }
      ],
      "name": "accepted",
      "outputs": [
        {
          "name": "",
          "type": "bool"
        }
      ],
      "payable": false,
      "stateMutability": "view",
      "type": "function"
    },
    {
      "constant": true,
      "inputs": [
        {
          "name": "sale",
          "type": "bytes32"
        }
      ],
      "name": "off",
      "outputs": [
        {
          "name": "",
          "type": "bool"
        }
      ],
      "payable": false,
      "stateMutability": "view",
      "type": "function"
    },
    {
      "constant": true,
      "inputs": [
        {
          "name": "loan",
          "type": "bytes32"
        }
      ],
      "name": "next",
      "outputs": [
        {
          "name": "",
          "type": "uint256"
        }
      ],
      "payable": false,
      "stateMutability": "view",
      "type": "function"
    },
    {
      "constant": false,
      "inputs": [
        {
          "name": "loanIndex",
          "type": "bytes32"
        },
        {
          "name": "borrower",
          "type": "address"
        },
        {
          "name": "lender",
          "type": "address"
        },
        {
          "name": "arbiter",
          "type": "address"
        },
        {
          "name": "liquidator",
          "type": "address"
        },
        {
          "name": "secretHashA",
          "type": "bytes32"
        },
        {
          "name": "secretHashB",
          "type": "bytes32"
        },
        {
          "name": "secretHashC",
          "type": "bytes32"
        },
        {
          "name": "secretHashD",
          "type": "bytes32"
        },
        {
          "name": "pubKeyHash",
          "type": "bytes20"
        }
      ],
      "name": "create",
      "outputs": [
        {
          "name": "sale",
          "type": "bytes32"
        }
      ],
      "payable": false,
      "stateMutability": "nonpayable",
      "type": "function"
    },
    {
      "constant": false,
      "inputs": [
        {
          "name": "sale",
          "type": "bytes32"
        },
        {
          "name": "refundableSig",
          "type": "bytes"
        },
        {
          "name": "seizableSig",
          "type": "bytes"
        }
      ],
      "name": "provideSig",
      "outputs": [],
      "payable": false,
      "stateMutability": "nonpayable",
      "type": "function"
    },
    {
      "constant": false,
      "inputs": [
        {
          "name": "sale",
          "type": "bytes32"
        },
        {
          "name": "secret_",
          "type": "bytes32"
        }
      ],
      "name": "provideSecret",
      "outputs": [],
      "payable": false,
      "stateMutability": "nonpayable",
      "type": "function"
    },
    {
      "constant": true,
      "inputs": [
        {
          "name": "sale",
          "type": "bytes32"
        }
      ],
      "name": "hasSecrets",
      "outputs": [
        {
          "name": "",
          "type": "bool"
        }
      ],
      "payable": false,
      "stateMutability": "view",
      "type": "function"
    },
    {
      "constant": false,
      "inputs": [
        {
          "name": "sale",
          "type": "bytes32"
        }
      ],
      "name": "accept",
      "outputs": [],
      "payable": false,
      "stateMutability": "nonpayable",
      "type": "function"
    },
    {
      "constant": false,
      "inputs": [
        {
          "name": "sale",
          "type": "bytes32"
        },
        {
          "name": "secrets_",
          "type": "bytes32[3]"
        }
      ],
      "name": "provideSecretsAndAccept",
      "outputs": [],
      "payable": false,
      "stateMutability": "nonpayable",
      "type": "function"
    },
    {
      "constant": false,
      "inputs": [
        {
          "name": "sale",
          "type": "bytes32"
        }
      ],
      "name": "refund",
      "outputs": [],
      "payable": false,
      "stateMutability": "nonpayable",
      "type": "function"
    }
  ],
  "bytecode": "0x60806040523480156200001157600080fd5b5060405162002e4538038062002e45833981810160405260808110156200003757600080fd5b50805160208201516040830151606090930151919290916001600160a01b038416620000c457604080517f08c379a000000000000000000000000000000000000000000000000000000000815260206004820152601e60248201527f4c6f616e732061646472657373206d757374206265206e6f6e2d7a65726f0000604482015290519081900360640190fd5b6001600160a01b0383166200013a57604080517f08c379a000000000000000000000000000000000000000000000000000000000815260206004820152601e60248201527f46756e64732061646472657373206d757374206265206e6f6e2d7a65726f0000604482015290519081900360640190fd5b6001600160a01b0382166200019b576040517f08c379a000000000000000000000000000000000000000000000000000000000815260040180806020018281038252602381526020018062002e226023913960400191505060405180910390fd5b6001600160a01b0381166200021157604080517f08c379a000000000000000000000000000000000000000000000000000000000815260206004820152601e60248201527f546f6b656e2061646472657373206d757374206265206e6f6e2d7a65726f0000604482015290519081900360640190fd5b600380546001600160a01b03199081166001600160a01b03878116918217909355600180548316909117905560008054821686841617808255600280548416878616179055600c80549093168585161792839055604080517f095ea7b30000000000000000000000000000000000000000000000000000000081529185166004830152600019602483015251929093169263095ea7b39260448083019360209383900390910190829087803b158015620002ca57600080fd5b505af1158015620002df573d6000803e3d6000fd5b505050506040513d6020811015620002f657600080fd5b50516200036457604080517f08c379a000000000000000000000000000000000000000000000000000000000815260206004820152601460248201527f546f6b656e20617070726f7665206661696c6564000000000000000000000000604482015290519081900360640190fd5b50505050612aaa80620003786000396000f3fe608060405234801561001057600080fd5b50600436106101a95760003560e01c80636f6d99ab116100f9578063d357691d11610097578063e34abe4c11610071578063e34abe4c146106d2578063e4725ba1146106da578063f7837eb7146106f7578063fc0c546a1461071a576101a9565b8063d357691d14610633578063d4b7a07214610691578063d5f39488146106ae576101a9565b80638642afd1116100d35780638642afd114610513578063a6b7d54e14610530578063b9b8b1fe1461054d578063d34ca8ff14610616576101a9565b80636f6d99ab146103de5780637249fbb6146103fb57806383cd9fbf14610418576101a9565b80632d33c5531161016657806359949df41161014057806359949df41461037a578063602a73f2146103975780636c636ca5146103b95780636ec012e7146103d6576101a9565b80632d33c553146103455780632dab9da31461034d5780633d41a26b14610372576101a9565b806301ec4843146101ae57806302d3af5b146101c85780630c2afd72146101e55780630c4afecf1461027a5780631a81dcab146102f15780631b9e0f8f14610314575b600080fd5b6101b6610722565b60408051918252519081900360200190f35b6101b6600480360360208110156101de57600080fd5b5035610727565b610202600480360360208110156101fb57600080fd5b503561073c565b604080519b8c5260208c019a909a526001600160a01b039889168b8b015296881660608b015294871660808a01529290951660a088015260c08701526bffffffffffffffffffffffff1990931660e0860152911515610100850152901515610120840152151561014083015251908190036101600190f35b6101b6600480360361014081101561029157600080fd5b5080359060208101356001600160a01b03908116916040810135821691606082013581169160808101359091169060a08101359060c08101359060e0810135906101008101359061012001356bffffffffffffffffffffffff19166107b7565b6101b66004803603604081101561030757600080fd5b5080359060200135610b30565b6103316004803603602081101561032a57600080fd5b5035610b5e565b604080519115158252519081900360200190f35b6101b6610bed565b6103706004803603604081101561036357600080fd5b5080359060200135610bf3565b005b6101b6610e03565b6103316004803603602081101561039057600080fd5b5035610e09565b610370600480360360808110156103ad57600080fd5b50803590602001610e28565b6101b6600480360360208110156103cf57600080fd5b5035610e5f565b6101b6610e74565b6101b6600480360360208110156103f457600080fd5b5035610e7a565b6103706004803603602081101561041157600080fd5b5035610e93565b6104356004803603602081101561042e57600080fd5b503561123c565b604051808060200180602001838103835285818151815260200191508051906020019080838360005b8381101561047657818101518382015260200161045e565b50505050905090810190601f1680156104a35780820380516001836020036101000a031916815260200191505b50838103825284518152845160209182019186019080838360005b838110156104d65781810151838201526020016104be565b50505050905090810190601f1680156105035780820380516001836020036101000a031916815260200191505b5094505050505060405180910390f35b6103316004803603602081101561052957600080fd5b503561137b565b6101b66004803603602081101561054657600080fd5b503561139a565b6103706004803603606081101561056357600080fd5b8135919081019060408101602082013564010000000081111561058557600080fd5b82018360208201111561059757600080fd5b803590602001918460018302840111640100000000831117156105b957600080fd5b9193909290916020810190356401000000008111156105d757600080fd5b8201836020820111156105e957600080fd5b8035906020019184600183028401116401000000008311171561060b57600080fd5b5090925090506113b3565b6104356004803603602081101561062c57600080fd5b50356116d0565b6106506004803603602081101561064957600080fd5b503561173c565b604080519889526020890197909752878701959095526060870193909352608086019190915260a085015260c084015260e083015251908190036101000190f35b610435600480360360208110156106a757600080fd5b503561177f565b6106b66117eb565b604080516001600160a01b039092168252519081900360200190f35b6101b66117fa565b610370600480360360208110156106f057600080fd5b5035611800565b6101b66004803603604081101561070d57600080fd5b50803590602001356124ac565b6106b66124d9565b600381565b6000818152600a60205260409020545b919050565b600460208190526000918252604090912080546001820154600283015460038401549484015460058501546006860154600790960154949693956001600160a01b039384169594841694928416939190911691606081901b9060ff600160a01b8204811691600160a81b8104821691600160b01b909104168b565b6001546000906001600160a01b031633146108035760405162461bcd60e51b81526004018080602001828103825260378152602001806126596037913960400191505060405180910390fd5b61081060095460016124e8565b60098190555060095460001b90508a6004600083815260200190815260200160002060000181905550896004600083815260200190815260200160002060030160006101000a8154816001600160a01b0302191690836001600160a01b03160217905550886004600083815260200190815260200160002060040160006101000a8154816001600160a01b0302191690836001600160a01b03160217905550876004600083815260200190815260200160002060050160006101000a8154816001600160a01b0302191690836001600160a01b03160217905550866004600083815260200190815260200160002060020160006101000a8154816001600160a01b0302191690836001600160a01b03160217905550426004600083815260200190815260200160002060060181905550816004600083815260200190815260200160002060070160006101000a8154816001600160a01b03021916908360601c0217905550600160009054906101000a90046001600160a01b03166001600160a01b0316637ff6fecc600160009054906101000a90046001600160a01b03166001600160a01b0316637888938b8e6040518263ffffffff1660e01b81526004018082815260200191505060206040518083038186803b1580156109f257600080fd5b505afa158015610a06573d6000803e3d6000fd5b505050506040513d6020811015610a1c57600080fd5b5051604080516001600160e01b031960e085901b1681526004810192909252516024808301926020929190829003018186803b158015610a5b57600080fd5b505afa158015610a6f573d6000803e3d6000fd5b505050506040513d6020811015610a8557600080fd5b50516000828152600460208181526040808420600180820196909655600701805460ff60a01b1916600160a01b179055600882528084208b8155600281018b905592830189905560069092018790558e8352600a815281832080549485018155835291829020909201839055815183815291517fa7857d7da6974b0157f3bf7dd25a745bd7d81d845bb525ee0b316a87541a5c319281900390910190a19a9950505050505050505050565b600a6020528160005260406000208181548110610b4957fe5b90600052602060002001600091509150505481565b6000818152600860209081526040808320548352600b909152812054819060ff1615610b88576001015b6000838152600860209081526040808320600201548352600b90915290205460ff1615610bb3576001015b6000838152600860209081526040808320600401548352600b90915290205460ff1615610bde576001015b600260ff909116101592915050565b61384081565b600082815260046020526040902060070154600160a01b900460ff16610c4a5760405162461bcd60e51b81526004018080602001828103825260258152602001806129c56025913960400191505060405180910390fd5b6000600282604051602001808281526020019150506040516020818303038152906040526040518082805190602001908083835b60208310610c9d5780518252601f199092019160209182019101610c7e565b51815160209384036101000a60001901801990921691161790526040519190930194509192505080830381855afa158015610cdc573d6000803e3d6000fd5b5050506040513d6020811015610cf157600080fd5b50516000818152600b60209081526040808320805460ff191660011790558683526008909152902054909150811415610d395760008381526008602052604090206001018290555b600083815260086020526040902060020154811415610d675760008381526008602052604090206003018290555b600083815260086020526040902060040154811415610d955760008381526008602052604090206005018290555b600083815260086020526040902060060154811415610dc35760008381526008602052604090206007018290555b604080518481526020810184905281517ff80eaa6f6a26130bce0c1b78b403a835f5a06b7faa9bf2bb60110b6591a939fe929181900390910190a1505050565b60001981565b600090815260046020526040902060070154600160b01b900460ff1690565b610e3a828260005b6020020135610bf3565b610e4682826001610e30565b610e5282826002610e30565b610e5b82611800565b5050565b60009081526004602052604090206001015490565b60095481565b600090815260046020526040902060060154611c200190565b610e9c8161137b565b15610ed85760405162461bcd60e51b81526004018080602001828103825260278152602001806127376027913960400191505060405180910390fd5b610ee181610e09565b15610f1d5760405162461bcd60e51b81526004018080602001828103825260228152602001806126376022913960400191505060405180910390fd5b610f268161139a565b4211610f635760405162461bcd60e51b81526004018080602001828103825260398152602001806126fe6039913960400191505060405180910390fd5b600081815260046020526040902060010154610fb05760405162461bcd60e51b81526004018080602001828103825260328152602001806126056032913960400191505060405180910390fd5b600081815260046020818152604080842060078101805460ff60b01b1916600160b01b179055600c54600282015460019290920154835163a9059cbb60e01b81526001600160a01b03938416968101969096526024860152915191169363a9059cbb936044808201949392918390030190829087803b15801561103257600080fd5b505af1158015611046573d6000803e3d6000fd5b505050506040513d602081101561105c57600080fd5b50516110995760405162461bcd60e51b815260040180806020018281038252603181526020018061295e6031913960400191505060405180910390fd5b6000818152600460205260409020546003906110b490610727565b141561120657600c54600082815260046020818152604092839020600381015460015491548551633e4b2a2960e01b81529485015293516001600160a01b039586169563a9059cbb95811694921692633e4b2a299260248082019391829003018186803b15801561112457600080fd5b505afa158015611138573d6000803e3d6000fd5b505050506040513d602081101561114e57600080fd5b5051604080516001600160e01b031960e086901b1681526001600160a01b03909316600484015260248301919091525160448083019260209291908290030181600087803b15801561119f57600080fd5b505af11580156111b3573d6000803e3d6000fd5b505050506040513d60208110156111c957600080fd5b50516112065760405162461bcd60e51b815260040180806020018281038252602f8152602001806126cf602f913960400191505060405180910390fd5b6040805182815290517f3fbd469ec3a5ce074f975f76ce27e727ba21c99176917b97ae2e713695582a129181900360200190a150565b60076020908152600091825260409182902080548351601f600260001961010060018616150201909316929092049182018490048402810184019094528084529092918391908301828280156112d35780601f106112a8576101008083540402835291602001916112d3565b820191906000526020600020905b8154815290600101906020018083116112b657829003601f168201915b505050505090806001018054600181600116156101000203166002900480601f0160208091040260200160405190810160405280929190818152602001828054600181600116156101000203166002900480156113715780601f1061134657610100808354040283529160200191611371565b820191906000526020600020905b81548152906001019060200180831161135457829003601f168201915b5050505050905082565b600090815260046020526040902060070154600160a81b900460ff1690565b6000908152600460205260409020600601546138400190565b600085815260046020526040902060070154600160a01b900460ff1661140a5760405162461bcd60e51b8152600401808060200182810382526022815260200180612a266022913960400191505060405180910390fd5b6114138561139a565b42106114505760405162461bcd60e51b815260040180806020018281038252604681526020018061279a6046913960600191505060405180910390fd5b6000801b61149385858080601f0160208091040260200160405190810160405280939291908181526020018383808284376000920191909152506124fe92505050565b14156114d05760405162461bcd60e51b81526004018080602001828103825260308152602001806127e06030913960400191505060405180910390fd5b6000801b61151383838080601f0160208091040260200160405190810160405280939291908181526020018383808284376000920191909152506124fe92505050565b14156115505760405162461bcd60e51b815260040180806020018281038252602e815260200180612a48602e913960400191505060405180910390fd5b6000858152600460205260409020600301546001600160a01b03163314156115ae57600085815260056020526040902061158b908585612569565b5060008581526005602052604090206115a8906001018383612569565b50611696565b600085815260046020819052604090912001546001600160a01b03163314156116075760008581526006602052604090206115ea908585612569565b5060008581526006602052604090206115a8906001018383612569565b6000858152600460205260409020600501546001600160a01b031633141561165f576000858152600760205260409020611642908585612569565b5060008581526007602052604090206115a8906001018383612569565b60405162461bcd60e51b815260040180806020018281038252603f815260200180612690603f913960400191505060405180910390fd5b6040805186815290517ff98d757f7fa760922c13df6fd498f5f17a6ebe23ffc37844e1504311efa13fc79181900360200190a15050505050565b60066020908152600091825260409182902080548351601f600260001961010060018616150201909316929092049182018490048402810184019094528084529092918391908301828280156112d35780601f106112a8576101008083540402835291602001916112d3565b6008602052600090815260409020805460018201546002830154600384015460048501546005860154600687015460079097015495969495939492939192909188565b60056020908152600091825260409182902080548351601f600260001961010060018616150201909316929092049182018490048402810184019094528084529092918391908301828280156112d35780601f106112a8576101008083540402835291602001916112d3565b6003546001600160a01b031681565b611c2081565b6118098161137b565b156118455760405162461bcd60e51b815260040180806020018281038252602f81526020018061292f602f913960400191505060405180910390fd5b61184e81610e09565b1561188a5760405162461bcd60e51b815260040180806020018281038252602a815260200180612905602a913960400191505060405180910390fd5b61189381610b5e565b6118ce5760405162461bcd60e51b81526004018080602001828103825260388152602001806128106038913960400191505060405180910390fd5b6000818152600860209081526040808320600601548352600b90915290205460ff1661192b5760405162461bcd60e51b815260040180806020018281038252603681526020018061298f6036913960400191505060405180910390fd5b600081815260046020818152604080842060078101805460ff60a81b1916600160a81b179055600181810154905491548351633e4b2a2960e01b81529586015291516119d29492936001600160a01b0390921692633e4b2a29926024808301939192829003018186803b1580156119a157600080fd5b505afa1580156119b5573d6000803e3d6000fd5b505050506040513d60208110156119cb57600080fd5b50516124e8565b6000838152600460205260409020600501549091506001600160a01b031615801590611a8057506001546000838152600460208181526040928390205483516313e6d58360e11b81529283015291516001600160a01b03909316926327cdab0692602480840193919291829003018186803b158015611a5057600080fd5b505afa158015611a64573d6000803e3d6000fd5b505050506040513d6020811015611a7a57600080fd5b50518110155b15611c6057600c546000838152600460208181526040928390206005810154600154915485516313e6d58360e11b81529485015293516001600160a01b039586169563a9059cbb958116949216926327cdab069260248082019391829003018186803b158015611aef57600080fd5b505afa158015611b03573d6000803e3d6000fd5b505050506040513d6020811015611b1957600080fd5b5051604080516001600160e01b031960e086901b1681526001600160a01b03909316600484015260248301919091525160448083019260209291908290030181600087803b158015611b6a57600080fd5b505af1158015611b7e573d6000803e3d6000fd5b505050506040513d6020811015611b9457600080fd5b5051611bd15760405162461bcd60e51b81526004018080602001828103825260358152602001806128d06035913960400191505060405180910390fd5b6001546000838152600460208181526040928390205483516313e6d58360e11b8152928301529151611c5d9385936001600160a01b03909116926327cdab069260248083019392829003018186803b158015611c2c57600080fd5b505afa158015611c40573d6000803e3d6000fd5b505050506040513d6020811015611c5657600080fd5b505161251c565b90505b60015460008381526004602081815260408084205481516307b4b9b760e51b815293840152519293611cec9386936001600160a01b039092169263f69736e09260248082019391829003018186803b158015611cbb57600080fd5b505afa158015611ccf573d6000803e3d6000fd5b505050506040513d6020811015611ce557600080fd5b505161252c565b600154600085815260046020818152604080842054815163a5d9dc7b60e01b8152938401525194955091936001600160a01b039093169263a5d9dc7b92602480840193919291829003018186803b158015611d4657600080fd5b505afa158015611d5a573d6000803e3d6000fd5b505050506040513d6020811015611d7057600080fd5b50511415611e4757600c546000848152600460208181526040808420830154815163a9059cbb60e01b81526001600160a01b039182169481019490945260248401879052905194169363a9059cbb936044808501948390030190829087803b158015611ddb57600080fd5b505af1158015611def573d6000803e3d6000fd5b505050506040513d6020811015611e0557600080fd5b5051611e425760405162461bcd60e51b815260040180806020018281038252603c81526020018061275e603c913960400191505060405180910390fd5b611f32565b600080546001548583526004602081815260409485902054855163a5d9dc7b60e01b81529283015293516001600160a01b0393841694631de26e16949093169263a5d9dc7b9260248082019391829003018186803b158015611ea857600080fd5b505afa158015611ebc573d6000803e3d6000fd5b505050506040513d6020811015611ed257600080fd5b5051604080516001600160e01b031960e085901b16815260048101929092526024820185905251604480830192600092919082900301818387803b158015611f1957600080fd5b505af1158015611f2d573d6000803e3d6000fd5b505050505b611f3c828261251c565b60015460008581526004602081815260409283902054835163026fc75960e41b81529283015291519395506001600160a01b03909216926326fc7590926024808201939291829003018186803b158015611f9557600080fd5b505afa158015611fa9573d6000803e3d6000fd5b505050506040513d6020811015611fbf57600080fd5b5051821061226857600c5460025460015460008681526004602081815260409283902054835163026fc75960e41b81529283015291516001600160a01b039586169563095ea7b39581169416926326fc75909260248082019391829003018186803b15801561202d57600080fd5b505afa158015612041573d6000803e3d6000fd5b505050506040513d602081101561205757600080fd5b5051604080516001600160e01b031960e086901b1681526001600160a01b03909316600484015260248301919091525160448083019260209291908290030181600087803b1580156120a857600080fd5b505af11580156120bc573d6000803e3d6000fd5b505050506040513d60208110156120d257600080fd5b505161210f5760405162461bcd60e51b815260040180806020018281038252603c8152602001806129ea603c913960400191505060405180910390fd5b60025460015460008581526004602081815260409283902054835163026fc75960e41b81529283015291516001600160a01b039485169463eee923959416926326fc75909260248082019391829003018186803b15801561216f57600080fd5b505afa158015612183573d6000803e3d6000fd5b505050506040513d602081101561219957600080fd5b5051600c54604080516001600160e01b031960e086901b16815260048101939093526001600160a01b03909116602483015251604480830192600092919082900301818387803b1580156121ec57600080fd5b505af1158015612200573d6000803e3d6000fd5b505060015460008681526004602081815260409283902054835163026fc75960e41b815292830152915161226195508794506001600160a01b03909316926326fc759092602480840193919291829003018186803b158015611c2c57600080fd5b91506123a3565b81156123a357600c546002546040805163095ea7b360e01b81526001600160a01b039283166004820152602481018690529051919092169163095ea7b39160448083019260209291908290030181600087803b1580156122c757600080fd5b505af11580156122db573d6000803e3d6000fd5b505050506040513d60208110156122f157600080fd5b505161232e5760405162461bcd60e51b815260040180806020018281038252604581526020018061288b6045913960600191505060405180910390fd5b600254600c546040805163eee9239560e01b8152600481018690526001600160a01b0392831660248201529051919092169163eee9239591604480830192600092919082900301818387803b15801561238657600080fd5b505af115801561239a573d6000803e3d6000fd5b50505050600091505b811561247457600c54600084815260046020818152604080842060030154815163a9059cbb60e01b81526001600160a01b039182169481019490945260248401889052905194169363a9059cbb936044808501948390030190829087803b15801561240d57600080fd5b505af1158015612421573d6000803e3d6000fd5b505050506040513d602081101561243757600080fd5b50516124745760405162461bcd60e51b81526004018080602001828103825260438152602001806128486043913960600191505060405180910390fd5b6040805184815290517fa788588b9fe5992d98bf478f760ddc82bc8a1ebd018abd2094ec88bbdf5e27a79181900360200190a1505050565b60006305f5e1006124ca6124c08585612545565b6302faf0806124e8565b816124d157fe5b049392505050565b600c546001600160a01b031681565b808201828110156124f857600080fd5b92915050565b80516000908290612513575060009050610737565b50506020015190565b808203828111156124f857600080fd5b60008183111561253c578161253e565b825b9392505050565b60008115806125605750508082028282828161255d57fe5b04145b6124f857600080fd5b828054600181600116156101000203166002900490600052602060002090601f016020900481019282601f106125aa5782800160ff198235161785556125d7565b828001600101855582156125d7579182015b828111156125d75782358255916020019190600101906125bc565b506125e39291506125e7565b5090565b61260191905b808211156125e357600081556001016125ed565b9056fe53616c65732e726566756e643a20446973636f756e742042757920616d6f756e74206d757374206265206e6f6e2d7a65726f53616c65732e726566756e643a2053616c65206d757374206e6f74206265206f666653616c65732e6372656174653a204f6e6c7920746865204c6f616e7320636f6e74726163742063616e2063726561746520612053616c654c6f616e732e70726f766964655369673a204d7573742062652063616c6c656420627920426f72726f7765722c204c656e646572206f72204172626974657253616c65732e726566756e643a20546f6b656e207472616e7366657220746f20426f72726f776572206661696c656453616c65732e726566756e643a2043616e206f6e6c7920726566756e6420616674657220736574746c656d656e742065787069726174696f6e53616c65732e726566756e643a2053616c65206d757374206e6f7420626520616363657074656453616c65732e6163636570743a20546f6b656e207472616e73666572206f6620616d6f756e74206c65667420746f204c656e646572206661696c656453616c65732e70726f766964655369673a2043616e6e6f742070726f76696465207369676e617475726520616674657220736574746c656d656e742065787069726174696f6e53616c65732e70726f766964655369673a20726566756e6461626c65536967206d757374206265206e6f6e2d7a65726f53616c65732e6163636570743a2053656372657473206e65656420746f206861766520616c7265616479206265656e2072657665616c656453616c65732e6163636570743a20546f6b656e207472616e73666572206f6620746f6b656e7320617661696c61626c6520746f20426f72726f776572206661696c656453616c65732e6163636570743a20546f6b656e207472616e73666572206f6620746f6b656e7320617661696c61626c6520746f204d656469616e697a6572206661696c656453616c65732e6163636570743a20546f6b656e207472616e73666572206f662066656520746f2041726269746572206661696c656453616c65732e6163636570743a2053616c65206d757374206e6f7420616c7265616479206265206f666653616c65732e6163636570743a2053616c65206d757374206e6f7420616c726561647920626520616363657074656453616c65732e726566756e643a20546f6b656e207472616e7366657220746f204c697175696461746f72206661696c656453616c65732e6163636570743a205365637265742044206d757374206861766520616c7265616479206265656e2072657665616c656453616c65732e70726f766964655365637265743a2053616c65206d7573742062652073657453616c65732e6163636570743a20546f6b656e207472616e73666572206f662070656e616c747920746f204d656469616e697a6572206661696c656453616c65732e70726f766964655369673a2053616c65206d7573742062652073657453616c65732e70726f766964655369673a207365697a61626c65536967206d757374206265206e6f6e2d7a65726fa265627a7a72305820e708b2d0a42a7f425a02a2914b5433a4ebcc73bb22713b23d0460a34a960c8a364736f6c634300050a00324d656469616e697a65722061646472657373206d757374206265206e6f6e2d7a65726f",
  "source": "pragma solidity 0.5.10;\n\nimport 'openzeppelin-solidity/contracts/token/ERC20/ERC20.sol';\nimport 'openzeppelin-solidity/contracts/math/SafeMath.sol';\n\nimport {BytesLib} from \"@summa-tx/bitcoin-spv-sol/contracts/BytesLib.sol\";\n\nimport './Loans.sol';\nimport './Medianizer.sol';\nimport './DSMath.sol';\n\n/**\n * @title Atomic Loans Sales Contract\n * @author Atomic Loans\n */\ncontract Sales is DSMath {\n    FundsInterface funds;\n    Loans loans;\n    Medianizer med;\n\n    uint256 public constant SWAP_EXP = 2 hours;       // Swap Expiration\n    uint256 public constant SETTLEMENT_EXP = 4 hours; // Settlement Expiration\n    uint256 public constant MAX_NUM_LIQUIDATIONS = 3; // Maximum number of liquidations that can occur\n    uint256 public constant MAX_UINT_256 = 2**256-1;\n\n    address public deployer; // Only the Loans contract can edit data\n\n    mapping (bytes32 => Sale)       public sales;        // Auctions\n    mapping (bytes32 => Sig)        public borrowerSigs; // Borrower Signatures\n    mapping (bytes32 => Sig)        public lenderSigs;   // Lender Signatures\n    mapping (bytes32 => Sig)        public arbiterSigs;  // Arbiter Signatures\n    mapping (bytes32 => SecretHash) public secretHashes; // Auction Secret Hashes\n    uint256                         public saleIndex;    // Auction Index\n\n    mapping (bytes32 => bytes32[])  public saleIndexByLoan; // Loan Auctions (find by loanIndex)\n\n    mapping(bytes32 => bool) revealed;\n\n    ERC20 public token;\n\n    /**\n     * @notice Container for the sale information\n     * @member loanIndex The Id of the loan\n     * @member discountBuy The amount in tokens that the Bitcoin collateral was bought for at discount\n     * @member liquidator The address of the liquidator (party that buys the Bitcoin collateral at a discount)\n     * @member borrower The address of the borrower\n     * @member lender The address of the lender\n     * @member arbiter The address of the arbiter\n     * @member createAt The creation timestamp of the sale\n     * @member pubKeyHash The Bitcoin Public Key Hash of the liquidator\n     * @member set Indicates that the sale at this specific index has been opened\n     * @member accepted Indicates that the discountBuy has been accepted\n     * @member off Indicates that the Sale is failed\n     */\n    struct Sale {\n        bytes32    loanIndex;\n        uint256    discountBuy;\n        address    liquidator;\n        address    borrower;\n        address    lender;\n        address    arbiter;\n        uint256    createdAt;\n        bytes20    pubKeyHash;\n        bool       set;\n        bool       accepted;\n        bool       off;\n    }\n\n    /**\n     * @notice Container for the Bitcoin refundable and seizable signature information\n     * @member refundableSig The Bitcoin refundable signature to move collateral to swap P2WSH\n     * @member seizableSig The Bitcoin seizable signature to move collateral to swap P2WSH\n     */\n    struct Sig {\n        bytes refundableSig;\n        bytes seizableSig;\n    }\n\n    /**\n     * @notice Container for the Bitcoin Secret and Secret Hashes information\n     */\n    struct SecretHash {\n        bytes32 secretHashA; // Secret Hash A\n        bytes32 secretA;     // Secret A\n        bytes32 secretHashB; // Secret Hash B\n        bytes32 secretB;     // Secret B\n        bytes32 secretHashC; // Secret Hash C\n        bytes32 secretC;     // Secret C\n        bytes32 secretHashD; // Secret Hash D\n        bytes32 secretD;     // Secret D\n    }\n\n    event Create(bytes32 sale);\n\n    event ProvideSig(bytes32 sale);\n\n    event ProvideSecret(bytes32 sale, bytes32 secret_);\n\n    event Accept(bytes32 sale);\n\n    event Refund(bytes32 sale);\n\n    /**\n     * @notice Get Discount Buy price for a Sale\n     * @param sale The Id of a Sale\n     * @return Value of the Discount Buy price\n     */\n    function discountBuy(bytes32 sale) external view returns (uint256) {\n        return sales[sale].discountBuy;\n    }\n\n    /**\n     * @notice Get the Swap Expiration of a Sale\n     * @param sale The Id of a Sale\n     * @return Swap Expiration Timestamp\n     */\n    function swapExpiration(bytes32 sale) external view returns (uint256) {\n        return sales[sale].createdAt + SWAP_EXP;\n    }\n\n    /**\n     * @notice Get the Settlement Expiration of a Sale\n     * @param sale The Id of a Sale\n     * @return Settlement Expiration Timestamp\n     */\n    function settlementExpiration(bytes32 sale) public view returns (uint256) {\n        return sales[sale].createdAt + SETTLEMENT_EXP;\n    }\n\n    /**\n     * @notice Get the accepted status of a Sale\n     * @param sale The Id of a Sale\n     * @return Bool that indicates whether Sale has been accepted\n     */\n    function accepted(bytes32 sale) public view returns (bool) {\n        return sales[sale].accepted;\n    }\n\n    /**\n     * @notice Get the off status of a Sale\n     * @param sale The Id of a Sale\n     * @return Bool that indicates whether Sale has been terminated\n     */\n    function off(bytes32 sale) public view returns (bool) {\n        return sales[sale].off;\n    }\n\n    /**\n     * @notice Construct a new Sales contract\n     * @param loans_ The address of the Loans contract\n     * @param funds_ The address of the Funds contract\n     * @param med_ The address of the Medianizer contract\n     * @param token_ The stablecoin token address\n     */\n    constructor (Loans loans_, FundsInterface funds_, Medianizer med_, ERC20 token_) public {\n        require(address(loans_) != address(0), \"Loans address must be non-zero\");\n        require(address(funds_) != address(0), \"Funds address must be non-zero\");\n        require(address(med_) != address(0), \"Medianizer address must be non-zero\");\n        require(address(token_) != address(0), \"Token address must be non-zero\");\n    \tdeployer = address(loans_);\n        loans = loans_;\n        funds = funds_;\n        med = med_;\n        token = token_;\n        require(token.approve(address(funds), MAX_UINT_256), \"Token approve failed\");\n    }\n\n    /**\n     * @notice Get the next Sale for a Loan\n     * @param loan The Id of a Loan\n     * @return Bool that indicates whether Sale has been terminated\n     */\n    function next(bytes32 loan) public view returns (uint256) {\n    \treturn saleIndexByLoan[loan].length;\n    }\n\n    /**\n     * @notice Creates a new sale (called by the Loans contract)\n     * @param loanIndex The Id of the Loan\n     * @param borrower The address of the borrower\n     * @param lender The address of the lender\n     * @param arbiter The address of the arbiter\n     * @param liquidator The address of the liquidator\n     * @param secretHashA The Secret Hash of the Borrower for the current sale number\n     * @param secretHashB The Secret Hash of the Lender for the current sale number\n     * @param secretHashC The Secret Hash of the Arbiter for the current sale number\n     * @param secretHashD the Secret Hash of the Liquidator\n     * @param pubKeyHash The Bitcoin Public Key Hash of the Liquidator\n     * @return sale The Id of the sale\n     */\n    function create(\n        bytes32 loanIndex,\n        address borrower,\n        address lender,\n        address arbiter,\n        address liquidator,\n        bytes32 secretHashA,\n        bytes32 secretHashB,\n        bytes32 secretHashC,\n        bytes32 secretHashD,\n        bytes20 pubKeyHash\n        ) external returns(bytes32 sale) {\n        require(msg.sender == address(loans), \"Sales.create: Only the Loans contract can create a Sale\");\n        saleIndex = add(saleIndex, 1);\n        sale = bytes32(saleIndex);\n        sales[sale].loanIndex = loanIndex;\n        sales[sale].borrower = borrower;\n        sales[sale].lender = lender;\n        sales[sale].arbiter = arbiter;\n        sales[sale].liquidator = liquidator;\n        sales[sale].createdAt = now;\n        sales[sale].pubKeyHash = pubKeyHash;\n        sales[sale].discountBuy = loans.ddiv(loans.discountCollateralValue(loanIndex));\n        sales[sale].set = true;\n        secretHashes[sale].secretHashA = secretHashA;\n        secretHashes[sale].secretHashB = secretHashB;\n        secretHashes[sale].secretHashC = secretHashC;\n        secretHashes[sale].secretHashD = secretHashD;\n        saleIndexByLoan[loanIndex].push(sale);\n\n        emit Create(sale);\n   }\n\n    /**\n     * @notice Provide Bitcoin signatures for moving collateral to collateral swap script\n     * @param sale The Id of the sale\n     * @param refundableSig The Bitcoin refundable collateral signature\n     * @param seizableSig The Bitcoin seizable collateral signature\n     *\n     *         Note: More info on the collateral swap script can be seen here:\n                     https://github.com/AtomicLoans/chainabstractionlayer-loans\n    */\n    function provideSig(\n        bytes32        sale,\n        bytes calldata refundableSig,\n        bytes calldata seizableSig\n    ) external {\n        require(sales[sale].set, \"Sales.provideSig: Sale must be set\");\n        require(now < settlementExpiration(sale), \"Sales.provideSig: Cannot provide signature after settlement expiration\");\n        require(BytesLib.toBytes32(refundableSig) != bytes32(0), \"Sales.provideSig: refundableSig must be non-zero\");\n        require(BytesLib.toBytes32(seizableSig) != bytes32(0), \"Sales.provideSig: seizableSig must be non-zero\");\n        if (msg.sender == sales[sale].borrower) {\n            borrowerSigs[sale].refundableSig = refundableSig;\n            borrowerSigs[sale].seizableSig = seizableSig;\n        } else if (msg.sender == sales[sale].lender) {\n            lenderSigs[sale].refundableSig = refundableSig;\n            lenderSigs[sale].seizableSig = seizableSig;\n        } else if (msg.sender == sales[sale].arbiter) {\n            arbiterSigs[sale].refundableSig = refundableSig;\n            arbiterSigs[sale].seizableSig = seizableSig;\n        } else {\n            revert(\"Loans.provideSig: Must be called by Borrower, Lender or Arbiter\");\n        }\n\n        emit ProvideSig(sale);\n    }\n\n    /**\n     * @notice Provide secret to enable liquidator to claim collateral\n     * @param secret_ The secret provided by the borrower, lender, arbiter, or liquidator\n     */\n    function provideSecret(bytes32 sale, bytes32 secret_) public {\n        require(sales[sale].set, \"Sales.provideSecret: Sale must be set\");\n        bytes32 secretHash = sha256(abi.encodePacked(secret_));\n        revealed[secretHash] = true;\n        if (secretHash == secretHashes[sale].secretHashA) {secretHashes[sale].secretA = secret_;}\n        if (secretHash == secretHashes[sale].secretHashB) {secretHashes[sale].secretB = secret_;}\n        if (secretHash == secretHashes[sale].secretHashC) {secretHashes[sale].secretC = secret_;}\n        if (secretHash == secretHashes[sale].secretHashD) {secretHashes[sale].secretD = secret_;}\n\n        emit ProvideSecret(sale, secret_);\n    }\n\n    /**\n     * @notice Indicates that two of Secret A, Secret B, Secret C have been submitted\n     * @param sale The Id of the sale\n     */\n    function hasSecrets(bytes32 sale) public view returns (bool) {\n        uint8 numCorrectSecrets = 0;\n        if (revealed[secretHashes[sale].secretHashA]) {numCorrectSecrets += 1;}\n        if (revealed[secretHashes[sale].secretHashB]) {numCorrectSecrets += 1;}\n        if (revealed[secretHashes[sale].secretHashC]) {numCorrectSecrets += 1;}\n        return (numCorrectSecrets >= 2);\n    }\n\n    /**\n     * @notice Accept discount buy by liquidator and disperse funds to rightful parties\n     * @param sale The Id of the sale\n     */\n    function accept(bytes32 sale) public {\n        require(!accepted(sale), \"Sales.accept: Sale must not already be accepted\");\n        require(!off(sale), \"Sales.accept: Sale must not already be off\");\n        require(hasSecrets(sale), \"Sales.accept: Secrets need to have already been revealed\");\n        require(revealed[secretHashes[sale].secretHashD], \"Sales.accept: Secret D must have already been revealed\");\n        sales[sale].accepted = true;\n\n        // First calculate available funds that can be dispursed\n        uint256 available = add(sales[sale].discountBuy, loans.repaid(sales[sale].loanIndex));\n\n        // Use available funds to pay Arbiter fee\n        if (sales[sale].arbiter != address(0) && available >= loans.fee(sales[sale].loanIndex)) {\n            require(token.transfer(sales[sale].arbiter, loans.fee(sales[sale].loanIndex)), \"Sales.accept: Token transfer of fee to Arbiter failed\");\n            available = sub(available, loans.fee(sales[sale].loanIndex));\n        }\n\n        // Determine amount remaining after removing owedToLender from available\n        uint256 amount = min(available, loans.owedToLender(sales[sale].loanIndex));\n\n        // Transfer amount owedToLender to Lender or Deposit into their Fund if they have one\n        if (loans.fundIndex(sales[sale].loanIndex) == bytes32(0)) {\n            require(token.transfer(sales[sale].lender, amount), \"Sales.accept: Token transfer of amount left to Lender failed\");\n        } else {\n            funds.deposit(loans.fundIndex(sales[sale].loanIndex), amount);\n        }\n\n        // Calculate available Funds after subtracting amount owed to Lender\n        available = sub(available, amount);\n\n        // Send penalty amount to oracles if there is enough available, else transfer remaining funds to oracles\n        if (available >= loans.penalty(sales[sale].loanIndex)) {\n            require(token.approve(address(med), loans.penalty(sales[sale].loanIndex)), \"Sales.accept: Token transfer of penalty to Medianizer failed\");\n            med.fund(loans.penalty(sales[sale].loanIndex), token);\n            available = sub(available, loans.penalty(sales[sale].loanIndex));\n        } else if (available > 0) {\n            require(token.approve(address(med), available), \"Sales.accept: Token transfer of tokens available to Medianizer failed\");\n            med.fund(available, token);\n            available = 0;\n        }\n\n        // If there are still funds available after repaying all other parties, send the remaining funds to the Borrower\n        if (available > 0) {\n            require(token.transfer(sales[sale].borrower, available), \"Sales.accept: Token transfer of tokens available to Borrower failed\");\n        }\n\n        emit Accept(sale);\n    }\n\n     /**\n     * @notice Provide secrets to enable liquidator to claim collateral then accept discount buy to disperse funds to rightful parties\n     * @param sale The Id of the sale\n     * @param secrets_ The secrets provided by the borrower, lender, arbiter, or liquidator\n     */\n    function provideSecretsAndAccept(bytes32 sale, bytes32[3] calldata secrets_) external {\n        provideSecret(sale, secrets_[0]);\n        provideSecret(sale, secrets_[1]);\n        provideSecret(sale, secrets_[2]);\n        accept(sale);\n    }\n\n    /**\n     * @notice Refund discount buy to liquidator\n     * @param sale The Id of the sale\n     */\n    function refund(bytes32 sale) external {\n        require(!accepted(sale), \"Sales.refund: Sale must not be accepted\");\n        require(!off(sale), \"Sales.refund: Sale must not be off\");\n        require(now > settlementExpiration(sale), \"Sales.refund: Can only refund after settlement expiration\");\n        require(sales[sale].discountBuy > 0, \"Sales.refund: Discount Buy amount must be non-zero\");\n        sales[sale].off = true;\n        require(token.transfer(sales[sale].liquidator, sales[sale].discountBuy), \"Sales.refund: Token transfer to Liquidator failed\");\n        if (next(sales[sale].loanIndex) == MAX_NUM_LIQUIDATIONS) {\n            require(token.transfer(sales[sale].borrower, loans.repaid(sales[sale].loanIndex)), \"Sales.refund: Token transfer to Borrower failed\");\n        }\n\n        emit Refund(sale);\n    }\n}\n",
  "sourcePath": "/Users/matthewblack/atomicloans/atomicloans-eth-contracts/contracts/Sales.sol",
  "compiler": {
    "name": "solc",
    "version": "0.5.10+commit.5a6ea5b1.Emscripten.clang"
  },
  "schemaVersion": "3.0.23",
  "updatedAt": "2020-04-25T07:10:11.027Z",
  "networkType": "ethereum",
  "devdoc": {
    "author": "Atomic Loans",
    "methods": {
      "accept(bytes32)": {
        "params": {
          "sale": "The Id of the sale"
        }
      },
      "accepted(bytes32)": {
        "params": {
          "sale": "The Id of a Sale"
        },
        "return": "Bool that indicates whether Sale has been accepted"
      },
      "constructor": {
        "params": {
          "funds_": "The address of the Funds contract",
          "loans_": "The address of the Loans contract",
          "med_": "The address of the Medianizer contract",
          "token_": "The stablecoin token address"
        }
      },
      "create(bytes32,address,address,address,address,bytes32,bytes32,bytes32,bytes32,bytes20)": {
        "params": {
          "arbiter": "The address of the arbiter",
          "borrower": "The address of the borrower",
          "lender": "The address of the lender",
          "liquidator": "The address of the liquidator",
          "loanIndex": "The Id of the Loan",
          "pubKeyHash": "The Bitcoin Public Key Hash of the Liquidator",
          "secretHashA": "The Secret Hash of the Borrower for the current sale number",
          "secretHashB": "The Secret Hash of the Lender for the current sale number",
          "secretHashC": "The Secret Hash of the Arbiter for the current sale number",
          "secretHashD": "the Secret Hash of the Liquidator"
        },
        "return": "sale The Id of the sale"
      },
      "discountBuy(bytes32)": {
        "params": {
          "sale": "The Id of a Sale"
        },
        "return": "Value of the Discount Buy price"
      },
      "hasSecrets(bytes32)": {
        "params": {
          "sale": "The Id of the sale"
        }
      },
      "next(bytes32)": {
        "params": {
          "loan": "The Id of a Loan"
        },
        "return": "Bool that indicates whether Sale has been terminated"
      },
      "off(bytes32)": {
        "params": {
          "sale": "The Id of a Sale"
        },
        "return": "Bool that indicates whether Sale has been terminated"
      },
      "provideSecret(bytes32,bytes32)": {
        "params": {
          "secret_": "The secret provided by the borrower, lender, arbiter, or liquidator"
        }
      },
      "provideSecretsAndAccept(bytes32,bytes32[3])": {
        "params": {
          "sale": "The Id of the sale",
          "secrets_": "The secrets provided by the borrower, lender, arbiter, or liquidator"
        }
      },
      "provideSig(bytes32,bytes,bytes)": {
        "params": {
          "refundableSig": "The Bitcoin refundable collateral signature",
          "sale": "The Id of the sale",
          "seizableSig": "The Bitcoin seizable collateral signature     *         Note: More info on the collateral swap script can be seen here: https://github.com/AtomicLoans/chainabstractionlayer-loans"
        }
      },
      "refund(bytes32)": {
        "params": {
          "sale": "The Id of the sale"
        }
      },
      "settlementExpiration(bytes32)": {
        "params": {
          "sale": "The Id of a Sale"
        },
        "return": "Settlement Expiration Timestamp"
      },
      "swapExpiration(bytes32)": {
        "params": {
          "sale": "The Id of a Sale"
        },
        "return": "Swap Expiration Timestamp"
      }
    },
    "title": "Atomic Loans Sales Contract"
  },
  "userdoc": {
    "methods": {
      "accept(bytes32)": {
        "notice": "Accept discount buy by liquidator and disperse funds to rightful parties"
      },
      "accepted(bytes32)": {
        "notice": "Get the accepted status of a Sale"
      },
      "constructor": "Construct a new Sales contract",
      "create(bytes32,address,address,address,address,bytes32,bytes32,bytes32,bytes32,bytes20)": {
        "notice": "Creates a new sale (called by the Loans contract)"
      },
      "discountBuy(bytes32)": {
        "notice": "Get Discount Buy price for a Sale"
      },
      "hasSecrets(bytes32)": {
        "notice": "Indicates that two of Secret A, Secret B, Secret C have been submitted"
      },
      "next(bytes32)": {
        "notice": "Get the next Sale for a Loan"
      },
      "off(bytes32)": {
        "notice": "Get the off status of a Sale"
      },
      "provideSecret(bytes32,bytes32)": {
        "notice": "Provide secret to enable liquidator to claim collateral"
      },
      "provideSecretsAndAccept(bytes32,bytes32[3])": {
        "notice": "Provide secrets to enable liquidator to claim collateral then accept discount buy to disperse funds to rightful parties"
      },
      "provideSig(bytes32,bytes,bytes)": {
        "notice": "Provide Bitcoin signatures for moving collateral to collateral swap script"
      },
      "refund(bytes32)": {
        "notice": "Refund discount buy to liquidator"
      },
      "settlementExpiration(bytes32)": {
        "notice": "Get the Settlement Expiration of a Sale"
      },
      "swapExpiration(bytes32)": {
        "notice": "Get the Swap Expiration of a Sale"
      }
    }
  }
}